{
  "_format": "hh-sol-artifact-1",
  "contractName": "A_STASISTOKEN",
  "sourceName": "contracts/MAIN_TOKEN.sol",
  "abi": [
    {
      "inputs": [
        {
          "internalType": "address",
          "name": "swapAddress",
          "type": "address"
        },
        {
          "internalType": "address",
          "name": "loanAddress",
          "type": "address"
        },
        {
          "internalType": "address",
          "name": "_usdc",
          "type": "address"
        }
      ],
      "stateMutability": "nonpayable",
      "type": "constructor"
    },
    {
      "anonymous": false,
      "inputs": [
        {
          "indexed": true,
          "internalType": "address",
          "name": "owner",
          "type": "address"
        },
        {
          "indexed": true,
          "internalType": "address",
          "name": "spender",
          "type": "address"
        },
        {
          "indexed": false,
          "internalType": "uint256",
          "name": "value",
          "type": "uint256"
        }
      ],
      "name": "Approval",
      "type": "event"
    },
    {
      "anonymous": false,
      "inputs": [
        {
          "indexed": true,
          "internalType": "address",
          "name": "user",
          "type": "address"
        },
        {
          "indexed": true,
          "internalType": "uint256",
          "name": "loanId",
          "type": "uint256"
        },
        {
          "indexed": false,
          "internalType": "address",
          "name": "token",
          "type": "address"
        },
        {
          "indexed": false,
          "internalType": "uint256",
          "name": "collateralAmount",
          "type": "uint256"
        },
        {
          "indexed": false,
          "internalType": "uint256",
          "name": "borrowedAmount",
          "type": "uint256"
        },
        {
          "indexed": false,
          "internalType": "uint256",
          "name": "liquidationTime",
          "type": "uint256"
        }
      ],
      "name": "LeverageCreated",
      "type": "event"
    },
    {
      "anonymous": false,
      "inputs": [
        {
          "indexed": false,
          "internalType": "uint256",
          "name": "amountToken",
          "type": "uint256"
        },
        {
          "indexed": false,
          "internalType": "uint256",
          "name": "amountUSDC",
          "type": "uint256"
        },
        {
          "indexed": false,
          "internalType": "uint256",
          "name": "liquidity",
          "type": "uint256"
        }
      ],
      "name": "LiquidityAdded",
      "type": "event"
    },
    {
      "anonymous": false,
      "inputs": [
        {
          "indexed": true,
          "internalType": "address",
          "name": "user",
          "type": "address"
        },
        {
          "indexed": true,
          "internalType": "uint256",
          "name": "loanId",
          "type": "uint256"
        },
        {
          "indexed": false,
          "internalType": "address",
          "name": "token",
          "type": "address"
        },
        {
          "indexed": false,
          "internalType": "uint256",
          "name": "collateralAmount",
          "type": "uint256"
        },
        {
          "indexed": false,
          "internalType": "uint256",
          "name": "borrowedAmount",
          "type": "uint256"
        },
        {
          "indexed": false,
          "internalType": "uint256",
          "name": "liquidationTime",
          "type": "uint256"
        }
      ],
      "name": "LoanCreated",
      "type": "event"
    },
    {
      "anonymous": false,
      "inputs": [
        {
          "indexed": true,
          "internalType": "address",
          "name": "user",
          "type": "address"
        },
        {
          "indexed": true,
          "internalType": "uint256",
          "name": "loanId",
          "type": "uint256"
        },
        {
          "indexed": false,
          "internalType": "bool",
          "name": "isLeverage",
          "type": "bool"
        },
        {
          "indexed": false,
          "internalType": "uint256",
          "name": "numberOfDays",
          "type": "uint256"
        },
        {
          "indexed": false,
          "internalType": "uint256",
          "name": "newLiquidationTime",
          "type": "uint256"
        }
      ],
      "name": "LoanExtended",
      "type": "event"
    },
    {
      "anonymous": false,
      "inputs": [
        {
          "indexed": true,
          "internalType": "address",
          "name": "user",
          "type": "address"
        },
        {
          "indexed": true,
          "internalType": "uint256",
          "name": "loanId",
          "type": "uint256"
        },
        {
          "indexed": false,
          "internalType": "uint256",
          "name": "amountAdded",
          "type": "uint256"
        },
        {
          "indexed": false,
          "internalType": "uint256",
          "name": "additionalBorrow",
          "type": "uint256"
        },
        {
          "indexed": false,
          "internalType": "uint256",
          "name": "newCollateralAmount",
          "type": "uint256"
        }
      ],
      "name": "LoanIncreased",
      "type": "event"
    },
    {
      "anonymous": false,
      "inputs": [
        {
          "indexed": true,
          "internalType": "address",
          "name": "user",
          "type": "address"
        },
        {
          "indexed": true,
          "internalType": "uint256",
          "name": "loanId",
          "type": "uint256"
        },
        {
          "indexed": false,
          "internalType": "address",
          "name": "liquidator",
          "type": "address"
        }
      ],
      "name": "LoanLiquidated",
      "type": "event"
    },
    {
      "anonymous": false,
      "inputs": [
        {
          "indexed": true,
          "internalType": "address",
          "name": "user",
          "type": "address"
        },
        {
          "indexed": true,
          "internalType": "uint256",
          "name": "loanId",
          "type": "uint256"
        }
      ],
      "name": "LoanRepaid",
      "type": "event"
    },
    {
      "anonymous": false,
      "inputs": [
        {
          "indexed": true,
          "internalType": "address",
          "name": "user",
          "type": "address"
        },
        {
          "indexed": true,
          "internalType": "uint256",
          "name": "loanId",
          "type": "uint256"
        },
        {
          "indexed": false,
          "internalType": "uint256",
          "name": "percentage",
          "type": "uint256"
        },
        {
          "indexed": false,
          "internalType": "bool",
          "name": "isLeverage",
          "type": "bool"
        },
        {
          "indexed": false,
          "internalType": "uint256",
          "name": "residualTokens",
          "type": "uint256"
        }
      ],
      "name": "PartialLoanSell",
      "type": "event"
    },
    {
      "anonymous": false,
      "inputs": [
        {
          "indexed": false,
          "internalType": "uint256",
          "name": "reserve0",
          "type": "uint256"
        },
        {
          "indexed": false,
          "internalType": "uint256",
          "name": "reserve1",
          "type": "uint256"
        }
      ],
      "name": "Sync",
      "type": "event"
    },
    {
      "anonymous": false,
      "inputs": [
        {
          "indexed": false,
          "internalType": "uint256",
          "name": "amountToken",
          "type": "uint256"
        },
        {
          "indexed": false,
          "internalType": "uint256",
          "name": "amountUSDC",
          "type": "uint256"
        },
        {
          "indexed": true,
          "internalType": "address",
          "name": "user",
          "type": "address"
        },
        {
          "indexed": false,
          "internalType": "uint256",
          "name": "price",
          "type": "uint256"
        },
        {
          "indexed": false,
          "internalType": "enum A_STASISTOKEN.TradeType",
          "name": "tradeType",
          "type": "uint8"
        }
      ],
      "name": "TokensTraded",
      "type": "event"
    },
    {
      "anonymous": false,
      "inputs": [
        {
          "indexed": true,
          "internalType": "address",
          "name": "from",
          "type": "address"
        },
        {
          "indexed": true,
          "internalType": "address",
          "name": "to",
          "type": "address"
        },
        {
          "indexed": false,
          "internalType": "uint256",
          "name": "value",
          "type": "uint256"
        }
      ],
      "name": "Transfer",
      "type": "event"
    },
    {
      "inputs": [],
      "name": "CEO",
      "outputs": [
        {
          "internalType": "address",
          "name": "",
          "type": "address"
        }
      ],
      "stateMutability": "view",
      "type": "function"
    },
    {
      "inputs": [
        {
          "internalType": "uint256",
          "name": "loanId",
          "type": "uint256"
        },
        {
          "internalType": "bool",
          "name": "isLeverage",
          "type": "bool"
        }
      ],
      "name": "ClaimLiquidation",
      "outputs": [
        {
          "internalType": "uint256",
          "name": "",
          "type": "uint256"
        }
      ],
      "stateMutability": "nonpayable",
      "type": "function"
    },
    {
      "inputs": [],
      "name": "DEV",
      "outputs": [
        {
          "internalType": "address",
          "name": "",
          "type": "address"
        }
      ],
      "stateMutability": "view",
      "type": "function"
    },
    {
      "inputs": [],
      "name": "EnableTrading",
      "outputs": [],
      "stateMutability": "nonpayable",
      "type": "function"
    },
    {
      "inputs": [
        {
          "internalType": "uint256",
          "name": "loanId",
          "type": "uint256"
        },
        {
          "internalType": "uint256",
          "name": "numberOfDays",
          "type": "uint256"
        },
        {
          "internalType": "bool",
          "name": "isLeverage",
          "type": "bool"
        },
        {
          "internalType": "bool",
          "name": "payInUSDC",
          "type": "bool"
        },
        {
          "internalType": "bool",
          "name": "refinance",
          "type": "bool"
        },
        {
          "internalType": "bool",
          "name": "isFree",
          "type": "bool"
        }
      ],
      "name": "ExtendLoan",
      "outputs": [],
      "stateMutability": "nonpayable",
      "type": "function"
    },
    {
      "inputs": [
        {
          "internalType": "address",
          "name": "user",
          "type": "address"
        },
        {
          "internalType": "uint256",
          "name": "loanId",
          "type": "uint256"
        },
        {
          "internalType": "uint256",
          "name": "numberOfDays",
          "type": "uint256"
        },
        {
          "internalType": "bool",
          "name": "isLeverage",
          "type": "bool"
        },
        {
          "internalType": "bool",
          "name": "payInUSDC",
          "type": "bool"
        },
        {
          "internalType": "bool",
          "name": "refinance",
          "type": "bool"
        }
      ],
      "name": "ExtensionEligibility",
      "outputs": [
        {
          "internalType": "bool",
          "name": "possible",
          "type": "bool"
        },
        {
          "internalType": "uint256",
          "name": "fee",
          "type": "uint256"
        },
        {
          "internalType": "uint256",
          "name": "extraOut",
          "type": "uint256"
        }
      ],
      "stateMutability": "view",
      "type": "function"
    },
    {
      "inputs": [
        {
          "internalType": "uint256",
          "name": "loanId",
          "type": "uint256"
        },
        {
          "internalType": "uint256",
          "name": "amountToAdd",
          "type": "uint256"
        }
      ],
      "name": "IncreaseLoan",
      "outputs": [
        {
          "internalType": "uint256",
          "name": "",
          "type": "uint256"
        }
      ],
      "stateMutability": "nonpayable",
      "type": "function"
    },
    {
      "inputs": [
        {
          "internalType": "uint256",
          "name": "amount",
          "type": "uint256"
        }
      ],
      "name": "InjectUSDC",
      "outputs": [],
      "stateMutability": "nonpayable",
      "type": "function"
    },
    {
      "inputs": [],
      "name": "LOAN",
      "outputs": [
        {
          "internalType": "address",
          "name": "",
          "type": "address"
        }
      ],
      "stateMutability": "view",
      "type": "function"
    },
    {
      "inputs": [
        {
          "internalType": "uint256",
          "name": "loanId",
          "type": "uint256"
        },
        {
          "internalType": "address",
          "name": "user",
          "type": "address"
        },
        {
          "internalType": "bool",
          "name": "isLeverage",
          "type": "bool"
        }
      ],
      "name": "LiquidateLoan",
      "outputs": [],
      "stateMutability": "nonpayable",
      "type": "function"
    },
    {
      "inputs": [],
      "name": "PRICEMULTIPLIER",
      "outputs": [
        {
          "internalType": "uint256",
          "name": "",
          "type": "uint256"
        }
      ],
      "stateMutability": "view",
      "type": "function"
    },
    {
      "inputs": [
        {
          "internalType": "uint256",
          "name": "loanId",
          "type": "uint256"
        },
        {
          "internalType": "address",
          "name": "user",
          "type": "address"
        },
        {
          "internalType": "uint256",
          "name": "percentage",
          "type": "uint256"
        },
        {
          "internalType": "bool",
          "name": "isLeverage",
          "type": "bool"
        }
      ],
      "name": "PartialLoanSellFor",
      "outputs": [
        {
          "internalType": "uint256",
          "name": "",
          "type": "uint256"
        }
      ],
      "stateMutability": "nonpayable",
      "type": "function"
    },
    {
      "inputs": [
        {
          "internalType": "uint256",
          "name": "loanId",
          "type": "uint256"
        },
        {
          "internalType": "bool",
          "name": "isLeverage",
          "type": "bool"
        }
      ],
      "name": "RepayLoan",
      "outputs": [],
      "stateMutability": "nonpayable",
      "type": "function"
    },
    {
      "inputs": [],
      "name": "SWAP",
      "outputs": [
        {
          "internalType": "address",
          "name": "",
          "type": "address"
        }
      ],
      "stateMutability": "view",
      "type": "function"
    },
    {
      "inputs": [
        {
          "internalType": "uint256",
          "name": "staticFee",
          "type": "uint256"
        },
        {
          "internalType": "uint256",
          "name": "dynamicFee",
          "type": "uint256"
        }
      ],
      "name": "SetLoanFees",
      "outputs": [],
      "stateMutability": "nonpayable",
      "type": "function"
    },
    {
      "inputs": [
        {
          "internalType": "uint256",
          "name": "minDays",
          "type": "uint256"
        },
        {
          "internalType": "uint256",
          "name": "maxDays",
          "type": "uint256"
        },
        {
          "internalType": "uint256",
          "name": "minLoan",
          "type": "uint256"
        }
      ],
      "name": "SetLoanVariables",
      "outputs": [],
      "stateMutability": "nonpayable",
      "type": "function"
    },
    {
      "inputs": [
        {
          "internalType": "address",
          "name": "newLoan",
          "type": "address"
        }
      ],
      "name": "SetLoanWallet",
      "outputs": [],
      "stateMutability": "nonpayable",
      "type": "function"
    },
    {
      "inputs": [
        {
          "internalType": "uint256",
          "name": "newMinimum",
          "type": "uint256"
        }
      ],
      "name": "SetMinimumLoan",
      "outputs": [],
      "stateMutability": "nonpayable",
      "type": "function"
    },
    {
      "inputs": [
        {
          "internalType": "bool",
          "name": "status",
          "type": "bool"
        }
      ],
      "name": "SetProjectVetted",
      "outputs": [],
      "stateMutability": "nonpayable",
      "type": "function"
    },
    {
      "inputs": [
        {
          "internalType": "address",
          "name": "newSwap",
          "type": "address"
        }
      ],
      "name": "SetSwapWallet",
      "outputs": [],
      "stateMutability": "nonpayable",
      "type": "function"
    },
    {
      "inputs": [
        {
          "internalType": "address",
          "name": "newTaxes",
          "type": "address"
        }
      ],
      "name": "SetTaxesContract",
      "outputs": [],
      "stateMutability": "nonpayable",
      "type": "function"
    },
    {
      "inputs": [
        {
          "internalType": "uint256",
          "name": "collateralAmount",
          "type": "uint256"
        },
        {
          "internalType": "address",
          "name": "token",
          "type": "address"
        },
        {
          "internalType": "uint256",
          "name": "numberOfDays",
          "type": "uint256"
        },
        {
          "internalType": "uint256",
          "name": "borrowedAmount",
          "type": "uint256"
        },
        {
          "internalType": "uint256",
          "name": "fullAmount",
          "type": "uint256"
        },
        {
          "internalType": "address",
          "name": "user",
          "type": "address"
        },
        {
          "internalType": "uint256",
          "name": "priceBefore",
          "type": "uint256"
        },
        {
          "internalType": "uint256",
          "name": "initialBuy",
          "type": "uint256"
        }
      ],
      "name": "TakeLeverageFor",
      "outputs": [
        {
          "internalType": "uint256",
          "name": "",
          "type": "uint256"
        }
      ],
      "stateMutability": "nonpayable",
      "type": "function"
    },
    {
      "inputs": [
        {
          "internalType": "uint256",
          "name": "tokenAmount",
          "type": "uint256"
        },
        {
          "internalType": "address",
          "name": "token",
          "type": "address"
        },
        {
          "internalType": "uint256",
          "name": "numberOfDays",
          "type": "uint256"
        }
      ],
      "name": "TakeLoan",
      "outputs": [
        {
          "internalType": "uint256",
          "name": "",
          "type": "uint256"
        }
      ],
      "stateMutability": "nonpayable",
      "type": "function"
    },
    {
      "inputs": [],
      "name": "USDCMULTIPLIER",
      "outputs": [
        {
          "internalType": "uint256",
          "name": "",
          "type": "uint256"
        }
      ],
      "stateMutability": "view",
      "type": "function"
    },
    {
      "inputs": [
        {
          "internalType": "uint256",
          "name": "loanId",
          "type": "uint256"
        },
        {
          "internalType": "bool",
          "name": "isLeverage",
          "type": "bool"
        },
        {
          "internalType": "uint256",
          "name": "amount",
          "type": "uint256"
        },
        {
          "internalType": "address",
          "name": "user",
          "type": "address"
        }
      ],
      "name": "addCashedOut",
      "outputs": [],
      "stateMutability": "nonpayable",
      "type": "function"
    },
    {
      "inputs": [
        {
          "internalType": "address",
          "name": "_owner",
          "type": "address"
        },
        {
          "internalType": "address",
          "name": "spender",
          "type": "address"
        }
      ],
      "name": "allowance",
      "outputs": [
        {
          "internalType": "uint256",
          "name": "",
          "type": "uint256"
        }
      ],
      "stateMutability": "view",
      "type": "function"
    },
    {
      "inputs": [
        {
          "internalType": "address",
          "name": "spender",
          "type": "address"
        },
        {
          "internalType": "uint256",
          "name": "value",
          "type": "uint256"
        }
      ],
      "name": "approve",
      "outputs": [
        {
          "internalType": "bool",
          "name": "",
          "type": "bool"
        }
      ],
      "stateMutability": "nonpayable",
      "type": "function"
    },
    {
      "inputs": [],
      "name": "autoVest",
      "outputs": [
        {
          "internalType": "bool",
          "name": "",
          "type": "bool"
        }
      ],
      "stateMutability": "view",
      "type": "function"
    },
    {
      "inputs": [
        {
          "internalType": "address",
          "name": "_owner",
          "type": "address"
        }
      ],
      "name": "balanceOf",
      "outputs": [
        {
          "internalType": "uint256",
          "name": "",
          "type": "uint256"
        }
      ],
      "stateMutability": "view",
      "type": "function"
    },
    {
      "inputs": [],
      "name": "baseReserve1",
      "outputs": [
        {
          "internalType": "uint256",
          "name": "",
          "type": "uint256"
        }
      ],
      "stateMutability": "view",
      "type": "function"
    },
    {
      "inputs": [
        {
          "internalType": "uint256",
          "name": "amount",
          "type": "uint256"
        },
        {
          "internalType": "address",
          "name": "buyer",
          "type": "address"
        }
      ],
      "name": "buyTokens",
      "outputs": [
        {
          "internalType": "uint256",
          "name": "",
          "type": "uint256"
        }
      ],
      "stateMutability": "nonpayable",
      "type": "function"
    },
    {
      "inputs": [
        {
          "internalType": "uint256",
          "name": "usdcAmount",
          "type": "uint256"
        }
      ],
      "name": "calculateTokensForBuy",
      "outputs": [
        {
          "internalType": "uint256",
          "name": "",
          "type": "uint256"
        }
      ],
      "stateMutability": "view",
      "type": "function"
    },
    {
      "inputs": [
        {
          "internalType": "uint256",
          "name": "tokenAmount",
          "type": "uint256"
        }
      ],
      "name": "calculateTokensForSell",
      "outputs": [
        {
          "internalType": "uint256",
          "name": "",
          "type": "uint256"
        }
      ],
      "stateMutability": "view",
      "type": "function"
    },
    {
      "inputs": [
        {
          "internalType": "uint256",
          "name": "usdcAmountOut",
          "type": "uint256"
        }
      ],
      "name": "calculateTokensForUsdc",
      "outputs": [
        {
          "internalType": "uint256",
          "name": "",
          "type": "uint256"
        }
      ],
      "stateMutability": "view",
      "type": "function"
    },
    {
      "inputs": [
        {
          "internalType": "uint256",
          "name": "amountIn",
          "type": "uint256"
        },
        {
          "internalType": "uint256",
          "name": "multiplier",
          "type": "uint256"
        },
        {
          "internalType": "uint256",
          "name": "inputreserve0",
          "type": "uint256"
        },
        {
          "internalType": "uint256",
          "name": "inputreserve1",
          "type": "uint256"
        }
      ],
      "name": "calculateTokensToBurn",
      "outputs": [
        {
          "internalType": "uint256",
          "name": "",
          "type": "uint256"
        }
      ],
      "stateMutability": "pure",
      "type": "function"
    },
    {
      "inputs": [
        {
          "internalType": "uint256",
          "name": "tokenAmountOut",
          "type": "uint256"
        }
      ],
      "name": "calculateUsdcForTokens",
      "outputs": [
        {
          "internalType": "uint256",
          "name": "",
          "type": "uint256"
        }
      ],
      "stateMutability": "view",
      "type": "function"
    },
    {
      "inputs": [],
      "name": "creationBlock",
      "outputs": [
        {
          "internalType": "uint256",
          "name": "",
          "type": "uint256"
        }
      ],
      "stateMutability": "view",
      "type": "function"
    },
    {
      "inputs": [],
      "name": "decimals",
      "outputs": [
        {
          "internalType": "uint8",
          "name": "",
          "type": "uint8"
        }
      ],
      "stateMutability": "view",
      "type": "function"
    },
    {
      "inputs": [],
      "name": "dynamicFeePercentage",
      "outputs": [
        {
          "internalType": "uint256",
          "name": "",
          "type": "uint256"
        }
      ],
      "stateMutability": "view",
      "type": "function"
    },
    {
      "inputs": [
        {
          "internalType": "uint256",
          "name": "tokenAmount",
          "type": "uint256"
        },
        {
          "internalType": "address",
          "name": "token",
          "type": "address"
        }
      ],
      "name": "getColleteralValue",
      "outputs": [
        {
          "internalType": "uint256",
          "name": "",
          "type": "uint256"
        }
      ],
      "stateMutability": "view",
      "type": "function"
    },
    {
      "inputs": [
        {
          "internalType": "uint256",
          "name": "amount",
          "type": "uint256"
        },
        {
          "internalType": "uint256",
          "name": "numberOfDays",
          "type": "uint256"
        }
      ],
      "name": "getDynamicFee",
      "outputs": [
        {
          "internalType": "uint256",
          "name": "",
          "type": "uint256"
        }
      ],
      "stateMutability": "view",
      "type": "function"
    },
    {
      "inputs": [
        {
          "internalType": "address",
          "name": "user",
          "type": "address"
        },
        {
          "internalType": "address",
          "name": "token",
          "type": "address"
        }
      ],
      "name": "getLeverageCountForUserAndToken",
      "outputs": [
        {
          "internalType": "uint256",
          "name": "",
          "type": "uint256"
        }
      ],
      "stateMutability": "view",
      "type": "function"
    },
    {
      "inputs": [],
      "name": "getLiquidity",
      "outputs": [
        {
          "internalType": "uint256",
          "name": "",
          "type": "uint256"
        }
      ],
      "stateMutability": "view",
      "type": "function"
    },
    {
      "inputs": [
        {
          "internalType": "uint256",
          "name": "loanId",
          "type": "uint256"
        },
        {
          "internalType": "address",
          "name": "user",
          "type": "address"
        },
        {
          "internalType": "uint256",
          "name": "percentage",
          "type": "uint256"
        },
        {
          "internalType": "bool",
          "name": "isLeverage",
          "type": "bool"
        }
      ],
      "name": "getPartialLoanSellAmounts",
      "outputs": [
        {
          "internalType": "uint256",
          "name": "mainToBurn",
          "type": "uint256"
        },
        {
          "internalType": "uint256",
          "name": "tokensToBurn",
          "type": "uint256"
        },
        {
          "internalType": "uint256",
          "name": "residualTokens",
          "type": "uint256"
        }
      ],
      "stateMutability": "view",
      "type": "function"
    },
    {
      "inputs": [],
      "name": "getReserves",
      "outputs": [
        {
          "internalType": "uint256",
          "name": "_reserve0",
          "type": "uint256"
        },
        {
          "internalType": "uint256",
          "name": "_reserve1",
          "type": "uint256"
        },
        {
          "internalType": "uint256",
          "name": "_blockTimestampLast",
          "type": "uint256"
        }
      ],
      "stateMutability": "view",
      "type": "function"
    },
    {
      "inputs": [],
      "name": "getTokenPrice",
      "outputs": [
        {
          "internalType": "uint256",
          "name": "",
          "type": "uint256"
        }
      ],
      "stateMutability": "view",
      "type": "function"
    },
    {
      "inputs": [],
      "name": "getUSDPrice",
      "outputs": [
        {
          "internalType": "uint256",
          "name": "",
          "type": "uint256"
        }
      ],
      "stateMutability": "view",
      "type": "function"
    },
    {
      "inputs": [],
      "name": "gradualAutoVesting",
      "outputs": [
        {
          "internalType": "bool",
          "name": "",
          "type": "bool"
        }
      ],
      "stateMutability": "view",
      "type": "function"
    },
    {
      "inputs": [],
      "name": "hasBonded",
      "outputs": [
        {
          "internalType": "bool",
          "name": "",
          "type": "bool"
        }
      ],
      "stateMutability": "view",
      "type": "function"
    },
    {
      "inputs": [],
      "name": "hybridMultiplier",
      "outputs": [
        {
          "internalType": "uint256",
          "name": "",
          "type": "uint256"
        }
      ],
      "stateMutability": "view",
      "type": "function"
    },
    {
      "inputs": [
        {
          "internalType": "address",
          "name": "",
          "type": "address"
        }
      ],
      "name": "isAdmin",
      "outputs": [
        {
          "internalType": "bool",
          "name": "",
          "type": "bool"
        }
      ],
      "stateMutability": "view",
      "type": "function"
    },
    {
      "inputs": [],
      "name": "lastTrade",
      "outputs": [
        {
          "internalType": "uint256",
          "name": "",
          "type": "uint256"
        }
      ],
      "stateMutability": "view",
      "type": "function"
    },
    {
      "inputs": [
        {
          "internalType": "address",
          "name": "",
          "type": "address"
        }
      ],
      "name": "leverageCount",
      "outputs": [
        {
          "internalType": "uint256",
          "name": "",
          "type": "uint256"
        }
      ],
      "stateMutability": "view",
      "type": "function"
    },
    {
      "inputs": [
        {
          "internalType": "address",
          "name": "",
          "type": "address"
        },
        {
          "internalType": "uint256",
          "name": "",
          "type": "uint256"
        }
      ],
      "name": "leverages",
      "outputs": [
        {
          "internalType": "address",
          "name": "user",
          "type": "address"
        },
        {
          "internalType": "address",
          "name": "token",
          "type": "address"
        },
        {
          "internalType": "uint256",
          "name": "collateralAmount",
          "type": "uint256"
        },
        {
          "internalType": "uint256",
          "name": "liquidatedAmount",
          "type": "uint256"
        },
        {
          "internalType": "uint256",
          "name": "fullAmount",
          "type": "uint256"
        },
        {
          "internalType": "uint256",
          "name": "borrowedAmount",
          "type": "uint256"
        },
        {
          "internalType": "uint256",
          "name": "liquidationTime",
          "type": "uint256"
        },
        {
          "internalType": "uint256",
          "name": "liquidationClaim",
          "type": "uint256"
        },
        {
          "internalType": "bool",
          "name": "isLiquidated",
          "type": "bool"
        },
        {
          "internalType": "bool",
          "name": "active",
          "type": "bool"
        },
        {
          "internalType": "uint256",
          "name": "creationTime",
          "type": "uint256"
        },
        {
          "internalType": "uint256",
          "name": "timeOfClosure",
          "type": "uint256"
        },
        {
          "components": [
            {
              "internalType": "uint256",
              "name": "leverageBuyAmount",
              "type": "uint256"
            },
            {
              "internalType": "uint256",
              "name": "cashedOut",
              "type": "uint256"
            }
          ],
          "internalType": "struct A_STASISTOKEN.Leverage",
          "name": "leverage",
          "type": "tuple"
        }
      ],
      "stateMutability": "view",
      "type": "function"
    },
    {
      "inputs": [
        {
          "internalType": "address",
          "name": "",
          "type": "address"
        }
      ],
      "name": "loanCount",
      "outputs": [
        {
          "internalType": "uint256",
          "name": "",
          "type": "uint256"
        }
      ],
      "stateMutability": "view",
      "type": "function"
    },
    {
      "inputs": [
        {
          "internalType": "address",
          "name": "",
          "type": "address"
        },
        {
          "internalType": "uint256",
          "name": "",
          "type": "uint256"
        }
      ],
      "name": "loans",
      "outputs": [
        {
          "internalType": "address",
          "name": "user",
          "type": "address"
        },
        {
          "internalType": "address",
          "name": "token",
          "type": "address"
        },
        {
          "internalType": "uint256",
          "name": "collateralAmount",
          "type": "uint256"
        },
        {
          "internalType": "uint256",
          "name": "liquidatedAmount",
          "type": "uint256"
        },
        {
          "internalType": "uint256",
          "name": "fullAmount",
          "type": "uint256"
        },
        {
          "internalType": "uint256",
          "name": "borrowedAmount",
          "type": "uint256"
        },
        {
          "internalType": "uint256",
          "name": "liquidationTime",
          "type": "uint256"
        },
        {
          "internalType": "uint256",
          "name": "liquidationClaim",
          "type": "uint256"
        },
        {
          "internalType": "bool",
          "name": "isLiquidated",
          "type": "bool"
        },
        {
          "internalType": "bool",
          "name": "active",
          "type": "bool"
        },
        {
          "internalType": "uint256",
          "name": "creationTime",
          "type": "uint256"
        },
        {
          "internalType": "uint256",
          "name": "timeOfClosure",
          "type": "uint256"
        },
        {
          "components": [
            {
              "internalType": "uint256",
              "name": "leverageBuyAmount",
              "type": "uint256"
            },
            {
              "internalType": "uint256",
              "name": "cashedOut",
              "type": "uint256"
            }
          ],
          "internalType": "struct A_STASISTOKEN.Leverage",
          "name": "leverage",
          "type": "tuple"
        }
      ],
      "stateMutability": "view",
      "type": "function"
    },
    {
      "inputs": [],
      "name": "maxDaysLoan",
      "outputs": [
        {
          "internalType": "uint256",
          "name": "",
          "type": "uint256"
        }
      ],
      "stateMutability": "view",
      "type": "function"
    },
    {
      "inputs": [],
      "name": "minDaysLoan",
      "outputs": [
        {
          "internalType": "uint256",
          "name": "",
          "type": "uint256"
        }
      ],
      "stateMutability": "view",
      "type": "function"
    },
    {
      "inputs": [],
      "name": "minimumLoan",
      "outputs": [
        {
          "internalType": "uint256",
          "name": "",
          "type": "uint256"
        }
      ],
      "stateMutability": "view",
      "type": "function"
    },
    {
      "inputs": [],
      "name": "name",
      "outputs": [
        {
          "internalType": "string",
          "name": "",
          "type": "string"
        }
      ],
      "stateMutability": "view",
      "type": "function"
    },
    {
      "inputs": [
        {
          "internalType": "uint256",
          "name": "newTokens",
          "type": "uint256"
        },
        {
          "internalType": "uint256",
          "name": "newUSDC",
          "type": "uint256"
        },
        {
          "internalType": "uint256",
          "name": "usdcToLP",
          "type": "uint256"
        },
        {
          "internalType": "address",
          "name": "token",
          "type": "address"
        },
        {
          "internalType": "uint256",
          "name": "newFactoryReserveTokens",
          "type": "uint256"
        },
        {
          "internalType": "uint256",
          "name": "newFactoryTokens",
          "type": "uint256"
        },
        {
          "internalType": "address",
          "name": "user",
          "type": "address"
        }
      ],
      "name": "openLeverage",
      "outputs": [],
      "stateMutability": "nonpayable",
      "type": "function"
    },
    {
      "inputs": [],
      "name": "projectedVetted",
      "outputs": [
        {
          "internalType": "bool",
          "name": "",
          "type": "bool"
        }
      ],
      "stateMutability": "view",
      "type": "function"
    },
    {
      "inputs": [
        {
          "internalType": "contract IERC20",
          "name": "tokenToRescue",
          "type": "address"
        }
      ],
      "name": "rescueAnyToken",
      "outputs": [],
      "stateMutability": "nonpayable",
      "type": "function"
    },
    {
      "inputs": [],
      "name": "rescueEth",
      "outputs": [],
      "stateMutability": "nonpayable",
      "type": "function"
    },
    {
      "inputs": [],
      "name": "reserve0",
      "outputs": [
        {
          "internalType": "uint256",
          "name": "",
          "type": "uint256"
        }
      ],
      "stateMutability": "view",
      "type": "function"
    },
    {
      "inputs": [],
      "name": "reserve1",
      "outputs": [
        {
          "internalType": "uint256",
          "name": "",
          "type": "uint256"
        }
      ],
      "stateMutability": "view",
      "type": "function"
    },
    {
      "inputs": [
        {
          "internalType": "uint256",
          "name": "amount",
          "type": "uint256"
        },
        {
          "internalType": "address",
          "name": "seller",
          "type": "address"
        }
      ],
      "name": "sellTokens",
      "outputs": [
        {
          "internalType": "uint256",
          "name": "",
          "type": "uint256"
        }
      ],
      "stateMutability": "nonpayable",
      "type": "function"
    },
    {
      "inputs": [
        {
          "internalType": "bool",
          "name": "status",
          "type": "bool"
        },
        {
          "internalType": "address",
          "name": "wallet",
          "type": "address"
        }
      ],
      "name": "setAdminStatus",
      "outputs": [],
      "stateMutability": "nonpayable",
      "type": "function"
    },
    {
      "inputs": [
        {
          "internalType": "address",
          "name": "newFactory",
          "type": "address"
        }
      ],
      "name": "setFactoryCA",
      "outputs": [],
      "stateMutability": "nonpayable",
      "type": "function"
    },
    {
      "inputs": [],
      "name": "staticFeePercentage",
      "outputs": [
        {
          "internalType": "uint256",
          "name": "",
          "type": "uint256"
        }
      ],
      "stateMutability": "view",
      "type": "function"
    },
    {
      "inputs": [],
      "name": "symbol",
      "outputs": [
        {
          "internalType": "string",
          "name": "",
          "type": "string"
        }
      ],
      "stateMutability": "view",
      "type": "function"
    },
    {
      "inputs": [],
      "name": "token0",
      "outputs": [
        {
          "internalType": "address",
          "name": "",
          "type": "address"
        }
      ],
      "stateMutability": "view",
      "type": "function"
    },
    {
      "inputs": [],
      "name": "token1",
      "outputs": [
        {
          "internalType": "address",
          "name": "",
          "type": "address"
        }
      ],
      "stateMutability": "view",
      "type": "function"
    },
    {
      "inputs": [],
      "name": "totalSupply",
      "outputs": [
        {
          "internalType": "uint256",
          "name": "",
          "type": "uint256"
        }
      ],
      "stateMutability": "view",
      "type": "function"
    },
    {
      "inputs": [],
      "name": "tradingEnabled",
      "outputs": [
        {
          "internalType": "bool",
          "name": "",
          "type": "bool"
        }
      ],
      "stateMutability": "view",
      "type": "function"
    },
    {
      "inputs": [
        {
          "internalType": "address",
          "name": "to",
          "type": "address"
        },
        {
          "internalType": "uint256",
          "name": "value",
          "type": "uint256"
        }
      ],
      "name": "transfer",
      "outputs": [
        {
          "internalType": "bool",
          "name": "",
          "type": "bool"
        }
      ],
      "stateMutability": "nonpayable",
      "type": "function"
    },
    {
      "inputs": [
        {
          "internalType": "address",
          "name": "from",
          "type": "address"
        },
        {
          "internalType": "address",
          "name": "to",
          "type": "address"
        },
        {
          "internalType": "uint256",
          "name": "amount",
          "type": "uint256"
        }
      ],
      "name": "transferFrom",
      "outputs": [
        {
          "internalType": "bool",
          "name": "",
          "type": "bool"
        }
      ],
      "stateMutability": "nonpayable",
      "type": "function"
    },
    {
      "inputs": [
        {
          "internalType": "address",
          "name": "newCEO",
          "type": "address"
        }
      ],
      "name": "transferOwnership",
      "outputs": [],
      "stateMutability": "nonpayable",
      "type": "function"
    },
    {
      "inputs": [
        {
          "internalType": "address",
          "name": "",
          "type": "address"
        },
        {
          "internalType": "address",
          "name": "",
          "type": "address"
        },
        {
          "internalType": "uint256",
          "name": "",
          "type": "uint256"
        }
      ],
      "name": "userTokenLeverageIds",
      "outputs": [
        {
          "internalType": "uint256",
          "name": "",
          "type": "uint256"
        }
      ],
      "stateMutability": "view",
      "type": "function"
    }
  ],
  "bytecode": "0x6002805463ffffffff191661010117905560e0604052600660a09081526553544153495360d01b60c05260039062000038908262000316565b5060408051808201909152600681526553746173697360d01b602082015260049062000065908262000316565b50601260808190526200007a90600a620004f7565b62000088906127106200050f565b60058190556006805460ff191660011790556000600755670de0b6b3a76400006009819055600a8190556064600b55600e91909155620000cb906127106200050f565b600f55620000e4670de0b6b3a76400006127106200050f565b60105560006011819055600a6012556103e8601355600560145560c860155560165560646200011d670de0b6b3a764000060636200050f565b62000129919062000529565b601e553480156200013957600080fd5b50604051620062c8380380620062c88339810160408190526200015c9162000569565b601a80546001600160a01b038086166001600160a01b031992831617909255601b8054858416908316179055601c8054821633908117909155601d8054831690911790556017805492841692821683179055600c8054821630908117909155600d805490921690921790554360078190556008556005546000828152602081905260408082208390555190917fddf252ad1be2c89b69c2b068fc378daa952ba7f163c4a11628f55a4df523b3ef916200021791815260200190565b60405180910390a37fcf2aa50876cdfbb541206f89af0ee78d44a2abf8d328e37fa4917f982149848a600e54600f546040516200025e929190918252602082015260400190565b60405180910390a1505050620005b3565b634e487b7160e01b600052604160045260246000fd5b600181811c908216806200029a57607f821691505b602082108103620002bb57634e487b7160e01b600052602260045260246000fd5b50919050565b601f82111562000311576000816000526020600020601f850160051c81016020861015620002ec5750805b601f850160051c820191505b818110156200030d57828155600101620002f8565b5050505b505050565b81516001600160401b038111156200033257620003326200026f565b6200034a8162000343845462000285565b84620002c1565b602080601f831160018114620003825760008415620003695750858301515b600019600386901b1c1916600185901b1785556200030d565b600085815260208120601f198616915b82811015620003b35788860151825594840194600190910190840162000392565b5085821015620003d25787850151600019600388901b60f8161c191681555b5050505050600190811b01905550565b634e487b7160e01b600052601160045260246000fd5b600181815b80851115620004395781600019048211156200041d576200041d620003e2565b808516156200042b57918102915b93841c9390800290620003fd565b509250929050565b6000826200045257506001620004f1565b816200046157506000620004f1565b81600181146200047a57600281146200048557620004a5565b6001915050620004f1565b60ff841115620004995762000499620003e2565b50506001821b620004f1565b5060208310610133831016604e8410600b8410161715620004ca575081810a620004f1565b620004d68383620003f8565b8060001904821115620004ed57620004ed620003e2565b0290505b92915050565b60006200050860ff84168362000441565b9392505050565b8082028115828204841417620004f157620004f1620003e2565b6000826200054757634e487b7160e01b600052601260045260246000fd5b500490565b80516001600160a01b03811681146200056457600080fd5b919050565b6000806000606084860312156200057f57600080fd5b6200058a846200054c565b92506200059a602085016200054c565b9150620005aa604085016200054c565b90509250925092565b608051615cf9620005cf60003960006106e00152615cf96000f3fe608060405234801561001057600080fd5b50600436106104755760003560e01c806367b6ad6f11610257578063a89610ec11610146578063ce31a06b116100c3578063e90ff28611610087578063e90ff28614610b51578063f1b4fbab14610b8a578063f2fde38b14610b9d578063f33901ec14610bb0578063f50c731014610bc357600080fd5b8063ce31a06b14610ae0578063d21220a714610ae8578063d32156ba14610afb578063dd62ed3e14610b0f578063df052c6e14610b4857600080fd5b8063c1eb5ddd1161010a578063c1eb5ddd14610a94578063c338287f14610750578063c3fca8f714610aa7578063c625e9b114610aba578063c693c68514610acd57600080fd5b8063a89610ec14610a32578063a9059cbb14610a52578063ab60577a14610a65578063ababc0f214610a6e578063b128dee714610a8157600080fd5b806394999ec3116101d45780639cc751bd116101985780639cc751bd146109d35780639dc6f7e1146109e65780639eef3b22146109f9578063a108857114610a0c578063a6d6c9cd14610a1f57600080fd5b806394999ec31461090857806395a17cc81461091157806395d89b411461091a57806398c61c37146109225780639b44cb3c146109ca57600080fd5b806379186af01161021b57806379186af0146108a05780637a0f4342146108a95780637b86dffc146108bc5780637ff4d4da146108cf5780638bce6c07146108d857600080fd5b806367b6ad6f14610835578063694f8839146108485780636a72cd081461085b5780636ccf8f641461086457806370a082311461087757600080fd5b80632c9cdbbf116103735780634ebf1907116102f057806359ae28dc116102b457806359ae28dc146107e05780635a76f25e146107f357806362e07a8c146107fc578063670f71511461080f578063678b0a371461082257600080fd5b80634ebf19071461077e5780634f0564a8146107915780635028b400146107b157806351a87af7146107c457806359705a95146107cd57600080fd5b80634763ef72116103375780634763ef72146107305780634ada218b146107435780634b94f50e146107505780634c2254d1146107585780634cb72b0a1461076b57600080fd5b80632c9cdbbf146106b55780632dd2a222146106c8578063313ce567146106db5780634191280a14610714578063443cb4bc1461072757600080fd5b80630dcb2eae116104015780631d97b7cd116103c55780631d97b7cd146105a55780632384f541146105ad57806323b872dd146105c057806324d7806c146105d35780632aa77393146105f657600080fd5b80630dcb2eae1461055a5780630dfe16811461056d578063169e3cc814610580578063176345141461059357806318160ddd1461059c57600080fd5b80630902f1ac116104485780630902f1ac146104f65780630910a5101461051b578063095ea7b3146105315780630aa4b1cb146105445780630cac23bb1461055157600080fd5b80630278b9e71461047a57806304d841081461048f57806306fdde03146104bf578063089e136e146104d4575b600080fd5b61048d610488366004615486565b610bd6565b005b601a546104a2906001600160a01b031681565b6040516001600160a01b0390911681526020015b60405180910390f35b6104c7610c0e565b6040516104b6919061549f565b6002546104e690610100900460ff1681565b60405190151581526020016104b6565b600e54600f546011545b604080519384526020840192909252908201526060016104b6565b610523610c9c565b6040519081526020016104b6565b6104e661053f366004615503565b610cb3565b6002546104e69060ff1681565b61052360095481565b61048d610568366004615486565b610d70565b600c546104a2906001600160a01b031681565b61052361058e366004615486565b610e89565b61052360085481565b61052360055481565b61048d610fa8565b6105236105bb366004615486565b611026565b6104e66105ce36600461552f565b61106e565b6104e66105e1366004615570565b60246020526000908152604090205460ff1681565b61069c610604366004615503565b60208080526000928352604080842082529183529181902080546001820154600283015460038401546004850154600586015460068701546007880154600889015460098a0154600a8b01548c51808e01909d52600b8c01548d52600c909b01549c8c019c909c526001600160a01b039889169b989097169995989497939692959194909360ff80851694610100900416929091908d565b6040516104b69d9c9b9a9998979695949392919061558d565b61048d6106c3366004615570565b61110c565b6105006106d636600461562a565b61121e565b6107027f000000000000000000000000000000000000000000000000000000000000000081565b60405160ff90911681526020016104b6565b61048d610722366004615570565b611568565b610523600e5481565b61048d61073e366004615674565b6115b4565b6006546104e69060ff1681565b610523611606565b61048d6107663660046156ad565b611625565b61052361077936600461552f565b61185c565b61052361078c366004615486565b61189a565b61052361079f366004615570565b60226020526000908152604090205481565b6105236107bf3660046156d2565b6118ce565b61052360155481565b61048d6107db3660046156f9565b611d80565b61048d6107ee366004615716565b611dbd565b610523600f5481565b61052361080a366004615486565b611e5d565b61052361081d366004615755565b611f74565b6002546104e69062010000900460ff1681565b61048d61084336600461577a565b612248565b6105236108563660046157e3565b6124a2565b610523600b5481565b61048d610872366004615570565b6128d6565b610523610885366004615570565b6001600160a01b031660009081526020819052604090205490565b61052360145481565b61048d6108b7366004615570565b612922565b61048d6108ca366004615805565b61296e565b61052360105481565b6108eb6108e6366004615875565b613085565b6040805193151584526020840192909252908201526060016104b6565b610523600a5481565b61052360135481565b6104c761331c565b61069c610930366004615503565b601f60209081526000928352604080842082529183529181902080546001820154600283015460038401546004850154600586015460068701546007880154600889015460098a0154600a8b01548c51808e01909d52600b8c01548d52600c909b01549c8c019c909c526001600160a01b039889169b989097169995989497939692959194909360ff80851694610100900416929091908d565b61052360075481565b61048d6109e13660046157e3565b613329565b6105236109f4366004615755565b61335b565b61048d610a07366004615570565b61351e565b601c546104a2906001600160a01b031681565b61048d610a2d3660046158b7565b61356a565b610523610a40366004615570565b60236020526000908152604090205481565b6104e6610a60366004615503565b6135a2565b610523601e5481565b610523610a7c36600461562a565b6135af565b610523610a8f3660046157e3565b613e8c565b601d546104a2906001600160a01b031681565b610523610ab53660046158e3565b613eb4565b610523610ac8366004615755565b613fbe565b610523610adb3660046156ad565b614262565b61048d61441f565b600d546104a2906001600160a01b031681565b6002546104e6906301000000900460ff1681565b610523610b1d366004615915565b6001600160a01b03918216600090815260016020908152604080832093909416825291909152205490565b61052360125481565b610523610b5f366004615915565b6001600160a01b03918216600090815260216020908152604080832093909416825291909152205490565b601b546104a2906001600160a01b031681565b61048d610bab366004615570565b6144ab565b610523610bbe366004615933565b614546565b61048d610bd13660046159a4565b6148ce565b601c546001600160a01b03163314610c095760405162461bcd60e51b8152600401610c00906159e6565b60405180910390fd5b601e55565b60048054610c1b90615a08565b80601f0160208091040260200160405190810160405280929190818152602001828054610c4790615a08565b8015610c945780601f10610c6957610100808354040283529160200191610c94565b820191906000526020600020905b815481529060010190602001808311610c7757829003601f168201915b505050505081565b6000601054600f54610cae9190615a58565b905090565b60006001600160a01b038316610d0b5760405162461bcd60e51b815260206004820152601c60248201527f63616e6e6f7420617070726f76652074686520302061646472657373000000006044820152606401610c00565b3360008181526001602090815260408083206001600160a01b03881680855290835292819020869055518581529192917f8c5be1e5ebec7d5bd14f71427d1e84f3dd0314c0f7b2291e5b200ac8c7c3b925910160405180910390a35060015b92915050565b3360009081526024602052604090205460ff16610dbc5760405162461bcd60e51b815260206004820152600a60248201526927b7363c9020b236b4b760b11b6044820152606401610c00565b6017546040516323b872dd60e01b81526001600160a01b03909116906323b872dd90610df090339030908690600401615a6b565b6020604051808303816000875af1158015610e0f573d6000803e3d6000fd5b505050506040513d601f19601f82011682018060405250810190610e339190615a8f565b610e3c57600080fd5b80600f6000828254610e4e9190615aac565b9091555050600e54600f54604051600080516020615ca483398151915292610e7e92908252602082015260400190565b60405180910390a150565b600081600003610e9b57506000919050565b600e54821115610eed5760405162461bcd60e51b815260206004820152601a60248201527f496e73756666696369656e7420746f6b656e20726573657276650000000000006044820152606401610c00565b600082600e54610efd9190615a58565b90506000600f54600e54610f119190615abf565b9050600082610f2883670de0b6b3a7640000615abf565b610f329190615ad6565b90506000600f54670de0b6b3a764000083610f4d9190615ad6565b610f579190615a58565b905060008111610f9f5760405162461bcd60e51b8152602060048201526013602482015272125b9d985b1a59081554d110c8185b5bdd5b9d606a1b6044820152606401610c00565b95945050505050565b601c546001600160a01b03163314610fd25760405162461bcd60e51b8152600401610c00906159e6565b60065460ff16156110175760405162461bcd60e51b815260206004820152600f60248201526e185b1c9958591e48195b98589b1959608a1b6044820152606401610c00565b6006805460ff19166001179055565b60008160000361103857506000919050565b6000600f54836110489190615abf565b9050600083600e5461105a9190615aac565b90506110668183615ad6565b949350505050565b6001600160a01b038316600090815260016020908152604080832033845290915281205461109d908390615a58565b6001600160a01b038516600081815260016020908152604080832033808552908352928190208590555193845290927f8c5be1e5ebec7d5bd14f71427d1e84f3dd0314c0f7b2291e5b200ac8c7c3b925910160405180910390a3611102848484614faf565b90505b9392505050565b601c546001600160a01b031633146111365760405162461bcd60e51b8152600401610c00906159e6565b6040516370a0823160e01b81523060048201526000906001600160a01b038316906370a0823190602401602060405180830381865afa15801561117d573d6000803e3d6000fd5b505050506040513d601f19601f820116820180604052508101906111a19190615af8565b601c5460405163a9059cbb60e01b81529192506001600160a01b038085169263a9059cbb926111d69216908590600401615b11565b6020604051808303816000875af11580156111f5573d6000803e3d6000fd5b505050506040513d601f19601f820116820180604052508101906112199190615a8f565b505050565b600080600060018510158015611235575060648511155b6112765760405162461bcd60e51b8152602060048201526012602482015271496e76616c69642070657263656e7461676560701b6044820152606401610c00565b6000846112a5576001600160a01b0387166000908152601f602090815260408083208b845290915290206112c7565b6001600160a01b0387166000908152602080805260408083208b845290915290205b600881015490915060ff16156113145760405162461bcd60e51b8152602060048201526012602482015271105b1c9958591e481b1a5c5d5a59185d195960721b6044820152606401610c00565b600060648783600201546113289190615abf565b6113329190615ad6565b9050600060648884600401546113489190615abf565b6113529190615ad6565b60018401549091506001600160a01b03163081036113b157600f54600e5461137a8483615a58565b6113849190615abf565b61138e9190615ad6565b600e5461139b9190615a58565b96508695506113aa8684615a58565b945061155a565b600f54600e546113c18483615a58565b6113cb9190615abf565b6113d59190615ad6565b600e546113e29190615a58565b9650600080826001600160a01b0316630902f1ac6040518163ffffffff1660e01b8152600401606060405180830381865afa158015611425573d6000803e3d6000fd5b505050506040513d601f19601f820116820180604052508101906114499190615b2a565b50915091506000836001600160a01b0316636a72cd086040518163ffffffff1660e01b8152600401602060405180830381865afa15801561148e573d6000803e3d6000fd5b505050506040513d601f19601f820116820180604052508101906114b29190615af8565b9050806064036114ed5781836114c88c83615a58565b6114d29190615abf565b6114dc9190615ad6565b6114e69084615a58565b985061154a565b6114f98a828585613eb4565b985085891061154a5760405162461bcd60e51b815260206004820152601e60248201527f63616e6e6f742073656c6c206f66662077697468206e6f2070726f66697400006044820152606401610c00565b6115548987615a58565b97505050505b505050509450945094915050565b601c546001600160a01b031633146115925760405162461bcd60e51b8152600401610c00906159e6565b601980546001600160a01b0319166001600160a01b0392909216919091179055565b601c546001600160a01b031633146115de5760405162461bcd60e51b8152600401610c00906159e6565b6001600160a01b03166000908152602460205260409020805460ff1916911515919091179055565b6000600e54600a54600f5461161b9190615abf565b610cae9190615ad6565b601b546001600160a01b031633148061163b5750805b6116575760405162461bcd60e51b8152600401610c0090615b58565b60008161167d57336000908152601f602090815260408083208684529091529020611696565b3360009081526020808052604080832086845290915290205b6008810154909150610100900460ff166116c25760405162461bcd60e51b8152600401610c0090615b85565b6017546004808301546040516323b872dd60e01b81526001600160a01b03909316926323b872dd926116f8923392309201615a6b565b6020604051808303816000875af1158015611717573d6000803e3d6000fd5b505050506040513d601f19601f8201168201806040525081019061173b9190615a8f565b61177e5760405162461bcd60e51b81526020600482015260146024820152731554d110c81d1c985b9cd9995c8819985a5b195960621b6044820152606401610c00565b600181015460088201805461ff001916905542600a830155600282015460405163a9059cbb60e01b81526001600160a01b0390921691829163a9059cbb916117ca913391600401615b11565b6020604051808303816000875af11580156117e9573d6000803e3d6000fd5b505050506040513d601f19601f8201168201806040525081019061180d9190615a8f565b6118295760405162461bcd60e51b8152600401610c0090615bae565b604051849033907fc200a1f31dd659e356e0f112c82558e25f49f7b0f84438691cd96f5cb355882390600090a350505050565b6021602052826000526040600020602052816000526040600020818154811061188457600080fd5b9060005260206000200160009250925050505481565b6000816000036118ac57506000919050565b6000600e54836118bc9190615abf565b9050600083600f5461105a9190615aac565b601b546000906001600160a01b031633146118fb5760405162461bcd60e51b8152600401610c0090615b58565b601254821015801561190f57506013548211155b6119555760405162461bcd60e51b815260206004820152601760248201527634b731b7b93932b1ba103637b0b710323ab930ba34b7b760491b6044820152606401610c00565b6000611961858561335b565b9050601e548110156119b55760405162461bcd60e51b815260206004820152601b60248201527f4d696e696d756d206c6f616e20616d6f756e74206e6f74206d657400000000006044820152606401610c00565b6040516323b872dd60e01b815284906001600160a01b038216906323b872dd906119e790339030908b90600401615a6b565b6020604051808303816000875af1158015611a06573d6000803e3d6000fd5b505050506040513d601f19601f82011682018060405250810190611a2a9190615a8f565b611a3357600080fd5b33600090815260226020526040812080548290611a4f90615bd7565b918290555090506000611a658662015180615abf565b611a6f9042615aac565b9050600061271060155486611a849190615abf565b611a8e9190615ad6565b90506000611a9c8689613e8c565b90506000611aaa8284615aac565b90506000611ab88289615a58565b9050604051806101a00160405280336001600160a01b031681526020018c6001600160a01b031681526020018d81526020016000815260200189815260200182815260200186815260200160008152602001600015158152602001600115158152602001428152602001600081526020016040518060400160405280600081526020016000815250815250601f6000336001600160a01b03166001600160a01b03168152602001908152602001600020600088815260200190815260200160002060008201518160000160006101000a8154816001600160a01b0302191690836001600160a01b0316021790555060208201518160010160006101000a8154816001600160a01b0302191690836001600160a01b0316021790555060408201518160020155606082015181600301556080820151816004015560a0820151816005015560c0820151816006015560e082015181600701556101008201518160080160006101000a81548160ff0219169083151502179055506101208201518160080160016101000a81548160ff021916908315150217905550610140820151816009015561016082015181600a015561018082015181600b0160008201518160000155602082015181600101555050905050601760009054906101000a90046001600160a01b03166001600160a01b031663a9059cbb33836040518363ffffffff1660e01b8152600401611ccd929190615b11565b6020604051808303816000875af1158015611cec573d6000803e3d6000fd5b505050506040513d601f19601f82011682018060405250810190611d109190615a8f565b50611d1b8288614fbc565b604080516001600160a01b038d168152602081018e905290810182905260608101869052869033907f06d16f6be17dd61543040cab1d3a249eadb8de56019677b916029a5b62fc88c69060800160405180910390a350939a9950505050505050505050565b601c546001600160a01b03163314611daa5760405162461bcd60e51b8152600401610c00906159e6565b6002805460ff1916911515919091179055565b601a546001600160a01b03163314611de75760405162461bcd60e51b8152600401610c0090615bf0565b600083611e16576001600160a01b0382166000908152601f602090815260408083208884529091529020611e38565b6001600160a01b03821660009081526020808052604080832088845290915290205b90508281600b016001016000828254611e519190615aac565b90915550505050505050565b600081600003611e6f57506000919050565b600f54821115611ec15760405162461bcd60e51b815260206004820152601960248201527f496e73756666696369656e7420555344432072657365727665000000000000006044820152606401610c00565b600082600f54611ed19190615a58565b90506000600f54600e54611ee59190615abf565b9050600082611efc83670de0b6b3a7640000615abf565b611f069190615ad6565b90506000600e54670de0b6b3a764000083611f219190615ad6565b611f2b9190615a58565b905060008111610f9f5760405162461bcd60e51b8152602060048201526014602482015273125b9d985b1a59081d1bdad95b88185b5bdd5b9d60621b6044820152606401610c00565b601a546000906001600160a01b03163314611fa15760405162461bcd60e51b8152600401610c0090615bf0565b60065460ff16611fec5760405162461bcd60e51b8152602060048201526016602482015275151c98591a5b99c81a5cc81b9bdd08195b98589b195960521b6044820152606401610c00565b6040516323b872dd60e01b815230906323b872dd9061201390339084908890600401615a6b565b6020604051808303816000875af1158015612032573d6000803e3d6000fd5b505050506040513d601f19601f820116820180604052508101906120569190615a8f565b61209a5760405162461bcd60e51b81526020600482015260156024820152741d1bdad95b881d1c985b9cd9995c8819985a5b1959605a1b6044820152606401610c00565b60006120a584611026565b90506120b2846002615abf565b600560008282546120c39190615a58565b909155506120d49050846002615abf565b30600090815260208190526040812080549091906120f3908490615a58565b9091555060009050612103611606565b905081600f60008282546121179190615a58565b9250508190555084600e60008282546121309190615a58565b909155505060175460405163a9059cbb60e01b81526001600160a01b039091169063a9059cbb906121679033908690600401615b11565b6020604051808303816000875af1158015612186573d6000803e3d6000fd5b505050506040513d601f19601f820116820180604052508101906121aa9190615a8f565b6121c65760405162461bcd60e51b8152600401610c0090615c13565b600080516020615ca4833981519152600e54600f546040516121f2929190918252602082015260400190565b60405180910390a1836001600160a01b0316600080516020615c8483398151915286848460016040516122289493929190615c41565b60405180910390a242601155436007556122406150d8565b509392505050565b601a546001600160a01b031633146122725760405162461bcd60e51b8152600401610c0090615bf0565b6017546040516323b872dd60e01b81526001600160a01b03909116906323b872dd906122a690339030908a90600401615a6b565b6020604051808303816000875af11580156122c5573d6000803e3d6000fd5b505050506040513d601f19601f820116820180604052508101906122e99190615a8f565b6123055760405162461bcd60e51b8152600401610c0090615c13565b86600e60008282546123179190615aac565b9250508190555085600f60008282546123309190615aac565b909155506123419050876002615abf565b600560008282546123529190615aac565b9091555050306001600160a01b0385160361239c57612372876002615abf565b3060009081526020819052604081208054909190612391908490615aac565b909155506124629050565b30600090815260208190526040812080548992906123bb908490615aac565b90915550506001600160a01b038416600090815260208190526040812080548992906123e8908490615aac565b90915550506040516319c2867560e21b81526004810184905260248101889052604481018390526001600160a01b03828116606483015285919082169063670a19d490608401600060405180830381600087803b15801561244857600080fd5b505af115801561245c573d6000803e3d6000fd5b50505050505b43600755600e54600f54604051600080516020615ca48339815191529261249192908252602082015260400190565b60405180910390a150505050505050565b601b546000906001600160a01b031633146124cf5760405162461bcd60e51b8152600401610c0090615b58565b336000908152601f6020908152604080832086845290915290206008810154610100900460ff166125125760405162461bcd60e51b8152600401610c0090615b85565b60068101546012546125279062015180615abf565b6125319042615aac565b106125735760405162461bcd60e51b8152602060048201526012602482015271111d5c985d1a5bdb881d1bdbc81cda1bdc9d60721b6044820152606401610c00565b600083116125b15760405162461bcd60e51b815260206004820152600b60248201526a16995c9bc8185b5bdd5b9d60aa1b6044820152606401610c00565b60018101546040516323b872dd60e01b81526001600160a01b03909116906323b872dd906125e790339030908890600401615a6b565b6020604051808303816000875af1158015612606573d6000803e3d6000fd5b505050506040513d601f19601f8201168201806040525081019061262a9190615a8f565b50600083826002015461263d9190615aac565b600183015490915060009061265c9083906001600160a01b031661335b565b9050826004015481116126a65760405162461bcd60e51b81526020600482015260126024820152712737903137b93937bbb4b733903837bbb2b960711b6044820152606401610c00565b60008360040154826126b89190615a58565b90506000620151804286600601546126d09190615a58565b6126da9190615ad6565b905060006126e88383613e8c565b612710601554856126f99190615abf565b6127039190615ad6565b61270d9190615aac565b90508281106127525760405162461bcd60e51b815260206004820152601160248201527046656573206578636565642076616c756560781b6044820152606401610c00565b600061275e8285615a58565b9050888760020160008282546127749190615aac565b925050819055508387600401600082825461278f9190615aac565b92505081905550808760050160008282546127aa9190615aac565b909155505060175460405163a9059cbb60e01b81526001600160a01b039091169063a9059cbb906127e19033908590600401615b11565b6020604051808303816000875af1158015612800573d6000803e3d6000fd5b505050506040513d601f19601f820116820180604052508101906128249190615a8f565b6128675760405162461bcd60e51b81526020600482015260146024820152731554d110c81d1c985b9cd9995c8819985a5b195960621b6044820152606401610c00565b60018701546128809083906001600160a01b0316614fbc565b6002870154604080518b81526020810184905280820192909252518b9133917f6a1c39c008682d535d0dcffb5fd670d83461e4d8f47c23397615bd0ced2f03099181900360600190a39998505050505050505050565b601c546001600160a01b031633146129005760405162461bcd60e51b8152600401610c00906159e6565b601b80546001600160a01b0319166001600160a01b0392909216919091179055565b601c546001600160a01b0316331461294c5760405162461bcd60e51b8152600401610c00906159e6565b601880546001600160a01b0319166001600160a01b0392909216919091179055565b601b546001600160a01b03163314806129845750835b6129a05760405162461bcd60e51b8152600401610c0090615b58565b84600003612a0a5781612a055760405162461bcd60e51b815260206004820152602760248201527f4d75737420626520726566696e616e6365206966206e6f7420657874656e64696044820152666e672074696d6560c81b6064820152608401610c00565b612a64565b6012548510158015612a1e57506013548511155b612a645760405162461bcd60e51b815260206004820152601760248201527634b731b7b93932b1ba103637b0b710323ab930ba34b7b760491b6044820152606401610c00565b600084612a8a57336000908152601f602090815260408083208a84529091529020612aa3565b336000908152602080805260408083208a845290915290205b6008810154909150610100900460ff16612acf5760405162461bcd60e51b8152600401610c0090615b85565b8115612b9e57601b546001600160a01b03163314612b2f5760405162461bcd60e51b815260206004820152601860248201527f556e617574686f72697a656420667265652063616c6c657200000000000000006044820152606401610c00565b612b3c8662015180615abf565b8160060154612b4b9190615aac565b60068201819055604080518715158152602081018990528082019290925251889133917fb373786d018b6e0ed828ca59ebfe29b56b2faa9b7d2bd569daacdbb20c911ceb9181900360600190a35061307d565b60028101546001820154600091612bbd916001600160a01b031661335b565b90506000612bcf836004015489613e8c565b9050808615612cda576017546040516323b872dd60e01b81526001600160a01b03909116906323b872dd90612c0c90339030908690600401615a6b565b6020604051808303816000875af1158015612c2b573d6000803e3d6000fd5b505050506040513d601f19601f82011682018060405250810190612c4f9190615a8f565b612c9b5760405162461bcd60e51b815260206004820152601860248201527f5553444320666565207472616e73666572206661696c656400000000000000006044820152606401610c00565b612ca88962015180615abf565b8460060154612cb79190615aac565b60068501556001840154612cd59082906001600160a01b0316614fbc565b61302d565b8515612f725783600401548311612d1f5760405162461bcd60e51b81526020600482015260096024820152684e6f2065717569747960b81b6044820152606401610c00565b6000846004015484612d319190615a58565b9050670de0b6b3a7640000811015612d8b5760405162461bcd60e51b815260206004820152601760248201527f4d696e696d756d20737572706c7573206e6f74206d65740000000000000000006044820152606401610c00565b600061271060155483612d9e9190615abf565b612da89190615ad6565b9050600042876006015411612dbe576000612ddc565b62015180428860060154612dd29190615a58565b612ddc9190615ad6565b90508b600003612e3857601254811015612e385760405162461bcd60e51b815260206004820152601860248201527f54696d652072656d61696e696e6720746f6f2073686f727400000000000000006044820152606401610c00565b612e4683610a8f8e84615aac565b612e509086615aac565b9450612e5c8583615aac565b9350838311612ead5760405162461bcd60e51b815260206004820152601960248201527f466565732065786365656420737572706c75732076616c7565000000000000006044820152606401610c00565b6000612eb98585615a58565b600489018890556005890154909150612ed3908290615aac565b600589015560175460405163a9059cbb60e01b81526001600160a01b039091169063a9059cbb90612f0a9033908590600401615b11565b6020604051808303816000875af1158015612f29573d6000803e3d6000fd5b505050506040513d601f19601f82011682018060405250810190612f4d9190615a8f565b612f695760405162461bcd60e51b8152600401610c0090615bae565b50505050612ff2565b82818560040154612f839190615aac565b10612fdc5760405162461bcd60e51b815260206004820152602360248201527f4e6f7420656e6f75676820636f6c6c61746572616c20746f20636f766572206660448201526265657360e81b6064820152608401610c00565b808460040154612fec9190615aac565b60048501555b600184015461300b9082906001600160a01b0316614fbc565b6130188962015180615abf565b84600601546130279190615aac565b60068501555b5050506006810154604080518715158152602081018990528082019290925251889133917fb373786d018b6e0ed828ca59ebfe29b56b2faa9b7d2bd569daacdbb20c911ceb9181900360600190a3505b505050505050565b600080600080866130b8576001600160a01b038a166000908152601f602090815260408083208c845290915290206130da565b6001600160a01b038a166000908152602080805260408083208c845290915290205b6008810154909150610100900460ff166130ff57600080600093509350935050613310565b87600003613122578461311d57600080600093509350935050613310565b613149565b601254881080613133575060135488115b1561314957600080600093509350935050613310565b60028101546001820154600091613168916001600160a01b031661335b565b9050600061317a83600401548b613e8c565b9050808815613196576001965094506000935061331092505050565b87156132d557836004015483116131bb57600080600096509650965050505050613310565b60008460040154846131cd9190615a58565b9050670de0b6b3a76400008110156131f45760008060009750975097505050505050613310565b6000612710601554836132079190615abf565b6132119190615ad6565b9050600042876006015411613227576000613245565b6201518042886006015461323b9190615a58565b6132459190615ad6565b90508d158015613256575060125481105b1561327257600080600099509950995050505050505050613310565b613282838f83610a8f9190615aac565b61328c9083615aac565b6132969085615aac565b93508284106132b657600084600099509950995050505050505050613310565b6001846132c38186615a58565b99509950995050505050505050613310565b828185600401546132e69190615aac565b106132fd5760009650945085935061331092505050565b6001965094506000935061331092505050565b96509650969350505050565b60038054610c1b90615a08565b601c546001600160a01b031633146133535760405162461bcd60e51b8152600401610c00906159e6565b601455601555565b600080831161339d5760405162461bcd60e51b815260206004820152600e60248201526d63616e6e6f74206265207a65726f60901b6044820152606401610c00565b6018546040516310f83ae960e01b81526001600160a01b038481166004830152909116906310f83ae990602401602060405180830381865afa1580156133e7573d6000803e3d6000fd5b505050506040513d601f19601f8201168201806040525081019061340b9190615a8f565b8061341e57506001600160a01b03821630145b6134625760405162461bcd60e51b81526020600482015260156024820152744f6e6c792065636f73797374656d20746f6b656e7360581b6044820152606401610c00565b306001600160a01b0383160361349857600a5461347d611606565b6134879085615abf565b6134919190615ad6565b9050610d6a565b6000829050600a54816001600160a01b031663aec5e1046040518163ffffffff1660e01b8152600401602060405180830381865afa1580156134de573d6000803e3d6000fd5b505050506040513d601f19601f820116820180604052508101906135029190615af8565b61350c9086615abf565b6135169190615ad6565b915050610d6a565b601c546001600160a01b031633146135485760405162461bcd60e51b8152600401610c00906159e6565b601a80546001600160a01b0319166001600160a01b0392909216919091179055565b601c546001600160a01b031633146135945760405162461bcd60e51b8152600401610c00906159e6565b601292909255601355601e55565b6000611105338484614faf565b601a546000906001600160a01b031633146135dc5760405162461bcd60e51b8152600401610c0090615bf0565b60008261360b576001600160a01b0385166000908152601f60209081526040808320898452909152902061362d565b6001600160a01b03851660009081526020808052604080832089845290915290205b6008810154909150610100900460ff166136595760405162461bcd60e51b8152600401610c0090615b85565b6001841015801561366b575060648411155b6136ac5760405162461bcd60e51b8152602060048201526012602482015271496e76616c69642070657263656e7461676560701b6044820152606401610c00565b600181015460028201546001600160a01b03909116906000906064906136d3908890615abf565b6136dd9190615ad6565b9050600060648785600401546136f39190615abf565b6136fd9190615ad6565b600f54600e549192506000916137138483615a58565b61371d9190615abf565b6137279190615ad6565b600e546137349190615a58565b90508760640361374c5760088501805461ff00191690555b6001850154306001600160a01b03909116036139c55780600e60008282546137749190615a58565b9250508190555081600f600082825461378d9190615a58565b9091555061379e9050816002615abf565b30600090815260208190526040812080549091906137bd908490615a58565b909155506137ce9050816002615abf565b600560008282546137df9190615a58565b909155505060048501546137f4908390615a58565b60048601556002850154613809908490615a58565b60028601553063a9059cbb3361381f8487615a58565b6040518363ffffffff1660e01b815260040161383c929190615b11565b6020604051808303816000875af115801561385b573d6000803e3d6000fd5b505050506040513d601f19601f8201168201806040525081019061387f9190615a8f565b6138bb5760405162461bcd60e51b815260206004820152600d60248201526c1c185e5bdd5d0819985a5b1959609a1b6044820152606401610c00565b600080516020615ca4833981519152600e54600f546040516138e7929190918252602082015260400190565b60405180910390a186156139595760006138ff611606565b4360075590506001600160a01b038a16600080516020615c8483398151915285670de0b6b3a76400006139328583615abf565b61393c9190615ad6565b84600360405161394f9493929190615c41565b60405180910390a2505b896001600160a01b038a167fee4fef84a6c590c33c3796f9e6842465c2d6db75a4c292ffce6ebb8834f87ff78a8a6139918689615a58565b6040805193845291151560208401529082015260600160405180910390a36139b98184615a58565b95505050505050611066565b600080856001600160a01b0316630902f1ac6040518163ffffffff1660e01b8152600401606060405180830381865afa158015613a06573d6000803e3d6000fd5b505050506040513d601f19601f82011682018060405250810190613a2a9190615b2a565b50915091506000866001600160a01b0316636a72cd086040518163ffffffff1660e01b8152600401602060405180830381865afa158015613a6f573d6000803e3d6000fd5b505050506040513d601f19601f82011682018060405250810190613a939190615af8565b606403613acb578183613aa68683615a58565b613ab09190615abf565b613aba9190615ad6565b613ac49084615a58565b9050613b89565b613b3884886001600160a01b0316636a72cd086040518163ffffffff1660e01b8152600401602060405180830381865afa158015613b0d573d6000803e3d6000fd5b505050506040513d601f19601f82011682018060405250810190613b319190615af8565b8585613eb4565b9050858110613b895760405162461bcd60e51b815260206004820152601e60248201527f63616e6e6f742073656c6c206f66662077697468206e6f2070726f66697400006044820152606401610c00565b604051637b32866b60e01b815260048101829052602481018590526001600160a01b038d811660448301528b15156064830152881690637b32866b90608401600060405180830381600087803b158015613be257600080fd5b505af1158015613bf6573d6000803e3d6000fd5b5050505083600e6000828254613c0c9190615a58565b9250508190555084600f6000828254613c259190615a58565b90915550503060009081526020819052604081208054869290613c49908490615a58565b90915550506001600160a01b03871660009081526020819052604081208054869290613c76908490615a58565b90915550613c879050846002615abf565b60056000828254613c989190615a58565b90915550506004880154613cad908690615a58565b60048901556002880154613cc2908790615a58565b60028901556001600160a01b03871663a9059cbb33613ce1848a615a58565b6040518363ffffffff1660e01b8152600401613cfe929190615b11565b6020604051808303816000875af1158015613d1d573d6000803e3d6000fd5b505050506040513d601f19601f82011682018060405250810190613d419190615a8f565b613d7d5760405162461bcd60e51b815260206004820152600d60248201526c1c185e5bdd5d0819985a5b1959609a1b6044820152606401610c00565b600080516020615ca4833981519152600e54600f54604051613da9929190918252602082015260400190565b60405180910390a18915613e1b576000613dc1611606565b4360075590506001600160a01b038d16600080516020615c8483398151915288670de0b6b3a7640000613df48583615abf565b613dfe9190615ad6565b846003604051613e119493929190615c41565b60405180910390a2505b8c6001600160a01b038d167fee4fef84a6c590c33c3796f9e6842465c2d6db75a4c292ffce6ebb8834f87ff78d8d613e53868c615a58565b6040805193845291151560208401529082015260600160405180910390a3613e7b8187615a58565b9d9c50505050505050505050505050565b6000620186a082601454613ea09190615abf565b613eaa9085615abf565b6111059190615ad6565b600060018410158015613ec75750606484105b613f085760405162461bcd60e51b815260206004820152601260248201527134b73b30b634b21036bab63a34b83634b2b960711b6044820152606401610c00565b6064600080613f178389615ad6565b905060005b83811015613fb1576000613f31600186615a58565b8214613f3d5782613f5c565b613f48600186615a58565b613f529084615abf565b613f5c908b615a58565b90506000613f6b828a8a61520f565b90506064613f798b83615abf565b613f839190615ad6565b613f8d908a615a58565b9850613f998289615a58565b9750613fa58186615aac565b94505050600101613f1c565b5090979650505050505050565b601a546000906001600160a01b03163314613feb5760405162461bcd60e51b8152600401610c0090615bf0565b60065460ff166140365760405162461bcd60e51b8152602060048201526016602482015275151c98591a5b99c81a5cc81b9bdd08195b98589b195960521b6044820152606401610c00565b6017546040516323b872dd60e01b81526001600160a01b03909116906323b872dd9061406a90339030908890600401615a6b565b6020604051808303816000875af1158015614089573d6000803e3d6000fd5b505050506040513d601f19601f820116820180604052508101906140ad9190615a8f565b6140c95760405162461bcd60e51b8152600401610c0090615c13565b60006140d48461189a565b90506140e1816002615abf565b600560008282546140f29190615aac565b909155506141039050816002615abf565b3060009081526020819052604081208054909190614122908490615aac565b9091555060009050614132611606565b905084600f60008282546141469190615aac565b9250508190555081600e600082825461415f9190615aac565b909155505060405163a9059cbb60e01b8152309063a9059cbb906141899033908690600401615b11565b6020604051808303816000875af11580156141a8573d6000803e3d6000fd5b505050506040513d601f19601f820116820180604052508101906141cc9190615a8f565b6141e85760405162461bcd60e51b8152600401610c0090615bae565b600080516020615ca4833981519152600e54600f54604051614214929190918252602082015260400190565b60405180910390a1836001600160a01b0316600080516020615c84833981519152838784600060405161424a9493929190615c41565b60405180910390a25042601155436007559392505050565b601b546000906001600160a01b031633148061427b5750815b6142975760405162461bcd60e51b8152600401610c0090615b58565b6000826142bd57336000908152601f6020908152604080832087845290915290206142d6565b3360009081526020808052604080832087845290915290205b6008810154909150610100900460ff161561432a5760405162461bcd60e51b81526020600482015260146024820152734c6f616e206973207374696c6c2061637469766560601b6044820152606401610c00565b60008160070154116143715760405162461bcd60e51b815260206004820152601060248201526f4e6f7468696e6720746f20636c61696d60801b6044820152606401610c00565b6001810154600782015460405163a9059cbb60e01b81526001600160a01b0390921691829063a9059cbb906143ac9033908590600401615b11565b6020604051808303816000875af11580156143cb573d6000803e3d6000fd5b505050506040513d601f19601f820116820180604052508101906143ef9190615a8f565b61440b5760405162461bcd60e51b8152600401610c0090615bae565b600060079093019290925550905092915050565b601c546001600160a01b031633146144495760405162461bcd60e51b8152600401610c00906159e6565b601c546040516000916001600160a01b03169047908381818185875af1925050503d8060008114614496576040519150601f19603f3d011682016040523d82523d6000602084013e61449b565b606091505b5050905080156144a85750565b50565b601c546001600160a01b031633146144d55760405162461bcd60e51b8152600401610c00906159e6565b6001600160a01b0381166145245760405162461bcd60e51b8152602060048201526016602482015275506c6561736520646f206e6f742072656e6f756e636560501b6044820152606401610c00565b601c80546001600160a01b0319166001600160a01b0392909216919091179055565b601a546000906001600160a01b031633146145735760405162461bcd60e51b8152600401610c0090615bf0565b6001600160a01b03841660009081526023602052604081208054829061459890615bd7565b9182905550905060006145ae8962015180615abf565b6145b89042615aac565b9050604051806101a00160405280876001600160a01b031681526020018b6001600160a01b031681526020018c81526020016000815260200188815260200189815260200182815260200160008152602001600015158152602001600115158152602001428152602001600081526020016040518060400160405280878152602001600081525081525060206000886001600160a01b03166001600160a01b03168152602001908152602001600020600084815260200190815260200160002060008201518160000160006101000a8154816001600160a01b0302191690836001600160a01b0316021790555060208201518160010160006101000a8154816001600160a01b0302191690836001600160a01b0316021790555060408201518160020155606082015181600301556080820151816004015560a0820151816005015560c0820151816006015560e082015181600701556101008201518160080160006101000a81548160ff0219169083151502179055506101208201518160080160016101000a81548160ff021916908315150217905550610140820151816009015561016082015181600a015561018082015181600b01600082015181600001556020820151816001015550509050504360078190555060216000876001600160a01b03166001600160a01b0316815260200190815260200160002060008b6001600160a01b03166001600160a01b03168152602001908152602001600020829080600181540180825580915050600190039060005260206000200160009091909190915055600080516020615ca4833981519152600e54600f5460405161482b929190918252602082015260400190565b60405180910390a1856001600160a01b0316600080516020615c848339815191528c898860026040516148619493929190615c41565b60405180910390a2604080516001600160a01b038c81168252602082018e90529181018a90526060810183905283918816907fe4749e85a5002c6bc835c5daf08f632acf41eaf10eb35822b1af5a38c510f26b9060800160405180910390a3509998505050505050505050565b3360009081526024602052604090205460ff1661491a5760405162461bcd60e51b815260206004820152600a60248201526927b7363c9020b236b4b760b11b6044820152606401610c00565b600081614949576001600160a01b0383166000908152601f60209081526040808320878452909152902061496b565b6001600160a01b03831660009081526020808052604080832087845290915290205b6008810154909150610100900460ff166149975760405162461bcd60e51b8152600401610c0090615b85565b428160060154106149f45760405162461bcd60e51b815260206004820152602160248201527f43616e6e6f74206c6971756964617465206265666f72652074696d6520656e646044820152607360f81b6064820152608401610c00565b60018101546001600160a01b0316308103614bb1576000600f54600e548460040154600f54614a239190615a58565b614a2d9190615abf565b614a379190615ad6565b600e54614a449190615a58565b90506000818460020154614a589190615a58565b905081600e6000828254614a6c9190615a58565b90915550506004840154600f8054600090614a88908490615a58565b90915550614a999050826002615abf565b3060009081526020819052604081208054909190614ab8908490615a58565b90915550614ac99050826002615abf565b60056000828254614ada9190615a58565b9250508190555081846003016000828254614af59190615aac565b909155505060088401805461ff001916905560006064614b1683600a615abf565b614b209190615ad6565b9050614b2c8183615a58565b6007860155601c5460405163a9059cbb60e01b81526001600160a01b038681169263a9059cbb92614b6592909116908590600401615b11565b6020604051808303816000875af1158015614b84573d6000803e3d6000fd5b505050506040513d601f19601f82011682018060405250810190614ba89190615a8f565b50505050614f1f565b6000600f54600e548460040154600f54614bcb9190615a58565b614bd59190615abf565b614bdf9190615ad6565b600e54614bec9190615a58565b9050600080836001600160a01b0316630902f1ac6040518163ffffffff1660e01b8152600401606060405180830381865afa158015614c2f573d6000803e3d6000fd5b505050506040513d601f19601f82011682018060405250810190614c539190615b2a565b5091509150600080856001600160a01b0316636a72cd086040518163ffffffff1660e01b8152600401602060405180830381865afa158015614c99573d6000803e3d6000fd5b505050506040513d601f19601f82011682018060405250810190614cbd9190615af8565b905080606403614cf8578284614cd38783615a58565b614cdd9190615abf565b614ce79190615ad6565b614cf19085615a58565b9150614d20565b614d0485828686613eb4565b915081876002015410614d175781614d1d565b86600201545b91505b6000828860020154614d329190615a58565b604051637b32866b60e01b815260048101859052602481018890526001600160a01b038c811660448301528b1515606483015291925090881690637b32866b90608401600060405180830381600087803b158015614d8f57600080fd5b505af1158015614da3573d6000803e3d6000fd5b5050505085600e6000828254614db99190615a58565b90915550506004880154600f8054600090614dd5908490615a58565b90915550503060009081526020819052604081208054889290614df9908490615a58565b90915550506001600160a01b03871660009081526020819052604081208054889290614e26908490615a58565b90915550614e379050866002615abf565b60056000828254614e489190615a58565b9250508190555082886003016000828254614e639190615aac565b909155505060088801805461ff001916905560006064614e8483600a615abf565b614e8e9190615ad6565b9050614e9a8183615a58565b60078a0155601c5460405163a9059cbb60e01b81526001600160a01b038a81169263a9059cbb92614ed392909116908590600401615b11565b6020604051808303816000875af1158015614ef2573d6000803e3d6000fd5b505050506040513d601f19601f82011682018060405250810190614f169190615a8f565b50505050505050505b42600a83015560088201805460ff1916600117905560405133815285906001600160a01b038616907fde21b2a43b0a2c2109c049fb1e4bb8653fd67d0ffd74fdcb662db381f1eeab389060200160405180910390a3600080516020615ca4833981519152600e54600f54604051614fa0929190918252602082015260400190565b60405180910390a15050505050565b6000611102848484615321565b60175460195460405163095ea7b360e01b81526001600160a01b039283169263095ea7b392614ff2929116908690600401615b11565b6020604051808303816000875af1158015615011573d6000803e3d6000fd5b505050506040513d601f19601f820116820180604052508101906150359190615a8f565b6150765760405162461bcd60e51b815260206004820152601260248201527115185e08185c1c1c9bdd994819985a5b195960721b6044820152606401610c00565b60195460405163ccb9132960e01b8152600481018490526001600160a01b0383811660248301529091169063ccb9132990604401600060405180830381600087803b1580156150c457600080fd5b505af115801561307d573d6000803e3d6000fd5b60006150e2611606565b90506000670de0b6b3a764000082116150fc57600061510e565b61510e670de0b6b3a764000083615a58565b9050670de0b6b3a7640000601054826151279190615abf565b6151319190615ad6565b9050600081118015615144575060165481115b1561520b576064615156826063615abf565b6151609190615ad6565b9050601654816151709190615a58565b905080601660008282546151849190615aac565b9091555050601754601c5460405163a9059cbb60e01b81526001600160a01b039283169263a9059cbb926151bf929116908590600401615b11565b6020604051808303816000875af11580156151de573d6000803e3d6000fd5b505050506040513d601f19601f820116820180604052508101906152029190615a8f565b61520b57600080fd5b5050565b60008360000361522157506000611105565b818411156152715760405162461bcd60e51b815260206004820152601f60248201527f496e73756666696369656e74206d61696e20746f6b656e2072657365727665006044820152606401610c00565b600061527d8584615a58565b9050600061528b8486615abf565b90506000826152a283670de0b6b3a7640000615abf565b6152ac9190615ad6565b90506000866152c3670de0b6b3a764000084615ad6565b6152cd9190615a58565b9050600081116153165760405162461bcd60e51b8152602060048201526014602482015273125b9d985b1a59081d1bdad95b88185b5bdd5b9d60621b6044820152606401610c00565b979650505050505050565b60006001600160a01b0383166153725760405162461bcd60e51b815260206004820152601660248201527563616e6e6f74206265207a65726f206164647265737360501b6044820152606401610c00565b826001600160a01b0316846001600160a01b0316036153d35760405162461bcd60e51b815260206004820152601f60248201527f796f752063616e6e6f74207472616e7366657220746f20796f757273656c66006044820152606401610c00565b6001600160a01b038416600090815260208190526040812080548492906153fb908490615a58565b90915550506001600160a01b03831660009081526020819052604081208054849290615428908490615aac565b92505081905550826001600160a01b0316846001600160a01b03167fddf252ad1be2c89b69c2b068fc378daa952ba7f163c4a11628f55a4df523b3ef8460405161547491815260200190565b60405180910390a35060019392505050565b60006020828403121561549857600080fd5b5035919050565b60006020808352835180602085015260005b818110156154cd578581018301518582016040015282016154b1565b506000604082860101526040601f19601f8301168501019250505092915050565b6001600160a01b03811681146144a857600080fd5b6000806040838503121561551657600080fd5b8235615521816154ee565b946020939093013593505050565b60008060006060848603121561554457600080fd5b833561554f816154ee565b9250602084013561555f816154ee565b929592945050506040919091013590565b60006020828403121561558257600080fd5b8135611105816154ee565b6001600160a01b038e811682528d166020820152604081018c9052606081018b9052608081018a905260a0810189905260c0810188905260e08101879052851515610100820152841515610120820152610140810184905261016081018390526101c0810161560a61018083018480518252602090810151910152565b9e9d5050505050505050505050505050565b80151581146144a857600080fd5b6000806000806080858703121561564057600080fd5b843593506020850135615652816154ee565b92506040850135915060608501356156698161561c565b939692955090935050565b6000806040838503121561568757600080fd5b82356156928161561c565b915060208301356156a2816154ee565b809150509250929050565b600080604083850312156156c057600080fd5b8235915060208301356156a28161561c565b6000806000606084860312156156e757600080fd5b83359250602084013561555f816154ee565b60006020828403121561570b57600080fd5b81356111058161561c565b6000806000806080858703121561572c57600080fd5b84359350602085013561573e8161561c565b9250604085013591506060850135615669816154ee565b6000806040838503121561576857600080fd5b8235915060208301356156a2816154ee565b600080600080600080600060e0888a03121561579557600080fd5b87359650602088013595506040880135945060608801356157b5816154ee565b93506080880135925060a0880135915060c08801356157d3816154ee565b8091505092959891949750929550565b600080604083850312156157f657600080fd5b50508035926020909101359150565b60008060008060008060c0878903121561581e57600080fd5b863595506020870135945060408701356158378161561c565b935060608701356158478161561c565b925060808701356158578161561c565b915060a08701356158678161561c565b809150509295509295509295565b60008060008060008060c0878903121561588e57600080fd5b8635615899816154ee565b9550602087013594506040870135935060608701356158478161561c565b6000806000606084860312156158cc57600080fd5b505081359360208301359350604090920135919050565b600080600080608085870312156158f957600080fd5b5050823594602084013594506040840135936060013592509050565b6000806040838503121561592857600080fd5b8235615692816154ee565b600080600080600080600080610100898b03121561595057600080fd5b883597506020890135615962816154ee565b965060408901359550606089013594506080890135935060a0890135615987816154ee565b979a969950949793969295929450505060c08201359160e0013590565b6000806000606084860312156159b957600080fd5b8335925060208401356159cb816154ee565b915060408401356159db8161561c565b809150509250925092565b6020808252600890820152674f6e6c792043454f60c01b604082015260600190565b600181811c90821680615a1c57607f821691505b602082108103615a3c57634e487b7160e01b600052602260045260246000fd5b50919050565b634e487b7160e01b600052601160045260246000fd5b81810381811115610d6a57610d6a615a42565b6001600160a01b039384168152919092166020820152604081019190915260600190565b600060208284031215615aa157600080fd5b81516111058161561c565b80820180821115610d6a57610d6a615a42565b8082028115828204841417610d6a57610d6a615a42565b600082615af357634e487b7160e01b600052601260045260246000fd5b500490565b600060208284031215615b0a57600080fd5b5051919050565b6001600160a01b03929092168252602082015260400190565b600080600060608486031215615b3f57600080fd5b8351925060208401519150604084015190509250925092565b6020808252601390820152722ab730baba3437b934bd32b21031b0b63632b960691b604082015260600190565b6020808252600f908201526e4c6f616e206e6f742061637469766560881b604082015260600190565b6020808252600f908201526e1d1c985b9cd9995c8819985a5b1959608a1b604082015260600190565b600060018201615be957615be9615a42565b5060010190565b60208082526009908201526804f6e6c7920535741560bc1b604082015260600190565b6020808252601490820152731d5cd918c81d1c985b9cd9995c8819985a5b195960621b604082015260600190565b84815260208101849052604081018390526080810160048310615c7457634e487b7160e01b600052602160045260246000fd5b8260608301529594505050505056fe9e6418c1a84f09aeec42d9250d950a69cf14713e07b3046b4ea8dc3de218806ecf2aa50876cdfbb541206f89af0ee78d44a2abf8d328e37fa4917f982149848aa2646970667358221220a0f28b62286d098a1ee9609de8cb614519a0160b7757138ffbb247c76c27d45164736f6c63430008180033",
  "linkReferences": {},
  "deployedLinkReferences": {}
}