{
  "_format": "hh-sol-artifact-1",
  "contractName": "A_VestingContract",
  "sourceName": "contracts/VESTING.sol",
  "abi": [
    {
      "inputs": [
        {
          "internalType": "address",
          "name": "maintoken",
          "type": "address"
        },
        {
          "internalType": "address",
          "name": "factory",
          "type": "address"
        },
        {
          "internalType": "address",
          "name": "loan",
          "type": "address"
        }
      ],
      "stateMutability": "nonpayable",
      "type": "constructor"
    },
    {
      "anonymous": false,
      "inputs": [
        {
          "indexed": false,
          "internalType": "uint256",
          "name": "vestingId",
          "type": "uint256"
        },
        {
          "indexed": false,
          "internalType": "address",
          "name": "oldBeneficiary",
          "type": "address"
        },
        {
          "indexed": false,
          "internalType": "address",
          "name": "newBeneficiary",
          "type": "address"
        }
      ],
      "name": "BeneficiaryChanged",
      "type": "event"
    },
    {
      "anonymous": false,
      "inputs": [
        {
          "indexed": false,
          "internalType": "uint256",
          "name": "vestingId",
          "type": "uint256"
        },
        {
          "indexed": false,
          "internalType": "address",
          "name": "oldCreator",
          "type": "address"
        },
        {
          "indexed": false,
          "internalType": "address",
          "name": "newCreator",
          "type": "address"
        }
      ],
      "name": "CreatorRoleTransferred",
      "type": "event"
    },
    {
      "anonymous": false,
      "inputs": [
        {
          "indexed": false,
          "internalType": "uint256",
          "name": "newFeeAmount",
          "type": "uint256"
        }
      ],
      "name": "FeeAmountChanged",
      "type": "event"
    },
    {
      "anonymous": false,
      "inputs": [
        {
          "indexed": false,
          "internalType": "address",
          "name": "payer",
          "type": "address"
        },
        {
          "indexed": false,
          "internalType": "uint256",
          "name": "amount",
          "type": "uint256"
        }
      ],
      "name": "FeeCollected",
      "type": "event"
    },
    {
      "anonymous": false,
      "inputs": [
        {
          "indexed": false,
          "internalType": "bool",
          "name": "enabled",
          "type": "bool"
        }
      ],
      "name": "FeeEnabledChanged",
      "type": "event"
    },
    {
      "anonymous": false,
      "inputs": [
        {
          "indexed": false,
          "internalType": "address",
          "name": "addr",
          "type": "address"
        },
        {
          "indexed": false,
          "internalType": "bool",
          "name": "whitelisted",
          "type": "bool"
        }
      ],
      "name": "FeeWhitelistUpdated",
      "type": "event"
    },
    {
      "anonymous": false,
      "inputs": [
        {
          "indexed": false,
          "internalType": "uint256",
          "name": "newBuffer",
          "type": "uint256"
        }
      ],
      "name": "LoanBufferUpdated",
      "type": "event"
    },
    {
      "anonymous": false,
      "inputs": [
        {
          "indexed": false,
          "internalType": "uint256",
          "name": "vestingId",
          "type": "uint256"
        },
        {
          "indexed": false,
          "internalType": "uint256",
          "name": "loanId",
          "type": "uint256"
        }
      ],
      "name": "LoanRepaid",
      "type": "event"
    },
    {
      "anonymous": false,
      "inputs": [
        {
          "indexed": false,
          "internalType": "uint256",
          "name": "vestingId",
          "type": "uint256"
        },
        {
          "indexed": false,
          "internalType": "uint256",
          "name": "loanId",
          "type": "uint256"
        },
        {
          "indexed": false,
          "internalType": "uint256",
          "name": "tokenAmount",
          "type": "uint256"
        },
        {
          "indexed": false,
          "internalType": "uint256",
          "name": "loanDurationDays",
          "type": "uint256"
        }
      ],
      "name": "LoanTaken",
      "type": "event"
    },
    {
      "anonymous": false,
      "inputs": [
        {
          "indexed": false,
          "internalType": "uint256",
          "name": "vestingId",
          "type": "uint256"
        },
        {
          "indexed": false,
          "internalType": "uint256",
          "name": "amount",
          "type": "uint256"
        }
      ],
      "name": "TokensClaimed",
      "type": "event"
    },
    {
      "anonymous": false,
      "inputs": [
        {
          "indexed": false,
          "internalType": "uint256",
          "name": "vestingId",
          "type": "uint256"
        },
        {
          "indexed": false,
          "internalType": "address",
          "name": "creator",
          "type": "address"
        },
        {
          "indexed": false,
          "internalType": "address",
          "name": "beneficiary",
          "type": "address"
        },
        {
          "indexed": false,
          "internalType": "address",
          "name": "token",
          "type": "address"
        },
        {
          "indexed": false,
          "internalType": "uint256",
          "name": "totalAmount",
          "type": "uint256"
        }
      ],
      "name": "VestingCreated",
      "type": "event"
    },
    {
      "anonymous": false,
      "inputs": [
        {
          "indexed": false,
          "internalType": "uint256",
          "name": "vestingId",
          "type": "uint256"
        },
        {
          "indexed": false,
          "internalType": "uint256",
          "name": "additionalDays",
          "type": "uint256"
        }
      ],
      "name": "VestingExtended",
      "type": "event"
    },
    {
      "anonymous": false,
      "inputs": [
        {
          "indexed": false,
          "internalType": "uint256",
          "name": "vestingId",
          "type": "uint256"
        },
        {
          "indexed": false,
          "internalType": "address",
          "name": "creator",
          "type": "address"
        },
        {
          "indexed": false,
          "internalType": "address",
          "name": "beneficiary",
          "type": "address"
        },
        {
          "indexed": false,
          "internalType": "address",
          "name": "token",
          "type": "address"
        },
        {
          "indexed": false,
          "internalType": "uint256",
          "name": "totalAmount",
          "type": "uint256"
        }
      ],
      "name": "VestingUpdated",
      "type": "event"
    },
    {
      "inputs": [],
      "name": "LOAN",
      "outputs": [
        {
          "internalType": "contract ILOAN",
          "name": "",
          "type": "address"
        }
      ],
      "stateMutability": "view",
      "type": "function"
    },
    {
      "inputs": [],
      "name": "MAX_VESTING_DURATION",
      "outputs": [
        {
          "internalType": "uint256",
          "name": "",
          "type": "uint256"
        }
      ],
      "stateMutability": "view",
      "type": "function"
    },
    {
      "inputs": [],
      "name": "MIN_VESTING_DURATION",
      "outputs": [
        {
          "internalType": "uint256",
          "name": "",
          "type": "uint256"
        }
      ],
      "stateMutability": "view",
      "type": "function"
    },
    {
      "inputs": [
        {
          "internalType": "address",
          "name": "maintoken",
          "type": "address"
        },
        {
          "internalType": "address",
          "name": "factory",
          "type": "address"
        }
      ],
      "name": "addEcosystem",
      "outputs": [],
      "stateMutability": "nonpayable",
      "type": "function"
    },
    {
      "inputs": [
        {
          "internalType": "uint256",
          "name": "vestingId",
          "type": "uint256"
        },
        {
          "internalType": "uint256",
          "name": "additionalAmount",
          "type": "uint256"
        }
      ],
      "name": "addTokensToVesting",
      "outputs": [],
      "stateMutability": "nonpayable",
      "type": "function"
    },
    {
      "inputs": [
        {
          "internalType": "address[]",
          "name": "beneficiaries",
          "type": "address[]"
        },
        {
          "internalType": "address",
          "name": "token",
          "type": "address"
        },
        {
          "internalType": "uint256[]",
          "name": "totalAmounts",
          "type": "uint256[]"
        },
        {
          "internalType": "uint256",
          "name": "unlockTime",
          "type": "uint256"
        },
        {
          "internalType": "string[]",
          "name": "userMemos",
          "type": "string[]"
        },
        {
          "internalType": "address",
          "name": "ecosystem",
          "type": "address"
        }
      ],
      "name": "batchCreateCliffVesting",
      "outputs": [
        {
          "internalType": "uint256[]",
          "name": "",
          "type": "uint256[]"
        }
      ],
      "stateMutability": "payable",
      "type": "function"
    },
    {
      "inputs": [
        {
          "internalType": "address[]",
          "name": "beneficiaries",
          "type": "address[]"
        },
        {
          "internalType": "address",
          "name": "token",
          "type": "address"
        },
        {
          "internalType": "uint256[]",
          "name": "totalAmounts",
          "type": "uint256[]"
        },
        {
          "internalType": "string[]",
          "name": "userMemos",
          "type": "string[]"
        },
        {
          "internalType": "uint256",
          "name": "startTime",
          "type": "uint256"
        },
        {
          "internalType": "uint256",
          "name": "durationInDays",
          "type": "uint256"
        },
        {
          "internalType": "enum A_VestingContract.TimeUnit",
          "name": "timeUnit",
          "type": "uint8"
        },
        {
          "internalType": "address",
          "name": "ecosystem",
          "type": "address"
        }
      ],
      "name": "batchCreateGradualVesting",
      "outputs": [
        {
          "internalType": "uint256[]",
          "name": "",
          "type": "uint256[]"
        }
      ],
      "stateMutability": "payable",
      "type": "function"
    },
    {
      "inputs": [
        {
          "internalType": "address",
          "name": "",
          "type": "address"
        }
      ],
      "name": "beneficiaryCount",
      "outputs": [
        {
          "internalType": "uint256",
          "name": "",
          "type": "uint256"
        }
      ],
      "stateMutability": "view",
      "type": "function"
    },
    {
      "inputs": [
        {
          "internalType": "address",
          "name": "",
          "type": "address"
        },
        {
          "internalType": "uint256",
          "name": "",
          "type": "uint256"
        }
      ],
      "name": "beneficiaryVestings",
      "outputs": [
        {
          "internalType": "uint256",
          "name": "",
          "type": "uint256"
        }
      ],
      "stateMutability": "view",
      "type": "function"
    },
    {
      "inputs": [
        {
          "internalType": "uint256",
          "name": "vestingId",
          "type": "uint256"
        },
        {
          "internalType": "address",
          "name": "newBeneficiary",
          "type": "address"
        }
      ],
      "name": "changeBeneficiary",
      "outputs": [],
      "stateMutability": "nonpayable",
      "type": "function"
    },
    {
      "inputs": [
        {
          "internalType": "uint256",
          "name": "vestingId",
          "type": "uint256"
        }
      ],
      "name": "claimTokens",
      "outputs": [],
      "stateMutability": "nonpayable",
      "type": "function"
    },
    {
      "inputs": [
        {
          "internalType": "address",
          "name": "beneficiary",
          "type": "address"
        },
        {
          "internalType": "address",
          "name": "token",
          "type": "address"
        },
        {
          "internalType": "uint256",
          "name": "totalAmount",
          "type": "uint256"
        },
        {
          "internalType": "uint256",
          "name": "unlockTime",
          "type": "uint256"
        },
        {
          "internalType": "string",
          "name": "memo",
          "type": "string"
        },
        {
          "internalType": "address",
          "name": "ecosystem",
          "type": "address"
        }
      ],
      "name": "createCliffVesting",
      "outputs": [
        {
          "internalType": "uint256",
          "name": "",
          "type": "uint256"
        }
      ],
      "stateMutability": "payable",
      "type": "function"
    },
    {
      "inputs": [
        {
          "internalType": "address",
          "name": "beneficiary",
          "type": "address"
        },
        {
          "internalType": "address",
          "name": "token",
          "type": "address"
        },
        {
          "internalType": "uint256",
          "name": "totalAmount",
          "type": "uint256"
        },
        {
          "internalType": "uint256",
          "name": "startTime",
          "type": "uint256"
        },
        {
          "internalType": "uint256",
          "name": "durationInDays",
          "type": "uint256"
        },
        {
          "internalType": "enum A_VestingContract.TimeUnit",
          "name": "timeUnit",
          "type": "uint8"
        },
        {
          "internalType": "string",
          "name": "memo",
          "type": "string"
        },
        {
          "internalType": "address",
          "name": "ecosystem",
          "type": "address"
        }
      ],
      "name": "createGradualVesting",
      "outputs": [
        {
          "internalType": "uint256",
          "name": "",
          "type": "uint256"
        }
      ],
      "stateMutability": "payable",
      "type": "function"
    },
    {
      "inputs": [
        {
          "internalType": "address",
          "name": "",
          "type": "address"
        }
      ],
      "name": "creatorCount",
      "outputs": [
        {
          "internalType": "uint256",
          "name": "",
          "type": "uint256"
        }
      ],
      "stateMutability": "view",
      "type": "function"
    },
    {
      "inputs": [
        {
          "internalType": "address",
          "name": "",
          "type": "address"
        },
        {
          "internalType": "uint256",
          "name": "",
          "type": "uint256"
        }
      ],
      "name": "creatorVestings",
      "outputs": [
        {
          "internalType": "uint256",
          "name": "",
          "type": "uint256"
        }
      ],
      "stateMutability": "view",
      "type": "function"
    },
    {
      "inputs": [
        {
          "internalType": "address",
          "name": "",
          "type": "address"
        }
      ],
      "name": "ecosystems",
      "outputs": [
        {
          "internalType": "address",
          "name": "maintoken",
          "type": "address"
        },
        {
          "internalType": "address",
          "name": "factory",
          "type": "address"
        },
        {
          "internalType": "address",
          "name": "mainpair",
          "type": "address"
        }
      ],
      "stateMutability": "view",
      "type": "function"
    },
    {
      "inputs": [
        {
          "internalType": "uint256",
          "name": "vestingId",
          "type": "uint256"
        },
        {
          "internalType": "uint256",
          "name": "additionalDays",
          "type": "uint256"
        }
      ],
      "name": "extendVestingPeriod",
      "outputs": [],
      "stateMutability": "nonpayable",
      "type": "function"
    },
    {
      "inputs": [],
      "name": "feeAmount",
      "outputs": [
        {
          "internalType": "uint256",
          "name": "",
          "type": "uint256"
        }
      ],
      "stateMutability": "view",
      "type": "function"
    },
    {
      "inputs": [],
      "name": "feeEnabled",
      "outputs": [
        {
          "internalType": "bool",
          "name": "",
          "type": "bool"
        }
      ],
      "stateMutability": "view",
      "type": "function"
    },
    {
      "inputs": [
        {
          "internalType": "address",
          "name": "",
          "type": "address"
        }
      ],
      "name": "feeWhitelist",
      "outputs": [
        {
          "internalType": "bool",
          "name": "",
          "type": "bool"
        }
      ],
      "stateMutability": "view",
      "type": "function"
    },
    {
      "inputs": [
        {
          "internalType": "uint256",
          "name": "vestingId",
          "type": "uint256"
        }
      ],
      "name": "getActiveLoan",
      "outputs": [
        {
          "internalType": "uint256",
          "name": "",
          "type": "uint256"
        }
      ],
      "stateMutability": "view",
      "type": "function"
    },
    {
      "inputs": [
        {
          "internalType": "uint256",
          "name": "vestingId",
          "type": "uint256"
        }
      ],
      "name": "getClaimableAmount",
      "outputs": [
        {
          "internalType": "uint256",
          "name": "",
          "type": "uint256"
        }
      ],
      "stateMutability": "view",
      "type": "function"
    },
    {
      "inputs": [
        {
          "internalType": "address",
          "name": "token",
          "type": "address"
        },
        {
          "internalType": "uint256",
          "name": "startIndex",
          "type": "uint256"
        },
        {
          "internalType": "uint256",
          "name": "endIndex",
          "type": "uint256"
        }
      ],
      "name": "getTokenVestingIds",
      "outputs": [
        {
          "internalType": "uint256[]",
          "name": "",
          "type": "uint256[]"
        }
      ],
      "stateMutability": "view",
      "type": "function"
    },
    {
      "inputs": [
        {
          "internalType": "uint256",
          "name": "vestingId",
          "type": "uint256"
        }
      ],
      "name": "getVestedAmount",
      "outputs": [
        {
          "internalType": "uint256",
          "name": "",
          "type": "uint256"
        }
      ],
      "stateMutability": "view",
      "type": "function"
    },
    {
      "inputs": [
        {
          "internalType": "uint256",
          "name": "vestingId",
          "type": "uint256"
        }
      ],
      "name": "getVestingDetails",
      "outputs": [
        {
          "components": [
            {
              "internalType": "address",
              "name": "creator",
              "type": "address"
            },
            {
              "internalType": "address",
              "name": "beneficiary",
              "type": "address"
            },
            {
              "internalType": "address",
              "name": "token",
              "type": "address"
            },
            {
              "internalType": "address",
              "name": "ecosystem",
              "type": "address"
            },
            {
              "internalType": "uint256",
              "name": "totalAmount",
              "type": "uint256"
            },
            {
              "internalType": "uint256",
              "name": "claimedAmount",
              "type": "uint256"
            },
            {
              "internalType": "uint256",
              "name": "startTime",
              "type": "uint256"
            },
            {
              "internalType": "uint256",
              "name": "durationInDays",
              "type": "uint256"
            },
            {
              "internalType": "uint256",
              "name": "unlockTime",
              "type": "uint256"
            },
            {
              "internalType": "bool",
              "name": "isGradual",
              "type": "bool"
            },
            {
              "internalType": "uint256",
              "name": "activeLoanId",
              "type": "uint256"
            },
            {
              "internalType": "string",
              "name": "memo",
              "type": "string"
            },
            {
              "internalType": "enum A_VestingContract.TimeUnit",
              "name": "timeUnit",
              "type": "uint8"
            }
          ],
          "internalType": "struct A_VestingContract.Vesting",
          "name": "",
          "type": "tuple"
        }
      ],
      "stateMutability": "view",
      "type": "function"
    },
    {
      "inputs": [
        {
          "internalType": "uint256[]",
          "name": "vestingIds",
          "type": "uint256[]"
        }
      ],
      "name": "getVestingDetailsBatch",
      "outputs": [
        {
          "components": [
            {
              "internalType": "address",
              "name": "creator",
              "type": "address"
            },
            {
              "internalType": "address",
              "name": "beneficiary",
              "type": "address"
            },
            {
              "internalType": "address",
              "name": "token",
              "type": "address"
            },
            {
              "internalType": "address",
              "name": "ecosystem",
              "type": "address"
            },
            {
              "internalType": "uint256",
              "name": "totalAmount",
              "type": "uint256"
            },
            {
              "internalType": "uint256",
              "name": "claimedAmount",
              "type": "uint256"
            },
            {
              "internalType": "uint256",
              "name": "startTime",
              "type": "uint256"
            },
            {
              "internalType": "uint256",
              "name": "durationInDays",
              "type": "uint256"
            },
            {
              "internalType": "uint256",
              "name": "unlockTime",
              "type": "uint256"
            },
            {
              "internalType": "bool",
              "name": "isGradual",
              "type": "bool"
            },
            {
              "internalType": "uint256",
              "name": "activeLoanId",
              "type": "uint256"
            },
            {
              "internalType": "string",
              "name": "memo",
              "type": "string"
            },
            {
              "internalType": "enum A_VestingContract.TimeUnit",
              "name": "timeUnit",
              "type": "uint8"
            }
          ],
          "internalType": "struct A_VestingContract.Vesting[]",
          "name": "",
          "type": "tuple[]"
        }
      ],
      "stateMutability": "view",
      "type": "function"
    },
    {
      "inputs": [
        {
          "internalType": "address",
          "name": "beneficiary",
          "type": "address"
        }
      ],
      "name": "getVestingsByBeneficiary",
      "outputs": [
        {
          "internalType": "uint256[]",
          "name": "",
          "type": "uint256[]"
        }
      ],
      "stateMutability": "view",
      "type": "function"
    },
    {
      "inputs": [
        {
          "internalType": "address",
          "name": "creator",
          "type": "address"
        }
      ],
      "name": "getVestingsByCreator",
      "outputs": [
        {
          "internalType": "uint256[]",
          "name": "",
          "type": "uint256[]"
        }
      ],
      "stateMutability": "view",
      "type": "function"
    },
    {
      "inputs": [],
      "name": "loanBuffer",
      "outputs": [
        {
          "internalType": "uint256",
          "name": "",
          "type": "uint256"
        }
      ],
      "stateMutability": "view",
      "type": "function"
    },
    {
      "inputs": [
        {
          "internalType": "uint256",
          "name": "vestingId",
          "type": "uint256"
        }
      ],
      "name": "repayLoanOnVesting",
      "outputs": [],
      "stateMutability": "nonpayable",
      "type": "function"
    },
    {
      "inputs": [
        {
          "internalType": "contract IERC20",
          "name": "tokenToRescue",
          "type": "address"
        }
      ],
      "name": "rescueAnyToken",
      "outputs": [],
      "stateMutability": "nonpayable",
      "type": "function"
    },
    {
      "inputs": [],
      "name": "rescueEth",
      "outputs": [],
      "stateMutability": "nonpayable",
      "type": "function"
    },
    {
      "inputs": [
        {
          "internalType": "address",
          "name": "maintoken",
          "type": "address"
        },
        {
          "internalType": "address",
          "name": "factory",
          "type": "address"
        }
      ],
      "name": "setEcosystem",
      "outputs": [],
      "stateMutability": "nonpayable",
      "type": "function"
    },
    {
      "inputs": [
        {
          "internalType": "uint256",
          "name": "newFeeAmount",
          "type": "uint256"
        }
      ],
      "name": "setFeeAmount",
      "outputs": [],
      "stateMutability": "nonpayable",
      "type": "function"
    },
    {
      "inputs": [
        {
          "internalType": "bool",
          "name": "enabled",
          "type": "bool"
        }
      ],
      "name": "setFeeEnabled",
      "outputs": [],
      "stateMutability": "nonpayable",
      "type": "function"
    },
    {
      "inputs": [
        {
          "internalType": "address",
          "name": "addr",
          "type": "address"
        },
        {
          "internalType": "bool",
          "name": "whitelisted",
          "type": "bool"
        }
      ],
      "name": "setFeeWhitelist",
      "outputs": [],
      "stateMutability": "nonpayable",
      "type": "function"
    },
    {
      "inputs": [
        {
          "internalType": "uint256",
          "name": "newBuffer",
          "type": "uint256"
        }
      ],
      "name": "setLoanBuffer",
      "outputs": [],
      "stateMutability": "nonpayable",
      "type": "function"
    },
    {
      "inputs": [
        {
          "internalType": "address",
          "name": "newLoan",
          "type": "address"
        }
      ],
      "name": "setNewLoan",
      "outputs": [],
      "stateMutability": "nonpayable",
      "type": "function"
    },
    {
      "inputs": [
        {
          "internalType": "uint256",
          "name": "vestingId",
          "type": "uint256"
        }
      ],
      "name": "takeLoanOnVesting",
      "outputs": [],
      "stateMutability": "nonpayable",
      "type": "function"
    },
    {
      "inputs": [
        {
          "internalType": "address",
          "name": "",
          "type": "address"
        }
      ],
      "name": "tokenVestingCount",
      "outputs": [
        {
          "internalType": "uint256",
          "name": "",
          "type": "uint256"
        }
      ],
      "stateMutability": "view",
      "type": "function"
    },
    {
      "inputs": [
        {
          "internalType": "address",
          "name": "",
          "type": "address"
        },
        {
          "internalType": "uint256",
          "name": "",
          "type": "uint256"
        }
      ],
      "name": "tokenVestings",
      "outputs": [
        {
          "internalType": "uint256",
          "name": "",
          "type": "uint256"
        }
      ],
      "stateMutability": "view",
      "type": "function"
    },
    {
      "inputs": [
        {
          "internalType": "uint256",
          "name": "vestingId",
          "type": "uint256"
        },
        {
          "internalType": "address",
          "name": "newCreator",
          "type": "address"
        }
      ],
      "name": "transferCreatorRole",
      "outputs": [],
      "stateMutability": "nonpayable",
      "type": "function"
    },
    {
      "inputs": [],
      "name": "vestingCount",
      "outputs": [
        {
          "internalType": "uint256",
          "name": "",
          "type": "uint256"
        }
      ],
      "stateMutability": "view",
      "type": "function"
    },
    {
      "inputs": [
        {
          "internalType": "uint256",
          "name": "",
          "type": "uint256"
        }
      ],
      "name": "vestingSchedules",
      "outputs": [
        {
          "internalType": "address",
          "name": "creator",
          "type": "address"
        },
        {
          "internalType": "address",
          "name": "beneficiary",
          "type": "address"
        },
        {
          "internalType": "address",
          "name": "token",
          "type": "address"
        },
        {
          "internalType": "address",
          "name": "ecosystem",
          "type": "address"
        },
        {
          "internalType": "uint256",
          "name": "totalAmount",
          "type": "uint256"
        },
        {
          "internalType": "uint256",
          "name": "claimedAmount",
          "type": "uint256"
        },
        {
          "internalType": "uint256",
          "name": "startTime",
          "type": "uint256"
        },
        {
          "internalType": "uint256",
          "name": "durationInDays",
          "type": "uint256"
        },
        {
          "internalType": "uint256",
          "name": "unlockTime",
          "type": "uint256"
        },
        {
          "internalType": "bool",
          "name": "isGradual",
          "type": "bool"
        },
        {
          "internalType": "uint256",
          "name": "activeLoanId",
          "type": "uint256"
        },
        {
          "internalType": "string",
          "name": "memo",
          "type": "string"
        },
        {
          "internalType": "enum A_VestingContract.TimeUnit",
          "name": "timeUnit",
          "type": "uint8"
        }
      ],
      "stateMutability": "view",
      "type": "function"
    }
  ],
  "bytecode": "0x6080604052600a600c5566038d7ea4c68000600d55600e805460ff191690553480156200002b57600080fd5b5060405162005647380380620056478339810160408190526200004e9162000238565b60016000556001600160a01b038316158015906200007457506001600160a01b03821615155b620000ba5760405162461bcd60e51b8152602060048201526011602482015270696e76616c69642061646472657373657360781b60448201526064015b60405180910390fd5b600a80546001600160a01b03199081163317909155600b80546001600160a01b03848116919093161790556040805163d21220a760e01b8152905160009286169163d21220a79160048083019260209291908290030181865afa15801562000126573d6000803e3d6000fd5b505050506040513d601f19601f820116820180604052508101906200014c919062000282565b90506001600160a01b0381166200019a5760405162461bcd60e51b815260206004820152601160248201527034b73b30b634b21036b0b4b7103830b4b960791b6044820152606401620000b1565b604080516060810182526001600160a01b0395861680825294861660208083019182529387168284019081526000968752600890945291909420935184549086166001600160a01b031991821617855590516001850180549187169183169190911790559051600290930180549390941692169190911790915550620002a7565b80516001600160a01b03811681146200023357600080fd5b919050565b6000806000606084860312156200024e57600080fd5b62000259846200021b565b925062000269602085016200021b565b915062000279604085016200021b565b90509250925092565b6000602082840312156200029557600080fd5b620002a0826200021b565b9392505050565b61539080620002b76000396000f3fe6080604052600436106102675760003560e01c8063894d2c8a11610144578063cafeedf6116100b6578063e80316d61161007a578063e80316d61461075a578063f1b4fbab1461077a578063f7967e03146107b2578063fa103b27146107d2578063fbfa0190146107ff578063fe6fa25b1461081f57600080fd5b8063cafeedf614610698578063ce31a06b146106b8578063d408f657146106cd578063d543a81a146106fd578063d5bf3c5d1461072d57600080fd5b8063add55bd011610108578063add55bd0146105d8578063b0070a30146105f8578063b073237514610618578063bb7189d314610638578063c710d9c41461064b578063c7ad310f1461066b57600080fd5b8063894d2c8a1461053b578063900f07e71461055b578063975767861461056e578063a771ebc71461058e578063aaa1f13d146105b857600080fd5b806358267e37116101dd5780636a99347a116101a15780636a99347a146104745780636b392680146104945780636d3cbe21146104b45780637cd0814b146104ed5780637d8ca24214610505578063887eb1301461052557600080fd5b806358267e37146103de5780635a2624db146103fe5780635fdf4ae31461041e578063663d48971461043157806369e154041461045e57600080fd5b80633011071e1161022f5780633011071e146103245780633721a0171461034857806337754ba9146103755780633f5fdf401461038857806346e04a2f1461039e5780634ab2dfbf146103be57600080fd5b80630db474fa1461026c57806319a5b5241461028e5780631af1e670146102ae57806325ed22d3146102ce5780632c9cdbbf14610304575b600080fd5b34801561027857600080fd5b5061028c610287366004614546565b610892565b005b34801561029a57600080fd5b5061028c6102a936600461456a565b61090d565b3480156102ba57600080fd5b5061028c6102c93660046145a3565b610dae565b3480156102da57600080fd5b506102ee6102e93660046145d3565b611051565b6040516102fb91906145f0565b60405180910390f35b34801561031057600080fd5b5061028c61031f3660046145d3565b6110bd565b34801561033057600080fd5b5061033a610e1081565b6040519081526020016102fb565b34801561035457600080fd5b5061033a6103633660046145d3565b60076020526000908152604090205481565b61033a6103833660046146ff565b6111cf565b34801561039457600080fd5b5061033a600c5481565b3480156103aa57600080fd5b5061028c6103b936600461456a565b6112e1565b3480156103ca57600080fd5b5061028c6103d9366004614787565b6114b3565b3480156103ea57600080fd5b506102ee6103f93660046145d3565b6115f4565b34801561040a57600080fd5b5061028c6104193660046147b5565b61165e565b61033a61042c3660046147e6565b6118e5565b34801561043d57600080fd5b5061033a61044c3660046145d3565b60066020526000908152604090205481565b34801561046a57600080fd5b5061033a600d5481565b34801561048057600080fd5b5061028c61048f366004614787565b6119fb565b3480156104a057600080fd5b5061028c6104af36600461456a565b611bad565b3480156104c057600080fd5b506104d46104cf36600461456a565b611c0c565b6040516102fb9d9c9b9a99989796959493929190614908565b3480156104f957600080fd5b5061033a6305192d0081565b34801561051157600080fd5b5061033a61052036600461456a565b611d15565b34801561053157600080fd5b5061033a60095481565b34801561054757600080fd5b5061028c61055636600461456a565b611d47565b6102ee6105693660046149e8565b612181565b34801561057a57600080fd5b5061028c610589366004614ac7565b61247d565b34801561059a57600080fd5b50600e546105a89060ff1681565b60405190151581526020016102fb565b3480156105c457600080fd5b5061028c6105d336600461456a565b61250a565b3480156105e457600080fd5b5061028c6105f33660046145d3565b612569565b34801561060457600080fd5b5061028c6106133660046145a3565b6125b5565b34801561062457600080fd5b506102ee610633366004614af5565b6127ff565b6102ee610646366004614b2a565b612975565b34801561065757600080fd5b5061033a610666366004614bf4565b612c6d565b34801561067757600080fd5b5061033a6106863660046145d3565b60056020526000908152604090205481565b3480156106a457600080fd5b5061033a6106b336600461456a565b612c9e565b3480156106c457600080fd5b5061028c612d89565b3480156106d957600080fd5b506105a86106e83660046145d3565b600f6020526000908152604090205460ff1681565b34801561070957600080fd5b5061033a61071836600461456a565b6000908152600160205260409020600a015490565b34801561073957600080fd5b5061074d610748366004614c20565b612e12565b6040516102fb9190614d53565b34801561076657600080fd5b5061033a610775366004614bf4565b613091565b34801561078657600080fd5b50600b5461079a906001600160a01b031681565b6040516001600160a01b0390911681526020016102fb565b3480156107be57600080fd5b5061028c6107cd3660046147b5565b6130ad565b3480156107de57600080fd5b506107f26107ed36600461456a565b6134ca565b6040516102fb9190614db7565b34801561080b57600080fd5b5061033a61081a366004614bf4565b613645565b34801561082b57600080fd5b5061086861083a3660046145d3565b6008602052600090815260409020805460018201546002909201546001600160a01b03918216928216911683565b604080516001600160a01b03948516815292841660208401529216918101919091526060016102fb565b600a546001600160a01b031633146108c55760405162461bcd60e51b81526004016108bc90614dca565b60405180910390fd5b600e805460ff19168215159081179091556040519081527fcd861584328fc8fda4f81b958b2d5d32352d6394dc689f6246a7411e4b71dac7906020015b60405180910390a150565b6000818152600160208190526040909120908101546001600160a01b031633146109795760405162461bcd60e51b815260206004820152601e60248201527f4f6e6c792062656e65666963696172792063616e2074616b65206c6f616e000060448201526064016108bc565b600a810154156109c05760405162461bcd60e51b8152602060048201526012602482015271416374697665206c6f616e2065786973747360701b60448201526064016108bc565b6000816005015482600401546109d69190614e02565b905060008111610a1e5760405162461bcd60e51b81526020600482015260136024820152724e6f20756e636c61696d656420746f6b656e7360681b60448201526064016108bc565b60038201546001600160a01b0390811660008181526008602052604081206002015460098601549293169160ff1615610a79576007850154610a639062015180614e15565b8560060154610a729190614e2c565b9050610a80565b5060088401545b600081421015610a9957610a944283614e02565b610a9c565b60005b90506000610aad6201518083614e3f565b90506000600c5482610abf9190614e2c565b6002890154600b5460405163095ea7b360e01b81529293506001600160a01b0391821692839263095ea7b392610afc929116908c90600401614e61565b6020604051808303816000875af1158015610b1b573d6000803e3d6000fd5b505050506040513d601f19601f82011682018060405250810190610b3f9190614e85565b610b835760405162461bcd60e51b8152602060048201526015602482015274151bdad95b88185c1c1c9bdd985b0819985a5b1959605a1b60448201526064016108bc565b600b5460028a0154604051630953151f60e31b81526001600160a01b038a811660048301529182166024820152604481018b9052606481018590526000929190911690634a98a8f8906084016020604051808303816000875af1158015610bee573d6000803e3d6000fd5b505050506040513d601f19601f82011682018060405250810190610c129190614ea2565b600a8b01819055600b54604051632a196afb60e01b81529192506000916001600160a01b0390911690632a196afb90610c519030908690600401614e61565b6101c060405180830381865afa158015610c6f573d6000803e3d6000fd5b505050506040513d601f19601f82011682018060405250810190610c939190614ec6565b61010081015160405163a9059cbb60e01b81529192506001600160a01b038a169163a9059cbb91610cc991339190600401614e61565b6020604051808303816000875af1158015610ce8573d6000803e3d6000fd5b505050506040513d601f19601f82011682018060405250810190610d0c9190614e85565b610d585760405162461bcd60e51b815260206004820152601e60248201527f426f72726f77656420746f6b656e207472616e73666572206661696c6564000060448201526064016108bc565b604080518d8152602081018490529081018b9052606081018590527fb8e7a9ec7692eee61b8039b649e727ded7acf176841f32483f2b2a1eb1be50549060800160405180910390a1505050505050505050505050565b600082815260016020526040902080546001600160a01b03163314610e155760405162461bcd60e51b815260206004820152601e60248201527f4f6e6c792063726561746f722063616e207472616e7366657220726f6c65000060448201526064016108bc565b6001600160a01b038216610e6b5760405162461bcd60e51b815260206004820152601760248201527f496e76616c69642063726561746f72206164647265737300000000000000000060448201526064016108bc565b6009548310610eb15760405162461bcd60e51b8152602060048201526012602482015271125b9d985b1a59081d995cdd1a5b99c8125160721b60448201526064016108bc565b80546001600160a01b03166000818152600260205260408120905b8154811015610f765785828281548110610ee857610ee8614f9c565b906000526020600020015403610f6e5781548290610f0890600190614e02565b81548110610f1857610f18614f9c565b9060005260206000200154828281548110610f3557610f35614f9c565b906000526020600020018190555081805480610f5357610f53614fb2565b60019003818190600052602060002001600090559055610f76565b600101610ecc565b506001600160a01b038085166000908152600260209081526040808320805460018101825590845282842001899055928516825260059052908120805491610fbd83614fc8565b90915550506001600160a01b0384166000908152600560205260408120805491610fe683614fdf565b909155505082546001600160a01b0319166001600160a01b0385811691821785556040805188815291851660208301528101919091527fc0380419c4f61db32144f419d819bd5323571127b444de27f73b2439962b2601906060015b60405180910390a15050505050565b6001600160a01b0381166000908152600260209081526040918290208054835181840281018401909452808452606093928301828280156110b157602002820191906000526020600020905b81548152602001906001019080831161109d575b50505050509050919050565b600a546001600160a01b031633146110e75760405162461bcd60e51b81526004016108bc90614dca565b6040516370a0823160e01b81523060048201526000906001600160a01b038316906370a0823190602401602060405180830381865afa15801561112e573d6000803e3d6000fd5b505050506040513d601f19601f820116820180604052508101906111529190614ea2565b600a5460405163a9059cbb60e01b81529192506001600160a01b038085169263a9059cbb926111879216908590600401614e61565b6020604051808303816000875af11580156111a6573d6000803e3d6000fd5b505050506040513d601f19601f820116820180604052508101906111ca9190614e85565b505050565b600e5460009060ff1680156111f45750336000908152600f602052604090205460ff16155b156112c857600d5434101561121b5760405162461bcd60e51b81526004016108bc90614ff8565b600a54600d546040516001600160a01b039092169181156108fc0291906000818181858888f19350505050158015611257573d6000803e3d6000fd5b5060008051602061533b83398151915233600d54604051611279929190614e61565b60405180910390a1600d543411156112c857600d5433906108fc9061129e9034614e02565b6040518115909202916000818181858888f193505050501580156112c6573d6000803e3d6000fd5b505b6112d6878787878787613661565b979650505050505050565b6112e9613cbb565b6000818152600160208190526040909120908101546001600160a01b031633146113555760405162461bcd60e51b815260206004820152601a60248201527f4f6e6c792062656e65666963696172792063616e20636c61696d00000000000060448201526064016108bc565b61136281600a0154613d14565b1561136c57600080fd5b600061137783612c9e565b9050600082600501548261138b9190614e02565b9050600081116113d25760405162461bcd60e51b81526020600482015260126024820152714e6f20746f6b656e7320746f20636c61696d60701b60448201526064016108bc565b808360050160008282546113e69190614e2c565b90915550506000600a840155600283015460405163a9059cbb60e01b81526001600160a01b039091169063a9059cbb906114269033908590600401614e61565b6020604051808303816000875af1158015611445573d6000803e3d6000fd5b505050506040513d601f19601f820116820180604052508101906114699190614e85565b5060408051858152602081018390527fbde2d72390af9d0444bb1c4f938971ecb673ed26f5f57f8fa44c553fe01d0d3a910160405180910390a15050506114b06001600055565b50565b600a546001600160a01b031633146114dd5760405162461bcd60e51b81526004016108bc90614dca565b6001600160a01b038216158015906114fd57506001600160a01b03811615155b61153d5760405162461bcd60e51b8152602060048201526011602482015270696e76616c69642061646472657373657360781b60448201526064016108bc565b6000826001600160a01b031663d21220a76040518163ffffffff1660e01b8152600401602060405180830381865afa15801561157d573d6000803e3d6000fd5b505050506040513d601f19601f820116820180604052508101906115a19190615022565b6001600160a01b0393841660008181526008602052604090206001810180549587166001600160a01b03199687161790556002810180549690931695851695909517909155835490921690911790915550565b6001600160a01b0381166000908152600360209081526040918290208054835181840281018401909452808452606093928301828280156110b1576020028201919060005260206000209081548152602001906001019080831161109d5750505050509050919050565b600082815260016020526040902080546001600160a01b03166116bc5760405162461bcd60e51b815260206004820152601660248201527515995cdd1a5b99c8191bd95cc81b9bdd08195e1a5cdd60521b60448201526064016108bc565b80546001600160a01b031633146117155760405162461bcd60e51b815260206004820152601b60248201527f4f6e6c792063726561746f722063616e2061646420746f6b656e73000000000060448201526064016108bc565b600082116117795760405162461bcd60e51b815260206004820152602b60248201527f4164646974696f6e616c20616d6f756e74206d7573742062652067726561746560448201526a72207468616e207a65726f60a81b60648201526084016108bc565b600981015460ff16156117d157600081600701546201518061179b9190614e15565b82600601546117aa9190614e2c565b90508042106117cb5760405162461bcd60e51b81526004016108bc9061503f565b506117f4565b806008015442106117f45760405162461bcd60e51b81526004016108bc9061503f565b60028101546040516323b872dd60e01b81526001600160a01b03909116906323b872dd9061182a9033903090879060040161506e565b6020604051808303816000875af1158015611849573d6000803e3d6000fd5b505050506040513d601f19601f8201168201806040525081019061186d9190614e85565b50818160040160008282546118829190614e2c565b90915550506001810154600282015460048301546040517f65bc32bff77f624c59cbfcc820103c39479006fa71281e7f35e7cb9e04a7c1aa936118d893889333936001600160a01b039384169390921691615092565b60405180910390a1505050565b600e5460009060ff16801561190a5750336000908152600f602052604090205460ff16155b156119de57600d543410156119315760405162461bcd60e51b81526004016108bc90614ff8565b600a54600d546040516001600160a01b039092169181156108fc0291906000818181858888f1935050505015801561196d573d6000803e3d6000fd5b5060008051602061533b83398151915233600d5460405161198f929190614e61565b60405180910390a1600d543411156119de57600d5433906108fc906119b49034614e02565b6040518115909202916000818181858888f193505050501580156119dc573d6000803e3d6000fd5b505b6119ee8989898989898989613da5565b9998505050505050505050565b600a546001600160a01b03163314611a255760405162461bcd60e51b81526004016108bc90614dca565b6001600160a01b03821615801590611a4557506001600160a01b03811615155b611a855760405162461bcd60e51b8152602060048201526011602482015270696e76616c69642061646472657373657360781b60448201526064016108bc565b6000826001600160a01b031663d21220a76040518163ffffffff1660e01b8152600401602060405180830381865afa158015611ac5573d6000803e3d6000fd5b505050506040513d601f19601f82011682018060405250810190611ae99190615022565b90506001600160a01b038116611b355760405162461bcd60e51b815260206004820152601160248201527034b73b30b634b21036b0b4b7103830b4b960791b60448201526064016108bc565b604080516060810182526001600160a01b0394851680825293851660208083019182529386168284019081526000958652600890945291909320925183549085166001600160a01b03199182161784559051600184018054918616918316919091179055905160029092018054929093169116179055565b600a546001600160a01b03163314611bd75760405162461bcd60e51b81526004016108bc90614dca565b600d8190556040518181527f173c2adbe6f522338e77cc110abaa6f11e02858f715e112cd4a4e4843d0d9e7290602001610902565b600160208190526000918252604090912080549181015460028201546003830154600484015460058501546006860154600787015460088801546009890154600a8a0154600b8b0180546001600160a01b039d8e169d9b8c169c9a8c169b909916999798969795969495939460ff909316939192611c89906150c0565b80601f0160208091040260200160405190810160405280929190818152602001828054611cb5906150c0565b8015611d025780601f10611cd757610100808354040283529160200191611d02565b820191906000526020600020905b815481529060010190602001808311611ce557829003601f168201915b505050600c909301549192505060ff168d565b600081815260016020526040812081611d2d84612c9e565b9050816005015481611d3f9190614e02565b949350505050565b6000818152600160208190526040909120908101546001600160a01b03163314611db35760405162461bcd60e51b815260206004820152601f60248201527f4f6e6c792062656e65666963696172792063616e207265706179206c6f616e0060448201526064016108bc565b80600a0154600003611df85760405162461bcd60e51b815260206004820152600e60248201526d27379030b1ba34bb32903637b0b760911b60448201526064016108bc565b60038101546001600160a01b0390811660008181526008602052604080822060020154600b54600a8701549251632a196afb60e01b8152949591821694911691632a196afb91611e4c913091600401614e61565b6101c060405180830381865afa158015611e6a573d6000803e3d6000fd5b505050506040513d601f19601f82011682018060405250810190611e8e9190614ec6565b600a85015461018082015191925090611f505761014082015115611f3957600b5460405163732c800960e01b8152600481018390526000916001600160a01b03169063732c8009906024016020604051808303816000875af1158015611ef8573d6000803e3d6000fd5b505050506040513d601f19601f82011682018060405250810190611f1c9190614ea2565b9050808660050154611f2e9190614e2c565b600487015550611f44565b600585015460048601555b6000600a860155612140565b60e08201516040516323b872dd60e01b81526001600160a01b038516916323b872dd91611f8491339130919060040161506e565b6020604051808303816000875af1158015611fa3573d6000803e3d6000fd5b505050506040513d601f19601f82011682018060405250810190611fc79190614e85565b6120135760405162461bcd60e51b815260206004820152601e60248201527f426f72726f77656420746f6b656e207472616e73666572206661696c6564000060448201526064016108bc565b600b5460e083015160405163095ea7b360e01b81526001600160a01b038681169363095ea7b39361204b939290911691600401614e61565b6020604051808303816000875af115801561206a573d6000803e3d6000fd5b505050506040513d601f19601f8201168201806040525081019061208e9190614e85565b6120da5760405162461bcd60e51b815260206004820152601d60248201527f426f72726f77656420746f6b656e20617070726f7665206661696c656400000060448201526064016108bc565b600b5460405163ab7b1c8960e01b8152600481018390526001600160a01b039091169063ab7b1c8990602401600060405180830381600087803b15801561212057600080fd5b505af1158015612134573d6000803e3d6000fd5b50506000600a88015550505b60408051878152602081018390527f040cee90ee4799897c30ca04e5feb6fa43dbba9b6d084b4b257cdafd84ba013e910160405180910390a1505050505050565b60608a88146121a25760405162461bcd60e51b81526004016108bc906150f4565b8a86146121c15760405162461bcd60e51b81526004016108bc906150f4565b8a61220a5760405162461bcd60e51b8152602060048201526019602482015278456d7074792062656e6566696369617269657320617272617960381b60448201526064016108bc565b600e5460ff16801561222c5750336000908152600f602052604090205460ff16155b1561230057600d543410156122535760405162461bcd60e51b81526004016108bc90614ff8565b600a54600d546040516001600160a01b039092169181156108fc0291906000818181858888f1935050505015801561228f573d6000803e3d6000fd5b5060008051602061533b83398151915233600d546040516122b1929190614e61565b60405180910390a1600d5434111561230057600d5433906108fc906122d69034614e02565b6040518115909202916000818181858888f193505050501580156122fe573d6000803e3d6000fd5b505b60008b6001600160401b0381111561231a5761231a614634565b604051908082528060200260200182016040528015612343578160200160208202803683370190505b50905060005b8c81101561246c5760008e8e8381811061236557612365614f9c565b905060200201602081019061237a91906145d3565b6001600160a01b0316036123a05760405162461bcd60e51b81526004016108bc90615124565b6124478e8e838181106123b5576123b5614f9c565b90506020020160208101906123ca91906145d3565b8d8d8d858181106123dd576123dd614f9c565b905060200201358a8a8a8f8f898181106123f9576123f9614f9c565b905060200281019061240b919061515b565b8080601f0160208091040260200160405190810160405280939291908181526020018383808284376000920191909152508e9250613da5915050565b82828151811061245957612459614f9c565b6020908102919091010152600101612349565b509c9b505050505050505050505050565b600a546001600160a01b031633146124a75760405162461bcd60e51b81526004016108bc90614dca565b6001600160a01b0382166000818152600f6020908152604091829020805460ff19168515159081179091558251938452908301527f1edda118cbc893a00b312565b4e15205c24b89f3e2fe94825eeebb435318ed1c910160405180910390a15050565b600a546001600160a01b031633146125345760405162461bcd60e51b81526004016108bc90614dca565b600c8190556040518181527f2ecbf45c672ae0c32e232630c3d728023239e333241c9868627284450700755b90602001610902565b600a546001600160a01b031633146125935760405162461bcd60e51b81526004016108bc90614dca565b600b80546001600160a01b0319166001600160a01b0392909216919091179055565b600082815260016020526040902080546001600160a01b031633146126285760405162461bcd60e51b815260206004820152602360248201527f4f6e6c792063726561746f722063616e206368616e67652062656e656669636960448201526261727960e81b60648201526084016108bc565b6001600160a01b03821661264e5760405162461bcd60e51b81526004016108bc90615124565b61265b81600a0154613d14565b1561266557600080fd5b60018101546001600160a01b03166000818152600360205260408120905b815481101561272d578582828154811061269f5761269f614f9c565b90600052602060002001540361272557815482906126bf90600190614e02565b815481106126cf576126cf614f9c565b90600052602060002001548282815481106126ec576126ec614f9c565b90600052602060002001819055508180548061270a5761270a614fb2565b6001900381819060005260206000200160009055905561272d565b600101612683565b506001600160a01b03808516600090815260036020908152604080832080546001810182559084528284200189905592851682526006905290812080549161277483614fc8565b90915550506001600160a01b038416600090815260066020526040812080549161279d83614fdf565b90915550506001830180546001600160a01b0319166001600160a01b038681169182179092556040805188815292851660208401528201527f02ac8a78ce8ba9dde4bc4c8fa91b705039803bb7eff24d075f9f2b3a5431d48390606001611042565b60608183106128465760405162461bcd60e51b8152602060048201526013602482015272496e76616c696420696e6465782072616e676560681b60448201526064016108bc565b6001600160a01b0384166000908152600760205260409020548211156128ae5760405162461bcd60e51b815260206004820152601760248201527f456e6420696e646578206f7574206f6620626f756e647300000000000000000060448201526064016108bc565b60006128ba8484614e02565b6001600160401b038111156128d1576128d1614634565b6040519080825280602002602001820160405280156128fa578160200160208202803683370190505b509050835b8381101561296c576001600160a01b038616600090815260046020526040902080548290811061293157612931614f9c565b90600052602060002001548286836129499190614e02565b8151811061295957612959614f9c565b60209081029190910101526001016128ff565b50949350505050565b60608886146129965760405162461bcd60e51b81526004016108bc906150f4565b8883146129b55760405162461bcd60e51b81526004016108bc906150f4565b886129fe5760405162461bcd60e51b8152602060048201526019602482015278456d7074792062656e6566696369617269657320617272617960381b60448201526064016108bc565b600e5460ff168015612a205750336000908152600f602052604090205460ff16155b15612af457600d54341015612a475760405162461bcd60e51b81526004016108bc90614ff8565b600a54600d546040516001600160a01b039092169181156108fc0291906000818181858888f19350505050158015612a83573d6000803e3d6000fd5b5060008051602061533b83398151915233600d54604051612aa5929190614e61565b60405180910390a1600d54341115612af457600d5433906108fc90612aca9034614e02565b6040518115909202916000818181858888f19350505050158015612af2573d6000803e3d6000fd5b505b6000896001600160401b03811115612b0e57612b0e614634565b604051908082528060200260200182016040528015612b37578160200160208202803683370190505b50905060005b8a811015612c5e5760008c8c83818110612b5957612b59614f9c565b9050602002016020810190612b6e91906145d3565b6001600160a01b031603612b945760405162461bcd60e51b81526004016108bc90615124565b612c398c8c83818110612ba957612ba9614f9c565b9050602002016020810190612bbe91906145d3565b8b8b8b85818110612bd157612bd1614f9c565b905060200201358a8a8a87818110612beb57612beb614f9c565b9050602002810190612bfd919061515b565b8080601f0160208091040260200160405190810160405280939291908181526020018383808284376000920191909152508c9250613661915050565b828281518110612c4b57612c4b614f9c565b6020908102919091010152600101612b3d565b509a9950505050505050505050565b60036020528160005260406000208181548110612c8957600080fd5b90600052602060002001600091509150505481565b6000818152600160205260408120600981015460ff1615612d65578060060154421015612cce5750600092915050565b6000816007015462015180612ce39190614e15565b90506000826006015442612cf79190614e02565b9050818110612d0c5750506004015492915050565b600c830154600090612d209060ff16614406565b90506000612d2e8284614e3f565b90506000612d3c8386614e3f565b905080828760040154612d4f9190614e15565b612d599190614e3f565b98975050505050505050565b80600801544210612d7a576004015492915050565b50600092915050565b50919050565b600a546001600160a01b03163314612db35760405162461bcd60e51b81526004016108bc90614dca565b600a546040516000916001600160a01b03169047908381818185875af1925050503d8060008114612e00576040519150601f19603f3d011682016040523d82523d6000602084013e612e05565b606091505b5050905080156114b05750565b60606000826001600160401b03811115612e2e57612e2e614634565b604051908082528060200260200182016040528015612e6757816020015b612e546144cf565b815260200190600190039081612e4c5790505b50905060005b8381101561308757600954858583818110612e8a57612e8a614f9c565b9050602002013510612ed35760405162461bcd60e51b8152602060048201526012602482015271125b9d985b1a59081d995cdd1a5b99c8125160721b60448201526064016108bc565b60016000868684818110612ee957612ee9614f9c565b6020908102929092013583525081810192909252604090810160002081516101a08101835281546001600160a01b039081168252600183015481169482019490945260028201548416928101929092526003810154909216606082015260048201546080820152600582015460a0820152600682015460c0820152600782015460e08201526008820154610100820152600982015460ff161515610120820152600a820154610140820152600b8201805491929161016084019190612fad906150c0565b80601f0160208091040260200160405190810160405280929190818152602001828054612fd9906150c0565b80156130265780601f10612ffb57610100808354040283529160200191613026565b820191906000526020600020905b81548152906001019060200180831161300957829003601f168201915b5050509183525050600c82015460209091019060ff16600381111561304d5761304d6148d0565b600381111561305e5761305e6148d0565b8152505082828151811061307457613074614f9c565b6020908102919091010152600101612e6d565b5090505b92915050565b60046020528160005260406000208181548110612c8957600080fd5b600082815260016020526040902080546001600160a01b031661310b5760405162461bcd60e51b815260206004820152601660248201527515995cdd1a5b99c8191bd95cc81b9bdd08195e1a5cdd60521b60448201526064016108bc565b80546001600160a01b031633148061312f575060018101546001600160a01b031633145b61318a5760405162461bcd60e51b815260206004820152602660248201527f4f6e6c792063726561746f72206f722062656e65666963696172792063616e20604482015265195e1d195b9960d21b60648201526084016108bc565b600082116131ec5760405162461bcd60e51b815260206004820152602960248201527f4164646974696f6e616c2064617973206d7573742062652067726561746572206044820152687468616e207a65726f60b81b60648201526084016108bc565b600981015460ff16156132ae57600081600701546201518061320e9190614e15565b826006015461321d9190614e2c565b905080421061323e5760405162461bcd60e51b81526004016108bc9061503f565b60006201518061324e4284614e02565b6132589190614e3f565b9050600061326a826305192d00614e02565b90508085111561328c5760405162461bcd60e51b81526004016108bc906151a1565b848460070160008282546132a09190614e2c565b9091555061334e9350505050565b806008015442106132d15760405162461bcd60e51b81526004016108bc9061503f565b6000620151804283600801546132e79190614e02565b6132f19190614e3f565b90506000613303826305192d00614e02565b9050808411156133255760405162461bcd60e51b81526004016108bc906151a1565b61332f8483614e2c565b61333c9062015180614e15565b6133469042614e2c565b600884015550505b61335b81600a0154613d14565b1561349457600b546040516371d1200160e11b81523060048201526001600160a01b039091169063e3a24002906024016020604051808303816000875af11580156133aa573d6000803e3d6000fd5b505050506040513d601f19601f820116820180604052508101906133ce9190614e85565b61341a5760405162461bcd60e51b815260206004820152601d60248201527f4e6f742077686974656c697374656420666f7220657874656e73696f6e00000060448201526064016108bc565b600b54600a8201546040516365d28c6760e01b815260048101919091526024810184905260006044820181905260648201526001600160a01b03909116906365d28c6790608401600060405180830381600087803b15801561347b57600080fd5b505af115801561348f573d6000803e3d6000fd5b505050505b60408051848152602081018490527ff2ac65083d37f83b8eb3540767a75d3145f28b1078ed6d8307cc9ce29cc1848991016118d8565b6134d26144cf565b60008281526001602081815260409283902083516101a08101855281546001600160a01b0390811682529382015484169281019290925260028101548316938201939093526003830154909116606082015260048201546080820152600582015460a0820152600682015460c0820152600782015460e08201526008820154610100820152600982015460ff161515610120820152600a820154610140820152600b820180549192916101608401919061358b906150c0565b80601f01602080910402602001604051908101604052809291908181526020018280546135b7906150c0565b80156136045780601f106135d957610100808354040283529160200191613604565b820191906000526020600020905b8154815290600101906020018083116135e757829003601f168201915b5050509183525050600c82015460209091019060ff16600381111561362b5761362b6148d0565b600381111561363c5761363c6148d0565b90525092915050565b60026020528160005260406000208181548110612c8957600080fd5b6001600160a01b03808216600081815260086020526040812054909216146136bf5760405162461bcd60e51b8152602060048201526011602482015270496e76616c69642065636f73797374656d60781b60448201526064016108bc565b6001600160a01b03828116600090815260086020526040908190206001015490516310f83ae960e01b81528883166004820152911690819081906310f83ae990602401602060405180830381865afa15801561371f573d6000803e3d6000fd5b505050506040513d601f19601f820116820180604052508101906137439190614e85565b8061375f5750836001600160a01b0316886001600160a01b0316145b6137a45760405162461bcd60e51b81526020600482015260166024820152752737ba1030b71022b1b7b9bcb9ba32b6903a37b5b2b760511b60448201526064016108bc565b600087116137f45760405162461bcd60e51b815260206004820181905260248201527f416d6f756e74206d7573742062652067726561746572207468616e207a65726f60448201526064016108bc565b42861161384d5760405162461bcd60e51b815260206004820152602160248201527f556e6c6f636b2074696d65206d75737420626520696e207468652066757475726044820152606560f81b60648201526084016108bc565b60006138594288614e02565b9050610e1081101561387d5760405162461bcd60e51b81526004016108bc906151e3565b61388e6305192d0062015180614e15565b8111156138d15760405162461bcd60e51b81526020600482015260116024820152704475726174696f6e20746f6f206c6f6e6760781b60448201526064016108bc565b6040516323b872dd60e01b81526001600160a01b038a16906323b872dd9061390190339030908d9060040161506e565b6020604051808303816000875af1158015613920573d6000803e3d6000fd5b505050506040513d601f19601f820116820180604052508101906139449190614e85565b5060006009549050604051806101a00160405280336001600160a01b031681526020018c6001600160a01b031681526020018b6001600160a01b03168152602001876001600160a01b031681526020018a81526020016000815260200142815260200160008152602001898152602001600015158152602001600081526020018881526020016003808111156139dc576139dc6148d0565b9052600082815260016020818152604092839020845181546001600160a01b03199081166001600160a01b03928316178355928601519382018054841694821694909417909355928401516002840180548316918416919091179055606084015160038401805490921692169190911790556080820151600482015560a0820151600582015560c0820151600682015560e08201516007820155610100820151600882015561012082015160098201805460ff1916911515919091179055610140820151600a820155610160820151600b820190613aba908261527b565b50610180820151600c8201805460ff19166001836003811115613adf57613adf6148d0565b021790555090505060026000336001600160a01b03166001600160a01b03168152602001908152602001600020819080600181540180825580915050600190039060005260206000200160009091909190915055600360008c6001600160a01b03166001600160a01b03168152602001908152602001600020819080600181540180825580915050600190039060005260206000200160009091909190915055600460008b6001600160a01b03166001600160a01b0316815260200190815260200160002081908060018154018082558091505060019003906000526020600020016000909190919091505560056000336001600160a01b03166001600160a01b031681526020019081526020016000206000815480929190613c0190614fdf565b90915550506001600160a01b038b166000908152600660205260408120805491613c2a83614fdf565b90915550506001600160a01b038a166000908152600760205260408120805491613c5383614fdf565b91905055507f425691da677b69b9ecfa48fa6ab0c4d4ce4051713bfe4c9b3c3531a6cc22dd8381338d8d8d604051613c8f959493929190615092565b60405180910390a160098054906000613ca783614fdf565b90915550909b9a5050505050505050505050565b600260005403613d0d5760405162461bcd60e51b815260206004820152601f60248201527f5265656e7472616e637947756172643a207265656e7472616e742063616c6c0060448201526064016108bc565b6002600055565b600081600003613d2657506000919050565b600b54604051632a196afb60e01b81526001600160a01b0390911690632a196afb90613d589030908690600401614e61565b6101c060405180830381865afa158015613d76573d6000803e3d6000fd5b505050506040513d601f19601f82011682018060405250810190613d9a9190614ec6565b610180015192915050565b6001600160a01b0380821660008181526008602052604081205490921614613e035760405162461bcd60e51b8152602060048201526011602482015270496e76616c69642065636f73797374656d60781b60448201526064016108bc565b6001600160a01b03828116600090815260086020526040908190206001015490516310f83ae960e01b81528a83166004820152911690819081906310f83ae990602401602060405180830381865afa158015613e63573d6000803e3d6000fd5b505050506040513d601f19601f82011682018060405250810190613e879190614e85565b80613ea35750836001600160a01b03168a6001600160a01b0316145b613ee85760405162461bcd60e51b81526020600482015260166024820152752737ba1030b71022b1b7b9bcb9ba32b6903a37b5b2b760511b60448201526064016108bc565b60008911613f385760405162461bcd60e51b815260206004820181905260248201527f416d6f756e74206d7573742062652067726561746572207468616e207a65726f60448201526064016108bc565b42881015613f935760405162461bcd60e51b815260206004820152602260248201527f53746172742074696d65206d757374206e6f7420626520696e207468652070616044820152611cdd60f21b60648201526084016108bc565b6000613fa28862015180614e15565b9050610e10811015613fc65760405162461bcd60e51b81526004016108bc906151e3565b613fd76305192d0062015180614e15565b81111561401a5760405162461bcd60e51b81526020600482015260116024820152704475726174696f6e20746f6f206c6f6e6760781b60448201526064016108bc565b6040516323b872dd60e01b81526001600160a01b038c16906323b872dd9061404a90339030908f9060040161506e565b6020604051808303816000875af1158015614069573d6000803e3d6000fd5b505050506040513d601f19601f8201168201806040525081019061408d9190614e85565b5060006009549050604051806101a00160405280336001600160a01b031681526020018e6001600160a01b031681526020018d6001600160a01b03168152602001876001600160a01b031681526020018c8152602001600081526020018b81526020018a81526020016000815260200160011515815260200160008152602001888152602001896003811115614125576141256148d0565b9052600082815260016020818152604092839020845181546001600160a01b03199081166001600160a01b03928316178355928601519382018054841694821694909417909355928401516002840180548316918416919091179055606084015160038401805490921692169190911790556080820151600482015560a0820151600582015560c0820151600682015560e08201516007820155610100820151600882015561012082015160098201805460ff1916911515919091179055610140820151600a820155610160820151600b820190614203908261527b565b50610180820151600c8201805460ff19166001836003811115614228576142286148d0565b021790555090505060026000336001600160a01b03166001600160a01b03168152602001908152602001600020819080600181540180825580915050600190039060005260206000200160009091909190915055600360008e6001600160a01b03166001600160a01b03168152602001908152602001600020819080600181540180825580915050600190039060005260206000200160009091909190915055600460008d6001600160a01b03166001600160a01b0316815260200190815260200160002081908060018154018082558091505060019003906000526020600020016000909190919091505560056000336001600160a01b03166001600160a01b03168152602001908152602001600020600081548092919061434a90614fdf565b90915550506001600160a01b038d16600090815260066020526040812080549161437383614fdf565b90915550506001600160a01b038c16600090815260076020526040812080549161439c83614fdf565b91905055507f425691da677b69b9ecfa48fa6ab0c4d4ce4051713bfe4c9b3c3531a6cc22dd8381338f8f8f6040516143d8959493929190615092565b60405180910390a1600980549060006143f083614fdf565b90915550909d9c50505050505050505050505050565b60008082600381111561441b5761441b6148d0565b0361442857506001919050565b600182600381111561443c5761443c6148d0565b036144495750603c919050565b600282600381111561445d5761445d6148d0565b0361446b5750610e10919050565b600382600381111561447f5761447f6148d0565b0361448e575062015180919050565b60405162461bcd60e51b8152602060048201526011602482015270125b9d985b1a59081d1a5b59481d5b9a5d607a1b60448201526064016108bc565b919050565b604080516101a08101825260008082526020820181905291810182905260608082018390526080820183905260a0820183905260c0820183905260e082018390526101008201839052610120820183905261014082018390526101608201529061018082015290565b80151581146114b057600080fd5b60006020828403121561455857600080fd5b813561456381614538565b9392505050565b60006020828403121561457c57600080fd5b5035919050565b6001600160a01b03811681146114b057600080fd5b80356144ca81614583565b600080604083850312156145b657600080fd5b8235915060208301356145c881614583565b809150509250929050565b6000602082840312156145e557600080fd5b813561456381614583565b6020808252825182820181905260009190848201906040850190845b818110156146285783518352928401929184019160010161460c565b50909695505050505050565b634e487b7160e01b600052604160045260246000fd5b6040516101c081016001600160401b038111828210171561466d5761466d614634565b60405290565b600082601f83011261468457600080fd5b81356001600160401b038082111561469e5761469e614634565b604051601f8301601f19908116603f011681019082821181831017156146c6576146c6614634565b816040528381528660208588010111156146df57600080fd5b836020870160208301376000602085830101528094505050505092915050565b60008060008060008060c0878903121561471857600080fd5b863561472381614583565b9550602087013561473381614583565b9450604087013593506060870135925060808701356001600160401b0381111561475c57600080fd5b61476889828a01614673565b92505060a087013561477981614583565b809150509295509295509295565b6000806040838503121561479a57600080fd5b82356147a581614583565b915060208301356145c881614583565b600080604083850312156147c857600080fd5b50508035926020909101359150565b8035600481106144ca57600080fd5b600080600080600080600080610100898b03121561480357600080fd5b883561480e81614583565b9750602089013561481e81614583565b965060408901359550606089013594506080890135935061484160a08a016147d7565b925060c08901356001600160401b0381111561485c57600080fd5b6148688b828c01614673565b92505060e089013561487981614583565b809150509295985092959890939650565b6000815180845260005b818110156148b057602081850181015186830182015201614894565b506000602082860101526020601f19601f83011685010191505092915050565b634e487b7160e01b600052602160045260246000fd5b6004811061490457634e487b7160e01b600052602160045260246000fd5b9052565b6001600160a01b038e811682528d811660208301528c811660408301528b166060820152608081018a905260a0810189905260c0810188905260e08101879052610100810186905284151561012082015261014081018490526101a0610160820181905260009061497b9083018561488a565b905061498b6101808301846148e6565b9e9d5050505050505050505050505050565b60008083601f8401126149af57600080fd5b5081356001600160401b038111156149c657600080fd5b6020830191508360208260051b85010111156149e157600080fd5b9250929050565b60008060008060008060008060008060006101008c8e031215614a0a57600080fd5b6001600160401b03808d351115614a2057600080fd5b614a2d8e8e358f0161499d565b909c509a50614a3e60208e01614598565b99508060408e01351115614a5157600080fd5b614a618e60408f01358f0161499d565b909950975060608d0135811015614a7757600080fd5b50614a888d60608e01358e0161499d565b909650945060808c0135935060a08c01359250614aa760c08d016147d7565b9150614ab560e08d01614598565b90509295989b509295989b9093969950565b60008060408385031215614ada57600080fd5b8235614ae581614583565b915060208301356145c881614538565b600080600060608486031215614b0a57600080fd5b8335614b1581614583565b95602085013595506040909401359392505050565b600080600080600080600080600060c08a8c031215614b4857600080fd5b89356001600160401b0380821115614b5f57600080fd5b614b6b8d838e0161499d565b909b50995060208c01359150614b8082614583565b90975060408b01359080821115614b9657600080fd5b614ba28d838e0161499d565b909850965060608c0135955060808c0135915080821115614bc257600080fd5b50614bcf8c828d0161499d565b90945092505060a08a0135614be381614583565b809150509295985092959850929598565b60008060408385031215614c0757600080fd5b8235614c1281614583565b946020939093013593505050565b60008060208385031215614c3357600080fd5b82356001600160401b03811115614c4957600080fd5b614c558582860161499d565b90969095509350505050565b80516001600160a01b0316825260006101a06020830151614c8d60208601826001600160a01b03169052565b506040830151614ca860408601826001600160a01b03169052565b506060830151614cc360608601826001600160a01b03169052565b506080830151608085015260a083015160a085015260c083015160c085015260e083015160e085015261010080840151818601525061012080840151614d0c8287018215159052565b5050610140808401518186015250610160808401518282870152614d328387018261488a565b9250505061018080840151614d49828701826148e6565b5090949350505050565b600060208083016020845280855180835260408601915060408160051b87010192506020870160005b82811015614daa57603f19888603018452614d98858351614c61565b94509285019290850190600101614d7c565b5092979650505050505050565b6020815260006145636020830184614c61565b6020808252600890820152674f6e6c792043454f60c01b604082015260600190565b634e487b7160e01b600052601160045260246000fd5b8181038181111561308b5761308b614dec565b808202811582820484141761308b5761308b614dec565b8082018082111561308b5761308b614dec565b600082614e5c57634e487b7160e01b600052601260045260246000fd5b500490565b6001600160a01b03929092168252602082015260400190565b80516144ca81614538565b600060208284031215614e9757600080fd5b815161456381614538565b600060208284031215614eb457600080fd5b5051919050565b80516144ca81614583565b60006101c08284031215614ed957600080fd5b614ee161464a565b82518152614ef160208401614ebb565b602082015260408301516040820152614f0c60608401614ebb565b6060820152614f1d60808401614ebb565b608082015260a083015160a082015260c083015160c082015260e083015160e0820152610100808401518183015250610120808401518183015250610140808401518183015250610160614f72818501614e7a565b90820152610180614f84848201614e7a565b908201526101a0928301519281019290925250919050565b634e487b7160e01b600052603260045260246000fd5b634e487b7160e01b600052603160045260246000fd5b600081614fd757614fd7614dec565b506000190190565b600060018201614ff157614ff1614dec565b5060010190565b60208082526010908201526f496e73756666696369656e742066656560801b604082015260600190565b60006020828403121561503457600080fd5b815161456381614583565b60208082526015908201527415995cdd1a5b99c8185b1c9958591e48195b991959605a1b604082015260600190565b6001600160a01b039384168152919092166020820152604081019190915260600190565b9485526001600160a01b03938416602086015291831660408501529091166060830152608082015260a00190565b600181811c908216806150d457607f821691505b602082108103612d8357634e487b7160e01b600052602260045260246000fd5b602080825260169082015275082e4e4c2f2e640d8cadccee8d040dad2e6dac2e8c6d60531b604082015260600190565b6020808252601b908201527f496e76616c69642062656e656669636961727920616464726573730000000000604082015260600190565b6000808335601e1984360301811261517257600080fd5b8301803591506001600160401b0382111561518c57600080fd5b6020019150368190038213156149e157600080fd5b60208082526022908201527f457874656e73696f6e2065786365656473206d6178696d756d2064757261746960408201526137b760f11b606082015260800190565b60208082526028908201527f56657374696e67206475726174696f6e206d757374206265206174206c6561736040820152673a1018903437bab960c11b606082015260800190565b601f8211156111ca576000816000526020600020601f850160051c810160208610156152545750805b601f850160051c820191505b8181101561527357828155600101615260565b505050505050565b81516001600160401b0381111561529457615294614634565b6152a8816152a284546150c0565b8461522b565b602080601f8311600181146152dd57600084156152c55750858301515b600019600386901b1c1916600185901b178555615273565b600085815260208120601f198616915b8281101561530c578886015182559484019460019091019084016152ed565b508582101561532a5787850151600019600388901b60f8161c191681555b5050505050600190811b0190555056fe06c5efeff5c320943d265dc4e5f1af95ad523555ce0c1957e367dda5514572dfa26469706673582212206060efc480d70fdc50a8eeff2252eb7f3523b8873f0a0c60b8829e6cb881058764736f6c63430008180033",
  "linkReferences": {},
  "deployedLinkReferences": {}
}