{
  "_format": "hh-sol-artifact-1",
  "contractName": "ALEVERAGE",
  "sourceName": "contracts/LEVERAGE.sol",
  "abi": [
    {
      "inputs": [
        {
          "internalType": "address",
          "name": "taxes",
          "type": "address"
        },
        {
          "internalType": "address",
          "name": "maintoken",
          "type": "address"
        },
        {
          "internalType": "address",
          "name": "_usdc",
          "type": "address"
        }
      ],
      "stateMutability": "nonpayable",
      "type": "constructor"
    },
    {
      "inputs": [
        {
          "internalType": "uint256",
          "name": "x",
          "type": "uint256"
        },
        {
          "internalType": "uint256",
          "name": "y",
          "type": "uint256"
        }
      ],
      "name": "PRBMath_MulDiv18_Overflow",
      "type": "error"
    },
    {
      "inputs": [
        {
          "internalType": "uint256",
          "name": "x",
          "type": "uint256"
        },
        {
          "internalType": "uint256",
          "name": "y",
          "type": "uint256"
        },
        {
          "internalType": "uint256",
          "name": "denominator",
          "type": "uint256"
        }
      ],
      "name": "PRBMath_MulDiv_Overflow",
      "type": "error"
    },
    {
      "inputs": [
        {
          "internalType": "UD60x18",
          "name": "x",
          "type": "uint256"
        }
      ],
      "name": "PRBMath_UD60x18_Exp2_InputTooBig",
      "type": "error"
    },
    {
      "inputs": [
        {
          "internalType": "UD60x18",
          "name": "x",
          "type": "uint256"
        }
      ],
      "name": "PRBMath_UD60x18_Log_InputTooSmall",
      "type": "error"
    },
    {
      "inputs": [],
      "name": "PRICEMULTIPLIER",
      "outputs": [
        {
          "internalType": "uint256",
          "name": "",
          "type": "uint256"
        }
      ],
      "stateMutability": "view",
      "type": "function"
    },
    {
      "inputs": [
        {
          "internalType": "address",
          "name": "newTaxes",
          "type": "address"
        }
      ],
      "name": "SetTaxWallet",
      "outputs": [],
      "stateMutability": "nonpayable",
      "type": "function"
    },
    {
      "inputs": [],
      "name": "USDCMULTIPLIER",
      "outputs": [
        {
          "internalType": "uint256",
          "name": "",
          "type": "uint256"
        }
      ],
      "stateMutability": "view",
      "type": "function"
    },
    {
      "inputs": [
        {
          "internalType": "uint256",
          "name": "hybridMultiplier",
          "type": "uint256"
        },
        {
          "internalType": "uint256",
          "name": "reserve0",
          "type": "uint256"
        },
        {
          "internalType": "uint256",
          "name": "reserve1",
          "type": "uint256"
        },
        {
          "internalType": "uint256",
          "name": "baseReserve0",
          "type": "uint256"
        },
        {
          "internalType": "uint256",
          "name": "xereserve0",
          "type": "uint256"
        },
        {
          "internalType": "uint256",
          "name": "xereserve1",
          "type": "uint256"
        }
      ],
      "name": "calculateFloor",
      "outputs": [
        {
          "internalType": "uint256",
          "name": "",
          "type": "uint256"
        }
      ],
      "stateMutability": "view",
      "type": "function"
    },
    {
      "inputs": [
        {
          "internalType": "uint256",
          "name": "hybridMultiplier",
          "type": "uint256"
        },
        {
          "internalType": "uint256",
          "name": "reserve0",
          "type": "uint256"
        },
        {
          "internalType": "uint256",
          "name": "reserve1",
          "type": "uint256"
        },
        {
          "internalType": "uint256",
          "name": "baseReserve0",
          "type": "uint256"
        },
        {
          "internalType": "uint256",
          "name": "xereserve0",
          "type": "uint256"
        },
        {
          "internalType": "uint256",
          "name": "xereserve1",
          "type": "uint256"
        }
      ],
      "name": "calculateFloor2",
      "outputs": [
        {
          "internalType": "uint256",
          "name": "",
          "type": "uint256"
        }
      ],
      "stateMutability": "view",
      "type": "function"
    },
    {
      "inputs": [
        {
          "internalType": "uint256",
          "name": "usdcAmount",
          "type": "uint256"
        },
        {
          "internalType": "uint256",
          "name": "reserve0",
          "type": "uint256"
        },
        {
          "internalType": "uint256",
          "name": "reserve1",
          "type": "uint256"
        }
      ],
      "name": "calculateTokensForBuy",
      "outputs": [
        {
          "internalType": "uint256",
          "name": "",
          "type": "uint256"
        }
      ],
      "stateMutability": "pure",
      "type": "function"
    },
    {
      "inputs": [
        {
          "internalType": "uint256",
          "name": "amountIn",
          "type": "uint256"
        },
        {
          "internalType": "uint256",
          "name": "multiplier",
          "type": "uint256"
        },
        {
          "internalType": "uint256",
          "name": "inputreserve0",
          "type": "uint256"
        },
        {
          "internalType": "uint256",
          "name": "inputreserve1",
          "type": "uint256"
        },
        {
          "internalType": "uint256",
          "name": "splitter",
          "type": "uint256"
        }
      ],
      "name": "calculateTokensToBurn",
      "outputs": [
        {
          "internalType": "uint256",
          "name": "",
          "type": "uint256"
        }
      ],
      "stateMutability": "pure",
      "type": "function"
    },
    {
      "inputs": [
        {
          "internalType": "uint256",
          "name": "tokenAmount",
          "type": "uint256"
        },
        {
          "internalType": "uint256",
          "name": "reserve0",
          "type": "uint256"
        },
        {
          "internalType": "uint256",
          "name": "reserve1",
          "type": "uint256"
        }
      ],
      "name": "getColleteralValue",
      "outputs": [
        {
          "internalType": "uint256",
          "name": "",
          "type": "uint256"
        }
      ],
      "stateMutability": "view",
      "type": "function"
    },
    {
      "inputs": [
        {
          "internalType": "uint256",
          "name": "tokenAmount",
          "type": "uint256"
        },
        {
          "internalType": "uint256",
          "name": "reserve0",
          "type": "uint256"
        },
        {
          "internalType": "uint256",
          "name": "reserve1",
          "type": "uint256"
        },
        {
          "internalType": "uint256",
          "name": "xereserve0",
          "type": "uint256"
        },
        {
          "internalType": "uint256",
          "name": "xereserve1",
          "type": "uint256"
        },
        {
          "internalType": "uint256",
          "name": "multiplier",
          "type": "uint256"
        },
        {
          "internalType": "uint256",
          "name": "basereserve0",
          "type": "uint256"
        }
      ],
      "name": "getColleteralValueHybrid",
      "outputs": [
        {
          "internalType": "uint256",
          "name": "",
          "type": "uint256"
        }
      ],
      "stateMutability": "view",
      "type": "function"
    },
    {
      "inputs": [
        {
          "internalType": "uint256",
          "name": "reserve0",
          "type": "uint256"
        },
        {
          "internalType": "uint256",
          "name": "reserve1",
          "type": "uint256"
        }
      ],
      "name": "getTokenPrice",
      "outputs": [
        {
          "internalType": "uint256",
          "name": "",
          "type": "uint256"
        }
      ],
      "stateMutability": "view",
      "type": "function"
    },
    {
      "inputs": [
        {
          "internalType": "uint256",
          "name": "reserve0",
          "type": "uint256"
        },
        {
          "internalType": "uint256",
          "name": "reserve1",
          "type": "uint256"
        },
        {
          "internalType": "uint256",
          "name": "xereserve0",
          "type": "uint256"
        },
        {
          "internalType": "uint256",
          "name": "xereserve1",
          "type": "uint256"
        }
      ],
      "name": "getUSDPrice",
      "outputs": [
        {
          "internalType": "uint256",
          "name": "",
          "type": "uint256"
        }
      ],
      "stateMutability": "view",
      "type": "function"
    },
    {
      "inputs": [
        {
          "internalType": "contract IERC20",
          "name": "tokenToRescue",
          "type": "address"
        }
      ],
      "name": "rescueAnyToken",
      "outputs": [],
      "stateMutability": "nonpayable",
      "type": "function"
    },
    {
      "inputs": [],
      "name": "rescueEth",
      "outputs": [],
      "stateMutability": "nonpayable",
      "type": "function"
    },
    {
      "inputs": [
        {
          "internalType": "address",
          "name": "addr",
          "type": "address"
        }
      ],
      "name": "setMainToken",
      "outputs": [],
      "stateMutability": "nonpayable",
      "type": "function"
    },
    {
      "inputs": [
        {
          "internalType": "uint256",
          "name": "amount",
          "type": "uint256"
        },
        {
          "internalType": "address[]",
          "name": "path",
          "type": "address[]"
        },
        {
          "internalType": "uint256",
          "name": "reserve0",
          "type": "uint256"
        },
        {
          "internalType": "uint256",
          "name": "reserve1",
          "type": "uint256"
        }
      ],
      "name": "simulateDex",
      "outputs": [
        {
          "components": [
            {
              "internalType": "uint256",
              "name": "dexTax",
              "type": "uint256"
            },
            {
              "internalType": "uint256",
              "name": "reserve0",
              "type": "uint256"
            },
            {
              "internalType": "uint256",
              "name": "reserve1",
              "type": "uint256"
            },
            {
              "internalType": "uint256",
              "name": "reserve0Added",
              "type": "uint256"
            },
            {
              "internalType": "uint256",
              "name": "reserve1Added",
              "type": "uint256"
            },
            {
              "internalType": "uint256",
              "name": "boughtTokens",
              "type": "uint256"
            }
          ],
          "internalType": "struct ALEVERAGE.DexResult",
          "name": "",
          "type": "tuple"
        }
      ],
      "stateMutability": "view",
      "type": "function"
    },
    {
      "inputs": [
        {
          "internalType": "uint256",
          "name": "amount",
          "type": "uint256"
        },
        {
          "internalType": "uint256",
          "name": "reserve0",
          "type": "uint256"
        },
        {
          "internalType": "uint256",
          "name": "reserve1",
          "type": "uint256"
        },
        {
          "internalType": "uint256",
          "name": "multiplier",
          "type": "uint256"
        }
      ],
      "name": "simulateDexFactory",
      "outputs": [
        {
          "components": [
            {
              "internalType": "uint256",
              "name": "dexTax",
              "type": "uint256"
            },
            {
              "internalType": "uint256",
              "name": "reserve0",
              "type": "uint256"
            },
            {
              "internalType": "uint256",
              "name": "reserve1",
              "type": "uint256"
            },
            {
              "internalType": "uint256",
              "name": "reserve0Added",
              "type": "uint256"
            },
            {
              "internalType": "uint256",
              "name": "reserve1Added",
              "type": "uint256"
            },
            {
              "internalType": "uint256",
              "name": "boughtTokens",
              "type": "uint256"
            }
          ],
          "internalType": "struct ALEVERAGE.DexResult",
          "name": "",
          "type": "tuple"
        }
      ],
      "stateMutability": "pure",
      "type": "function"
    },
    {
      "inputs": [
        {
          "internalType": "uint256",
          "name": "_amount",
          "type": "uint256"
        },
        {
          "internalType": "address[]",
          "name": "path",
          "type": "address[]"
        },
        {
          "internalType": "uint256",
          "name": "numberOfDays",
          "type": "uint256"
        }
      ],
      "name": "simulateLeverage",
      "outputs": [
        {
          "components": [
            {
              "internalType": "uint256",
              "name": "newXeReserve0",
              "type": "uint256"
            },
            {
              "internalType": "uint256",
              "name": "newXeReserve1",
              "type": "uint256"
            },
            {
              "internalType": "uint256",
              "name": "newReserve0",
              "type": "uint256"
            },
            {
              "internalType": "uint256",
              "name": "newReserve1",
              "type": "uint256"
            },
            {
              "internalType": "uint256",
              "name": "totalRepay",
              "type": "uint256"
            },
            {
              "internalType": "uint256",
              "name": "totalBorrowed",
              "type": "uint256"
            },
            {
              "internalType": "uint256",
              "name": "totalColleteral",
              "type": "uint256"
            },
            {
              "internalType": "uint256",
              "name": "totalFees",
              "type": "uint256"
            },
            {
              "internalType": "uint256",
              "name": "realLiquidity",
              "type": "uint256"
            },
            {
              "internalType": "uint256",
              "name": "xeAdded",
              "type": "uint256"
            },
            {
              "internalType": "uint256",
              "name": "usdcAdded",
              "type": "uint256"
            },
            {
              "internalType": "uint256",
              "name": "tokenAdded",
              "type": "uint256"
            }
          ],
          "internalType": "struct ALEVERAGE.EndResult",
          "name": "",
          "type": "tuple"
        }
      ],
      "stateMutability": "view",
      "type": "function"
    },
    {
      "inputs": [
        {
          "internalType": "uint256",
          "name": "_amount",
          "type": "uint256"
        },
        {
          "internalType": "address[]",
          "name": "path",
          "type": "address[]"
        },
        {
          "internalType": "uint256",
          "name": "numberOfDays",
          "type": "uint256"
        }
      ],
      "name": "simulateLeverageFactory",
      "outputs": [
        {
          "components": [
            {
              "internalType": "uint256",
              "name": "newXeReserve0",
              "type": "uint256"
            },
            {
              "internalType": "uint256",
              "name": "newXeReserve1",
              "type": "uint256"
            },
            {
              "internalType": "uint256",
              "name": "newReserve0",
              "type": "uint256"
            },
            {
              "internalType": "uint256",
              "name": "newReserve1",
              "type": "uint256"
            },
            {
              "internalType": "uint256",
              "name": "totalRepay",
              "type": "uint256"
            },
            {
              "internalType": "uint256",
              "name": "totalBorrowed",
              "type": "uint256"
            },
            {
              "internalType": "uint256",
              "name": "totalColleteral",
              "type": "uint256"
            },
            {
              "internalType": "uint256",
              "name": "totalFees",
              "type": "uint256"
            },
            {
              "internalType": "uint256",
              "name": "realLiquidity",
              "type": "uint256"
            },
            {
              "internalType": "uint256",
              "name": "xeAdded",
              "type": "uint256"
            },
            {
              "internalType": "uint256",
              "name": "usdcAdded",
              "type": "uint256"
            },
            {
              "internalType": "uint256",
              "name": "tokenAdded",
              "type": "uint256"
            }
          ],
          "internalType": "struct ALEVERAGE.EndResult",
          "name": "",
          "type": "tuple"
        }
      ],
      "stateMutability": "view",
      "type": "function"
    },
    {
      "inputs": [
        {
          "internalType": "uint256",
          "name": "boughtTokens",
          "type": "uint256"
        },
        {
          "internalType": "uint256",
          "name": "reserve0",
          "type": "uint256"
        },
        {
          "internalType": "uint256",
          "name": "reserve1",
          "type": "uint256"
        },
        {
          "internalType": "uint256",
          "name": "numberOfDays",
          "type": "uint256"
        }
      ],
      "name": "simulateLoan",
      "outputs": [
        {
          "components": [
            {
              "internalType": "uint256",
              "name": "colleteralValue",
              "type": "uint256"
            },
            {
              "internalType": "uint256",
              "name": "totalFee",
              "type": "uint256"
            },
            {
              "internalType": "uint256",
              "name": "borrowedAmount",
              "type": "uint256"
            },
            {
              "internalType": "uint256",
              "name": "reserve0",
              "type": "uint256"
            },
            {
              "internalType": "uint256",
              "name": "reserve1",
              "type": "uint256"
            },
            {
              "internalType": "uint256",
              "name": "xereserve0",
              "type": "uint256"
            },
            {
              "internalType": "uint256",
              "name": "xereserve1",
              "type": "uint256"
            },
            {
              "internalType": "uint256",
              "name": "lpFee",
              "type": "uint256"
            }
          ],
          "internalType": "struct ALEVERAGE.LoanResult",
          "name": "",
          "type": "tuple"
        }
      ],
      "stateMutability": "view",
      "type": "function"
    },
    {
      "inputs": [
        {
          "internalType": "uint256",
          "name": "boughtTokens",
          "type": "uint256"
        },
        {
          "internalType": "uint256",
          "name": "reserve0",
          "type": "uint256"
        },
        {
          "internalType": "uint256",
          "name": "reserve1",
          "type": "uint256"
        },
        {
          "internalType": "uint256",
          "name": "xereserve0",
          "type": "uint256"
        },
        {
          "internalType": "uint256",
          "name": "xereserve1",
          "type": "uint256"
        },
        {
          "internalType": "uint256",
          "name": "multiplier",
          "type": "uint256"
        },
        {
          "internalType": "uint256",
          "name": "basereserve0",
          "type": "uint256"
        },
        {
          "internalType": "uint256",
          "name": "numberOfDays",
          "type": "uint256"
        }
      ],
      "name": "simulateLoanHybrid",
      "outputs": [
        {
          "components": [
            {
              "internalType": "uint256",
              "name": "colleteralValue",
              "type": "uint256"
            },
            {
              "internalType": "uint256",
              "name": "totalFee",
              "type": "uint256"
            },
            {
              "internalType": "uint256",
              "name": "borrowedAmount",
              "type": "uint256"
            },
            {
              "internalType": "uint256",
              "name": "reserve0",
              "type": "uint256"
            },
            {
              "internalType": "uint256",
              "name": "reserve1",
              "type": "uint256"
            },
            {
              "internalType": "uint256",
              "name": "xereserve0",
              "type": "uint256"
            },
            {
              "internalType": "uint256",
              "name": "xereserve1",
              "type": "uint256"
            },
            {
              "internalType": "uint256",
              "name": "lpFee",
              "type": "uint256"
            }
          ],
          "internalType": "struct ALEVERAGE.LoanResult",
          "name": "",
          "type": "tuple"
        }
      ],
      "stateMutability": "view",
      "type": "function"
    }
  ],
  "bytecode": "0x6080604052670de0b6b3a7640000600455670de0b6b3a76400006005553480156200002957600080fd5b5060405162002972380380620029728339810160408190526200004c91620000b5565b600180546001600160a01b03199081166001600160a01b0394851617909155600280548216948416949094179093556003805433908516179055600080549093169116179055620000ff565b80516001600160a01b0381168114620000b057600080fd5b919050565b600080600060608486031215620000cb57600080fd5b620000d68462000098565b9250620000e66020850162000098565b9150620000f66040850162000098565b90509250925092565b612863806200010f6000396000f3fe608060405234801561001057600080fd5b506004361061012c5760003560e01c806365437987116100ad578063bf88b21b11610071578063bf88b21b14610384578063ce31a06b14610397578063d0b535f91461039f578063eeee1846146103b2578063feddc398146103c557600080fd5b806365437987146102a75780636dc656f214610342578063848bd90f1461035557806394999ec314610368578063bc4a53e21461037157600080fd5b806330fd25a6116100f457806330fd25a6146101e757806341b33fd3146101fa578063439f84f11461020d5780634bd6ec391461028157806361d31ed71461029457600080fd5b806305bd5d92146101315780630cac23bb146101575780631bc8a65d1461016057806327ce464e146101bf5780632c9cdbbf146101d4575b600080fd5b61014461013f366004612433565b6103d8565b6040519081526020015b60405180910390f35b61014460055481565b61017361016e3660046124c2565b6104e6565b60405161014e9190600060c082019050825182526020830151602083015260408301516040830152606083015160608301526080830151608083015260a083015160a083015292915050565b6101d26101cd366004612535565b610652565b005b6101d26101e2366004612535565b6106a7565b6101736101f5366004612552565b6107ba565b610144610208366004612584565b61087f565b61022061021b366004612552565b6108c3565b60405161014e9190600061010082019050825182526020830151602083015260408301516040830152606083015160608301526080830151608083015260a083015160a083015260c083015160c083015260e083015160e083015292915050565b6101d261028f366004612535565b610a6d565b6101446102a23660046125b0565b610ab9565b6102ba6102b53660046125eb565b610bbe565b60405161014e9190815181526020808301519082015260408083015190820152606080830151908201526080808301519082015260a0808301519082015260c0808301519082015260e0808301519082015261010080830151908201526101208083015190820152610140808301519082015261016091820151918101919091526101800190565b61014461035036600461263e565b6110a2565b610144610363366004612584565b6110c6565b61014460045481565b61014461037f366004612660565b6110f1565b610144610392366004612552565b611124565b6101d2611169565b6101446103ad366004612433565b6111f5565b6102ba6103c03660046125eb565b6112b5565b6102206103d33660046126ac565b61154d565b6000866064036103f5576103ee86868585611124565b90506104dc565b600061041760645b610411670de0b6b3a76400008b5b906116fc565b9061170b565b9050670de0b6b3a7640000600061043882610432818661170b565b90611723565b905060006104478a5b89610411565b9050600061045b6104588c8c6110a2565b90565b905060006104698385611732565b9050600061047782846116fc565b905060006104886104588c8c6110a2565b9050600061049683836116fc565b60055490915081906104a9906001612717565b8111156104c15799506104dc98505050505050505050565b6005546104cf906001612717565b9a50505050505050505050505b9695505050505050565b61051f6040518060c001604052806000815260200160008152602001600081526020016000815260200160008152602001600081525090565b6000858561052e60018261272e565b81811061053d5761053d612741565b90506020020160208101906105529190612535565b600254604051631685774f60e01b81526001600160a01b038084166004830152600060248301819052939450612710921690631685774f90604401602060405180830381865afa1580156105aa573d6000803e3d6000fd5b505050506040513d601f19601f820116820180604052508101906105ce9190612757565b6105d8908a612717565b6105e29190612786565b905060006105f0828a61272e565b905060006105ff82888861087f565b905061060b81886127a8565b965061061782876127a8565b6040805160c08101825294855260208501899052840181905260608401829052608084019290925260a0830152935091505095945050505050565b6003546001600160a01b031633146106855760405162461bcd60e51b815260040161067c906127bb565b60405180910390fd5b600180546001600160a01b0319166001600160a01b0392909216919091179055565b6003546001600160a01b031633146106d15760405162461bcd60e51b815260040161067c906127bb565b6040516370a0823160e01b81523060048201526000906001600160a01b038316906370a0823190602401602060405180830381865afa158015610718573d6000803e3d6000fd5b505050506040513d601f19601f8201168201806040525081019061073c9190612757565b60035460405163a9059cbb60e01b81526001600160a01b0391821660048201526024810183905291925083169063a9059cbb906044016020604051808303816000875af1158015610791573d6000803e3d6000fd5b505050506040513d601f19601f820116820180604052508101906107b591906127dd565b505050565b6107f36040518060c001604052806000815260200160008152602001600081526020016000815260200160008152602001600081525090565b600061080086868661087f565b9050606461080e8483612717565b6108189190612786565b61082290866127a8565b945061082e86856127a8565b93506040518060c00160405280600081526020018681526020018581526020016064858461085c9190612717565b6108669190612786565b8152602081019790975260409096015250929392505050565b600083600003610891575060006108bc565b600061089d8486612717565b905060006108ab86856127a8565b90506108b78183612786565b925050505b9392505050565b6108cb61238d565b60006108d88686866110c6565b90506000612710600160009054906101000a90046001600160a01b03166001600160a01b03166351a87af76040518163ffffffff1660e01b8152600401602060405180830381865afa158015610932573d6000803e3d6000fd5b505050506040513d601f19601f820116820180604052508101906109569190612757565b6109609084612717565b61096a9190612786565b90506000620186a085600160009054906101000a90046001600160a01b03166001600160a01b03166379186af06040518163ffffffff1660e01b8152600401602060405180830381865afa1580156109c6573d6000803e3d6000fd5b505050506040513d601f19601f820116820180604052508101906109ea9190612757565b6109f49190612717565b6109fe9085612717565b610a089190612786565b90506000610a1682846127a8565b90506000610a24828661272e565b6040805161010081018252968752602087019390935291850191909152505050606081018590526080810184905260a0810194909452505060c0820152600060e0820152919050565b6003546001600160a01b03163314610a975760405162461bcd60e51b815260040161067c906127bb565b600280546001600160a01b0319166001600160a01b0392909216919091179055565b6000808211610b0a5760405162461bcd60e51b815260206004820152601760248201527f53706c69747465722063616e6e6f74206265207a65726f000000000000000000604482015260640161067c565b600080610b178489612786565b905060005b84811015610bb1576000610b3160018761272e565b8214610b3d5782610b5c565b610b4860018761272e565b610b529084612717565b610b5c908b61272e565b90506000610b6b828a8a611844565b90506064610b798b83612717565b610b839190612786565b610b8d908a61272e565b9850610b99828961272e565b9750610ba581866127a8565b94505050600101610b1c565b5090979650505050505050565b610bc66123d2565b60006040518060e001604052808781526020016000815260200160008152602001600081526020016000815260200160008152602001600081525090506000604051806101800160405280600081526020016000815260200160008152602001600081526020016000815260200160008152602001600081526020016000815260200160008152602001600081526020016000815260200160008152509050600160009054906101000a90046001600160a01b03166001600160a01b0316630902f1ac6040518163ffffffff1660e01b8152600401606060405180830381865afa158015610cb8573d6000803e3d6000fd5b505050506040513d601f19601f82011682018060405250810190610cdc91906127ff565b50604084015260208301528585610cf460018261272e565b818110610d0357610d03612741565b9050602002016020810190610d189190612535565b6001600160a01b0316630902f1ac6040518163ffffffff1660e01b8152600401606060405180830381865afa158015610d55573d6000803e3d6000fd5b505050506040513d601f19601f82011682018060405250810190610d7991906127ff565b50608084015260608301528585610d9160018261272e565b818110610da057610da0612741565b9050602002016020810190610db59190612535565b6001600160a01b0316636a72cd086040518163ffffffff1660e01b8152600401602060405180830381865afa158015610df2573d6000803e3d6000fd5b505050506040513d601f19601f82011682018060405250810190610e169190612757565b60a08301528585610e2860018261272e565b818110610e3757610e37612741565b9050602002016020810190610e4c9190612535565b6001600160a01b031663037c65a86040518163ffffffff1660e01b8152600401602060405180830381865afa158015610e89573d6000803e3d6000fd5b505050506040513d601f19601f82011682018060405250810190610ead9190612757565b60c08301525b600554610ec1906001612717565b82511061104c576000610ee383600001518888866020015187604001516104e6565b90506000610f038260600151856060015186608001518760a001516107ba565b90506000610f338260a0015183602001518460400151866020015187604001518a60a001518b60c001518e61154d565b905082606001518461012001818151610f4c91906127a8565b905250608083015161014085018051610f669083906127a8565b90525060e081015161014085018051610f809083906127a8565b905250606082015161016085018051610f9a9083906127a8565b9052508051608085018051610fb09083906127a8565b905250604081015160a085018051610fc99083906127a8565b905250825160e085018051610fdf9083906127a8565b905250602081015160e085018051610ff89083906127a8565b90525060a082015160c0850180516110119083906127a8565b905250606080820151908601526080808201519086015260a0810151602086015260c08101516040808701919091520151845250610eb39050565b60608083015160408084019190915260808401519183019190915260208084015183529083015190820152815160e0820151611088908961272e565b611092919061272e565b6101008201529695505050505050565b600082600454836110b39190612717565b6110bd9190612786565b90505b92915050565b60006004546110d584846110a2565b6110df9086612717565b6110e99190612786565b949350505050565b6000600454611104848989868a8a6103d8565b61110e908a612717565b6111189190612786565b98975050505050505050565b600060045461113384846110a2565b86600454876111429190612717565b61114c9190612786565b6111569190612717565b6111609190612786565b95945050505050565b6003546001600160a01b031633146111935760405162461bcd60e51b815260040161067c906127bb565b6003546040516000916001600160a01b03169047908381818185875af1925050503d80600081146111e0576040519150601f19603f3d011682016040523d82523d6000602084013e6111e5565b606091505b5050905080156111f25750565b50565b60008660640361120b576103ee86868585611124565b600061121760646103fd565b9050670de0b6b3a7640000600061123282610432818661170b565b9050600061123f8a610441565b905060006112506104588c8c6110a2565b90506000611273701d6329f1c35ca4bfabb9f561000000000061040b8587611732565b9050600061128182846116fc565b905060006112926104588c8c6110a2565b90506000610496701d6329f1c35ca4bfabb9f561000000000061041185856116fc565b6112bd6123d2565b60006040518060e001604052808781526020016000815260200160008152602001600081526020016000815260200160008152602001600081525090506000604051806101800160405280600081526020016000815260200160008152602001600081526020016000815260200160008152602001600081526020016000815260200160008152602001600081526020016000815260200160008152509050600160009054906101000a90046001600160a01b03166001600160a01b0316630902f1ac6040518163ffffffff1660e01b8152600401606060405180830381865afa1580156113af573d6000803e3d6000fd5b505050506040513d601f19601f820116820180604052508101906113d391906127ff565b50608084015260608301525b6113f2670de0b6b3a76400006001612717565b82511061151a57600061141483600001518888866060015187608001516104e6565b90506000611430826060015183602001518460400151896108c3565b905080600001518360800181815161144891906127a8565b905250606082015160c0840180516114619083906127a8565b905250815160e0840180516114779083906127a8565b905250602081015160e0840180516114909083906127a8565b905250604081015160a0840180516114a99083906127a8565b9052506060820151610120840180516114c39083906127a8565b9052506080820151610140840180516114dd9083906127a8565b90525060e0810151610140840180516114f79083906127a8565b9052506060808201519085015260808082015190850152604001518352506113df565b60608083018051604084015260808401805192840192909252518252516020820152815160e0820151611088908961272e565b61155561238d565b60006115668a8a8a8a8a8a8a6110f1565b90506000612710600160009054906101000a90046001600160a01b03166001600160a01b03166351a87af76040518163ffffffff1660e01b8152600401602060405180830381865afa1580156115c0573d6000803e3d6000fd5b505050506040513d601f19601f820116820180604052508101906115e49190612757565b6115ee9084612717565b6115f89190612786565b90506000620186a085600160009054906101000a90046001600160a01b03166001600160a01b03166379186af06040518163ffffffff1660e01b8152600401602060405180830381865afa158015611654573d6000803e3d6000fd5b505050506040513d601f19601f820116820180604052508101906116789190612757565b6116829190612717565b61168c9085612717565b6116969190612786565b905060006116a482846127a8565b905060006116b2828661272e565b6040805161010081018252968752602087019390935291850191909152505050606081019890985250505050608084019290925260a083015260c0820152600060e0820152919050565b60006110bd6104588484611922565b60006110bd61045884670de0b6b3a7640000856119d8565b60006110bd610458838561272e565b6000828281830361175d57801561174a576000611754565b670de0b6b3a76400005b925050506110c0565b670de0b6b3a7640000820361177e57670de0b6b3a7640000925050506110c0565b8060000361179857670de0b6b3a7640000925050506110c0565b670de0b6b3a764000081036117b15784925050506110c0565b670de0b6b3a76400008211156117e2576117db6117d66117d087611aac565b866116fc565b611bdc565b925061183c565b6000611800610458846ec097ce7bc90715b34b9f1000000000612786565b905060006118196117d661181384611aac565b886116fc565b9050611837610458826ec097ce7bc90715b34b9f1000000000612786565b945050505b505092915050565b600083600003611856575060006108bc565b818411156118a65760405162461bcd60e51b815260206004820152601f60248201527f496e73756666696369656e74206d61696e20746f6b656e207265736572766500604482015260640161067c565b60006118b28486612717565b905060006118c0868561272e565b905060006118ce8284612786565b6118d99060016127a8565b9050600081116108b75760405162461bcd60e51b8152602060048201526014602482015273125b9d985b1a59081d1bdad95b88185b5bdd5b9d60621b604482015260640161067c565b60008080600019848609848602925082811083820303915050806000036119565750670de0b6b3a7640000900490506110c0565b670de0b6b3a7640000811061198857604051635173648d60e01b8152600481018690526024810185905260440161067c565b6000670de0b6b3a764000085870962040000818503049310909103600160ee1b02919091177faccb18165bd6fe31ae1cf318dc5b51eee0e1ba569b88cd74c1773b91fac106690291505092915050565b6000808060001985870985870292508281108382030391505080600003611a1257838281611a0857611a08612770565b04925050506108bc565b838110611a4357604051630c740aef60e31b815260048101879052602481018690526044810185905260640161067c565b60008486880960026001871981018816978890046003810283188082028403028082028403028082028403028082028403028082028403029081029092039091026000889003889004909101858311909403939093029303949094049190911702949350505050565b600081670de0b6b3a7640000811015611adb5760405163036d32ef60e41b81526004810184905260240161067c565b6000611b67670de0b6b3a7640000830460016fffffffffffffffffffffffffffffffff821160071b91821c67ffffffffffffffff811160061b90811c63ffffffff811160051b90811c61ffff811160041b90811c60ff8111600390811b91821c600f811160021b90811c918211871b91821c969096119490961792909217171791909117919091171790565b9050670de0b6b3a7640000810282821c670de0b6b3a763ffff198101611b8d57816104dc565b671bc16d674ec800006706f05b59d3b200005b8015611bd057670de0b6b3a7640000838002049250818310611bc8579283019260019290921c915b60011c611ba0565b50919695505050505050565b600081680a688906bd8affffff811115611c0c5760405163b3b6ba1f60e01b81526004810184905260240161067c565b6000611c24670de0b6b3a7640000604084901b612786565b90506110e961045882600160bf1b67ff00000000000000821615611d3a57678000000000000000821615611c615768016a09e667f3bcc9090260401c5b674000000000000000821615611c80576801306fe0a31b7152df0260401c5b672000000000000000821615611c9f576801172b83c7d517adce0260401c5b671000000000000000821615611cbe5768010b5586cf9890f62a0260401c5b670800000000000000821615611cdd576801059b0d31585743ae0260401c5b670400000000000000821615611cfc57680102c9a3e778060ee70260401c5b670200000000000000821615611d1b5768010163da9fb33356d80260401c5b670100000000000000821615611d3a57680100b1afa5abcbed610260401c5b66ff000000000000821615611e39576680000000000000821615611d675768010058c86da1c09ea20260401c5b6640000000000000821615611d85576801002c605e2e8cec500260401c5b6620000000000000821615611da357680100162f3904051fa10260401c5b6610000000000000821615611dc1576801000b175effdc76ba0260401c5b6608000000000000821615611ddf57680100058ba01fb9f96d0260401c5b6604000000000000821615611dfd5768010002c5cc37da94920260401c5b6602000000000000821615611e1b576801000162e525ee05470260401c5b6601000000000000821615611e395768010000b17255775c040260401c5b65ff0000000000821615611f2f5765800000000000821615611e64576801000058b91b5bc9ae0260401c5b65400000000000821615611e8157680100002c5c89d5ec6d0260401c5b65200000000000821615611e9e5768010000162e43f4f8310260401c5b65100000000000821615611ebb57680100000b1721bcfc9a0260401c5b65080000000000821615611ed85768010000058b90cf1e6e0260401c5b65040000000000821615611ef5576801000002c5c863b73f0260401c5b65020000000000821615611f1257680100000162e430e5a20260401c5b65010000000000821615611f2f576801000000b1721835510260401c5b64ff0000000082161561201c57648000000000821615611f5857680100000058b90c0b490260401c5b644000000000821615611f745768010000002c5c8601cc0260401c5b642000000000821615611f90576801000000162e42fff00260401c5b641000000000821615611fac5768010000000b17217fbb0260401c5b640800000000821615611fc8576801000000058b90bfce0260401c5b640400000000821615611fe457680100000002c5c85fe30260401c5b6402000000008216156120005768010000000162e42ff10260401c5b64010000000082161561201c57680100000000b17217f80260401c5b63ff0000008216156121005763800000008216156120435768010000000058b90bfc0260401c5b634000000082161561205e576801000000002c5c85fe0260401c5b632000000082161561207957680100000000162e42ff0260401c5b6310000000821615612094576801000000000b17217f0260401c5b63080000008216156120af57680100000000058b90c00260401c5b63040000008216156120ca5768010000000002c5c8600260401c5b63020000008216156120e5576801000000000162e4300260401c5b63010000008216156121005768010000000000b172180260401c5b62ff00008216156121db5762800000821615612125576801000000000058b90c0260401c5b6240000082161561213f57680100000000002c5c860260401c5b622000008216156121595768010000000000162e430260401c5b6210000082161561217357680100000000000b17210260401c5b6208000082161561218d5768010000000000058b910260401c5b620400008216156121a7576801000000000002c5c80260401c5b620200008216156121c157680100000000000162e40260401c5b620100008216156121db576801000000000000b1720260401c5b61ff008216156122ad576180008216156121fe57680100000000000058b90260401c5b6140008216156122175768010000000000002c5d0260401c5b612000821615612230576801000000000000162e0260401c5b6110008216156122495768010000000000000b170260401c5b610800821615612262576801000000000000058c0260401c5b61040082161561227b57680100000000000002c60260401c5b61020082161561229457680100000000000001630260401c5b6101008216156122ad57680100000000000000b10260401c5b60ff8216156123765760808216156122ce57680100000000000000590260401c5b60408216156122e6576801000000000000002c0260401c5b60208216156122fe57680100000000000000160260401c5b6010821615612316576801000000000000000b0260401c5b600882161561232e57680100000000000000060260401c5b600482161561234657680100000000000000030260401c5b600282161561235e57680100000000000000010260401c5b600182161561237657680100000000000000010260401c5b670de0b6b3a76400000260409190911c60bf031c90565b60405180610100016040528060008152602001600081526020016000815260200160008152602001600081526020016000815260200160008152602001600081525090565b6040518061018001604052806000815260200160008152602001600081526020016000815260200160008152602001600081526020016000815260200160008152602001600081526020016000815260200160008152602001600081525090565b60008060008060008060c0878903121561244c57600080fd5b505084359660208601359650604086013595606081013595506080810135945060a0013592509050565b60008083601f84011261248857600080fd5b50813567ffffffffffffffff8111156124a057600080fd5b6020830191508360208260051b85010111156124bb57600080fd5b9250929050565b6000806000806000608086880312156124da57600080fd5b85359450602086013567ffffffffffffffff8111156124f857600080fd5b61250488828901612476565b9699909850959660408101359660609091013595509350505050565b6001600160a01b03811681146111f257600080fd5b60006020828403121561254757600080fd5b81356108bc81612520565b6000806000806080858703121561256857600080fd5b5050823594602084013594506040840135936060013592509050565b60008060006060848603121561259957600080fd5b505081359360208301359350604090920135919050565b600080600080600060a086880312156125c857600080fd5b505083359560208501359550604085013594606081013594506080013592509050565b6000806000806060858703121561260157600080fd5b84359350602085013567ffffffffffffffff81111561261f57600080fd5b61262b87828801612476565b9598909750949560400135949350505050565b6000806040838503121561265157600080fd5b50508035926020909101359150565b600080600080600080600060e0888a03121561267b57600080fd5b505085359760208701359750604087013596606081013596506080810135955060a0810135945060c0013592509050565b600080600080600080600080610100898b0312156126c957600080fd5b505086359860208801359850604088013597606081013597506080810135965060a0810135955060c0810135945060e0013592509050565b634e487b7160e01b600052601160045260246000fd5b80820281158282048414176110c0576110c0612701565b818103818111156110c0576110c0612701565b634e487b7160e01b600052603260045260246000fd5b60006020828403121561276957600080fd5b5051919050565b634e487b7160e01b600052601260045260246000fd5b6000826127a357634e487b7160e01b600052601260045260246000fd5b500490565b808201808211156110c0576110c0612701565b6020808252600890820152674f6e6c792043454f60c01b604082015260600190565b6000602082840312156127ef57600080fd5b815180151581146108bc57600080fd5b60008060006060848603121561281457600080fd5b835192506020840151915060408401519050925092509256fea2646970667358221220082d2f2dc7c11a704d748cdd74733b1f45d88c5c35d14f2ae056cd9b199cddee64736f6c63430008180033",
  "linkReferences": {},
  "deployedLinkReferences": {}
}