{
  "_format": "hh-sol-artifact-1",
  "contractName": "ALOAN_HUB",
  "sourceName": "contracts/LOANS.sol",
  "abi": [
    {
      "inputs": [],
      "stateMutability": "nonpayable",
      "type": "constructor"
    },
    {
      "anonymous": false,
      "inputs": [
        {
          "indexed": true,
          "internalType": "address",
          "name": "mainToken",
          "type": "address"
        },
        {
          "indexed": false,
          "internalType": "address",
          "name": "stable",
          "type": "address"
        }
      ],
      "name": "EcosystemAdded",
      "type": "event"
    },
    {
      "anonymous": false,
      "inputs": [
        {
          "indexed": true,
          "internalType": "address",
          "name": "user",
          "type": "address"
        },
        {
          "indexed": false,
          "internalType": "uint256",
          "name": "hubId",
          "type": "uint256"
        },
        {
          "indexed": false,
          "internalType": "uint256",
          "name": "claimed",
          "type": "uint256"
        }
      ],
      "name": "LiquidationClaimed",
      "type": "event"
    },
    {
      "anonymous": false,
      "inputs": [
        {
          "indexed": true,
          "internalType": "address",
          "name": "user",
          "type": "address"
        },
        {
          "indexed": false,
          "internalType": "uint256",
          "name": "hubId",
          "type": "uint256"
        },
        {
          "indexed": false,
          "internalType": "uint256",
          "name": "coreId",
          "type": "uint256"
        },
        {
          "indexed": false,
          "internalType": "uint256",
          "name": "borrowed",
          "type": "uint256"
        }
      ],
      "name": "LoanCreated",
      "type": "event"
    },
    {
      "anonymous": false,
      "inputs": [
        {
          "indexed": true,
          "internalType": "address",
          "name": "user",
          "type": "address"
        },
        {
          "indexed": false,
          "internalType": "uint256",
          "name": "hubId",
          "type": "uint256"
        },
        {
          "indexed": false,
          "internalType": "uint256",
          "name": "addDays",
          "type": "uint256"
        },
        {
          "indexed": false,
          "internalType": "bool",
          "name": "refinance",
          "type": "bool"
        }
      ],
      "name": "LoanExtended",
      "type": "event"
    },
    {
      "anonymous": false,
      "inputs": [
        {
          "indexed": true,
          "internalType": "address",
          "name": "user",
          "type": "address"
        },
        {
          "indexed": false,
          "internalType": "uint256",
          "name": "hubId",
          "type": "uint256"
        },
        {
          "indexed": false,
          "internalType": "uint256",
          "name": "amountAdded",
          "type": "uint256"
        },
        {
          "indexed": false,
          "internalType": "uint256",
          "name": "borrowed",
          "type": "uint256"
        }
      ],
      "name": "LoanIncreased",
      "type": "event"
    },
    {
      "anonymous": false,
      "inputs": [
        {
          "indexed": true,
          "internalType": "address",
          "name": "user",
          "type": "address"
        },
        {
          "indexed": false,
          "internalType": "uint256",
          "name": "hubId",
          "type": "uint256"
        }
      ],
      "name": "LoanRepaid",
      "type": "event"
    },
    {
      "anonymous": false,
      "inputs": [
        {
          "indexed": true,
          "internalType": "address",
          "name": "user",
          "type": "address"
        },
        {
          "indexed": false,
          "internalType": "uint256",
          "name": "hubId",
          "type": "uint256"
        },
        {
          "indexed": false,
          "internalType": "uint256",
          "name": "percentage",
          "type": "uint256"
        },
        {
          "indexed": false,
          "internalType": "uint256",
          "name": "received",
          "type": "uint256"
        }
      ],
      "name": "PartialLoanSold",
      "type": "event"
    },
    {
      "inputs": [],
      "name": "CEO",
      "outputs": [
        {
          "internalType": "address",
          "name": "",
          "type": "address"
        }
      ],
      "stateMutability": "view",
      "type": "function"
    },
    {
      "inputs": [
        {
          "internalType": "address",
          "name": "mainToken",
          "type": "address"
        },
        {
          "internalType": "address",
          "name": "stable",
          "type": "address"
        },
        {
          "internalType": "address",
          "name": "swapContract",
          "type": "address"
        }
      ],
      "name": "addEcosystem",
      "outputs": [],
      "stateMutability": "nonpayable",
      "type": "function"
    },
    {
      "inputs": [
        {
          "internalType": "uint256",
          "name": "hubId",
          "type": "uint256"
        }
      ],
      "name": "claimLiquidation",
      "outputs": [
        {
          "internalType": "uint256",
          "name": "claimed",
          "type": "uint256"
        }
      ],
      "stateMutability": "nonpayable",
      "type": "function"
    },
    {
      "inputs": [
        {
          "internalType": "address",
          "name": "",
          "type": "address"
        }
      ],
      "name": "ecosystems",
      "outputs": [
        {
          "internalType": "address",
          "name": "mainToken",
          "type": "address"
        },
        {
          "internalType": "address",
          "name": "stable",
          "type": "address"
        },
        {
          "internalType": "address",
          "name": "swapContract",
          "type": "address"
        },
        {
          "internalType": "bool",
          "name": "active",
          "type": "bool"
        }
      ],
      "stateMutability": "view",
      "type": "function"
    },
    {
      "inputs": [
        {
          "internalType": "uint256",
          "name": "hubId",
          "type": "uint256"
        },
        {
          "internalType": "uint256",
          "name": "addDays",
          "type": "uint256"
        },
        {
          "internalType": "bool",
          "name": "payInStable",
          "type": "bool"
        },
        {
          "internalType": "bool",
          "name": "refinance",
          "type": "bool"
        }
      ],
      "name": "extendLoan",
      "outputs": [],
      "stateMutability": "nonpayable",
      "type": "function"
    },
    {
      "inputs": [
        {
          "internalType": "address",
          "name": "",
          "type": "address"
        }
      ],
      "name": "extensionWhitelisted",
      "outputs": [
        {
          "internalType": "bool",
          "name": "",
          "type": "bool"
        }
      ],
      "stateMutability": "view",
      "type": "function"
    },
    {
      "inputs": [
        {
          "internalType": "address",
          "name": "user",
          "type": "address"
        },
        {
          "internalType": "uint256",
          "name": "hubId",
          "type": "uint256"
        }
      ],
      "name": "getUserLoanDetails",
      "outputs": [
        {
          "components": [
            {
              "internalType": "uint256",
              "name": "hubId",
              "type": "uint256"
            },
            {
              "internalType": "address",
              "name": "ecosystem",
              "type": "address"
            },
            {
              "internalType": "uint256",
              "name": "coreLoanId",
              "type": "uint256"
            },
            {
              "internalType": "address",
              "name": "collateralToken",
              "type": "address"
            },
            {
              "internalType": "address",
              "name": "token",
              "type": "address"
            },
            {
              "internalType": "uint256",
              "name": "collateralAmount",
              "type": "uint256"
            },
            {
              "internalType": "uint256",
              "name": "liquidatedAmount",
              "type": "uint256"
            },
            {
              "internalType": "uint256",
              "name": "fullAmount",
              "type": "uint256"
            },
            {
              "internalType": "uint256",
              "name": "borrowedAmount",
              "type": "uint256"
            },
            {
              "internalType": "uint256",
              "name": "liquidationTime",
              "type": "uint256"
            },
            {
              "internalType": "uint256",
              "name": "liquidationClaim",
              "type": "uint256"
            },
            {
              "internalType": "bool",
              "name": "isLiquidated",
              "type": "bool"
            },
            {
              "internalType": "bool",
              "name": "active",
              "type": "bool"
            },
            {
              "internalType": "uint256",
              "name": "creationTime",
              "type": "uint256"
            }
          ],
          "internalType": "struct ALOAN_HUB.FullLoanDetails",
          "name": "",
          "type": "tuple"
        }
      ],
      "stateMutability": "view",
      "type": "function"
    },
    {
      "inputs": [
        {
          "internalType": "uint256",
          "name": "hubId",
          "type": "uint256"
        },
        {
          "internalType": "uint256",
          "name": "percentage",
          "type": "uint256"
        },
        {
          "internalType": "bool",
          "name": "isLeverage",
          "type": "bool"
        },
        {
          "internalType": "uint256",
          "name": "minOut",
          "type": "uint256"
        }
      ],
      "name": "hubPartialLoanSell",
      "outputs": [],
      "stateMutability": "nonpayable",
      "type": "function"
    },
    {
      "inputs": [
        {
          "internalType": "uint256",
          "name": "hubId",
          "type": "uint256"
        },
        {
          "internalType": "uint256",
          "name": "amountToAdd",
          "type": "uint256"
        }
      ],
      "name": "increaseLoan",
      "outputs": [],
      "stateMutability": "nonpayable",
      "type": "function"
    },
    {
      "inputs": [
        {
          "internalType": "address",
          "name": "",
          "type": "address"
        }
      ],
      "name": "isEcosystemRegistered",
      "outputs": [
        {
          "internalType": "bool",
          "name": "",
          "type": "bool"
        }
      ],
      "stateMutability": "view",
      "type": "function"
    },
    {
      "inputs": [
        {
          "internalType": "uint256",
          "name": "hubId",
          "type": "uint256"
        }
      ],
      "name": "repayLoan",
      "outputs": [],
      "stateMutability": "nonpayable",
      "type": "function"
    },
    {
      "inputs": [
        {
          "internalType": "contract IERC20",
          "name": "token",
          "type": "address"
        }
      ],
      "name": "rescueToken",
      "outputs": [],
      "stateMutability": "nonpayable",
      "type": "function"
    },
    {
      "inputs": [
        {
          "internalType": "address",
          "name": "wallet",
          "type": "address"
        },
        {
          "internalType": "bool",
          "name": "status",
          "type": "bool"
        }
      ],
      "name": "setExtensionWhitelist",
      "outputs": [],
      "stateMutability": "nonpayable",
      "type": "function"
    },
    {
      "inputs": [
        {
          "internalType": "address",
          "name": "ecosystem",
          "type": "address"
        },
        {
          "internalType": "address",
          "name": "collateral",
          "type": "address"
        },
        {
          "internalType": "uint256",
          "name": "amount",
          "type": "uint256"
        },
        {
          "internalType": "uint256",
          "name": "daysCount",
          "type": "uint256"
        }
      ],
      "name": "takeLoan",
      "outputs": [
        {
          "internalType": "uint256",
          "name": "hubId",
          "type": "uint256"
        }
      ],
      "stateMutability": "nonpayable",
      "type": "function"
    },
    {
      "inputs": [
        {
          "internalType": "address",
          "name": "mainToken",
          "type": "address"
        },
        {
          "internalType": "bool",
          "name": "status",
          "type": "bool"
        }
      ],
      "name": "toggleEcosystemStatus",
      "outputs": [],
      "stateMutability": "nonpayable",
      "type": "function"
    },
    {
      "inputs": [
        {
          "internalType": "address",
          "name": "",
          "type": "address"
        }
      ],
      "name": "userLoanCount",
      "outputs": [
        {
          "internalType": "uint256",
          "name": "",
          "type": "uint256"
        }
      ],
      "stateMutability": "view",
      "type": "function"
    },
    {
      "inputs": [
        {
          "internalType": "address",
          "name": "",
          "type": "address"
        },
        {
          "internalType": "uint256",
          "name": "",
          "type": "uint256"
        }
      ],
      "name": "userLoans",
      "outputs": [
        {
          "internalType": "address",
          "name": "ecosystem",
          "type": "address"
        },
        {
          "internalType": "uint256",
          "name": "coreLoanId",
          "type": "uint256"
        },
        {
          "internalType": "address",
          "name": "collateralToken",
          "type": "address"
        }
      ],
      "stateMutability": "view",
      "type": "function"
    }
  ],
  "bytecode": "0x60a060405234801561001057600080fd5b5060016000553360805260805161279d6100586000396000818161022c015281816103b6015281816104320152818161089e01528181610c3a0152610c9d015261279d6000f3fe608060405234801561001057600080fd5b506004361061010b5760003560e01c8063732c8009116100a2578063ab7b1c8911610071578063ab7b1c8914610266578063af85e1d514610279578063d8bad5bd14610299578063e3a2400214610308578063fe6fa25b1461032b57600080fd5b8063732c8009146101ce5780637a792a29146101e1578063912e6fab146101f4578063a10885711461022757600080fd5b80632a196afb116100de5780632a196afb1461015e5780634460d3cf146101875780634a98a8f81461019a57806365d28c67146101bb57600080fd5b80630c85c56c146101105780630e30c90f14610125578063141a9743146101385780631c97a4d31461014b575b600080fd5b61012361011e3660046122a3565b6103ab565b005b6101236101333660046122a3565b610427565b6101236101463660046122dc565b610500565b61012361015936600461231b565b610893565b61017161016c366004612366565b6109cc565b60405161017e9190612392565b60405180910390f35b610123610195366004612462565b610c2f565b6101ad6101a8366004612486565b610d6d565b60405190815260200161017e565b6101236101c93660046124cc565b611293565b6101ad6101dc366004612516565b61174d565b6101236101ef36600461252f565b61193a565b610217610202366004612462565b60026020526000908152604090205460ff1681565b604051901515815260200161017e565b61024e7f000000000000000000000000000000000000000000000000000000000000000081565b6040516001600160a01b03909116815260200161017e565b610123610274366004612516565b611cfb565b6101ad610287366004612462565b60046020526000908152604090205481565b6102de6102a7366004612366565b60036020908152600092835260408084209091529082529020805460018201546002909201546001600160a01b0391821692911683565b604080516001600160a01b039485168152602081019390935292169181019190915260600161017e565b610217610316366004612462565b60056020526000908152604090205460ff1681565b610376610339366004612462565b60016020819052600091825260409091208054918101546002909101546001600160a01b039283169291821691811690600160a01b900460ff1684565b60405161017e94939291906001600160a01b039485168152928416602084015292166040820152901515606082015260800190565b336001600160a01b037f000000000000000000000000000000000000000000000000000000000000000016146103fc5760405162461bcd60e51b81526004016103f390612551565b60405180910390fd5b6001600160a01b03919091166000908152600560205260409020805460ff1916911515919091179055565b336001600160a01b037f0000000000000000000000000000000000000000000000000000000000000000161461046f5760405162461bcd60e51b81526004016103f390612551565b6001600160a01b03821660009081526002602052604090205460ff166104c85760405162461bcd60e51b815260206004820152600e60248201526d139bdd081c9959da5cdd195c995960921b60448201526064016103f3565b6001600160a01b0390911660009081526001602052604090206002018054911515600160a01b0260ff60a01b19909216919091179055565b610508612227565b336000908152600360209081526040808320878452825291829020825160608101845281546001600160a01b03908116808352600184015494830194909452600290920154909116928101929092526105735760405162461bcd60e51b81526004016103f390612573565b80516001600160a01b0390811660009081526001602081815260409283902083516080810185528154861681529281015485169183019190915260020154928316918101829052600160a01b90920460ff16151560608301526106105760405162461bcd60e51b81526020600482015260156024820152744e6f207377617020666f722065636f73797374656d60581b60448201526064016103f3565b60208101516040516370a0823160e01b81523060048201526000906001600160a01b038316906370a0823190602401602060405180830381865afa15801561065c573d6000803e3d6000fd5b505050506040513d601f19601f820116820180604052508101906106809190612599565b6040848101516020870151915163609791eb60e11b81526004810192909252602482018a90528815156044830152606482018890529192506001600160a01b039091169063c12f23d690608401600060405180830381600087803b1580156106e757600080fd5b505af11580156106fb573d6000803e3d6000fd5b50506040516370a0823160e01b8152306004820152600092508391506001600160a01b038516906370a0823190602401602060405180830381865afa158015610748573d6000803e3d6000fd5b505050506040513d601f19601f8201168201806040525081019061076c9190612599565b61077691906125c8565b9050600081116107c85760405162461bcd60e51b815260206004820152601a60248201527f4e6f20555344432072656365697665642066726f6d207377617000000000000060448201526064016103f3565b60405163a9059cbb60e01b81526001600160a01b0384169063a9059cbb906107f690339085906004016125db565b6020604051808303816000875af1158015610815573d6000803e3d6000fd5b505050506040513d601f19601f8201168201806040525081019061083991906125f4565b50604080518a8152602081018a905290810182905233907f441a474f21ead26cb068758c1471f77f0846968db2a1b2e518b0d49d4b0885cb906060015b60405180910390a2505050505061088d6001600055565b50505050565b336001600160a01b037f000000000000000000000000000000000000000000000000000000000000000016146108db5760405162461bcd60e51b81526004016103f390612551565b604080516080810182526001600160a01b0380861680835285821660208085019182528684168587019081526001606087018181526000868152828552898120985189549089166001600160a01b0319918216178a5595518984018054918a16919097161790955591516002978801805493511515600160a01b026001600160a81b03199094169190971617919091179094559390935291839020805460ff1916909117905590517fe60abb8ef346f6c7819bb4e18baf5f5cae106aeec9fbe08f20535a1d3280547a906109bf9085906001600160a01b0391909116815260200190565b60405180910390a2505050565b610a5d604051806101c001604052806000815260200160006001600160a01b031681526020016000815260200160006001600160a01b0316815260200160006001600160a01b03168152602001600081526020016000815260200160008152602001600081526020016000815260200160008152602001600015158152602001600015158152602001600081525090565b6001600160a01b03808416600090815260036020908152604080832086845282529182902082516060810184528154851680825260018301549382019390935260029091015490931691830191909152610aef5760405162461bcd60e51b8152602060048201526013602482015272131bd85b88191bd95cc81b9bdd08195e1a5cdd606a1b60448201526064016103f3565b6000816000015190506000806000806000806000806000808a6001600160a01b03166398c61c37308e602001516040518363ffffffff1660e01b8152600401610b399291906125db565b61018060405180830381865afa158015610b57573d6000803e3d6000fd5b505050506040513d601f19601f82011682018060405250810190610b7b9190612611565b509a509a509a509a509a509a509a509a509a509a5050604051806101c001604052808f81526020018d600001516001600160a01b031681526020018d6020015181526020018d604001516001600160a01b031681526020018b6001600160a01b031681526020018a815260200189815260200188815260200187815260200186815260200185815260200184151581526020018315158152602001828152509c505050505050505050505050505b92915050565b336001600160a01b037f00000000000000000000000000000000000000000000000000000000000000001614610c775760405162461bcd60e51b81526004016103f390612551565b6040516370a0823160e01b81523060048201526001600160a01b0382169063a9059cbb907f00000000000000000000000000000000000000000000000000000000000000009083906370a0823190602401602060405180830381865afa158015610ce5573d6000803e3d6000fd5b505050506040513d601f19601f82011682018060405250810190610d099190612599565b6040518363ffffffff1660e01b8152600401610d269291906125db565b6020604051808303816000875af1158015610d45573d6000803e3d6000fd5b505050506040513d601f19601f82011682018060405250810190610d6991906125f4565b5050565b6000610d77612227565b6001600160a01b038516600090815260016020526040902060020154600160a01b900460ff16610dde5760405162461bcd60e51b815260206004820152601260248201527145636f73797374656d20696e61637469766560701b60448201526064016103f3565b6001600160a01b03808616600090815260016020819052604091829020015490516323b872dd60e01b8152908216918616906323b872dd90610e28903390309089906004016126c3565b6020604051808303816000875af1158015610e47573d6000803e3d6000fd5b505050506040513d601f19601f82011682018060405250810190610e6b91906125f4565b610eb75760405162461bcd60e51b815260206004820152601a60248201527f436f6c6c61746572616c207472616e73666572206661696c656400000000000060448201526064016103f3565b60405163095ea7b360e01b81526001600160a01b0386169063095ea7b390610ee590899088906004016125db565b6020604051808303816000875af1158015610f04573d6000803e3d6000fd5b505050506040513d601f19601f82011682018060405250810190610f2891906125f4565b610f705760405162461bcd60e51b815260206004820152601960248201527810dbdb1b185d195c985b08185c1c1c9bdd994819985a5b1959603a1b60448201526064016103f3565b6040516370a0823160e01b81523060048201526000906001600160a01b038316906370a0823190602401602060405180830381865afa158015610fb7573d6000803e3d6000fd5b505050506040513d601f19601f82011682018060405250810190610fdb9190612599565b60405162140a2d60ea1b8152600481018790526001600160a01b03888116602483015260448201879052919250600091891690635028b400906064016020604051808303816000875af1158015611036573d6000803e3d6000fd5b505050506040513d601f19601f8201168201806040525081019061105a9190612599565b6040516370a0823160e01b815230600482015290915060009083906001600160a01b038616906370a0823190602401602060405180830381865afa1580156110a6573d6000803e3d6000fd5b505050506040513d601f19601f820116820180604052508101906110ca9190612599565b6110d491906125c8565b90506000811161111b5760405162461bcd60e51b8152602060048201526012602482015271139bc81cdd18589b19481c9958d95a5d995960721b60448201526064016103f3565b60405163a9059cbb60e01b81526001600160a01b0385169063a9059cbb9061114990339085906004016125db565b6020604051808303816000875af1158015611168573d6000803e3d6000fd5b505050506040513d601f19601f8201168201806040525081019061118c91906125f4565b6111a85760405162461bcd60e51b81526004016103f3906126e7565b33600090815260046020526040812080549091906111c590612717565b918290555060408051606080820183526001600160a01b038d8116835260208084018881528e8316858701908152336000818152600385528881208a82528552889020965187549086166001600160a01b0319918216178855925160018801559051600290960180549690941695909116949094179091558351858152908101879052928301859052929750917f1804eb76dc9809be7ef188388aa1aeb765881fd848377be891234e5c584345fe910160405180910390a25050505061128b6001600055565b949350505050565b61129b612227565b3360008181526003602090815260408083208884528252808320815160608101835281546001600160a01b0390811680835260018085015484880152600290940154821683860152808752838652848720909301549686526005909452919093205490939091169060ff16858015611311575080155b1561151b576020840151604051638bce6c0760e01b8152306004820152602481019190915260448101889052600060648201819052871515608483015286151560a4830152906001600160a01b03851690638bce6c079060c401606060405180830381865afa158015611388573d6000803e3d6000fd5b505050506040513d601f19601f820116820180604052508101906113ac9190612730565b506040516323b872dd60e01b81529092506001600160a01b03851691506323b872dd906113e1903390309086906004016126c3565b6020604051808303816000875af1158015611400573d6000803e3d6000fd5b505050506040513d601f19601f8201168201806040525081019061142491906125f4565b6114665760405162461bcd60e51b8152602060048201526013602482015272119959481d1c985b9cd9995c8819985a5b1959606a1b60448201526064016103f3565b845160405163095ea7b360e01b81526001600160a01b0385169163095ea7b391611495919085906004016125db565b6020604051808303816000875af11580156114b4573d6000803e3d6000fd5b505050506040513d601f19601f820116820180604052508101906114d891906125f4565b6115195760405162461bcd60e51b815260206004820152601260248201527111995948185c1c1c9bdd994819985a5b195960721b60448201526064016103f3565b505b6040516370a0823160e01b81523060048201526000906001600160a01b038416906370a0823190602401602060405180830381865afa158015611562573d6000803e3d6000fd5b505050506040513d601f19601f820116820180604052508101906115869190612599565b6020860151604051631ee1b7ff60e21b81526004810191909152602481018a9052600060448201528815156064820152871515608482015283151560a48201529091506001600160a01b03851690637b86dffc9060c401600060405180830381600087803b1580156115f757600080fd5b505af115801561160b573d6000803e3d6000fd5b505050508515611709576040516370a0823160e01b815230600482015260009082906001600160a01b038616906370a0823190602401602060405180830381865afa15801561165e573d6000803e3d6000fd5b505050506040513d601f19601f820116820180604052508101906116829190612599565b61168c91906125c8565b905080156117075760405163a9059cbb60e01b81526001600160a01b0385169063a9059cbb906116c290339085906004016125db565b6020604051808303816000875af11580156116e1573d6000803e3d6000fd5b505050506040513d601f19601f8201168201806040525081019061170591906125f4565b505b505b604080518a8152602081018a90528715159181019190915233907f698401b37a18cd6e8ffb25d76ecf11aac32ebd9e55256678dd4231cf58fa92ca90606001610876565b6000611757612227565b33600090815260036020908152604080832085845290915280822080546001820154925163c693c68560e01b815260048101939093526024830193909352916001600160a01b031690819063c693c685906044016020604051808303816000875af11580156117ca573d6000803e3d6000fd5b505050506040513d601f19601f820116820180604052508101906117ee9190612599565b9250600083116118335760405162461bcd60e51b815260206004820152601060248201526f4e6f7468696e6720746f20636c61696d60801b60448201526064016103f3565b600282015460405163a9059cbb60e01b81526001600160a01b039091169063a9059cbb9061186790339087906004016125db565b6020604051808303816000875af1158015611886573d6000803e3d6000fd5b505050506040513d601f19601f820116820180604052508101906118aa91906125f4565b6118ee5760405162461bcd60e51b815260206004820152601560248201527410db185a5b481d1c985b9cd9995c8819985a5b1959605a1b60448201526064016103f3565b604080518581526020810185905233917f3ae2e14d962074d11965530e4b096bbf19288ec1ab07f7bdff47c68ddf2f3d24910160405180910390a250506119356001600055565b919050565b611942612227565b336000908152600360209081526040808320858452825291829020825160608101845281546001600160a01b03908116808352600184015494830194909452600290920154909116928101929092526119ad5760405162461bcd60e51b81526004016103f390612573565b80516001600160a01b0380821660009081526001602081905260409182902001548185015191516323b872dd60e01b81529083169291909116906323b872dd906119ff903390309089906004016126c3565b6020604051808303816000875af1158015611a1e573d6000803e3d6000fd5b505050506040513d601f19601f82011682018060405250810190611a4291906125f4565b611a8e5760405162461bcd60e51b815260206004820152601a60248201527f436f6c6c61746572616c207472616e73666572206661696c656400000000000060448201526064016103f3565b82604001516001600160a01b031663095ea7b383866040518363ffffffff1660e01b8152600401611ac09291906125db565b6020604051808303816000875af1158015611adf573d6000803e3d6000fd5b505050506040513d601f19601f82011682018060405250810190611b0391906125f4565b611b4b5760405162461bcd60e51b815260206004820152601960248201527810dbdb1b185d195c985b08185c1c1c9bdd994819985a5b1959603a1b60448201526064016103f3565b602083015160405163694f883960e01b81526000916001600160a01b0385169163694f883991611b88918990600401918252602082015260400190565b6020604051808303816000875af1158015611ba7573d6000803e3d6000fd5b505050506040513d601f19601f82011682018060405250810190611bcb9190612599565b905060008111611c1d5760405162461bcd60e51b815260206004820152601a60248201527f4e6f20626f72726f7765642066756e647320726563656976656400000000000060448201526064016103f3565b60405163a9059cbb60e01b81526001600160a01b0383169063a9059cbb90611c4b90339085906004016125db565b6020604051808303816000875af1158015611c6a573d6000803e3d6000fd5b505050506040513d601f19601f82011682018060405250810190611c8e91906125f4565b611caa5760405162461bcd60e51b81526004016103f3906126e7565b604080518781526020810187905290810182905233907f207439e0262002ab8e2987637de4a69ff1834eb1516a7133168e5c64e6c8bab69060600160405180910390a250505050610d696001600055565b611d03612227565b336000908152600360209081526040808320848452909152902080546001600160a01b0316611d445760405162461bcd60e51b81526004016103f390612573565b80546001600160a01b0390811660008181526001602081905260408083208201549186015490516398c61c3760e01b8152939491909116928291829186916398c61c3791611d969130916004016125db565b61018060405180830381865afa158015611db4573d6000803e3d6000fd5b505050506040513d601f19601f82011682018060405250810190611dd89190612611565b50509950505050509550509450505080611e295760405162461bcd60e51b8152602060048201526012602482015271436f7265206c6f616e20696e61637469766560701b60448201526064016103f3565b6040516323b872dd60e01b81526001600160a01b038516906323b872dd90611e59903390309087906004016126c3565b6020604051808303816000875af1158015611e78573d6000803e3d6000fd5b505050506040513d601f19601f82011682018060405250810190611e9c91906125f4565b611eb85760405162461bcd60e51b81526004016103f3906126e7565b855460405163095ea7b360e01b81526001600160a01b038681169263095ea7b392611eeb929091169086906004016125db565b6020604051808303816000875af1158015611f0a573d6000803e3d6000fd5b505050506040513d601f19601f82011682018060405250810190611f2e91906125f4565b611f725760405162461bcd60e51b815260206004820152601560248201527414dd18589b1948185c1c1c9bdd994819985a5b1959605a1b60448201526064016103f3565b60028601546040516370a0823160e01b81523060048201526000916001600160a01b0316906370a0823190602401602060405180830381865afa158015611fbd573d6000803e3d6000fd5b505050506040513d601f19601f82011682018060405250810190611fe19190612599565b6001880154604051634c2254d160e01b81526004810191909152600060248201529091506001600160a01b03871690634c2254d190604401600060405180830381600087803b15801561203357600080fd5b505af1158015612047573d6000803e3d6000fd5b5050505060028701546040516370a0823160e01b815230600482015260009183916001600160a01b03909116906370a0823190602401602060405180830381865afa15801561209a573d6000803e3d6000fd5b505050506040513d601f19601f820116820180604052508101906120be9190612599565b6120c891906125c8565b90508481101561211a5760405162461bcd60e51b815260206004820152601b60248201527f4e6f7420616c6c20636f6c6c61746572616c2072657475726e6564000000000060448201526064016103f3565b600288015460405163a9059cbb60e01b81526001600160a01b039091169063a9059cbb9061214e90339085906004016125db565b6020604051808303816000875af115801561216d573d6000803e3d6000fd5b505050506040513d601f19601f8201168201806040525081019061219191906125f4565b6121dd5760405162461bcd60e51b815260206004820152601860248201527f436f6c6c61746572616c2072657475726e206661696c6564000000000000000060448201526064016103f3565b60405189815233907fc200a1f31dd659e356e0f112c82558e25f49f7b0f84438691cd96f5cb35588239060200160405180910390a250505050505050506122246001600055565b50565b6002600054036122795760405162461bcd60e51b815260206004820152601f60248201527f5265656e7472616e637947756172643a207265656e7472616e742063616c6c0060448201526064016103f3565b6002600055565b6001600160a01b038116811461222457600080fd5b801515811461222457600080fd5b600080604083850312156122b657600080fd5b82356122c181612280565b915060208301356122d181612295565b809150509250929050565b600080600080608085870312156122f257600080fd5b8435935060208501359250604085013561230b81612295565b9396929550929360600135925050565b60008060006060848603121561233057600080fd5b833561233b81612280565b9250602084013561234b81612280565b9150604084013561235b81612280565b809150509250925092565b6000806040838503121561237957600080fd5b823561238481612280565b946020939093013593505050565b815181526020808301516101c08301916123b6908401826001600160a01b03169052565b506040830151604083015260608301516123db60608401826001600160a01b03169052565b5060808301516123f660808401826001600160a01b03169052565b5060a0838101519083015260c0808401519083015260e0808401519083015261010080840151908301526101208084015190830152610140808401519083015261016080840151151590830152610180808401511515908301526101a092830151929091019190915290565b60006020828403121561247457600080fd5b813561247f81612280565b9392505050565b6000806000806080858703121561249c57600080fd5b84356124a781612280565b935060208501356124b781612280565b93969395505050506040820135916060013590565b600080600080608085870312156124e257600080fd5b843593506020850135925060408501356124fb81612295565b9150606085013561250b81612295565b939692955090935050565b60006020828403121561252857600080fd5b5035919050565b6000806040838503121561254257600080fd5b50508035926020909101359150565b6020808252600890820152674f6e6c792043454f60c01b604082015260600190565b6020808252600c908201526b24b73b30b634b2103637b0b760a11b604082015260600190565b6000602082840312156125ab57600080fd5b5051919050565b634e487b7160e01b600052601160045260246000fd5b81810381811115610c2957610c296125b2565b6001600160a01b03929092168252602082015260400190565b60006020828403121561260657600080fd5b815161247f81612295565b6000806000806000806000806000806000806101808d8f03121561263457600080fd5b8c5161263f81612280565b60208e0151909c5061265081612280565b809b505060408d0151995060608d0151985060808d0151975060a08d0151965060c08d0151955060e08d015194506101008d015161268d81612295565b6101208e015190945061269f81612295565b809350506101408d015191506101608d015190509295989b509295989b509295989b565b6001600160a01b039384168152919092166020820152604081019190915260600190565b60208082526016908201527514dd18589b19481d1c985b9cd9995c8819985a5b195960521b604082015260600190565b600060018201612729576127296125b2565b5060010190565b60008060006060848603121561274557600080fd5b835161275081612295565b60208501516040909501519096949550939250505056fea2646970667358221220b6b67a327a3e6e8664b20ef9707c9cd1246afee55eb3aaf79c78f3ed83daec2364736f6c63430008180033",
  "linkReferences": {},
  "deployedLinkReferences": {}
}