{
  "_format": "hh-sol-artifact-1",
  "contractName": "AMarketReader",
  "sourceName": "contracts/MarketReader.sol",
  "abi": [
    {
      "inputs": [
        {
          "internalType": "address",
          "name": "routerAddress",
          "type": "address"
        },
        {
          "internalType": "address",
          "name": "marketToken",
          "type": "address"
        },
        {
          "internalType": "uint8",
          "name": "outcomeId",
          "type": "uint8"
        },
        {
          "internalType": "uint256",
          "name": "usdcAmount",
          "type": "uint256"
        },
        {
          "internalType": "uint256[]",
          "name": "orderIds",
          "type": "uint256[]"
        },
        {
          "internalType": "address",
          "name": "user",
          "type": "address"
        }
      ],
      "name": "estimateSharesOut",
      "outputs": [
        {
          "internalType": "uint256",
          "name": "",
          "type": "uint256"
        }
      ],
      "stateMutability": "view",
      "type": "function"
    },
    {
      "inputs": [
        {
          "internalType": "address",
          "name": "routerAddress",
          "type": "address"
        },
        {
          "internalType": "address",
          "name": "marketToken",
          "type": "address"
        }
      ],
      "name": "getAllOutcomes",
      "outputs": [
        {
          "components": [
            {
              "internalType": "uint8",
              "name": "outcomeId",
              "type": "uint8"
            },
            {
              "internalType": "string",
              "name": "name",
              "type": "string"
            },
            {
              "internalType": "uint256",
              "name": "virtualReserve",
              "type": "uint256"
            },
            {
              "internalType": "uint256",
              "name": "totalCost",
              "type": "uint256"
            },
            {
              "internalType": "uint256",
              "name": "circulatingShares",
              "type": "uint256"
            },
            {
              "internalType": "uint256",
              "name": "pricePerShare",
              "type": "uint256"
            },
            {
              "internalType": "uint256",
              "name": "probability",
              "type": "uint256"
            },
            {
              "internalType": "bool",
              "name": "hasWon",
              "type": "bool"
            }
          ],
          "internalType": "struct AMarketReader.OutcomeInfo[]",
          "name": "infos",
          "type": "tuple[]"
        }
      ],
      "stateMutability": "view",
      "type": "function"
    },
    {
      "inputs": [
        {
          "internalType": "address",
          "name": "routerAddress",
          "type": "address"
        },
        {
          "internalType": "address",
          "name": "marketToken",
          "type": "address"
        },
        {
          "internalType": "uint8",
          "name": "outcomeId",
          "type": "uint8"
        },
        {
          "internalType": "uint256",
          "name": "sharesAmount",
          "type": "uint256"
        },
        {
          "internalType": "uint256",
          "name": "estimatedUsdcToPool",
          "type": "uint256"
        }
      ],
      "name": "getPotentialPayout",
      "outputs": [
        {
          "internalType": "uint256",
          "name": "holdPayout",
          "type": "uint256"
        },
        {
          "internalType": "uint256",
          "name": "simulatedAmmPayout",
          "type": "uint256"
        }
      ],
      "stateMutability": "view",
      "type": "function"
    }
  ],
  "bytecode": "0x608060405234801561001057600080fd5b506112ed806100206000396000f3fe608060405234801561001057600080fd5b50600436106100415760003560e01c80630913db1f14610046578063696ec4721461006f578063b38b56be14610090575b600080fd5b610059610054366004610c92565b6100b8565b6040516100669190610cef565b60405180910390f35b61008261007d366004610dd5565b610451565b604051908152602001610066565b6100a361009e366004610e9d565b610626565b60408051928352602083019190915201610066565b60405163371a40e160e21b81526001600160a01b03828116600483015260609184916000919083169063dc69038490602401602060405180830381865afa158015610107573d6000803e3d6000fd5b505050506040513d601f19601f8201168201806040525081019061012b9190610ef8565b90508067ffffffffffffffff81111561014657610146610f11565b6040519080825280602002602001820160405280156101c457816020015b6101b1604051806101000160405280600060ff1681526020016060815260200160008152602001600081526020016000815260200160008152602001600081526020016000151581525090565b8152602001906001900390816101645790505b5060405163a30c302d60e01b81526001600160a01b03868116600483015291945060009184169063a30c302d90602401600060405180830381865afa158015610211573d6000803e3d6000fd5b505050506040513d6000823e601f3d908101601f191682016040526102399190810190610fff565b905060005b828160ff16101561044657604051634d07d3b760e11b81526001600160a01b03878116600483015260ff831660248301526000918291829190881690639a0fa76e90604401606060405180830381865afa1580156102a0573d6000803e3d6000fd5b505050506040513d601f19601f820116820180604052508101906102c49190611118565b604051633c4dfaa360e01b81526001600160a01b038d8116600483015260ff891660248301529396509194509250600091891690633c4dfaa390604401600060405180830381865afa15801561031e573d6000803e3d6000fd5b505050506040513d6000823e601f3d908101601f191682016040526103469190810190611146565b90506000808761014001511161035d57600061037f565b610140870151610375670de0b6b3a764000087611199565b61037f91906111b0565b9050600080886101400151116103965760006103b2565b6101408801516103a887612710611199565b6103b291906111b0565b90506040518061010001604052808860ff168152602001848152602001878152602001868152602001858152602001838152602001828152602001896101000151801561040857508860ff168a60e0015160ff16145b15158152508b8860ff1681518110610422576104226111d2565b6020026020010181905250505050505050808061043e906111e8565b91505061023e565b505050505b92915050565b6040805160e0810182526000606082018190526080820181905260a0820181905260c082018190526001600160a01b038a8116808452908a1660208085019190915260ff8a16848601528451634d9ae63360e01b8152945192949192634d9ae6339260048082019392918290030181865afa1580156104d4573d6000803e3d6000fd5b505050506040513d601f19601f820116820180604052508101906104f89190611207565b604051631685774f60e01b81526001600160a01b038a8116600483015285811660248301529190911690631685774f90604401602060405180830381865afa158015610548573d6000803e3d6000fd5b505050506040513d601f19601f8201168201806040525081019061056c9190610ef8565b606082015260a08101869052805160405163a30c302d60e01b81526001600160a01b038a81166004830152600092169063a30c302d90602401600060405180830381865afa1580156105c2573d6000803e3d6000fd5b505050506040513d6000823e601f3d908101601f191682016040526105ea9190810190610fff565b61014081015160808401529050610602828787610840565b60a0820151156106155761061582610ade565b5060c0015198975050505050505050565b60405163371a40e160e21b81526001600160a01b03858116600483015260009182918891839183169063dc69038490602401602060405180830381865afa158015610675573d6000803e3d6000fd5b505050506040513d601f19601f820116820180604052508101906106999190610ef8565b60405163a30c302d60e01b81526001600160a01b038a8116600483015291925060009184169063a30c302d90602401600060405180830381865afa1580156106e5573d6000803e3d6000fd5b505050506040513d6000823e601f3d908101601f1916820160405261070d9190810190610fff565b6101208101519091506000805b848160ff1610156107d657604051634d07d3b760e11b81526001600160a01b038d8116600483015260ff831660248301526000918291891690639a0fa76e90604401606060405180830381865afa158015610779573d6000803e3d6000fd5b505050506040513d601f19601f8201168201806040525081019061079d9190611118565b925092505081856107ae919061122b565b94508c60ff168360ff16036107c1578093505b505080806107ce906111e8565b91505061071a565b5080156107f557806107e8838b611199565b6107f291906111b0565b96505b60006108018a8361122b565b9050600061080f8a8561122b565b9050811561082f5781610822828d611199565b61082c91906111b0565b97505b505050505050509550959350505050565b8060005b81811015610ad75760a085015115610ad75760008060008088600001516001600160a01b0316630524d57d8a602001518a8a89818110610886576108866111d2565b6040516001600160e01b031960e087901b1681526001600160a01b039094166004850152602002919091013560248301525060440160c060405180830381865afa1580156108d8573d6000803e3d6000fd5b505050506040513d601f19601f820116820180604052508101906108fc919061123e565b9550955050945094505080801561091c5750886040015160ff168460ff16145b15610ac7578160008190036109e557895160208b01516040808d01519051634d07d3b760e11b81526000936001600160a01b031692639a0fa76e9261097a926004016001600160a01b0392909216825260ff16602082015260400190565b606060405180830381865afa158015610997573d6000803e3d6000fd5b505050506040513d601f19601f820116820180604052508101906109bb9190611118565b505060808c01519091506109d7670de0b6b3a764000083611199565b6109e191906111b0565b9150505b60008a606001516127106109f9919061122b565b610a039083611199565b670de0b6b3a76400008c60a00151610a1b9190611199565b610a2790612710611199565b610a3191906111b0565b905084811115610a3e5750835b8015610ac4576000670de0b6b3a7640000610a598484611199565b610a6391906111b0565b905060006127108d6060015183610a7a9190611199565b610a8491906111b0565b90506000610a92828461122b565b9050838e60c001818151610aa6919061122b565b90525060a08e018051829190610abd9083906112a4565b9052505050505b50505b5050600190920191506108449050565b5050505050565b600061271082606001518360a00151610af79190611199565b610b0191906111b0565b8260a00151610b1091906112a4565b825160208401516040808601519051634d07d3b760e11b81526001600160a01b03928316600482015260ff9091166024820152929350600092911690639a0fa76e90604401606060405180830381865afa158015610b72573d6000803e3d6000fd5b505050506040513d601f19601f82011682018060405250810190610b969190611118565b5050905060008282610ba8919061122b565b838560800151610bb8919061122b565b610bc29085611199565b610bcc91906111b0565b90506000610bda848461122b565b90506000848660800151610bee919061122b565b9050600081610bff84612710611199565b610c0991906111b0565b905061251c811115610c4c576000610c23826127106112a4565b90506203d09081610c348188611199565b610c3e9190611199565b610c4891906111b0565b9450505b838760c001818151610c5e919061122b565b90525050505050505050565b6001600160a01b0381168114610c7f57600080fd5b50565b8035610c8d81610c6a565b919050565b60008060408385031215610ca557600080fd5b8235610cb081610c6a565b91506020830135610cc081610c6a565b809150509250929050565b60005b83811015610ce6578181015183820152602001610cce565b50506000910152565b600060208083018184528085518083526040925060408601915060408160051b87010184880160005b83811015610db857603f19898403018552815161010060ff825116855288820151818a870152805180838801526101209250610d59818489018d8501610ccb565b89840151878b0152606080850151908801526080808501519088015260a0808501519088015260c0808501519088015260e09384015180151585890152939150978a0197601f01601f1916959095010193505090860190600101610d18565b509098975050505050505050565b60ff81168114610c7f57600080fd5b600080600080600080600060c0888a031215610df057600080fd5b8735610dfb81610c6a565b96506020880135610e0b81610c6a565b95506040880135610e1b81610dc6565b945060608801359350608088013567ffffffffffffffff80821115610e3f57600080fd5b818a0191508a601f830112610e5357600080fd5b813581811115610e6257600080fd5b8b60208260051b8501011115610e7757600080fd5b602083019550809450505050610e8f60a08901610c82565b905092959891949750929550565b600080600080600060a08688031215610eb557600080fd5b8535610ec081610c6a565b94506020860135610ed081610c6a565b93506040860135610ee081610dc6565b94979396509394606081013594506080013592915050565b600060208284031215610f0a57600080fd5b5051919050565b634e487b7160e01b600052604160045260246000fd5b604051610180810167ffffffffffffffff81118282101715610f4b57610f4b610f11565b60405290565b8051610c8d81610c6a565b600082601f830112610f6d57600080fd5b815167ffffffffffffffff80821115610f8857610f88610f11565b604051601f8301601f19908116603f01168101908282118183101715610fb057610fb0610f11565b81604052838152866020858801011115610fc957600080fd5b610fda846020830160208901610ccb565b9695505050505050565b8051610c8d81610dc6565b80518015158114610c8d57600080fd5b60006020828403121561101157600080fd5b815167ffffffffffffffff8082111561102957600080fd5b90830190610180828603121561103e57600080fd5b611046610f27565b61104f83610f51565b815261105d60208401610f51565b602082015261106e60408401610f51565b604082015261107f60608401610f51565b606082015260808301518281111561109657600080fd5b6110a287828601610f5c565b60808301525060a083015160a082015260c083015160c08201526110c860e08401610fe4565b60e082015261010091506110dd828401610fef565b918101919091526101208281015190820152610140808301519082015261016090611109828401610fef565b91810191909152949350505050565b60008060006060848603121561112d57600080fd5b8351925060208401519150604084015190509250925092565b60006020828403121561115857600080fd5b815167ffffffffffffffff81111561116f57600080fd5b61117b84828501610f5c565b949350505050565b634e487b7160e01b600052601160045260246000fd5b808202811582820484141761044b5761044b611183565b6000826111cd57634e487b7160e01b600052601260045260246000fd5b500490565b634e487b7160e01b600052603260045260246000fd5b600060ff821660ff81036111fe576111fe611183565b60010192915050565b60006020828403121561121957600080fd5b815161122481610c6a565b9392505050565b8082018082111561044b5761044b611183565b60008060008060008060c0878903121561125757600080fd5b865161126281610c6a565b602088015190965061127381610dc6565b8095505060408701519350606087015192506080870151915061129860a08801610fef565b90509295509295509295565b8181038181111561044b5761044b61118356fea2646970667358221220f8df6363bfa6ca51539a5b0dfe916a6e775b97904a88493ee6fa6f99ba569a8064736f6c63430008180033",
  "linkReferences": {},
  "deployedLinkReferences": {}
}