{
  "_format": "hh-sol-artifact-1",
  "contractName": "AMarketTrading",
  "sourceName": "contracts/MarketTrading.sol",
  "abi": [
    {
      "inputs": [
        {
          "internalType": "address",
          "name": "_taxes",
          "type": "address"
        },
        {
          "internalType": "address",
          "name": "_insuranceWallet",
          "type": "address"
        }
      ],
      "stateMutability": "nonpayable",
      "type": "constructor"
    },
    {
      "anonymous": false,
      "inputs": [
        {
          "indexed": true,
          "internalType": "address",
          "name": "marketToken",
          "type": "address"
        },
        {
          "indexed": false,
          "internalType": "address",
          "name": "donor",
          "type": "address"
        },
        {
          "indexed": false,
          "internalType": "uint256",
          "name": "usdcAmount",
          "type": "uint256"
        }
      ],
      "name": "BountyDonated",
      "type": "event"
    },
    {
      "anonymous": false,
      "inputs": [
        {
          "indexed": true,
          "internalType": "address",
          "name": "maintoken",
          "type": "address"
        },
        {
          "indexed": false,
          "internalType": "address",
          "name": "factory",
          "type": "address"
        },
        {
          "indexed": false,
          "internalType": "address",
          "name": "swap",
          "type": "address"
        },
        {
          "indexed": false,
          "internalType": "address",
          "name": "usdc",
          "type": "address"
        }
      ],
      "name": "EcosystemAdded",
      "type": "event"
    },
    {
      "anonymous": false,
      "inputs": [
        {
          "indexed": true,
          "internalType": "address",
          "name": "marketToken",
          "type": "address"
        },
        {
          "indexed": false,
          "internalType": "address",
          "name": "creator",
          "type": "address"
        },
        {
          "indexed": false,
          "internalType": "address",
          "name": "ecosystem",
          "type": "address"
        }
      ],
      "name": "MarketCreated",
      "type": "event"
    },
    {
      "anonymous": false,
      "inputs": [
        {
          "indexed": true,
          "internalType": "address",
          "name": "marketToken",
          "type": "address"
        },
        {
          "indexed": false,
          "internalType": "uint256",
          "name": "generalPotSentToInsurance",
          "type": "uint256"
        }
      ],
      "name": "MarketInvalidated",
      "type": "event"
    },
    {
      "anonymous": false,
      "inputs": [
        {
          "indexed": true,
          "internalType": "address",
          "name": "marketToken",
          "type": "address"
        },
        {
          "indexed": true,
          "internalType": "uint256",
          "name": "orderId",
          "type": "uint256"
        }
      ],
      "name": "OrderCancelled",
      "type": "event"
    },
    {
      "anonymous": false,
      "inputs": [
        {
          "indexed": true,
          "internalType": "address",
          "name": "marketToken",
          "type": "address"
        },
        {
          "indexed": true,
          "internalType": "uint256",
          "name": "orderId",
          "type": "uint256"
        },
        {
          "indexed": true,
          "internalType": "address",
          "name": "seller",
          "type": "address"
        },
        {
          "indexed": false,
          "internalType": "uint8",
          "name": "outcomeId",
          "type": "uint8"
        },
        {
          "indexed": false,
          "internalType": "uint256",
          "name": "amount",
          "type": "uint256"
        },
        {
          "indexed": false,
          "internalType": "uint256",
          "name": "pricePerShare",
          "type": "uint256"
        }
      ],
      "name": "OrderCreated",
      "type": "event"
    },
    {
      "anonymous": false,
      "inputs": [
        {
          "indexed": true,
          "internalType": "address",
          "name": "marketToken",
          "type": "address"
        },
        {
          "indexed": true,
          "internalType": "uint256",
          "name": "orderId",
          "type": "uint256"
        },
        {
          "indexed": true,
          "internalType": "address",
          "name": "buyer",
          "type": "address"
        },
        {
          "indexed": false,
          "internalType": "uint256",
          "name": "amount",
          "type": "uint256"
        },
        {
          "indexed": false,
          "internalType": "uint256",
          "name": "usdcSpent",
          "type": "uint256"
        }
      ],
      "name": "OrderFilled",
      "type": "event"
    },
    {
      "anonymous": false,
      "inputs": [
        {
          "indexed": true,
          "internalType": "address",
          "name": "marketToken",
          "type": "address"
        },
        {
          "indexed": false,
          "internalType": "address",
          "name": "donor",
          "type": "address"
        },
        {
          "indexed": false,
          "internalType": "uint256",
          "name": "usdcAmount",
          "type": "uint256"
        }
      ],
      "name": "PotDonated",
      "type": "event"
    },
    {
      "anonymous": false,
      "inputs": [
        {
          "indexed": true,
          "internalType": "address",
          "name": "marketToken",
          "type": "address"
        },
        {
          "indexed": true,
          "internalType": "address",
          "name": "user",
          "type": "address"
        },
        {
          "indexed": false,
          "internalType": "uint256",
          "name": "payout",
          "type": "uint256"
        }
      ],
      "name": "SharesRedeemed",
      "type": "event"
    },
    {
      "anonymous": false,
      "inputs": [
        {
          "indexed": true,
          "internalType": "address",
          "name": "marketToken",
          "type": "address"
        },
        {
          "indexed": true,
          "internalType": "address",
          "name": "buyer",
          "type": "address"
        },
        {
          "indexed": true,
          "internalType": "uint8",
          "name": "outcomeId",
          "type": "uint8"
        },
        {
          "indexed": false,
          "internalType": "uint256",
          "name": "shares",
          "type": "uint256"
        },
        {
          "indexed": false,
          "internalType": "uint256",
          "name": "usdcSpent",
          "type": "uint256"
        },
        {
          "indexed": false,
          "internalType": "enum AMarketTrading.TradeType",
          "name": "tradeType",
          "type": "uint8"
        },
        {
          "indexed": false,
          "internalType": "uint256",
          "name": "newReserve",
          "type": "uint256"
        },
        {
          "indexed": false,
          "internalType": "uint256",
          "name": "newTotalReserve",
          "type": "uint256"
        }
      ],
      "name": "SharesTraded",
      "type": "event"
    },
    {
      "inputs": [],
      "name": "CEO",
      "outputs": [
        {
          "internalType": "address",
          "name": "",
          "type": "address"
        }
      ],
      "stateMutability": "view",
      "type": "function"
    },
    {
      "inputs": [
        {
          "internalType": "address",
          "name": "marketToken",
          "type": "address"
        }
      ],
      "name": "DisableFreeze",
      "outputs": [],
      "stateMutability": "nonpayable",
      "type": "function"
    },
    {
      "inputs": [],
      "name": "FLOOR_PER_OUTCOME",
      "outputs": [
        {
          "internalType": "uint256",
          "name": "",
          "type": "uint256"
        }
      ],
      "stateMutability": "view",
      "type": "function"
    },
    {
      "inputs": [],
      "name": "MAX_OUTCOMES",
      "outputs": [
        {
          "internalType": "uint256",
          "name": "",
          "type": "uint256"
        }
      ],
      "stateMutability": "view",
      "type": "function"
    },
    {
      "inputs": [],
      "name": "MAX_TOTAL_POOL",
      "outputs": [
        {
          "internalType": "uint256",
          "name": "",
          "type": "uint256"
        }
      ],
      "stateMutability": "view",
      "type": "function"
    },
    {
      "inputs": [],
      "name": "MIN_TOTAL_POOL",
      "outputs": [
        {
          "internalType": "uint256",
          "name": "",
          "type": "uint256"
        }
      ],
      "stateMutability": "view",
      "type": "function"
    },
    {
      "inputs": [],
      "name": "ONE_USD",
      "outputs": [
        {
          "internalType": "uint256",
          "name": "",
          "type": "uint256"
        }
      ],
      "stateMutability": "view",
      "type": "function"
    },
    {
      "inputs": [],
      "name": "OUTCOME_EARLY",
      "outputs": [
        {
          "internalType": "uint8",
          "name": "",
          "type": "uint8"
        }
      ],
      "stateMutability": "view",
      "type": "function"
    },
    {
      "inputs": [],
      "name": "OUTCOME_INVALID",
      "outputs": [
        {
          "internalType": "uint8",
          "name": "",
          "type": "uint8"
        }
      ],
      "stateMutability": "view",
      "type": "function"
    },
    {
      "inputs": [],
      "name": "OUTCOME_UNRESOLVED",
      "outputs": [
        {
          "internalType": "uint8",
          "name": "",
          "type": "uint8"
        }
      ],
      "stateMutability": "view",
      "type": "function"
    },
    {
      "inputs": [
        {
          "internalType": "address",
          "name": "wallet",
          "type": "address"
        },
        {
          "internalType": "address",
          "name": "marketToken",
          "type": "address"
        }
      ],
      "name": "RemoveWhitelist",
      "outputs": [],
      "stateMutability": "nonpayable",
      "type": "function"
    },
    {
      "inputs": [
        {
          "internalType": "address[]",
          "name": "wallets",
          "type": "address[]"
        },
        {
          "internalType": "uint256",
          "name": "amount",
          "type": "uint256"
        },
        {
          "internalType": "string",
          "name": "tag",
          "type": "string"
        },
        {
          "internalType": "address",
          "name": "marketToken",
          "type": "address"
        }
      ],
      "name": "SetWhitelistedWallet",
      "outputs": [],
      "stateMutability": "nonpayable",
      "type": "function"
    },
    {
      "inputs": [],
      "name": "TAXES",
      "outputs": [
        {
          "internalType": "contract IATaxes",
          "name": "",
          "type": "address"
        }
      ],
      "stateMutability": "view",
      "type": "function"
    },
    {
      "inputs": [
        {
          "internalType": "address",
          "name": "maintoken",
          "type": "address"
        },
        {
          "internalType": "address",
          "name": "factory",
          "type": "address"
        },
        {
          "internalType": "address",
          "name": "swap",
          "type": "address"
        },
        {
          "internalType": "address",
          "name": "usdc",
          "type": "address"
        }
      ],
      "name": "addEcosystem",
      "outputs": [],
      "stateMutability": "nonpayable",
      "type": "function"
    },
    {
      "inputs": [
        {
          "internalType": "address",
          "name": "",
          "type": "address"
        }
      ],
      "name": "bountyPool",
      "outputs": [
        {
          "internalType": "uint256",
          "name": "",
          "type": "uint256"
        }
      ],
      "stateMutability": "view",
      "type": "function"
    },
    {
      "inputs": [
        {
          "internalType": "address",
          "name": "marketToken",
          "type": "address"
        },
        {
          "internalType": "uint8",
          "name": "outcomeId",
          "type": "uint8"
        },
        {
          "internalType": "address",
          "name": "inputToken",
          "type": "address"
        },
        {
          "internalType": "uint256",
          "name": "inputAmount",
          "type": "uint256"
        },
        {
          "internalType": "uint256",
          "name": "minUsdc",
          "type": "uint256"
        },
        {
          "internalType": "uint256",
          "name": "minShares",
          "type": "uint256"
        }
      ],
      "name": "buy",
      "outputs": [],
      "stateMutability": "nonpayable",
      "type": "function"
    },
    {
      "inputs": [
        {
          "internalType": "address",
          "name": "marketToken",
          "type": "address"
        },
        {
          "internalType": "uint256[]",
          "name": "orderIds",
          "type": "uint256[]"
        },
        {
          "internalType": "uint256",
          "name": "usdcAmount",
          "type": "uint256"
        }
      ],
      "name": "buyMultipleOrders",
      "outputs": [
        {
          "internalType": "uint256",
          "name": "remainingUsdc",
          "type": "uint256"
        }
      ],
      "stateMutability": "nonpayable",
      "type": "function"
    },
    {
      "inputs": [
        {
          "internalType": "address",
          "name": "marketToken",
          "type": "address"
        },
        {
          "internalType": "uint256",
          "name": "orderId",
          "type": "uint256"
        },
        {
          "internalType": "uint256",
          "name": "fill",
          "type": "uint256"
        }
      ],
      "name": "buyOrder",
      "outputs": [],
      "stateMutability": "nonpayable",
      "type": "function"
    },
    {
      "inputs": [
        {
          "internalType": "address",
          "name": "marketToken",
          "type": "address"
        },
        {
          "internalType": "uint8",
          "name": "outcomeId",
          "type": "uint8"
        },
        {
          "internalType": "uint256[]",
          "name": "orderIds",
          "type": "uint256[]"
        },
        {
          "internalType": "address",
          "name": "inputToken",
          "type": "address"
        },
        {
          "internalType": "uint256",
          "name": "totalInput",
          "type": "uint256"
        },
        {
          "internalType": "uint256",
          "name": "minShares",
          "type": "uint256"
        }
      ],
      "name": "buyOrdersAndContract",
      "outputs": [],
      "stateMutability": "nonpayable",
      "type": "function"
    },
    {
      "inputs": [
        {
          "internalType": "address",
          "name": "marketToken",
          "type": "address"
        },
        {
          "internalType": "uint256",
          "name": "orderId",
          "type": "uint256"
        }
      ],
      "name": "cancelOrder",
      "outputs": [],
      "stateMutability": "nonpayable",
      "type": "function"
    },
    {
      "inputs": [
        {
          "internalType": "string",
          "name": "marketName",
          "type": "string"
        },
        {
          "internalType": "string",
          "name": "symbol",
          "type": "string"
        },
        {
          "internalType": "uint256",
          "name": "endTime",
          "type": "uint256"
        },
        {
          "internalType": "string[]",
          "name": "_optionNames",
          "type": "string[]"
        },
        {
          "internalType": "address",
          "name": "maintoken",
          "type": "address"
        },
        {
          "internalType": "bool",
          "name": "frozen",
          "type": "bool"
        },
        {
          "internalType": "uint256",
          "name": "bonding",
          "type": "uint256"
        },
        {
          "internalType": "uint256",
          "name": "seedAmount",
          "type": "uint256"
        }
      ],
      "name": "createMarket",
      "outputs": [
        {
          "internalType": "address",
          "name": "marketToken",
          "type": "address"
        }
      ],
      "stateMutability": "payable",
      "type": "function"
    },
    {
      "inputs": [
        {
          "internalType": "address",
          "name": "marketToken",
          "type": "address"
        },
        {
          "internalType": "uint256",
          "name": "amount",
          "type": "uint256"
        },
        {
          "internalType": "bool",
          "name": "isBounty",
          "type": "bool"
        }
      ],
      "name": "donate",
      "outputs": [],
      "stateMutability": "nonpayable",
      "type": "function"
    },
    {
      "inputs": [
        {
          "internalType": "address",
          "name": "marketToken",
          "type": "address"
        }
      ],
      "name": "drainBountyPool",
      "outputs": [
        {
          "internalType": "uint256",
          "name": "",
          "type": "uint256"
        }
      ],
      "stateMutability": "nonpayable",
      "type": "function"
    },
    {
      "inputs": [
        {
          "internalType": "address",
          "name": "",
          "type": "address"
        }
      ],
      "name": "ecosystems",
      "outputs": [
        {
          "internalType": "address",
          "name": "factory",
          "type": "address"
        },
        {
          "internalType": "address",
          "name": "swap",
          "type": "address"
        },
        {
          "internalType": "address",
          "name": "usdc",
          "type": "address"
        },
        {
          "internalType": "bool",
          "name": "active",
          "type": "bool"
        }
      ],
      "stateMutability": "view",
      "type": "function"
    },
    {
      "inputs": [
        {
          "internalType": "address",
          "name": "marketToken",
          "type": "address"
        }
      ],
      "name": "getBountyPool",
      "outputs": [
        {
          "internalType": "uint256",
          "name": "",
          "type": "uint256"
        }
      ],
      "stateMutability": "view",
      "type": "function"
    },
    {
      "inputs": [
        {
          "internalType": "address",
          "name": "marketToken",
          "type": "address"
        },
        {
          "internalType": "uint256",
          "name": "orderId",
          "type": "uint256"
        },
        {
          "internalType": "uint256",
          "name": "usdcAmount",
          "type": "uint256"
        }
      ],
      "name": "getBuyOrderAmountsOut",
      "outputs": [
        {
          "internalType": "uint256",
          "name": "fill",
          "type": "uint256"
        },
        {
          "internalType": "uint256",
          "name": "baseUsdc",
          "type": "uint256"
        },
        {
          "internalType": "uint256",
          "name": "buyerTax",
          "type": "uint256"
        },
        {
          "internalType": "uint256",
          "name": "totalCostToBuyer",
          "type": "uint256"
        }
      ],
      "stateMutability": "view",
      "type": "function"
    },
    {
      "inputs": [
        {
          "internalType": "address",
          "name": "marketToken",
          "type": "address"
        },
        {
          "internalType": "uint256",
          "name": "orderId",
          "type": "uint256"
        },
        {
          "internalType": "uint256",
          "name": "fill",
          "type": "uint256"
        }
      ],
      "name": "getBuyOrderCost",
      "outputs": [
        {
          "internalType": "uint256",
          "name": "baseUsdc",
          "type": "uint256"
        },
        {
          "internalType": "uint256",
          "name": "buyerTax",
          "type": "uint256"
        },
        {
          "internalType": "uint256",
          "name": "totalCostToBuyer",
          "type": "uint256"
        },
        {
          "internalType": "uint256",
          "name": "netToSeller",
          "type": "uint256"
        }
      ],
      "stateMutability": "view",
      "type": "function"
    },
    {
      "inputs": [
        {
          "internalType": "address",
          "name": "marketToken",
          "type": "address"
        }
      ],
      "name": "getGeneralPot",
      "outputs": [
        {
          "internalType": "uint256",
          "name": "",
          "type": "uint256"
        }
      ],
      "stateMutability": "view",
      "type": "function"
    },
    {
      "inputs": [
        {
          "internalType": "uint256",
          "name": "n",
          "type": "uint256"
        }
      ],
      "name": "getInitialReserves",
      "outputs": [
        {
          "internalType": "uint256",
          "name": "perOutcome",
          "type": "uint256"
        },
        {
          "internalType": "uint256",
          "name": "totalReserve",
          "type": "uint256"
        }
      ],
      "stateMutability": "view",
      "type": "function"
    },
    {
      "inputs": [
        {
          "internalType": "address",
          "name": "marketToken",
          "type": "address"
        }
      ],
      "name": "getMarketData",
      "outputs": [
        {
          "components": [
            {
              "internalType": "address",
              "name": "marketToken",
              "type": "address"
            },
            {
              "internalType": "address",
              "name": "creator",
              "type": "address"
            },
            {
              "internalType": "address",
              "name": "ecosystem",
              "type": "address"
            },
            {
              "internalType": "address",
              "name": "usdc",
              "type": "address"
            },
            {
              "internalType": "string",
              "name": "marketName",
              "type": "string"
            },
            {
              "internalType": "uint256",
              "name": "creationTime",
              "type": "uint256"
            },
            {
              "internalType": "uint256",
              "name": "endTime",
              "type": "uint256"
            },
            {
              "internalType": "uint8",
              "name": "finalOutcome",
              "type": "uint8"
            },
            {
              "internalType": "bool",
              "name": "resolved",
              "type": "bool"
            },
            {
              "internalType": "uint256",
              "name": "generalPot",
              "type": "uint256"
            },
            {
              "internalType": "uint256",
              "name": "totalVirtualReserve",
              "type": "uint256"
            },
            {
              "internalType": "bool",
              "name": "isPrivate",
              "type": "bool"
            }
          ],
          "internalType": "struct AMarketTrading.MarketData",
          "name": "",
          "type": "tuple"
        }
      ],
      "stateMutability": "view",
      "type": "function"
    },
    {
      "inputs": [
        {
          "internalType": "address",
          "name": "marketToken",
          "type": "address"
        }
      ],
      "name": "getNumOutcomes",
      "outputs": [
        {
          "internalType": "uint256",
          "name": "",
          "type": "uint256"
        }
      ],
      "stateMutability": "view",
      "type": "function"
    },
    {
      "inputs": [
        {
          "internalType": "address",
          "name": "marketToken",
          "type": "address"
        }
      ],
      "name": "getOptionNames",
      "outputs": [
        {
          "internalType": "string[]",
          "name": "",
          "type": "string[]"
        }
      ],
      "stateMutability": "view",
      "type": "function"
    },
    {
      "inputs": [
        {
          "internalType": "address",
          "name": "marketToken",
          "type": "address"
        },
        {
          "internalType": "uint8",
          "name": "outcomeId",
          "type": "uint8"
        }
      ],
      "name": "getOutcome",
      "outputs": [
        {
          "components": [
            {
              "internalType": "uint256",
              "name": "virtualReserve",
              "type": "uint256"
            },
            {
              "internalType": "uint256",
              "name": "totalCost",
              "type": "uint256"
            },
            {
              "internalType": "uint256",
              "name": "circulatingShares",
              "type": "uint256"
            }
          ],
          "internalType": "struct AMarketTrading.Outcome",
          "name": "",
          "type": "tuple"
        }
      ],
      "stateMutability": "view",
      "type": "function"
    },
    {
      "inputs": [
        {
          "internalType": "address",
          "name": "marketToken",
          "type": "address"
        },
        {
          "internalType": "address",
          "name": "user",
          "type": "address"
        },
        {
          "internalType": "uint8",
          "name": "outcomeId",
          "type": "uint8"
        }
      ],
      "name": "getUserShares",
      "outputs": [
        {
          "internalType": "uint256",
          "name": "",
          "type": "uint256"
        }
      ],
      "stateMutability": "view",
      "type": "function"
    },
    {
      "inputs": [
        {
          "internalType": "address",
          "name": "",
          "type": "address"
        },
        {
          "internalType": "address",
          "name": "",
          "type": "address"
        }
      ],
      "name": "hasBetted",
      "outputs": [
        {
          "internalType": "bool",
          "name": "",
          "type": "bool"
        }
      ],
      "stateMutability": "view",
      "type": "function"
    },
    {
      "inputs": [
        {
          "internalType": "address",
          "name": "marketToken",
          "type": "address"
        },
        {
          "internalType": "address",
          "name": "user",
          "type": "address"
        }
      ],
      "name": "hasBettedOnMarket",
      "outputs": [
        {
          "internalType": "bool",
          "name": "",
          "type": "bool"
        }
      ],
      "stateMutability": "view",
      "type": "function"
    },
    {
      "inputs": [],
      "name": "insuranceWallet",
      "outputs": [
        {
          "internalType": "address",
          "name": "",
          "type": "address"
        }
      ],
      "stateMutability": "view",
      "type": "function"
    },
    {
      "inputs": [],
      "name": "lastTrade",
      "outputs": [
        {
          "internalType": "uint256",
          "name": "",
          "type": "uint256"
        }
      ],
      "stateMutability": "view",
      "type": "function"
    },
    {
      "inputs": [
        {
          "internalType": "address",
          "name": "marketToken",
          "type": "address"
        },
        {
          "internalType": "uint8",
          "name": "outcomeId",
          "type": "uint8"
        },
        {
          "internalType": "uint256",
          "name": "amount",
          "type": "uint256"
        },
        {
          "internalType": "uint256",
          "name": "pricePerShare",
          "type": "uint256"
        }
      ],
      "name": "listOrder",
      "outputs": [],
      "stateMutability": "nonpayable",
      "type": "function"
    },
    {
      "inputs": [
        {
          "internalType": "address",
          "name": "",
          "type": "address"
        }
      ],
      "name": "marketData",
      "outputs": [
        {
          "internalType": "address",
          "name": "marketToken",
          "type": "address"
        },
        {
          "internalType": "address",
          "name": "creator",
          "type": "address"
        },
        {
          "internalType": "address",
          "name": "ecosystem",
          "type": "address"
        },
        {
          "internalType": "address",
          "name": "usdc",
          "type": "address"
        },
        {
          "internalType": "string",
          "name": "marketName",
          "type": "string"
        },
        {
          "internalType": "uint256",
          "name": "creationTime",
          "type": "uint256"
        },
        {
          "internalType": "uint256",
          "name": "endTime",
          "type": "uint256"
        },
        {
          "internalType": "uint8",
          "name": "finalOutcome",
          "type": "uint8"
        },
        {
          "internalType": "bool",
          "name": "resolved",
          "type": "bool"
        },
        {
          "internalType": "uint256",
          "name": "generalPot",
          "type": "uint256"
        },
        {
          "internalType": "uint256",
          "name": "totalVirtualReserve",
          "type": "uint256"
        },
        {
          "internalType": "bool",
          "name": "isPrivate",
          "type": "bool"
        }
      ],
      "stateMutability": "view",
      "type": "function"
    },
    {
      "inputs": [
        {
          "internalType": "address",
          "name": "",
          "type": "address"
        },
        {
          "internalType": "uint256",
          "name": "",
          "type": "uint256"
        }
      ],
      "name": "marketOrders",
      "outputs": [
        {
          "internalType": "address",
          "name": "seller",
          "type": "address"
        },
        {
          "internalType": "uint8",
          "name": "outcomeId",
          "type": "uint8"
        },
        {
          "internalType": "uint256",
          "name": "amount",
          "type": "uint256"
        },
        {
          "internalType": "uint256",
          "name": "totalAmount",
          "type": "uint256"
        },
        {
          "internalType": "uint256",
          "name": "pricePerShare",
          "type": "uint256"
        },
        {
          "internalType": "bool",
          "name": "active",
          "type": "bool"
        }
      ],
      "stateMutability": "view",
      "type": "function"
    },
    {
      "inputs": [],
      "name": "minSeed",
      "outputs": [
        {
          "internalType": "uint256",
          "name": "",
          "type": "uint256"
        }
      ],
      "stateMutability": "view",
      "type": "function"
    },
    {
      "inputs": [
        {
          "internalType": "address",
          "name": "",
          "type": "address"
        }
      ],
      "name": "nextOrderId",
      "outputs": [
        {
          "internalType": "uint256",
          "name": "",
          "type": "uint256"
        }
      ],
      "stateMutability": "view",
      "type": "function"
    },
    {
      "inputs": [
        {
          "internalType": "address",
          "name": "",
          "type": "address"
        },
        {
          "internalType": "uint256",
          "name": "",
          "type": "uint256"
        }
      ],
      "name": "optionNames",
      "outputs": [
        {
          "internalType": "string",
          "name": "",
          "type": "string"
        }
      ],
      "stateMutability": "view",
      "type": "function"
    },
    {
      "inputs": [
        {
          "internalType": "address",
          "name": "",
          "type": "address"
        },
        {
          "internalType": "uint256",
          "name": "",
          "type": "uint256"
        }
      ],
      "name": "outcomes",
      "outputs": [
        {
          "internalType": "uint256",
          "name": "virtualReserve",
          "type": "uint256"
        },
        {
          "internalType": "uint256",
          "name": "totalCost",
          "type": "uint256"
        },
        {
          "internalType": "uint256",
          "name": "circulatingShares",
          "type": "uint256"
        }
      ],
      "stateMutability": "view",
      "type": "function"
    },
    {
      "inputs": [
        {
          "internalType": "address",
          "name": "marketToken",
          "type": "address"
        }
      ],
      "name": "redeem",
      "outputs": [],
      "stateMutability": "nonpayable",
      "type": "function"
    },
    {
      "inputs": [
        {
          "internalType": "contract IERC20",
          "name": "token",
          "type": "address"
        }
      ],
      "name": "rescueToken",
      "outputs": [],
      "stateMutability": "nonpayable",
      "type": "function"
    },
    {
      "inputs": [],
      "name": "resolver",
      "outputs": [
        {
          "internalType": "contract IMarketResolver",
          "name": "",
          "type": "address"
        }
      ],
      "stateMutability": "view",
      "type": "function"
    },
    {
      "inputs": [
        {
          "internalType": "address",
          "name": "newWallet",
          "type": "address"
        }
      ],
      "name": "setInsuranceWallet",
      "outputs": [],
      "stateMutability": "nonpayable",
      "type": "function"
    },
    {
      "inputs": [
        {
          "internalType": "uint256",
          "name": "_minSeed",
          "type": "uint256"
        }
      ],
      "name": "setMinSeed",
      "outputs": [],
      "stateMutability": "nonpayable",
      "type": "function"
    },
    {
      "inputs": [
        {
          "internalType": "uint256",
          "name": "minPool",
          "type": "uint256"
        },
        {
          "internalType": "uint256",
          "name": "maxPool",
          "type": "uint256"
        },
        {
          "internalType": "uint256",
          "name": "floor",
          "type": "uint256"
        },
        {
          "internalType": "uint256",
          "name": "maxOutcomes",
          "type": "uint256"
        }
      ],
      "name": "setPoolConfig",
      "outputs": [],
      "stateMutability": "nonpayable",
      "type": "function"
    },
    {
      "inputs": [
        {
          "internalType": "address",
          "name": "_resolver",
          "type": "address"
        }
      ],
      "name": "setPredictionResolver",
      "outputs": [],
      "stateMutability": "nonpayable",
      "type": "function"
    },
    {
      "inputs": [
        {
          "internalType": "address",
          "name": "marketToken",
          "type": "address"
        },
        {
          "internalType": "uint8",
          "name": "outcome",
          "type": "uint8"
        }
      ],
      "name": "setResolved",
      "outputs": [],
      "stateMutability": "nonpayable",
      "type": "function"
    },
    {
      "inputs": [
        {
          "internalType": "address",
          "name": "",
          "type": "address"
        },
        {
          "internalType": "address",
          "name": "",
          "type": "address"
        },
        {
          "internalType": "uint8",
          "name": "",
          "type": "uint8"
        }
      ],
      "name": "sharesLockedInOrders",
      "outputs": [
        {
          "internalType": "uint256",
          "name": "",
          "type": "uint256"
        }
      ],
      "stateMutability": "view",
      "type": "function"
    },
    {
      "inputs": [
        {
          "internalType": "address",
          "name": "",
          "type": "address"
        },
        {
          "internalType": "address",
          "name": "",
          "type": "address"
        },
        {
          "internalType": "uint8",
          "name": "",
          "type": "uint8"
        }
      ],
      "name": "userShares",
      "outputs": [
        {
          "internalType": "uint256",
          "name": "",
          "type": "uint256"
        }
      ],
      "stateMutability": "view",
      "type": "function"
    },
    {
      "stateMutability": "payable",
      "type": "receive"
    }
  ],
  "bytecode": "0x608060405262000019670de0b6b3a764000060326200010a565b60055562000032670de0b6b3a76400006113886200010a565b6006556200004b670de0b6b3a764000061c3506200010a565b60075562000064670de0b6b3a76400006101f46200010a565b600855609660095543600a553480156200007d57600080fd5b50604051620054b2380380620054b2833981016040819052620000a09162000153565b6001600081905580546001600160a01b03199081163317909155600280546001600160a01b0385811691909316179055811615620000df5780620000e1565b335b600380546001600160a01b0319166001600160a01b0392909216919091179055506200018b9050565b80820281158282048414176200013057634e487b7160e01b600052601160045260246000fd5b92915050565b80516001600160a01b03811681146200014e57600080fd5b919050565b600080604083850312156200016757600080fd5b620001728362000136565b9150620001826020840162000136565b90509250929050565b615317806200019b6000396000f3fe6080604052600436106103545760003560e01c8063867de197116101c6578063c28bf0ec116100f7578063dc73d16411610095578063ed091eff1161006f578063ed091eff14610bbf578063edaac3c314610bdf578063f8e0434a14610bf5578063fe6fa25b14610c1557600080fd5b8063dc73d16414610b32578063dd1d081a14610b48578063e5c966cb14610b8157600080fd5b8063ca96a446116100d1578063ca96a44614610a73578063d08e7b6914610a93578063d243947714610ab3578063dc69038414610afc57600080fd5b8063c28bf0ec146109ff578063c74763b114610a3d578063ca92163114610a5d57600080fd5b8063a113625811610164578063b0ffb3961161013e578063b0ffb3961461095d578063b2072d3114610995578063b9468c34146109aa578063c226d54d146109bd57600080fd5b8063a1136258146108c5578063a30c302d146108e5578063a54be0441461091257600080fd5b806395a2251f116101a057806395a2251f146108345780639a0fa76e146108545780639b44cb3c1461088f578063a1088571146108a557600080fd5b8063867de197146107b25780638b50514e146107df5780638f0105b7146107ff57600080fd5b80632f7136c1116102a05780634d9ae6331161023e57806367781c0e1161021857806367781c0e146107205780636a2061371461073c5780636cd4cb031461075c57806379583e221461079257600080fd5b80634d9ae633146106c05780634dfdf021146106e05780635038e06c1461070057600080fd5b80633aefd7f91161027a5780633aefd7f9146106265780633c4dfaa314610653578063403c5e5c146106805780634460d3cf146106a057600080fd5b80632f7136c1146105d157806336641c10146105f1578063385685771461060657600080fd5b80630e8b19fa1161030d57806313abbfb6116102e757806313abbfb61461055b5780631d710708146105715780632239bb391461059157806325aafe65146105b157600080fd5b80630e8b19fa146105055780630f5f2ea41461051b578063127a8ece1461053b57600080fd5b80630322d80e1461036057806304f3bcec146103a55780630523725a146103dd5780630524d57d146104045780630af33845146104a85780630d5115af146104e357600080fd5b3661035b57005b600080fd5b34801561036c57600080fd5b5061038061037b36600461454c565b610c9f565b6040805194855260208501939093529183015260608201526080015b60405180910390f35b3480156103b157600080fd5b506004546103c5906001600160a01b031681565b6040516001600160a01b03909116815260200161039c565b3480156103e957600080fd5b506103f260fe81565b60405160ff909116815260200161039c565b34801561041057600080fd5b5061046d61041f366004614581565b6013602090815260009283526040808420909152908252902080546001820154600283015460038401546004909401546001600160a01b0384169460ff600160a01b90950485169490911686565b604080516001600160a01b03909716875260ff90951660208701529385019290925260608401526080830152151560a082015260c00161039c565b3480156104b457600080fd5b506104d56104c33660046145ad565b600f6020526000908152604090205481565b60405190815260200161039c565b3480156104ef57600080fd5b506105036104fe3660046145ca565b610d7c565b005b34801561051157600080fd5b506104d560075481565b34801561052757600080fd5b5061050361053636600461463f565b610e94565b34801561054757600080fd5b5061038061055636600461454c565b61113c565b34801561056757600080fd5b506104d560065481565b34801561057d57600080fd5b5061050361058c366004614681565b61124e565b34801561059d57600080fd5b506105036105ac3660046146ab565b6112e7565b3480156105bd57600080fd5b506105036105cc3660046146ef565b611669565b3480156105dd57600080fd5b506104d56105ec366004614752565b611aee565b3480156105fd57600080fd5b506103f260ff81565b34801561061257600080fd5b50610503610621366004614799565b611b27565b34801561063257600080fd5b506104d56106413660046145ad565b60126020526000908152604090205481565b34801561065f57600080fd5b5061067361066e366004614581565b611da2565b60405161039c9190614814565b34801561068c57600080fd5b5061050361069b366004614827565b611e5b565b3480156106ac57600080fd5b506105036106bb3660046145ad565b611eee565b3480156106cc57600080fd5b506002546103c5906001600160a01b031681565b3480156106ec57600080fd5b506104d56106fb3660046148ac565b611ff3565b34801561070c57600080fd5b506003546103c5906001600160a01b031681565b34801561072c57600080fd5b506104d5670de0b6b3a764000081565b34801561074857600080fd5b50610503610757366004614581565b612110565b34801561076857600080fd5b506104d56107773660046145ad565b6001600160a01b03166000908152600f602052604090205490565b34801561079e57600080fd5b506105036107ad36600461454c565b612256565b3480156107be57600080fd5b506107d26107cd3660046145ad565b6128ce565b60405161039c9190614908565b3480156107eb57600080fd5b506105036107fa366004614a47565b6129bd565b34801561080b57600080fd5b5061081f61081a366004614681565b612a61565b6040805192835260208301919091520161039c565b34801561084057600080fd5b5061050361084f3660046145ad565b612ab5565b34801561086057600080fd5b5061087461086f366004614581565b612f8d565b6040805193845260208401929092529082015260600161039c565b34801561089b57600080fd5b506104d5600a5481565b3480156108b157600080fd5b506001546103c5906001600160a01b031681565b3480156108d157600080fd5b506105036108e0366004614b28565b612fcf565b3480156108f157600080fd5b506109056109003660046145ad565b613073565b60405161039c9190614b5a565b34801561091e57600080fd5b5061094d61092d366004614827565b601060209081526000928352604080842090915290825290205460ff1681565b604051901515815260200161039c565b34801561096957600080fd5b5061097d6109783660046145ad565b61321b565b60405161039c9c9b9a99989796959493929190614c44565b3480156109a157600080fd5b506103f260fd81565b6103c56109b8366004614d5a565b61331b565b3480156109c957600080fd5b506109dd6109d8366004614799565b61362d565b604080518251815260208084015190820152918101519082015260600161039c565b348015610a0b57600080fd5b506104d5610a1a366004614752565b601160209081526000938452604080852082529284528284209052825290205481565b348015610a4957600080fd5b50610503610a58366004614e21565b6136be565b348015610a6957600080fd5b506104d560055481565b348015610a7f57600080fd5b50610503610a8e3660046145ad565b6137b5565b348015610a9f57600080fd5b50610503610aae3660046145ad565b613801565b348015610abf57600080fd5b5061094d610ace366004614827565b6001600160a01b03918216600090815260106020908152604080832093909416825291909152205460ff1690565b348015610b0857600080fd5b506104d5610b173660046145ad565b6001600160a01b03166000908152600d602052604090205490565b348015610b3e57600080fd5b506104d560095481565b348015610b5457600080fd5b506104d5610b633660046145ad565b6001600160a01b03166000908152600c602052604090206008015490565b348015610b8d57600080fd5b506104d5610b9c366004614752565b601460209081526000938452604080852082529284528284209052825290205481565b348015610bcb57600080fd5b50610503610bda3660046145ad565b61384d565b348015610beb57600080fd5b506104d560085481565b348015610c0157600080fd5b506104d5610c103660046145ad565b6138da565b348015610c2157600080fd5b50610c6a610c303660046145ad565b600b602052600090815260409020805460018201546002909201546001600160a01b0391821692821691811690600160a01b900460ff1684565b60405161039c94939291906001600160a01b039485168152928416602084015292166040820152901515606082015260800190565b600080600080600080610cb289896139d3565b509092509050610cc481612710614ec4565b610cce9083614ed7565b610ce0670de0b6b3a764000089614ed7565b610cec90612710614ed7565b610cf69190614f04565b6001600160a01b038a1660009081526013602090815260408083208c845290915290206001015490965080871115610d2c578096505b670de0b6b3a7640000610d3f8489614ed7565b610d499190614f04565b9550612710610d588388614ed7565b610d629190614f04565b9450610d6e8587614ec4565b935050505093509350935093565b6001546001600160a01b03163314610daf5760405162461bcd60e51b8152600401610da690614f18565b60405180910390fd5b604080516080810182526001600160a01b03858116808352858216602080850182815287851686880181815260016060808a018281528f8a166000818152600b89528d90209b518c54908c166001600160a01b0319918216178d559651938c018054948c16949097169390931790955591516002909901805494511515600160a01b026001600160a81b03199095169990981698909817929092179095558651938452908301919091529381019190915290917fda0f51049b42c59ab26115a1ec11ee66545e0fb8df200310cda1405212723f3e91015b60405180910390a250505050565b6002546001600160a01b03163314610edb5760405162461bcd60e51b815260206004820152600a6024820152694f6e6c7920746178657360b01b6044820152606401610da6565b6001600160a01b038084166000908152600c60205260409020805490911615801590610f075750600083115b610f445760405162461bcd60e51b815260206004820152600e60248201526d496e76616c696420646f6e61746560901b6044820152606401610da6565b60038101546040516323b872dd60e01b81526001600160a01b03909116906323b872dd90610f7a90339030908890600401614f3a565b6020604051808303816000875af1158015610f99573d6000803e3d6000fd5b505050506040513d601f19601f82011682018060405250810190610fbd9190614f5e565b610fc657600080fd5b6007810154610100900460ff1615611063576003810154600182015460405163a9059cbb60e01b81526001600160a01b039283169263a9059cbb92611012929116908790600401614f7b565b6020604051808303816000875af1158015611031573d6000803e3d6000fd5b505050506040513d601f19601f820116820180604052508101906110559190614f5e565b61105e57600080fd5b611136565b81156110e0576001600160a01b0384166000908152600f602052604081208054859290611091908490614ec4565b92505081905550836001600160a01b03167f25e33bc79ac15af5e1835b00d0237baf0f8fb880e806ba1761fdf4c0e70c0cb533856040516110d3929190614f7b565b60405180910390a2611136565b828160080160008282546110f49190614ec4565b92505081905550836001600160a01b03167f14d538105700d00b983b38e9d9e0934c9bf322afde76ede7fa98f9e4ab5eef4c3385604051610e86929190614f7b565b50505050565b60008060008060008061114f89896139d3565b509092509050670de0b6b3a76400006111688389614ed7565b6111729190614f04565b95506127106111818288614ed7565b61118b9190614f04565b94506111978587614ec4565b6002546001600160a01b038b811660008181526013602090815260408083208f8452909152808220549051631685774f60e01b8152600481019390935283166024830152939750911690631685774f90604401602060405180830381865afa158015611207573d6000803e3d6000fd5b505050506040513d601f19601f8201168201806040525081019061122b9190614f94565b905061271061123a8289614ed7565b6112449190614f04565b610d6e9088614fad565b6001546001600160a01b031633146112785760405162461bcd60e51b8152600401610da690614f18565b61128b670de0b6b3a7640000600a614ed7565b6112959082614fc0565b156112e25760405162461bcd60e51b815260206004820152601f60248201527f4d75737420626520696e20696e6372656d656e7473206f6620313020555344006044820152606401610da6565b600555565b6112ef613b14565b6001600160a01b0384166000908152600c6020526040902060070154610100900460ff16156113525760405162461bcd60e51b815260206004820152600f60248201526e1b585c9ad95d081c995cdbdb1d9959608a1b6044820152606401610da6565b80158061139d575061136e6103e8670de0b6b3a7640000614f04565b811015801561139d57506103e861138f670de0b6b3a76400006103e7614ed7565b6113999190614f04565b8111155b6113df5760405162461bcd60e51b81526020600482015260136024820152725072696365206f7574206f6620626f756e647360681b6044820152606401610da6565b6001600160a01b03841660008181526011602090815260408083203380855290835281842060ff891680865290845282852054958552601484528285209185529083528184209084529091529020546114388482614ec4565b8210156114875760405162461bcd60e51b815260206004820152601d60248201527f496e73756666696369656e7420617661696c61626c65207368617265730000006044820152606401610da6565b6001600160a01b0386166000908152601460209081526040808320338452825280832060ff89168452909152812080548692906114c5908490614ec4565b90915550506001600160a01b0386166000908152601260205260408120805490826114ef83614fd4565b9190505590506040518060c00160405280336001600160a01b031681526020018760ff1681526020018681526020018681526020018581526020016001151581525060136000896001600160a01b03166001600160a01b03168152602001908152602001600020600083815260200190815260200160002060008201518160000160006101000a8154816001600160a01b0302191690836001600160a01b0316021790555060208201518160000160146101000a81548160ff021916908360ff16021790555060408201518160010155606082015181600201556080820151816003015560a08201518160040160006101000a81548160ff021916908315150217905550905050336001600160a01b031681886001600160a01b03167f0b85cc82bfcaadb636df2fc0c642f8538c42add49e65af17494ea8d842ff7a0c8989896040516116549392919060ff9390931683526020830191909152604082015260600190565b60405180910390a45050506111366001600055565b611671613b14565b6001600160a01b038087166000818152600c6020526040902080549092161480156116a657506007810154610100900460ff16155b80156116cc57506001600160a01b0387166000908152600d602052604090205460ff8716105b80156116d85750600084115b6116e157600080fd5b6000879050806001600160a01b031663054f7d9c6040518163ffffffff1660e01b8152600401602060405180830381865afa158015611724573d6000803e3d6000fd5b505050506040513d601f19601f820116820180604052508101906117489190614f5e565b156117f357604051636c9b2a3f60e11b81523360048201526001600160a01b0382169063d936547e90602401602060405180830381865afa158015611791573d6000803e3d6000fd5b505050506040513d601f19601f820116820180604052508101906117b59190614f5e565b6117f35760405162461bcd60e51b815260206004820152600f60248201526e1b9bdd081dda1a5d195b1a5cdd1959608a1b6044820152606401610da6565b6000611800898888613b6d565b9050848110156118455760405162461bcd60e51b815260206004820152601060248201526f1b5a5b881d5cd918c81b9bdd081b595d60821b6044820152606401610da6565b60038301546000906118639083908c906001600160a01b0316613d78565b6001600160a01b038b166000908152600e602052604081208054929350909160ff8c1690811061189557611895614fed565b90600052602060002090600302019050600085600901549050828260000160008282546118c29190614ec4565b92505081905550828660090160008282546118dd9190614ec4565b909155505081546000906118f18584614ec4565b6118fb9086614ed7565b6119059190614f04565b905061191a8184600001548960090154613f0e565b9050878110156119615760405162461bcd60e51b81526020600482015260126024820152711b5a5b881cda185c995cc81b9bdd081b595d60721b6044820152606401610da6565b838360010160008282546119759190614ec4565b92505081905550808360020160008282546119909190614ec4565b925050819055506001601060008f6001600160a01b03166001600160a01b031681526020019081526020016000206000336001600160a01b03166001600160a01b0316815260200190815260200160002060006101000a81548160ff02191690831515021790555080601160008f6001600160a01b03166001600160a01b031681526020019081526020016000206000336001600160a01b03166001600160a01b0316815260200190815260200160002060008e60ff1660ff1681526020019081526020016000206000828254611a679190614ec4565b9250508190555043600a819055508b60ff16336001600160a01b03168e6001600160a01b03167f227fed32364040cd87ef42ea45022307a4adf3827a9d84082581a8c4817865518488600089600001548e60090154604051611acd959493929190615003565b60405180910390a450505050505050611ae66001600055565b505050505050565b6001600160a01b038084166000908152601160209081526040808320938616835292815282822060ff85168352905220545b9392505050565b6004546001600160a01b03163314611b715760405162461bcd60e51b815260206004820152600d60248201526c27b7363c903932b9b7b63b32b960991b6044820152606401610da6565b6001600160a01b0382166000908152600c6020908152604080832060078101805461ffff191660ff871690811761010017909155600d9093529220541115611d9d576001600160a01b0383166000908152600e60205260409020805460ff8416908110611be057611be0614fed565b906000526020600020906003020160020154600003611d9d576008810180546000918290556001600160a01b0385168252600d602052604082205490915b818160ff161015611ccb576001600160a01b0386166000908152600e60205260409020805460ff8316908110611c5657611c56614fed565b90600052602060002090600302016001015483611c739190614ec4565b6001600160a01b0387166000908152600e602052604081208054929550909160ff8416908110611ca557611ca5614fed565b600091825260209091206001600390920201015580611cc38161504b565b915050611c1e565b508115611d9a57600380840154905460405163a9059cbb60e01b81526001600160a01b039283169263a9059cbb92611d0a929116908690600401614f7b565b6020604051808303816000875af1158015611d29573d6000803e3d6000fd5b505050506040513d601f19601f82011682018060405250810190611d4d9190614f5e565b611d5657600080fd5b846001600160a01b03167ff7ff2ef5a01f26e6ce9e3a3d5f1edb95617e11a6bb75673719135af1c08cd04b83604051611d9191815260200190565b60405180910390a25b50505b505050565b600d6020528160005260406000208181548110611dbe57600080fd5b90600052602060002001600091509150508054611dda9061506a565b80601f0160208091040260200160405190810160405280929190818152602001828054611e069061506a565b8015611e535780601f10611e2857610100808354040283529160200191611e53565b820191906000526020600020905b815481529060010190602001808311611e3657829003601f168201915b505050505081565b6001600160a01b038181166000908152600c6020526040902060010154163314611e8457600080fd5b6001600160a01b038181166000908152600c6020526040908190205490516314cccfc360e31b8152848316600482015291169063a6667e1890602401600060405180830381600087803b158015611eda57600080fd5b505af1158015611ae6573d6000803e3d6000fd5b6001546001600160a01b03163314611f185760405162461bcd60e51b8152600401610da690614f18565b6001546040516370a0823160e01b81523060048201526001600160a01b038381169263a9059cbb9291169083906370a0823190602401602060405180830381865afa158015611f6b573d6000803e3d6000fd5b505050506040513d601f19601f82011682018060405250810190611f8f9190614f94565b6040518363ffffffff1660e01b8152600401611fac929190614f7b565b6020604051808303816000875af1158015611fcb573d6000803e3d6000fd5b505050506040513d601f19601f82011682018060405250810190611fef9190614f5e565b5050565b6001600160a01b0384166000908152600c6020526040812082915b84811015612106576001600160a01b03871660009081526013602052604081208188888581811061204157612041614fed565b60209081029290920135835250810191909152604001600020600481015490915060ff16158061207a57506007830154610100900460ff165b1561208557506120fe565b6000806120ab8a8a8a8781811061209e5761209e614fed565b9050602002013588610c9f565b93505050915060008211156120ea576120dd8a8a8a878181106120d0576120d0614fed565b9050602002013584612256565b6120e78187614fad565b95505b856000036120fa57505050612106565b5050505b60010161200e565b5050949350505050565b6001600160a01b0380831660009081526013602090815260408083208584529091529020805490911633146121785760405162461bcd60e51b815260206004820152600e60248201526d2737ba103cb7bab91037b93232b960911b6044820152606401610da6565b600481015460ff166121bf5760405162461bcd60e51b815260206004820152601060248201526f416c726561647920696e61637469766560801b6044820152606401610da6565b60048101805460ff1916905560018101546001600160a01b038416600090815260146020908152604080832033845282528083208554600160a01b900460ff16845290915281208054909190612216908490614fad565b909155505060405182906001600160a01b038516907fdd003742fb214507783ce004fe55f5ac14f89c6de4a7cd7487e47eb091c6226590600090a3505050565b61225e613b14565b6001600160a01b03831660008181526013602090815260408083208684528252808320938352600c9091529020600482015460ff1680156122a957506007810154610100900460ff16155b6122ff5760405162461bcd60e51b815260206004820152602160248201527f4f7264657220696e616374697665206f72206d61726b6574207265736f6c76656044820152601960fa1b6064820152608401610da6565b600083118015612313575081600101548311155b6123555760405162461bcd60e51b8152602060048201526013602482015272125b9d985b1a5908199a5b1b08185b5bdd5b9d606a1b6044820152606401610da6565b8154336001600160a01b03909116036123a85760405162461bcd60e51b815260206004820152601560248201527421b0b73737ba103334b6361037bbb71037b93232b960591b6044820152606401610da6565b60098101546001600160a01b0386166000908152600e6020526040812084548154929392670de0b6b3a76400009291600160a01b900460ff169081106123f0576123f0614fed565b90600052602060002090600302016000015461240c9190614ed7565b6124169190614f04565b905060008360030154600014612430578360030154612432565b815b9050818111156124845760405162461bcd60e51b815260206004820152601860248201527f4f726465722070726963652061626f7665206d61726b657400000000000000006044820152606401610da6565b6001600160a01b038781166000908152601160209081526040808320885494851684528252808320600160a01b90940460ff168352929052205485111561250d5760405162461bcd60e51b815260206004820152601b60248201527f53656c6c6572206e6f206c6f6e676572206861732073686172657300000000006044820152606401610da6565b600080600061251d8a8a8a61113c565b60038a01546040516323b872dd60e01b815294975091955093506001600160a01b0316916323b872dd915061255a90339030908790600401614f3a565b6020604051808303816000875af1158015612579573d6000803e3d6000fd5b505050506040513d601f19601f8201168201806040525081019061259d9190614f5e565b6125a657600080fd5b60006125b28284614fad565b905080156126a557600387015460025460405163095ea7b360e01b81526001600160a01b039283169263095ea7b3926125f2929116908590600401614f7b565b6020604051808303816000875af1158015612611573d6000803e3d6000fd5b505050506040513d601f19601f820116820180604052508101906126359190614f5e565b61263e57600080fd5b60025460405163ccb9132960e01b8152600481018390526001600160a01b038d811660248301529091169063ccb9132990604401600060405180830381600087803b15801561268c57600080fd5b505af11580156126a0573d6000803e3d6000fd5b505050505b6001600160a01b038b811660009081526014602090815260408083208c5494851684528252808320600160a01b90940460ff16835292905290812080548b92906126f0908490614fad565b90915550506001600160a01b038b811660009081526011602090815260408083208c5494851684528252808320600160a01b90940460ff16835292905290812080548b9290612740908490614fad565b90915550506001600160a01b038b16600090815260116020908152604080832033845282528083208b54600160a01b900460ff168452909152812080548b929061278b908490614ec4565b90915550506001600160a01b038b1660009081526010602090815260408083203384529091528120805460ff19166001908117909155890180548b92906127d3908490614fad565b909155505060018801546000036127f15760048801805460ff191690555b6003870154885460405163a9059cbb60e01b81526001600160a01b039283169263a9059cbb92612828929116908690600401614f7b565b6020604051808303816000875af1158015612847573d6000803e3d6000fd5b505050506040513d601f19601f8201168201806040525081019061286b9190614f5e565b61287457600080fd5b604080518a81526020810186905233918c916001600160a01b038f16917f460c0f64c6d95e6b900204c8d8f39acad3847c5278b1706fcee5cb8f844dfb12910160405180910390a45050505050505050611d9d6001600055565b6001600160a01b0381166000908152600d60209081526040808320805482518185028101850190935280835260609492939192909184015b828210156129b25783829060005260206000200180546129259061506a565b80601f01602080910402602001604051908101604052809291908181526020018280546129519061506a565b801561299e5780601f106129735761010080835404028352916020019161299e565b820191906000526020600020905b81548152906001019060200180831161298157829003601f168201915b505050505081526020019060010190612906565b505050509050919050565b6001600160a01b038181166000908152600c60205260409020600101541633146129e657600080fd5b6001600160a01b038082166000908152600c602052604090819020549051632bcf8fa160e01b8152911690632bcf8fa190612a29908790879087906004016150e9565b600060405180830381600087803b158015612a4357600080fd5b505af1158015612a57573d6000803e3d6000fd5b5050505050505050565b600080600a8311612a815782600654612a7a9190614f04565b9150612aa4565b60648311612a93576008549150612aa4565b82600754612aa19190614f04565b91505b612aae8383614ed7565b9050915091565b612abd613b14565b6001600160a01b0381166000908152600c602052604090206007810154610100900460ff16612b1d5760405162461bcd60e51b815260206004820152600c60248201526b139bdd081c995cdbdb1d995960a21b6044820152606401610da6565b600781015460038201546001600160a01b038481166000908152600d602052604081205460ff909416939092919091169060fd198401612ccd5760008060005b838160ff161015612c84576001600160a01b0389166000908152600e60205260408120805460ff8416908110612b9557612b95614fed565b600091825260208083206001600160a01b038e168452601182526040808520338652835280852060ff88168652909252922054600390910290910191508015612c2e5760028201546001830154612bec9083614ed7565b612bf69190614f04565b612c009089614ec4565b97508160020154826001015482612c179190614ed7565b612c219190614f04565b612c2b9085614ec4565b93505b6001820154612c3d9086614ec4565b6001600160a01b038c166000908152601160209081526040808320338452825280832060ff881684529091528120559450829150612c7c90508161504b565b915050612b5d565b50600082118015612c99575060008760080154115b15612cc65781876008015482612caf9190614ed7565b612cb99190614f04565b612cc39086614ec4565b94505b5050612e59565b600885015460005b828160ff161015612d3e576001600160a01b0388166000908152600e60205260409020805460ff8316908110612d0d57612d0d614fed565b90600052602060002090600302016001015482612d2a9190614ec4565b915080612d368161504b565b915050612cd5565b506001600160a01b0387166000908152601160209081526040808320338452825280832060ff8916845290915290205480612daf5760405162461bcd60e51b81526020600482015260116024820152704e6f2077696e6e696e672073686172657360781b6044820152606401610da6565b6001600160a01b0388166000908152600e60205260409020805460ff8816908110612ddc57612ddc614fed565b9060005260206000209060030201600201548282612dfa9190614ed7565b612e049190614f04565b945060005b838160ff161015612e55576001600160a01b0389166000908152601160209081526040808320338452825280832060ff8516845290915281205580612e4d8161504b565b915050612e09565b5050505b60008311612e9d5760405162461bcd60e51b81526020600482015260116024820152704e6f7468696e6720746f2072656465656d60781b6044820152606401610da6565b6001600160a01b03808716600090815260106020908152604080832033808552925291829020805460ff19169055905163a9059cbb60e01b81529184169163a9059cbb91612eef918790600401614f7b565b6020604051808303816000875af1158015612f0e573d6000803e3d6000fd5b505050506040513d601f19601f82011682018060405250810190612f329190614f5e565b612f3b57600080fd5b60405183815233906001600160a01b038816907fe56f2a0b89d7c833e0a6dcfc5d27d51bafc276ac3da07c7d56b866c38c592fba9060200160405180910390a35050505050612f8a6001600055565b50565b600e6020528160005260406000208181548110612fa957600080fd5b600091825260209091206003909102018054600182015460029092015490935090915083565b6001546001600160a01b03163314612ff95760405162461bcd60e51b8152600401610da690614f18565b6000841180156130095750838310155b80156130155750600082115b8015613022575060028110155b61305f5760405162461bcd60e51b815260206004820152600e60248201526d496e76616c696420636f6e66696760901b6044820152606401610da6565b600693909355600791909155600855600955565b60408051610180810182526000808252602082018190529181018290526060808201839052608082015260a0810182905260c0810182905260e081018290526101008101829052610120810182905261014081018290526101608101919091526001600160a01b038083166000908152600c6020908152604091829020825161018081018452815485168152600182015485169281019290925260028101548416928201929092526003820154909216606083015260048101805460808401919061313d9061506a565b80601f01602080910402602001604051908101604052809291908181526020018280546131699061506a565b80156131b65780601f1061318b576101008083540402835291602001916131b6565b820191906000526020600020905b81548152906001019060200180831161319957829003601f168201915b50505091835250506005820154602082015260068201546040820152600782015460ff8082166060840152610100909104811615156080830152600883015460a0830152600983015460c0830152600a90920154909116151560e09091015292915050565b600c60205260009081526040902080546001820154600283015460038401546004850180546001600160a01b0395861696948616959384169492909316926132629061506a565b80601f016020809104026020016040519081016040528092919081815260200182805461328e9061506a565b80156132db5780601f106132b0576101008083540402835291602001916132db565b820191906000526020600020905b8154815290600101906020018083116132be57829003601f168201915b5050505060058301546006840154600785015460088601546009870154600a909701549596939592945060ff80831694610100909304811693919291168c565b6001600160a01b0384166000908152600b602052604081206002810154600160a01b900460ff166133795760405162461bcd60e51b8152602060048201526008602482015267496e61637469766560c01b6044820152606401610da6565b871580613390575061338c42603c614ec4565b8810155b6133cd5760405162461bcd60e51b815260206004820152600e60248201526d22b732103a34b6b29032b93937b960911b6044820152606401610da6565b6005548310156134145760405162461bcd60e51b8152602060048201526012602482015271536565642062656c6f77206d696e696d756d60701b6044820152606401610da6565b613427670de0b6b3a7640000600a614ed7565b6134319084614fc0565b1561348a5760405162461bcd60e51b8152602060048201526024808201527f53656564206d75737420626520696e20696e6372656d656e7473206f66203130604482015263081554d160e21b6064820152608401610da6565b613497818a8c8888613f7f565b60028201546040516323b872dd60e01b81529193506001600160a01b0316906323b872dd906134ce90339030908890600401614f3a565b6020604051808303816000875af11580156134ed573d6000803e3d6000fd5b505050506040513d601f19601f820116820180604052508101906135119190614f5e565b6135545760405162461bcd60e51b815260206004820152601460248201527314d95959081d1c985b9cd9995c8819985a5b195960621b6044820152606401610da6565b600281015461357390839088906001600160a01b03168d8c888d61417e565b600254604051639a32d88f60e01b81526001600160a01b0390911690639a32d88f906135a9908590339061271090600401614f3a565b600060405180830381600087803b1580156135c357600080fd5b505af11580156135d7573d6000803e3d6000fd5b5050604080513381526001600160a01b038a81166020830152861693507fe63e6130091e2155004c4b5ac35e8fb9be704d6637ff3068a8f710ba36c9f41a92500160405180910390a25098975050505050505050565b61365160405180606001604052806000815260200160008152602001600081525090565b6001600160a01b0383166000908152600e60205260409020805460ff841690811061367e5761367e614fed565b9060005260206000209060030201604051806060016040529081600082015481526020016001820154815260200160028201548152505090505b92915050565b6001600160a01b0387166000908152601160209081526040808320338452825280832060ff8a168452909152812054906136fa89888887611ff3565b905080156137115761371189898784600080611669565b6001600160a01b0389166000908152601160209081526040808320338452825280832060ff8c16845290915281205461374b908490614fad565b9050838110156137a95760405162461bcd60e51b815260206004820152602360248201527f546f74616c20736c6970706167653a20696e73756666696369656e742073686160448201526272657360e81b6064820152608401610da6565b50505050505050505050565b6001546001600160a01b031633146137df5760405162461bcd60e51b8152600401610da690614f18565b600480546001600160a01b0319166001600160a01b0392909216919091179055565b6001546001600160a01b0316331461382b5760405162461bcd60e51b8152600401610da690614f18565b600380546001600160a01b0319166001600160a01b0392909216919091179055565b6001600160a01b038181166000908152600c602052604090206001015416331461387657600080fd5b6001600160a01b038082166000908152600c6020526040808220548151636edf7b7560e01b81529151931692636edf7b759260048084019391929182900301818387803b1580156138c657600080fd5b505af1158015611d9a573d6000803e3d6000fd5b6004546000906001600160a01b031633146139275760405162461bcd60e51b815260206004820152600d60248201526c27b7363c903932b9b7b63b32b960991b6044820152606401610da6565b6001600160a01b038083166000908152600f60209081526040808320805490849055600c9092529182902060030154915163a9059cbb60e01b81529092919091169063a9059cbb9061397f9033908590600401614f7b565b6020604051808303816000875af115801561399e573d6000803e3d6000fd5b505050506040513d601f19601f820116820180604052508101906139c29190614f5e565b6139cb57600080fd5b90505b919050565b6001600160a01b03821660008181526013602090815260408083208584528252808320938352600c82528083206009810154600e909352908320845481549495869586959194938693670de0b6b3a764000092600160a01b90910460ff16908110613a4057613a40614fed565b906000526020600020906003020160000154613a5c9190614ed7565b613a669190614f04565b90508260030154600014613a7e578260030154613a80565b805b600254604051631685774f60e01b81526001600160a01b038b81166004830152336024830152929850911690631685774f90604401602060405180830381865afa158015613ad2573d6000803e3d6000fd5b505050506040513d601f19601f82011682018060405250810190613af69190614f94565b6003909201549598919750506001600160a01b039094169450505050565b600260005403613b665760405162461bcd60e51b815260206004820152601f60248201527f5265656e7472616e637947756172643a207265656e7472616e742063616c6c006044820152606401610da6565b6002600055565b6001600160a01b038084166000908152600c60209081526040808320600281015485168452600b9092528220600382015492939192909186811691161480613bc4575060028201546001600160a01b038681169116145b80613be05750856001600160a01b0316856001600160a01b0316145b613be957600080fd5b6040516323b872dd60e01b81526001600160a01b038616906323b872dd90613c1990339030908990600401614f3a565b6020604051808303816000875af1158015613c38573d6000803e3d6000fd5b505050506040513d601f19601f82011682018060405250810190613c5c9190614f5e565b613c6557600080fd5b600181015460405163095ea7b360e01b81526001600160a01b038781169263095ea7b392613c9b92909116908890600401614f7b565b6020604051808303816000875af1158015613cba573d6000803e3d6000fd5b505050506040513d601f19601f82011682018060405250810190613cde9190614f5e565b613ce757600080fd5b6001810154604051635e1326fb60e01b81526001600160a01b0390911690635e1326fb90613d1d90899089908990600401614f3a565b6020604051808303816000875af1158015613d3c573d6000803e3d6000fd5b505050506040513d601f19601f82011682018060405250810190613d609190614f94565b925060008311613d6f57600080fd5b50509392505050565b600254604051631685774f60e01b81526001600160a01b0384811660048301523360248301526000928392911690631685774f90604401602060405180830381865afa158015613dcc573d6000803e3d6000fd5b505050506040513d601f19601f82011682018060405250810190613df09190614f94565b90506000612710613e018388614ed7565b613e0b9190614f04565b90508015613efa5760025460405163095ea7b360e01b81526001600160a01b038681169263095ea7b392613e4792909116908590600401614f7b565b6020604051808303816000875af1158015613e66573d6000803e3d6000fd5b505050506040513d601f19601f82011682018060405250810190613e8a9190614f5e565b613e9357600080fd5b60025460405163ccb9132960e01b8152600481018390526001600160a01b0387811660248301529091169063ccb9132990604401600060405180830381600087803b158015613ee157600080fd5b505af1158015613ef5573d6000803e3d6000fd5b505050505b613f048187614fad565b9695505050505050565b60008082613f1e85612710614ed7565b613f289190614f04565b905061251c8111613f3c5784915050611b20565b6000613f4a82612710614fad565b9050600081613f598189614ed7565b613f639190614ed7565b90506203d090613f738183614f04565b98975050505050505050565b6000808660000160009054906101000a90046001600160a01b03166001600160a01b03166369e154046040518163ffffffff1660e01b81526004016020604051808303816000875af1158015613fd9573d6000803e3d6000fd5b505050506040513d601f19601f82011682018060405250810190613ffd9190614f94565b90508034146140415760405162461bcd60e51b815260206004820152601060248201526f496e73756666696369656e742066656560801b6044820152606401610da6565b86546040516313b63a9f60e01b81526001600160a01b03909116906313b63a9f908390614086908a908a906064908b908b906103e89060009081908190600401615114565b60206040518083038185885af11580156140a4573d6000803e3d6000fd5b50505050506040513d601f19601f820116820180604052508101906140c99190615179565b6040805160018082528183019092529193506000919060208083019080368337019050509050338160008151811061410357614103614fed565b6001600160a01b039283166020918202929092010152604051632bcf8fa160e01b815290841690632bcf8fa190614141908490600090600401615196565b600060405180830381600087803b15801561415b57600080fd5b505af115801561416f573d6000803e3d6000fd5b50505050505095945050505050565b80516002811080159061419357506009548111155b6141ce5760405162461bcd60e51b815260206004820152600c60248201526b426164206f7574636f6d657360a01b6044820152606401610da6565b6000806141da83612a61565b915091506040518061018001604052808b6001600160a01b03168152602001336001600160a01b031681526020018a6001600160a01b03168152602001896001600160a01b0316815260200188815260200142815260200187815260200160ff8016815260200160001515815260200186815260200182815260200160001515815250600c60008c6001600160a01b03166001600160a01b0316815260200190815260200160002060008201518160000160006101000a8154816001600160a01b0302191690836001600160a01b0316021790555060208201518160010160006101000a8154816001600160a01b0302191690836001600160a01b0316021790555060408201518160020160006101000a8154816001600160a01b0302191690836001600160a01b0316021790555060608201518160030160006101000a8154816001600160a01b0302191690836001600160a01b03160217905550608082015181600401908161434b9190615221565b5060a0820151600582015560c0820151600682015560e08201516007820180546101008086015160ff90941661ffff1990921691909117921515029190911790556101208201516008820155610140820151600982015561016090910151600a909101805460ff19169115159190911790556001600160a01b038a166000908152600d6020908152604090912085516143e69287019061446f565b5060005b838160ff161015614462576001600160a01b038b166000908152600e60209081526040808320815160608101835287815280840185815292810185815282546001818101855593875294909520905160039094020192835590519082015590516002909101558061445a8161504b565b9150506143ea565b5050505050505050505050565b8280548282559060005260206000209081019282156144b5579160200282015b828111156144b557825182906144a59082615221565b509160200191906001019061448f565b506144c19291506144c5565b5090565b808211156144c15760006144d982826144e2565b506001016144c5565b5080546144ee9061506a565b6000825580601f106144fe575050565b601f016020900490600052602060002090810190612f8a91905b808211156144c15760008155600101614518565b6001600160a01b0381168114612f8a57600080fd5b80356139ce8161452c565b60008060006060848603121561456157600080fd5b833561456c8161452c565b95602085013595506040909401359392505050565b6000806040838503121561459457600080fd5b823561459f8161452c565b946020939093013593505050565b6000602082840312156145bf57600080fd5b8135611b208161452c565b600080600080608085870312156145e057600080fd5b84356145eb8161452c565b935060208501356145fb8161452c565b9250604085013561460b8161452c565b9150606085013561461b8161452c565b939692955090935050565b8015158114612f8a57600080fd5b80356139ce81614626565b60008060006060848603121561465457600080fd5b833561465f8161452c565b925060208401359150604084013561467681614626565b809150509250925092565b60006020828403121561469357600080fd5b5035919050565b803560ff811681146139ce57600080fd5b600080600080608085870312156146c157600080fd5b84356146cc8161452c565b93506146da6020860161469a565b93969395505050506040820135916060013590565b60008060008060008060c0878903121561470857600080fd5b86356147138161452c565b95506147216020880161469a565b945060408701356147318161452c565b959894975094956060810135955060808101359460a0909101359350915050565b60008060006060848603121561476757600080fd5b83356147728161452c565b925060208401356147828161452c565b91506147906040850161469a565b90509250925092565b600080604083850312156147ac57600080fd5b82356147b78161452c565b91506147c56020840161469a565b90509250929050565b6000815180845260005b818110156147f4576020818501810151868301820152016147d8565b506000602082860101526020601f19601f83011685010191505092915050565b602081526000611b2060208301846147ce565b6000806040838503121561483a57600080fd5b82356148458161452c565b915060208301356148558161452c565b809150509250929050565b60008083601f84011261487257600080fd5b50813567ffffffffffffffff81111561488a57600080fd5b6020830191508360208260051b85010111156148a557600080fd5b9250929050565b600080600080606085870312156148c257600080fd5b84356148cd8161452c565b9350602085013567ffffffffffffffff8111156148e957600080fd5b6148f587828801614860565b9598909750949560400135949350505050565b600060208083016020845280855180835260408601915060408160051b87010192506020870160005b8281101561495f57603f1988860301845261494d8583516147ce565b94509285019290850190600101614931565b5092979650505050505050565b634e487b7160e01b600052604160045260246000fd5b604051601f8201601f1916810167ffffffffffffffff811182821017156149ab576149ab61496c565b604052919050565b600067ffffffffffffffff8211156149cd576149cd61496c565b5060051b60200190565b600082601f8301126149e857600080fd5b813567ffffffffffffffff811115614a0257614a0261496c565b614a15601f8201601f1916602001614982565b818152846020838601011115614a2a57600080fd5b816020850160208301376000918101602001919091529392505050565b60008060008060808587031215614a5d57600080fd5b843567ffffffffffffffff80821115614a7557600080fd5b818701915087601f830112614a8957600080fd5b81356020614a9e614a99836149b3565b614982565b82815260059290921b8401810191818101908b841115614abd57600080fd5b948201945b83861015614ae4578535614ad58161452c565b82529482019490820190614ac2565b9850508801359550506040870135915080821115614b0157600080fd5b50614b0e878288016149d7565b925050614b1d60608601614541565b905092959194509250565b60008060008060808587031215614b3e57600080fd5b5050823594602084013594506040840135936060013592509050565b60208152614b746020820183516001600160a01b03169052565b60006020830151614b9060408401826001600160a01b03169052565b5060408301516001600160a01b03811660608401525060608301516001600160a01b03811660808401525060808301516101808060a0850152614bd76101a08501836147ce565b915060a085015160c085015260c085015160e085015260e0850151610100614c038187018360ff169052565b8601519050610120614c188682018315159052565b860151610140868101919091528601516101608087019190915290950151151593019290925250919050565b6001600160a01b038d811682528c811660208301528b811660408301528a16606082015261018060808201819052600090614c819083018b6147ce565b90508860a08301528760c083015260ff871660e08301528515156101008301528461012083015283610140830152614cbe61016083018415159052565b9d9c50505050505050505050505050565b600082601f830112614ce057600080fd5b81356020614cf0614a99836149b3565b82815260059290921b84018101918181019086841115614d0f57600080fd5b8286015b84811015614d4f57803567ffffffffffffffff811115614d335760008081fd5b614d418986838b01016149d7565b845250918301918301614d13565b509695505050505050565b600080600080600080600080610100898b031215614d7757600080fd5b883567ffffffffffffffff80821115614d8f57600080fd5b614d9b8c838d016149d7565b995060208b0135915080821115614db157600080fd5b614dbd8c838d016149d7565b985060408b0135975060608b0135915080821115614dda57600080fd5b50614de78b828c01614ccf565b955050614df660808a01614541565b9350614e0460a08a01614634565b925060c0890135915060e089013590509295985092959890939650565b600080600080600080600060c0888a031215614e3c57600080fd5b8735614e478161452c565b9650614e556020890161469a565b9550604088013567ffffffffffffffff811115614e7157600080fd5b614e7d8a828b01614860565b9096509450506060880135614e918161452c565b969995985093969295946080840135945060a09093013592915050565b634e487b7160e01b600052601160045260246000fd5b808201808211156136b8576136b8614eae565b80820281158282048414176136b8576136b8614eae565b634e487b7160e01b600052601260045260246000fd5b600082614f1357614f13614eee565b500490565b6020808252600890820152674f6e6c792043454f60c01b604082015260600190565b6001600160a01b039384168152919092166020820152604081019190915260600190565b600060208284031215614f7057600080fd5b8151611b2081614626565b6001600160a01b03929092168252602082015260400190565b600060208284031215614fa657600080fd5b5051919050565b818103818111156136b8576136b8614eae565b600082614fcf57614fcf614eee565b500690565b600060018201614fe657614fe6614eae565b5060010190565b634e487b7160e01b600052603260045260246000fd5b8581526020810185905260a081016002851061502f57634e487b7160e01b600052602160045260246000fd5b8460408301528360608301528260808301529695505050505050565b600060ff821660ff810361506157615061614eae565b60010192915050565b600181811c9082168061507e57607f821691505b60208210810361509e57634e487b7160e01b600052602260045260246000fd5b50919050565b60008151808452602080850194506020840160005b838110156150de5781516001600160a01b0316875295820195908201906001016150b9565b509495945050505050565b6060815260006150fc60608301866150a4565b8460208401528281036040840152613f0481856147ce565b60006101208083526151288184018d6147ce565b9050828103602084015261513c818c6147ce565b604084019a909a5250509515156060870152608086019490945260a0850192909252151560c084015260e083015215156101009091015292915050565b60006020828403121561518b57600080fd5b8151611b208161452c565b6060815260006151a960608301856150a4565b8360208401528281036040840152600781526621b932b0ba37b960c91b6020820152604081019150509392505050565b601f821115611d9d576000816000526020600020601f850160051c810160208610156152025750805b601f850160051c820191505b81811015611ae65782815560010161520e565b815167ffffffffffffffff81111561523b5761523b61496c565b61524f81615249845461506a565b846151d9565b602080601f831160018114615284576000841561526c5750858301515b600019600386901b1c1916600185901b178555611ae6565b600085815260208120601f198616915b828110156152b357888601518255948401946001909101908401615294565b50858210156152d15787850151600019600388901b60f8161c191681555b5050505050600190811b0190555056fea26469706673582212208b2a2fa1fa227a5e281885ae30d51a7d847cbfcf19603a552c3824c2d09693cf64736f6c63430008180033",
  "linkReferences": {},
  "deployedLinkReferences": {}
}