{
  "_format": "hh-sol-artifact-1",
  "contractName": "AMarketResolver",
  "sourceName": "contracts/MarketResolver.sol",
  "abi": [
    {
      "inputs": [
        {
          "internalType": "address",
          "name": "_trading",
          "type": "address"
        }
      ],
      "stateMutability": "nonpayable",
      "type": "constructor"
    },
    {
      "anonymous": false,
      "inputs": [
        {
          "indexed": true,
          "internalType": "address",
          "name": "marketToken",
          "type": "address"
        },
        {
          "indexed": false,
          "internalType": "address",
          "name": "winner",
          "type": "address"
        },
        {
          "indexed": false,
          "internalType": "uint256",
          "name": "totalAmount",
          "type": "uint256"
        }
      ],
      "name": "BondsDistributed",
      "type": "event"
    },
    {
      "anonymous": false,
      "inputs": [
        {
          "indexed": true,
          "internalType": "address",
          "name": "marketToken",
          "type": "address"
        },
        {
          "indexed": false,
          "internalType": "uint256",
          "name": "totalAmount",
          "type": "uint256"
        }
      ],
      "name": "BondsSeized",
      "type": "event"
    },
    {
      "anonymous": false,
      "inputs": [
        {
          "indexed": true,
          "internalType": "address",
          "name": "marketToken",
          "type": "address"
        },
        {
          "indexed": false,
          "internalType": "address",
          "name": "claimer",
          "type": "address"
        },
        {
          "indexed": false,
          "internalType": "uint256",
          "name": "usdcAmount",
          "type": "uint256"
        }
      ],
      "name": "BountyClaimed",
      "type": "event"
    },
    {
      "anonymous": false,
      "inputs": [
        {
          "indexed": true,
          "internalType": "address",
          "name": "marketToken",
          "type": "address"
        }
      ],
      "name": "DisputeReset",
      "type": "event"
    },
    {
      "anonymous": false,
      "inputs": [
        {
          "indexed": true,
          "internalType": "address",
          "name": "marketToken",
          "type": "address"
        },
        {
          "indexed": false,
          "internalType": "address",
          "name": "disputer",
          "type": "address"
        },
        {
          "indexed": false,
          "internalType": "uint8",
          "name": "newOutcomeId",
          "type": "uint8"
        },
        {
          "indexed": false,
          "internalType": "uint256",
          "name": "bond",
          "type": "uint256"
        }
      ],
      "name": "DisputeStarted",
      "type": "event"
    },
    {
      "anonymous": false,
      "inputs": [
        {
          "indexed": true,
          "internalType": "address",
          "name": "marketToken",
          "type": "address"
        },
        {
          "indexed": false,
          "internalType": "address",
          "name": "proposer",
          "type": "address"
        },
        {
          "indexed": false,
          "internalType": "uint8",
          "name": "outcomeId",
          "type": "uint8"
        }
      ],
      "name": "Proposal",
      "type": "event"
    },
    {
      "anonymous": false,
      "inputs": [
        {
          "indexed": true,
          "internalType": "address",
          "name": "marketToken",
          "type": "address"
        },
        {
          "indexed": false,
          "internalType": "uint8",
          "name": "finalOutcome",
          "type": "uint8"
        }
      ],
      "name": "Resolved",
      "type": "event"
    },
    {
      "anonymous": false,
      "inputs": [
        {
          "indexed": true,
          "internalType": "address",
          "name": "marketToken",
          "type": "address"
        },
        {
          "indexed": true,
          "internalType": "address",
          "name": "vetoer",
          "type": "address"
        },
        {
          "indexed": false,
          "internalType": "uint8",
          "name": "proposedOutcome",
          "type": "uint8"
        },
        {
          "indexed": false,
          "internalType": "uint256",
          "name": "bond",
          "type": "uint256"
        }
      ],
      "name": "Vetoed",
      "type": "event"
    },
    {
      "anonymous": false,
      "inputs": [
        {
          "indexed": true,
          "internalType": "address",
          "name": "marketToken",
          "type": "address"
        },
        {
          "indexed": false,
          "internalType": "address",
          "name": "voter",
          "type": "address"
        },
        {
          "indexed": false,
          "internalType": "uint8",
          "name": "outcomeId",
          "type": "uint8"
        }
      ],
      "name": "Vote",
      "type": "event"
    },
    {
      "inputs": [],
      "name": "CEO",
      "outputs": [
        {
          "internalType": "address",
          "name": "",
          "type": "address"
        }
      ],
      "stateMutability": "view",
      "type": "function"
    },
    {
      "inputs": [],
      "name": "DISPUTE_PERIOD",
      "outputs": [
        {
          "internalType": "uint256",
          "name": "",
          "type": "uint256"
        }
      ],
      "stateMutability": "view",
      "type": "function"
    },
    {
      "inputs": [],
      "name": "MAX_QUORUM",
      "outputs": [
        {
          "internalType": "uint256",
          "name": "",
          "type": "uint256"
        }
      ],
      "stateMutability": "view",
      "type": "function"
    },
    {
      "inputs": [],
      "name": "MIN_QUORUM",
      "outputs": [
        {
          "internalType": "uint256",
          "name": "",
          "type": "uint256"
        }
      ],
      "stateMutability": "view",
      "type": "function"
    },
    {
      "inputs": [],
      "name": "MIN_STAKE_AMOUNT",
      "outputs": [
        {
          "internalType": "uint256",
          "name": "",
          "type": "uint256"
        }
      ],
      "stateMutability": "view",
      "type": "function"
    },
    {
      "inputs": [],
      "name": "ONE_USD",
      "outputs": [
        {
          "internalType": "uint256",
          "name": "",
          "type": "uint256"
        }
      ],
      "stateMutability": "view",
      "type": "function"
    },
    {
      "inputs": [],
      "name": "OUTCOME_EARLY",
      "outputs": [
        {
          "internalType": "uint8",
          "name": "",
          "type": "uint8"
        }
      ],
      "stateMutability": "view",
      "type": "function"
    },
    {
      "inputs": [],
      "name": "OUTCOME_INVALID",
      "outputs": [
        {
          "internalType": "uint8",
          "name": "",
          "type": "uint8"
        }
      ],
      "stateMutability": "view",
      "type": "function"
    },
    {
      "inputs": [],
      "name": "OUTCOME_UNRESOLVED",
      "outputs": [
        {
          "internalType": "uint8",
          "name": "",
          "type": "uint8"
        }
      ],
      "stateMutability": "view",
      "type": "function"
    },
    {
      "inputs": [],
      "name": "PROPOSAL_BOND",
      "outputs": [
        {
          "internalType": "uint256",
          "name": "",
          "type": "uint256"
        }
      ],
      "stateMutability": "view",
      "type": "function"
    },
    {
      "inputs": [],
      "name": "PROPOSAL_PERIOD",
      "outputs": [
        {
          "internalType": "uint256",
          "name": "",
          "type": "uint256"
        }
      ],
      "stateMutability": "view",
      "type": "function"
    },
    {
      "inputs": [],
      "name": "VETO_PERIOD",
      "outputs": [
        {
          "internalType": "uint256",
          "name": "",
          "type": "uint256"
        }
      ],
      "stateMutability": "view",
      "type": "function"
    },
    {
      "inputs": [],
      "name": "VOTE_LOCK_DURATION",
      "outputs": [
        {
          "internalType": "uint256",
          "name": "",
          "type": "uint256"
        }
      ],
      "stateMutability": "view",
      "type": "function"
    },
    {
      "inputs": [],
      "name": "VOTING_CONSENSUS",
      "outputs": [
        {
          "internalType": "uint256",
          "name": "",
          "type": "uint256"
        }
      ],
      "stateMutability": "view",
      "type": "function"
    },
    {
      "inputs": [
        {
          "internalType": "address",
          "name": "",
          "type": "address"
        },
        {
          "internalType": "address",
          "name": "",
          "type": "address"
        }
      ],
      "name": "bountyClaimed",
      "outputs": [
        {
          "internalType": "bool",
          "name": "",
          "type": "bool"
        }
      ],
      "stateMutability": "view",
      "type": "function"
    },
    {
      "inputs": [
        {
          "internalType": "address",
          "name": "",
          "type": "address"
        },
        {
          "internalType": "uint256",
          "name": "",
          "type": "uint256"
        },
        {
          "internalType": "address",
          "name": "",
          "type": "address"
        }
      ],
      "name": "bountyEarlyClaimed",
      "outputs": [
        {
          "internalType": "bool",
          "name": "",
          "type": "bool"
        }
      ],
      "stateMutability": "view",
      "type": "function"
    },
    {
      "inputs": [
        {
          "internalType": "address",
          "name": "",
          "type": "address"
        },
        {
          "internalType": "uint256",
          "name": "",
          "type": "uint256"
        }
      ],
      "name": "bountyPerCorrectEarlyVoteForRound",
      "outputs": [
        {
          "internalType": "uint256",
          "name": "",
          "type": "uint256"
        }
      ],
      "stateMutability": "view",
      "type": "function"
    },
    {
      "inputs": [
        {
          "internalType": "address",
          "name": "",
          "type": "address"
        }
      ],
      "name": "bountyPerCorrectVote",
      "outputs": [
        {
          "internalType": "uint256",
          "name": "",
          "type": "uint256"
        }
      ],
      "stateMutability": "view",
      "type": "function"
    },
    {
      "inputs": [
        {
          "internalType": "address",
          "name": "marketToken",
          "type": "address"
        }
      ],
      "name": "claimBounty",
      "outputs": [],
      "stateMutability": "nonpayable",
      "type": "function"
    },
    {
      "inputs": [
        {
          "internalType": "address",
          "name": "marketToken",
          "type": "address"
        },
        {
          "internalType": "uint256",
          "name": "round",
          "type": "uint256"
        }
      ],
      "name": "claimEarlyBounty",
      "outputs": [],
      "stateMutability": "nonpayable",
      "type": "function"
    },
    {
      "inputs": [
        {
          "internalType": "uint256",
          "name": "dp",
          "type": "uint256"
        },
        {
          "internalType": "uint256",
          "name": "pp",
          "type": "uint256"
        },
        {
          "internalType": "uint256",
          "name": "vp",
          "type": "uint256"
        },
        {
          "internalType": "uint256",
          "name": "pb",
          "type": "uint256"
        },
        {
          "internalType": "uint256",
          "name": "mq",
          "type": "uint256"
        },
        {
          "internalType": "uint256",
          "name": "maxq",
          "type": "uint256"
        },
        {
          "internalType": "uint256",
          "name": "vc",
          "type": "uint256"
        }
      ],
      "name": "configResolver",
      "outputs": [],
      "stateMutability": "nonpayable",
      "type": "function"
    },
    {
      "inputs": [
        {
          "internalType": "address",
          "name": "",
          "type": "address"
        }
      ],
      "name": "currentRound",
      "outputs": [
        {
          "internalType": "uint256",
          "name": "",
          "type": "uint256"
        }
      ],
      "stateMutability": "view",
      "type": "function"
    },
    {
      "inputs": [
        {
          "internalType": "address",
          "name": "marketToken",
          "type": "address"
        },
        {
          "internalType": "uint8",
          "name": "newOutcomeId",
          "type": "uint8"
        }
      ],
      "name": "dispute",
      "outputs": [],
      "stateMutability": "nonpayable",
      "type": "function"
    },
    {
      "inputs": [
        {
          "internalType": "address",
          "name": "",
          "type": "address"
        }
      ],
      "name": "disputes",
      "outputs": [
        {
          "internalType": "address",
          "name": "proposer",
          "type": "address"
        },
        {
          "internalType": "address",
          "name": "disputer",
          "type": "address"
        },
        {
          "internalType": "address",
          "name": "vetoer",
          "type": "address"
        },
        {
          "internalType": "uint8",
          "name": "originalOutcome",
          "type": "uint8"
        },
        {
          "internalType": "uint8",
          "name": "disputedOutcome",
          "type": "uint8"
        },
        {
          "internalType": "uint8",
          "name": "vetoOutcome",
          "type": "uint8"
        },
        {
          "internalType": "uint256",
          "name": "proposerBond",
          "type": "uint256"
        },
        {
          "internalType": "uint256",
          "name": "disputerBond",
          "type": "uint256"
        },
        {
          "internalType": "uint256",
          "name": "vetoBond",
          "type": "uint256"
        },
        {
          "internalType": "uint256",
          "name": "disputeStartTime",
          "type": "uint256"
        }
      ],
      "stateMutability": "view",
      "type": "function"
    },
    {
      "inputs": [
        {
          "internalType": "address",
          "name": "marketToken",
          "type": "address"
        }
      ],
      "name": "finalOutcome",
      "outputs": [
        {
          "internalType": "uint8",
          "name": "",
          "type": "uint8"
        }
      ],
      "stateMutability": "view",
      "type": "function"
    },
    {
      "inputs": [
        {
          "internalType": "address",
          "name": "marketToken",
          "type": "address"
        }
      ],
      "name": "finalizeMarket",
      "outputs": [],
      "stateMutability": "nonpayable",
      "type": "function"
    },
    {
      "inputs": [
        {
          "internalType": "address",
          "name": "marketToken",
          "type": "address"
        }
      ],
      "name": "finalizeUncontested",
      "outputs": [],
      "stateMutability": "nonpayable",
      "type": "function"
    },
    {
      "inputs": [
        {
          "internalType": "address",
          "name": "",
          "type": "address"
        }
      ],
      "name": "inDispute",
      "outputs": [
        {
          "internalType": "bool",
          "name": "",
          "type": "bool"
        }
      ],
      "stateMutability": "view",
      "type": "function"
    },
    {
      "inputs": [
        {
          "internalType": "address",
          "name": "",
          "type": "address"
        }
      ],
      "name": "inVeto",
      "outputs": [
        {
          "internalType": "bool",
          "name": "",
          "type": "bool"
        }
      ],
      "stateMutability": "view",
      "type": "function"
    },
    {
      "inputs": [
        {
          "internalType": "address",
          "name": "",
          "type": "address"
        }
      ],
      "name": "isVoter",
      "outputs": [
        {
          "internalType": "bool",
          "name": "",
          "type": "bool"
        }
      ],
      "stateMutability": "view",
      "type": "function"
    },
    {
      "inputs": [
        {
          "internalType": "address",
          "name": "",
          "type": "address"
        }
      ],
      "name": "lastVoteTime",
      "outputs": [
        {
          "internalType": "uint256",
          "name": "",
          "type": "uint256"
        }
      ],
      "stateMutability": "view",
      "type": "function"
    },
    {
      "inputs": [
        {
          "internalType": "address",
          "name": "",
          "type": "address"
        },
        {
          "internalType": "uint256",
          "name": "",
          "type": "uint256"
        },
        {
          "internalType": "address",
          "name": "",
          "type": "address"
        }
      ],
      "name": "nftHasVoted",
      "outputs": [
        {
          "internalType": "bool",
          "name": "",
          "type": "bool"
        }
      ],
      "stateMutability": "view",
      "type": "function"
    },
    {
      "inputs": [
        {
          "internalType": "address",
          "name": "",
          "type": "address"
        },
        {
          "internalType": "uint256",
          "name": "",
          "type": "uint256"
        },
        {
          "internalType": "uint8",
          "name": "",
          "type": "uint8"
        }
      ],
      "name": "nftVoteCount",
      "outputs": [
        {
          "internalType": "uint256",
          "name": "",
          "type": "uint256"
        }
      ],
      "stateMutability": "view",
      "type": "function"
    },
    {
      "inputs": [
        {
          "internalType": "address",
          "name": "marketToken",
          "type": "address"
        },
        {
          "internalType": "uint8",
          "name": "outcomeId",
          "type": "uint8"
        }
      ],
      "name": "proposeOutcome",
      "outputs": [],
      "stateMutability": "nonpayable",
      "type": "function"
    },
    {
      "inputs": [
        {
          "internalType": "contract IERC20",
          "name": "token",
          "type": "address"
        }
      ],
      "name": "rescueToken",
      "outputs": [],
      "stateMutability": "nonpayable",
      "type": "function"
    },
    {
      "inputs": [
        {
          "internalType": "address",
          "name": "marketToken",
          "type": "address"
        },
        {
          "internalType": "uint8",
          "name": "outcomeId",
          "type": "uint8"
        }
      ],
      "name": "resolveByBasis",
      "outputs": [],
      "stateMutability": "nonpayable",
      "type": "function"
    },
    {
      "inputs": [
        {
          "internalType": "address",
          "name": "marketToken",
          "type": "address"
        }
      ],
      "name": "resolved",
      "outputs": [
        {
          "internalType": "bool",
          "name": "",
          "type": "bool"
        }
      ],
      "stateMutability": "view",
      "type": "function"
    },
    {
      "inputs": [
        {
          "internalType": "address",
          "name": "trader",
          "type": "address"
        }
      ],
      "name": "setPredictionTrader",
      "outputs": [],
      "stateMutability": "nonpayable",
      "type": "function"
    },
    {
      "inputs": [
        {
          "internalType": "address",
          "name": "token",
          "type": "address"
        }
      ],
      "name": "stake",
      "outputs": [],
      "stateMutability": "nonpayable",
      "type": "function"
    },
    {
      "inputs": [
        {
          "internalType": "address",
          "name": "wallet",
          "type": "address"
        }
      ],
      "name": "toggleVoterWallet",
      "outputs": [],
      "stateMutability": "nonpayable",
      "type": "function"
    },
    {
      "inputs": [],
      "name": "trading",
      "outputs": [
        {
          "internalType": "contract IMarketTrading",
          "name": "",
          "type": "address"
        }
      ],
      "stateMutability": "view",
      "type": "function"
    },
    {
      "inputs": [
        {
          "internalType": "address",
          "name": "token",
          "type": "address"
        }
      ],
      "name": "unstake",
      "outputs": [],
      "stateMutability": "nonpayable",
      "type": "function"
    },
    {
      "inputs": [
        {
          "internalType": "address",
          "name": "",
          "type": "address"
        }
      ],
      "name": "userStakedAmount",
      "outputs": [
        {
          "internalType": "uint256",
          "name": "",
          "type": "uint256"
        }
      ],
      "stateMutability": "view",
      "type": "function"
    },
    {
      "inputs": [
        {
          "internalType": "address",
          "name": "marketToken",
          "type": "address"
        },
        {
          "internalType": "uint8",
          "name": "proposedOutcome",
          "type": "uint8"
        }
      ],
      "name": "veto",
      "outputs": [],
      "stateMutability": "nonpayable",
      "type": "function"
    },
    {
      "inputs": [
        {
          "internalType": "address",
          "name": "marketToken",
          "type": "address"
        },
        {
          "internalType": "uint8",
          "name": "outcomeId",
          "type": "uint8"
        }
      ],
      "name": "vote",
      "outputs": [],
      "stateMutability": "nonpayable",
      "type": "function"
    },
    {
      "inputs": [
        {
          "internalType": "address",
          "name": "",
          "type": "address"
        },
        {
          "internalType": "uint256",
          "name": "",
          "type": "uint256"
        },
        {
          "internalType": "address",
          "name": "",
          "type": "address"
        }
      ],
      "name": "voterChoice",
      "outputs": [
        {
          "internalType": "uint8",
          "name": "",
          "type": "uint8"
        }
      ],
      "stateMutability": "view",
      "type": "function"
    }
  ],
  "bytecode": "0x6080604052610708600355610708600455610708600555670de0b6b3a764000060056200002d9190620000bb565b600655600260075560646008556046600955674563918244f40000601755620151806018553480156200005f57600080fd5b50604051620050f5380380620050f58339810160408190526200008291620000e7565b600160008190558054336001600160a01b031991821617909155600280549091166001600160a01b039290921691909117905562000119565b8082028115828204841417620000e157634e487b7160e01b600052601160045260246000fd5b92915050565b600060208284031215620000fa57600080fd5b81516001600160a01b03811681146200011257600080fd5b9392505050565b614fcc80620001296000396000f3fe608060405234801561001057600080fd5b50600436106102895760003560e01c806398ff80751161015c578063d2cbc867116100ce578063e562681811610087578063e562681814610712578063e861dc8514610743578063ec44acf21461074c578063f166c5c41461075f578063f2888dbb14610768578063f34cacef1461077b57600080fd5b8063d2cbc86714610683578063d67bd1ee1461068c578063d87ed5e0146106af578063dcbae535146106b8578063e25dd534146106cb578063e3248e96146106de57600080fd5b8063a7b23fcf11610120578063a7b23fcf14610546578063ab6956a614610566578063ae55948c14610579578063b0103b1a1461058c578063b2072d3114610668578063bceb514d1461067057600080fd5b806398ff8075146104c95780639dc6f078146104dc578063a1088571146104ef578063a5bbe22b1461051a578063a7771ee31461052357600080fd5b80634460d3cf116102005780636ab3bb7a116101b95780636ab3bb7a1461043c578063719f409c146104675780637e3681bd1461047a5780638e4647ee146104835780638ec181ed146104a35780639526b8d0146104b657600080fd5b80634460d3cf146103d55780635268ae57146103e85780635360aa6c146103f15780635c481719146104045780635f3ad7091461042457806367781c0e1461042d57600080fd5b8063152ab83211610252578063152ab83214610347578063182e562d1461035a578063264762041461037d57806327ed71881461039057806336641c101461039957806338e9c321146103a157600080fd5b8062ae25241461028e578063036f712f146102c15780630523725a146102d65780630866f3d1146102f0578063151a52c614610303575b600080fd5b6102ae61029c3660046149e5565b60196020526000908152604090205481565b6040519081526020015b60405180910390f35b6102d46102cf3660046149e5565b6107a9565b005b6102de60fe81565b60405160ff90911681526020016102b8565b6102d46102fe366004614a18565b610805565b610337610311366004614a51565b601460209081526000938452604080852082529284528284209052825290205460ff1681565b60405190151581526020016102b8565b6102de6103553660046149e5565b610d20565b6103376103683660046149e5565b600b6020526000908152604090205460ff1681565b6102d461038b3660046149e5565b610d9d565b6102ae60175481565b6102de60ff81565b6103376103af366004614a51565b600f60209081526000938452604080852082529284528284209052825290205460ff1681565b6102d46103e33660046149e5565b610f46565b6102ae60185481565b6102d46103ff3660046149e5565b611050565b6102ae6104123660046149e5565b60116020526000908152604090205481565b6102ae60075481565b6102ae670de0b6b3a764000081565b6102ae61044a366004614a93565b601260209081526000928352604080842090915290825290205481565b6102d4610475366004614a18565b61109c565b6102ae60065481565b6102ae6104913660046149e5565b60156020526000908152604090205481565b6102d46104b1366004614a93565b61154c565b6102d46104c43660046149e5565b611897565b6102d46104d73660046149e5565b611fb4565b6102d46104ea366004614a18565b6122dd565b600154610502906001600160a01b031681565b6040516001600160a01b0390911681526020016102b8565b6102ae60035481565b6103376105313660046149e5565b60166020526000908152604090205460ff1681565b6102ae6105543660046149e5565b600d6020526000908152604090205481565b6102d4610574366004614a18565b6126e4565b6103376105873660046149e5565b613468565b61060661059a3660046149e5565b600a6020526000908152604090208054600182015460028301546003840154600485015460058601546006909601546001600160a01b03958616969486169584169460ff600160a01b8604811695600160a81b8104821695600160b01b9091049091169390929091908a565b604080516001600160a01b039b8c168152998b1660208b0152979099169688019690965260ff94851660608801529284166080870152921660a085015260c084019190915260e0830152610100820152610120810191909152610140016102b8565b6102de60fd81565b6102d461067e366004614a18565b6134e6565b6102ae60085481565b61033761069a3660046149e5565b600c6020526000908152604090205460ff1681565b6102ae60045481565b6102d46106c63660046149e5565b613893565b6102d46106d9366004614abf565b613b97565b6102de6106ec366004614a51565b601060209081526000938452604080852082529284528284209052825290205460ff1681565b6102ae610720366004614b0b565b600e60209081526000938452604080852082529284528284209052825290205481565b6102ae60055481565b600254610502906001600160a01b031681565b6102ae60095481565b6102d46107763660046149e5565b613c83565b610337610789366004614b42565b601360209081526000928352604080842090915290825290205460ff1681565b6001546001600160a01b031633146107dc5760405162461bcd60e51b81526004016107d390614b70565b60405180910390fd5b6001600160a01b03166000908152601660205260409020805460ff19811660ff90911615179055565b61080d613ec8565b60025460405163a30c302d60e01b81526001600160a01b038481166004830152600092169063a30c302d90602401600060405180830381865afa158015610858573d6000803e3d6000fd5b505050506040513d6000823e601f3d908101601f191682016040526108809190810190614cb3565b6001600160a01b038085166000818152600a60205260409020835193945092909116146108e05760405162461bcd60e51b815260206004820152600e60248201526d125b9d985b1a59081b585c9ad95d60921b60448201526064016107d3565b816101000151156109265760405162461bcd60e51b815260206004820152601060248201526f105b1c9958591e481c995cdbdb1d995960821b60448201526064016107d3565b6001600160a01b0384166000908152600b602052604090205460ff166109a35760405162461bcd60e51b815260206004820152602c60248201527f5665746f206f6e6c7920616c6c6f776564206f6e2064697370757465642f766f60448201526b74696e67206d61726b65747360a01b60648201526084016107d3565b6001600160a01b0384166000908152600c602052604090205460ff1615610a055760405162461bcd60e51b81526020600482015260166024820152755665746f206f6e6c7920616c6c6f776564206f6e636560501b60448201526064016107d3565b60028101546001600160a01b031615610a515760405162461bcd60e51b815260206004820152600e60248201526d105b1c9958591e481d995d1bd95960921b60448201526064016107d3565b600281015460ff808516600160a81b9092041603610abb5760405162461bcd60e51b815260206004820152602160248201527f43616e74207665746f2070726f706f73652064697370757465206f7574636f6d6044820152606560f81b60648201526084016107d3565b6003548160060154610acd9190614dce565b421015610b1c5760405162461bcd60e51b815260206004820152601b60248201527f5665746f2077696e646f77206e6f74207374617274656420796574000000000060448201526064016107d3565b60025460405163371a40e160e21b81526001600160a01b038681166004830152600092169063dc69038490602401602060405180830381865afa158015610b67573d6000803e3d6000fd5b505050506040513d601f19601f82011682018060405250810190610b8b9190614de1565b9050808460ff161080610ba1575060ff841660fe145b610bdf5760405162461bcd60e51b815260206004820152600f60248201526e496e76616c6964206f7574636f6d6560881b60448201526064016107d3565b60608301516006546040516323b872dd60e01b81526001600160a01b03909216916323b872dd91610c169133913091600401614dfa565b6020604051808303816000875af1158015610c35573d6000803e3d6000fd5b505050506040513d601f19601f82011682018060405250810190610c599190614e1e565b610c6257600080fd5b600282018054336001600160a01b0319821681178355600680546005870155600162ff000160a01b031990921660ff60b01b19821617600160b01b60ff8916908102919091179093556001600160a01b0388166000818152600c6020908152604091829020805460ff191660011790559354815195865293850193909352909290917f95e7790fe0cdc6fb080df165cdb01fbf6b29dd9eaec6e1d9cb001bcfc505ad94910160405180910390a3505050610d1c6001600055565b5050565b60025460405163a30c302d60e01b81526001600160a01b038381166004830152600092169063a30c302d90602401600060405180830381865afa158015610d6b573d6000803e3d6000fd5b505050506040513d6000823e601f3d908101601f19168201604052610d939190810190614cb3565b60e0015192915050565b610da5613ec8565b60025460405163fe6fa25b60e01b81526001600160a01b038381166004830152600092169063fe6fa25b90602401608060405180830381865afa158015610df0573d6000803e3d6000fd5b505050506040513d601f19601f82011682018060405250810190610e149190614e39565b90508060600151610e605760405162461bcd60e51b81526020600482015260166024820152753737ba1030b71032b1b7b9bcb9ba32b6903a37b5b2b760511b60448201526064016107d3565b6017546040516323b872dd60e01b81526001600160a01b038416916323b872dd91610e92913391309190600401614dfa565b6020604051808303816000875af1158015610eb1573d6000803e3d6000fd5b505050506040513d601f19601f82011682018060405250810190610ed59190614e1e565b610f135760405162461bcd60e51b815260206004820152600f60248201526e151c985b9cd9995c8819985a5b1959608a1b60448201526064016107d3565b6017543360009081526015602052604081208054909190610f35908490614dce565b909155505060016000555050565b50565b6001546001600160a01b03163314610f705760405162461bcd60e51b81526004016107d390614b70565b6001546040516370a0823160e01b81523060048201526001600160a01b038381169263a9059cbb9291169083906370a0823190602401602060405180830381865afa158015610fc3573d6000803e3d6000fd5b505050506040513d601f19601f82011682018060405250810190610fe79190614de1565b6040518363ffffffff1660e01b8152600401611004929190614ebc565b6020604051808303816000875af1158015611023573d6000803e3d6000fd5b505050506040513d601f19601f820116820180604052508101906110479190614e1e565b610f4357600080fd5b6001546001600160a01b0316331461107a5760405162461bcd60e51b81526004016107d390614b70565b600280546001600160a01b0319166001600160a01b0392909216919091179055565b6110a4613ec8565b60025460405163a30c302d60e01b81526001600160a01b038481166004830152600092169063a30c302d90602401600060405180830381865afa1580156110ef573d6000803e3d6000fd5b505050506040513d6000823e601f3d908101601f191682016040526111179190810190614cb3565b9050826001600160a01b031681600001516001600160a01b03161480156111415750806101000151155b61114a57600080fd5b60c0810151158061118b575060208101516001600160a01b0316331461117257610384611175565b60005b6111839061ffff1642614dce565b8160c0015111155b6111ce5760405162461bcd60e51b8152602060048201526014602482015273546f6f206561726c7920746f2070726f706f736560601b60448201526064016107d3565b60025460405163371a40e160e21b81526001600160a01b038581166004830152600092169063dc69038490602401602060405180830381865afa158015611219573d6000803e3d6000fd5b505050506040513d601f19601f8201168201806040525081019061123d9190614de1565b9050808360ff161080611253575060ff831660fe145b61125c57600080fd5b6001600160a01b038481166000908152600a602052604090205416156112b75760405162461bcd60e51b815260206004820152601060248201526f105b1c9958591e481c1c9bdc1bdcd95960821b60448201526064016107d3565b60608201516006546040516323b872dd60e01b81526001600160a01b03909216916323b872dd916112ee9133913091600401614dfa565b6020604051808303816000875af115801561130d573d6000803e3d6000fd5b505050506040513d601f19601f820116820180604052508101906113319190614e1e565b61133a57600080fd5b604051806101400160405280336001600160a01b0316815260200160006001600160a01b0316815260200160006001600160a01b031681526020018460ff16815260200160ff8016815260200160ff801681526020016006548152602001600081526020016000815260200142815250600a6000866001600160a01b03166001600160a01b0316815260200190815260200160002060008201518160000160006101000a8154816001600160a01b0302191690836001600160a01b0316021790555060208201518160010160006101000a8154816001600160a01b0302191690836001600160a01b0316021790555060408201518160020160006101000a8154816001600160a01b0302191690836001600160a01b0316021790555060608201518160020160146101000a81548160ff021916908360ff16021790555060808201518160020160156101000a81548160ff021916908360ff16021790555060a08201518160020160166101000a81548160ff021916908360ff16021790555060c0820151816003015560e0820151816004015561010082015181600501556101208201518160060155905050836001600160a01b03167f4e9e23f263eb2c56c0ce490902b2af220caed37cc442dee8d278a5b9e2b26bb433856040516115389291906001600160a01b0392909216825260ff16602082015260400190565b60405180910390a25050610d1c6001600055565b611554613ec8565b60025460405163a30c302d60e01b81526001600160a01b038481166004830152600092169063a30c302d90602401600060405180830381865afa15801561159f573d6000803e3d6000fd5b505050506040513d6000823e601f3d908101601f191682016040526115c79190810190614cb3565b6001600160a01b0384166000908152600d60205260409020549091508211156116245760405162461bcd60e51b815260206004820152600f60248201526e1a5b98dbdc9c9958dd081c9bdd5b99608a1b60448201526064016107d3565b6001600160a01b0383166000908152601460209081526040808320858452825280832033845290915290205460ff16156116925760405162461bcd60e51b815260206004820152600f60248201526e105b1c9958591e4818db185a5b5959608a1b60448201526064016107d3565b6001600160a01b0383166000908152600f60209081526040808320858452825280832033845290915290205460ff166116fc5760405162461bcd60e51b815260206004820152600c60248201526b446964206e6f7420766f746560a01b60448201526064016107d3565b6001600160a01b0383166000908152601060209081526040808320858452825280832033845290915290205460ff1660fd14611738575061188d565b6001600160a01b0383166000908152601260209081526040808320858452909152902054806117955760405162461bcd60e51b81526020600482015260096024820152684e6f20626f756e747960b81b60448201526064016107d3565b6001600160a01b038085166000908152601460209081526040808320878452825280832033808552925291829020805460ff191660011790556060850151915163a9059cbb60e01b81528493929092169163a9059cbb916117fa918590600401614ebc565b6020604051808303816000875af1158015611819573d6000803e3d6000fd5b505050506040513d601f19601f8201168201806040525081019061183d9190614e1e565b61184657600080fd5b846001600160a01b03167ffabeff5fb4cfe045bc080a31efc5d2327ce88b74be2a546ab4d341d47d80dbb73383604051611881929190614ebc565b60405180910390a25050505b610d1c6001600055565b61189f613ec8565b60025460405163a30c302d60e01b81526001600160a01b038381166004830152600092169063a30c302d90602401600060405180830381865afa1580156118ea573d6000803e3d6000fd5b505050506040513d6000823e601f3d908101601f191682016040526119129190810190614cb3565b6001600160a01b0383166000908152600a60209081526040808320600b909252909120549192509060ff16801561194c5750816101000151155b801561197157506001600160a01b0383166000908152600c602052604090205460ff16155b61197a57600080fd5b600554600354826006015461198f9190614dce565b6119999190614dce565b4210156119d45760405162461bcd60e51b815260206004820152600960248201526857616974206d6f726560b81b60448201526064016107d3565b6001600160a01b0383166000908152600d6020526040812054906119f88583613f21565b905060ff8016816000015160ff1603611a1057600080fd5b611a19856141e4565b81602001511015611a615760405162461bcd60e51b8152602060048201526012602482015271145d5bdc9d5b481b9bdd081b595d081e595d60721b60448201526064016107d3565b806080015115611aa55760405162461bcd60e51b815260206004820152600f60248201526e546965202d20766f7465206d6f726560881b60448201526064016107d3565b60646009548260200151611ab99190614ed5565b611ac39190614eec565b81604001511015611b0d5760405162461bcd60e51b81526020600482015260146024820152730dcc094818dbdb9cd95b9cdd5cc81b995959195960621b60448201526064016107d3565b805160ff1660fc1901611ec157600080826060015111611b2e576000611b4e565b816060015160028560030154611b449190614eec565b611b4e9190614eec565b90506000808211611b60576000611b8b565b818360600151611b709190614ed5565b60028660030154611b819190614eec565b611b8b9190614f0e565b90508015611c875785606001516001600160a01b031663a9059cbb600260009054906101000a90046001600160a01b03166001600160a01b0316635038e06c6040518163ffffffff1660e01b8152600401602060405180830381865afa158015611bf9573d6000803e3d6000fd5b505050506040513d601f19601f82011682018060405250810190611c1d9190614f21565b836040518363ffffffff1660e01b8152600401611c3b929190614ebc565b6020604051808303816000875af1158015611c5a573d6000803e3d6000fd5b505050506040513d601f19601f82011682018060405250810190611c7e9190614e1e565b611c8757600080fd5b600285015460fc19600160a81b90910460ff1601611d71576060860151600186015460038701546001600160a01b039283169263a9059cbb921690611cce90600290614eec565b8860040154611cdd9190614dce565b6040518363ffffffff1660e01b8152600401611cfa929190614ebc565b6020604051808303816000875af1158015611d19573d6000803e3d6000fd5b505050506040513d601f19601f82011682018060405250810190611d3d9190614e1e565b611d4657600080fd5b6001600160a01b03871660009081526012602090815260408083208784529091529020829055611eab565b85606001516001600160a01b031663a9059cbb600260009054906101000a90046001600160a01b03166001600160a01b0316635038e06c6040518163ffffffff1660e01b8152600401602060405180830381865afa158015611dd7573d6000803e3d6000fd5b505050506040513d601f19601f82011682018060405250810190611dfb9190614f21565b60028860030154611e0c9190614eec565b8860040154611e1b9190614dce565b6040518363ffffffff1660e01b8152600401611e38929190614ebc565b6020604051808303816000875af1158015611e57573d6000803e3d6000fd5b505050506040513d601f19601f82011682018060405250810190611e7b9190614e1e565b611e8457600080fd5b6001600160a01b038716600090815260126020908152604080832087845290915290208290555b611eb6876001614297565b505050505050611faa565b6002548151604051633856857760e01b81526001600160a01b03888116600483015260ff9092166024820152911690633856857790604401600060405180830381600087803b158015611f1357600080fd5b505af1158015611f27573d6000803e3d6000fd5b5050506001600160a01b0386166000908152600b60205260409020805460ff191690555080516060820151611f6191879187918791614383565b805160405160ff90911681526001600160a01b038616907f9076d5afb77542e61d99a7f7a9ca19ff3de45558162277f7461f70a2cd4d801a9060200160405180910390a2505050505b610f436001600055565b611fbc613ec8565b60025460405163a30c302d60e01b81526001600160a01b038381166004830152600092169063a30c302d90602401600060405180830381865afa158015612007573d6000803e3d6000fd5b505050506040513d6000823e601f3d908101601f1916820160405261202f9190810190614cb3565b90508061010001516120725760405162461bcd60e51b815260206004820152600c60248201526b139bdd081c995cdbdb1d995960a21b60448201526064016107d3565b6001600160a01b0382166000908152600d6020908152604080832054601383528184203385529092529091205460ff16156120e15760405162461bcd60e51b815260206004820152600f60248201526e105b1c9958591e4818db185a5b5959608a1b60448201526064016107d3565b6001600160a01b0383166000908152600f60209081526040808320848452825280832033845290915290205460ff1661214b5760405162461bcd60e51b815260206004820152600c60248201526b446964206e6f7420766f746560a01b60448201526064016107d3565b60e08201516001600160a01b0384166000908152601060209081526040808320858452825280832033845290915290205460ff80831691161461219057505050611faa565b6001600160a01b038416600090815260116020526040902054806121e25760405162461bcd60e51b81526020600482015260096024820152684e6f20626f756e747960b81b60448201526064016107d3565b6001600160a01b03808616600090815260136020908152604080832033808552925291829020805460ff191660011790556060870151915163a9059cbb60e01b81528493929092169163a9059cbb9161223f918590600401614ebc565b6020604051808303816000875af115801561225e573d6000803e3d6000fd5b505050506040513d601f19601f820116820180604052508101906122829190614e1e565b61228b57600080fd5b856001600160a01b03167ffabeff5fb4cfe045bc080a31efc5d2327ce88b74be2a546ab4d341d47d80dbb733836040516122c6929190614ebc565b60405180910390a25050505050610f436001600055565b6122e5613ec8565b60025460405163a30c302d60e01b81526001600160a01b038481166004830152600092169063a30c302d90602401600060405180830381865afa158015612330573d6000803e3d6000fd5b505050506040513d6000823e601f3d908101601f191682016040526123589190810190614cb3565b6001600160a01b038085166000818152600a6020526040902083519394509290911614801561238a5750816101000151155b61239357600080fd5b80546001600160a01b03166123e35760405162461bcd60e51b81526020600482015260166024820152754e6f2070726f706f73616c20746f206469737075746560501b60448201526064016107d3565b6001600160a01b0384166000908152600b602052604090205460ff16156124415760405162461bcd60e51b8152602060048201526012602482015271416c726561647920696e206469737075746560701b60448201526064016107d3565b60045481600601546124539190614dce565b42106124975760405162461bcd60e51b81526020600482015260136024820152722234b9b83aba32903832b934b7b21037bb32b960691b60448201526064016107d3565b600281015460ff600160a01b9091048116908416036124ec5760405162461bcd60e51b8152602060048201526011602482015270135d5cdd08189948191a5999995c995b9d607a1b60448201526064016107d3565b60025460405163371a40e160e21b81526001600160a01b038681166004830152600092169063dc69038490602401602060405180830381865afa158015612537573d6000803e3d6000fd5b505050506040513d601f19601f8201168201806040525081019061255b9190614de1565b9050808460ff161080612571575060ff841660fe145b8061257f575060ff841660fd145b6125b95760405162461bcd60e51b815260206004820152600b60248201526a426164206f7574636f6d6560a81b60448201526064016107d3565b60608301516006546040516323b872dd60e01b81526001600160a01b03909216916323b872dd916125f09133913091600401614dfa565b6020604051808303816000875af115801561260f573d6000803e3d6000fd5b505050506040513d601f19601f820116820180604052508101906126339190614e1e565b61263c57600080fd5b60018281018054336001600160a01b0319909116811790915560028401805460ff60a81b1916600160a81b60ff8916908102919091179091556006805460048701556001600160a01b0389166000818152600b6020908152604091829020805460ff191690971790965591548251948552948401929092528201929092527f9df478ce527f144943b0a4eecd35bb36bda04c3209cebf056219a05dfb48bef090606001611881565b6001546001600160a01b0316331461270e5760405162461bcd60e51b81526004016107d390614b70565b60025460405163a30c302d60e01b81526001600160a01b038481166004830152600092169063a30c302d90602401600060405180830381865afa158015612759573d6000803e3d6000fd5b505050506040513d6000823e601f3d908101601f191682016040526127819190810190614cb3565b6001600160a01b0384166000908152600a6020526040902061010082015191925090156127e35760405162461bcd60e51b815260206004820152601060248201526f105b1c9958591e481c995cdbdb1d995960821b60448201526064016107d3565b60028101546001600160a01b03166128315760405162461bcd60e51b815260206004820152601160248201527013585c9ad95d081b9bdd081d995d1bd959607a1b60448201526064016107d3565b60025460405163371a40e160e21b81526001600160a01b038681166004830152600092169063dc69038490602401602060405180830381865afa15801561287c573d6000803e3d6000fd5b505050506040513d601f19601f820116820180604052508101906128a09190614de1565b9050808460ff1610806128b6575060ff841660fe145b806128c4575060ff841660fd145b6129025760405162461bcd60e51b815260206004820152600f60248201526e496e76616c6964206f7574636f6d6560881b60448201526064016107d3565b600082600501548360040154846003015461291d9190614dce565b6129279190614dce565b9050600060ff861660fd1461293d57600061294e565b6002846003015461294e9190614eec565b905061295a8183614f0e565b606086015160028601549193509060ff888116600160a01b909204161480156129935750600285015460ff888116600160b01b90920416145b15612b9157845460048601546001600160a01b038084169263a9059cbb929116906129c090600290614eec565b88600301546129cf9190614dce565b6040518363ffffffff1660e01b81526004016129ec929190614ebc565b6020604051808303816000875af1158015612a0b573d6000803e3d6000fd5b505050506040513d601f19601f82011682018060405250810190612a2f9190614e1e565b612a3857600080fd5b60028086015460048701546001600160a01b038085169363a9059cbb9390911691612a639190614eec565b8860050154612a729190614dce565b6040518363ffffffff1660e01b8152600401612a8f929190614ebc565b6020604051808303816000875af1158015612aae573d6000803e3d6000fd5b505050506040513d601f19601f82011682018060405250810190612ad29190614e1e565b612adb57600080fd5b845460048601546001600160a01b03808b1692600080516020614f7783398151915292911690612b0d90600290614eec565b8860030154612b1c9190614dce565b604051612b2a929190614ebc565b60405180910390a260028086015460048701546001600160a01b03808c1693600080516020614f778339815191529390911691612b679190614eec565b8860050154612b769190614dce565b604051612b84929190614ebc565b60405180910390a2612f29565b600285015460ff600160a01b909104811690881603612c5957845460405163a9059cbb60e01b81526001600160a01b038381169263a9059cbb92612bdd92909116908790600401614ebc565b6020604051808303816000875af1158015612bfc573d6000803e3d6000fd5b505050506040513d601f19601f82011682018060405250810190612c209190614e1e565b612c2957600080fd5b84546040516001600160a01b038a811692600080516020614f7783398151915292612b8492909116908790614ebc565b600285015460ff600160a81b909104811690881603612d2757600185015460405163a9059cbb60e01b81526001600160a01b038381169263a9059cbb92612ca892909116908790600401614ebc565b6020604051808303816000875af1158015612cc7573d6000803e3d6000fd5b505050506040513d601f19601f82011682018060405250810190612ceb9190614e1e565b612cf457600080fd5b60018501546040516001600160a01b038a811692600080516020614f7783398151915292612b8492909116908790614ebc565b600285015460ff600160b01b909104811690881603612df557600285015460405163a9059cbb60e01b81526001600160a01b038381169263a9059cbb92612d7692909116908790600401614ebc565b6020604051808303816000875af1158015612d95573d6000803e3d6000fd5b505050506040513d601f19601f82011682018060405250810190612db99190614e1e565b612dc257600080fd5b60028501546040516001600160a01b038a811692600080516020614f7783398151915292612b8492909116908790614ebc565b806001600160a01b031663a9059cbb600260009054906101000a90046001600160a01b03166001600160a01b0316635038e06c6040518163ffffffff1660e01b8152600401602060405180830381865afa158015612e57573d6000803e3d6000fd5b505050506040513d601f19601f82011682018060405250810190612e7b9190614f21565b856040518363ffffffff1660e01b8152600401612e99929190614ebc565b6020604051808303816000875af1158015612eb8573d6000803e3d6000fd5b505050506040513d601f19601f82011682018060405250810190612edc9190614e1e565b612ee557600080fd5b876001600160a01b03167ff8403fe147c603bc0dfd012454f57db5a31a5e3ad3765b0dc1848f760ffff40c84604051612f2091815260200190565b60405180910390a25b6001600160a01b0388166000908152600e60209081526040808320600d8352818420548452825280832060ff8b168085529252909120549060fc19016130e4576000808211612f79576000612f83565b612f838285614eec565b90506000808211612f95576000612fa9565b612f9f8284614ed5565b612fa99086614f0e565b905080156130a55788606001516001600160a01b031663a9059cbb600260009054906101000a90046001600160a01b03166001600160a01b0316635038e06c6040518163ffffffff1660e01b8152600401602060405180830381865afa158015613017573d6000803e3d6000fd5b505050506040513d601f19601f8201168201806040525081019061303b9190614f21565b836040518363ffffffff1660e01b8152600401613059929190614ebc565b6020604051808303816000875af1158015613078573d6000803e3d6000fd5b505050506040513d601f19601f8201168201806040525081019061309c9190614e1e565b6130a557600080fd5b6001600160a01b038b166000908152601260209081526040808320600d835281842054845290915290208290556130dd8b6001614297565b505061345d565b600254604051637c7021a560e11b81526001600160a01b038b81166004830152600092169063f8e0434a906024016020604051808303816000875af1158015613131573d6000803e3d6000fd5b505050506040513d601f19601f820116820180604052508101906131559190614de1565b90506000811180156131675750600082115b156132ad5760006131788383614eec565b6001600160a01b038c1660009081526011602052604081208290559091506131a08285614ed5565b6131aa9084614f0e565b905080156132a65789606001516001600160a01b031663a9059cbb600260009054906101000a90046001600160a01b03166001600160a01b0316635038e06c6040518163ffffffff1660e01b8152600401602060405180830381865afa158015613218573d6000803e3d6000fd5b505050506040513d601f19601f8201168201806040525081019061323c9190614f21565b836040518363ffffffff1660e01b815260040161325a929190614ebc565b6020604051808303816000875af1158015613279573d6000803e3d6000fd5b505050506040513d601f19601f8201168201806040525081019061329d9190614e1e565b6132a657600080fd5b50506133a7565b80156133a75787606001516001600160a01b031663a9059cbb600260009054906101000a90046001600160a01b03166001600160a01b0316635038e06c6040518163ffffffff1660e01b8152600401602060405180830381865afa158015613319573d6000803e3d6000fd5b505050506040513d601f19601f8201168201806040525081019061333d9190614f21565b836040518363ffffffff1660e01b815260040161335b929190614ebc565b6020604051808303816000875af115801561337a573d6000803e3d6000fd5b505050506040513d601f19601f8201168201806040525081019061339e9190614e1e565b6133a757600080fd5b6133b28a6000614297565b600254604051633856857760e01b81526001600160a01b038c8116600483015260ff8c16602483015290911690633856857790604401600060405180830381600087803b15801561340257600080fd5b505af1158015613416573d6000803e3d6000fd5b505060405160ff8c1681526001600160a01b038d1692507f9076d5afb77542e61d99a7f7a9ca19ff3de45558162277f7461f70a2cd4d801a915060200160405180910390a2505b505050505050505050565b60025460405163a30c302d60e01b81526001600160a01b038381166004830152600092169063a30c302d90602401600060405180830381865afa1580156134b3573d6000803e3d6000fd5b505050506040513d6000823e601f3d908101601f191682016040526134db9190810190614cb3565b610100015192915050565b6134ee613ec8565b6001600160a01b038281166000818152600a6020526040808220600254915163371a40e160e21b8152600481019490945293919291169063dc69038490602401602060405180830381865afa15801561354b573d6000803e3d6000fd5b505050506040513d601f19601f8201168201806040525081019061356f9190614de1565b9050808360ff161080613585575060ff831660fe145b80613593575060ff831660fd145b6135d05760405162461bcd60e51b815260206004820152600e60248201526d496e76616c69642043686f69636560901b60448201526064016107d3565b6001600160a01b0384166000908152600b602052604090205460ff166136255760405162461bcd60e51b815260206004820152600a6024820152694e6f7420766f74696e6760b01b60448201526064016107d3565b6001600160a01b0384166000908152600c602052604090205460ff161561368e5760405162461bcd60e51b815260206004820152601760248201527f63616e6e6f7420766f746520647572696e67207665746f00000000000000000060448201526064016107d3565b60035482600601546136a09190614dce565b4211156136e75760405162461bcd60e51b8152602060048201526015602482015274111a5cdc1d5d1959081c195c9a5bd908195b991959605a1b60448201526064016107d3565b6017543360009081526015602052604090205410156137485760405162461bcd60e51b815260206004820152601b60248201527f4d757374207374616b65203520746f6b656e7320746f20766f7465000000000060448201526064016107d3565b3360008181526019602090815260408083204290556001600160a01b0388168352600d825280832054600f835281842081855283528184209484529390915290205460ff16156137c25760405162461bcd60e51b8152602060048201526005602482015264159bdd195960da1b60448201526064016107d3565b6001600160a01b0385166000818152600f60209081526040808320858452825280832033808552908352818420805460ff19908116600117909155858552601084528285208786528452828520918552908352818420805460ff8b16921682179055938352600e8252808320858452825280832093835292905290812080549161384b83614f3e565b90915550506040805133815260ff861660208201526001600160a01b038716917fab895d1f3cae93a90b4646f8fcf081d6054cda65886bc30f67658360de82808d9101611881565b61389b613ec8565b60025460405163a30c302d60e01b81526001600160a01b038381166004830152600092169063a30c302d90602401600060405180830381865afa1580156138e6573d6000803e3d6000fd5b505050506040513d6000823e601f3d908101601f1916820160405261390e9190810190614cb3565b6001600160a01b0383166000908152600a60205260409020610100820151919250901561393a57600080fd5b80546001600160a01b03161580159061395e575060018101546001600160a01b0316155b61396757600080fd5b60045481600601546139799190614dce565b4210156139b45760405162461bcd60e51b815260206004820152600960248201526857616974206d6f726560b81b60448201526064016107d3565b600254604051637c7021a560e11b81526001600160a01b038581166004830152600092169063f8e0434a906024016020604051808303816000875af1158015613a01573d6000803e3d6000fd5b505050506040513d601f19601f82011682018060405250810190613a259190614de1565b90506000818360030154613a399190614dce565b6060850151845460405163a9059cbb60e01b81529293506001600160a01b039182169263a9059cbb92613a729216908590600401614ebc565b6020604051808303816000875af1158015613a91573d6000803e3d6000fd5b505050506040513d601f19601f82011682018060405250810190613ab59190614e1e565b613abe57600080fd5b6002805490840154604051633856857760e01b81526001600160a01b038881166004830152600160a01b90920460ff166024820152911690633856857790604401600060405180830381600087803b158015613b1957600080fd5b505af1158015613b2d573d6000803e3d6000fd5b505050506002830154604051600160a01b90910460ff1681526001600160a01b038616907f9076d5afb77542e61d99a7f7a9ca19ff3de45558162277f7461f70a2cd4d801a9060200160405180910390a2613b89856000614297565b50505050610f436001600055565b6001546001600160a01b03163314613bc15760405162461bcd60e51b81526004016107d390614b70565b6102588710158015613bd6575062278d008711155b613bdf57600080fd5b6102588610158015613bf4575062278d008611155b613bfd57600080fd5b6102588510158015613c12575062278d008511155b613c1b57600080fd5b670de0b6b3a7640000841015613c3057600080fd5b60018311613c3d57600080fd5b828211613c4957600080fd5b600081118015613c5a575060648111155b613c6357600080fd5b600396909655600494909455600592909255600655600755600855600955565b613c8b613ec8565b60185433600090815260196020526040902054613ca89190614dce565b421015613cf75760405162461bcd60e51b815260206004820152601f60248201527f5374616b65206c6f636b65642064756520746f20726563656e7420766f74650060448201526064016107d3565b60025460405163fe6fa25b60e01b81526001600160a01b038381166004830152600092169063fe6fa25b90602401608060405180830381865afa158015613d42573d6000803e3d6000fd5b505050506040513d601f19601f82011682018060405250810190613d669190614e39565b90508060600151613db25760405162461bcd60e51b81526020600482015260166024820152753737ba1030b71032b1b7b9bcb9ba32b6903a37b5b2b760511b60448201526064016107d3565b3360009081526015602052604090205480613dfc5760405162461bcd60e51b815260206004820152600a6024820152691b9bdd081cdd185ad95960b21b60448201526064016107d3565b33600081815260156020526040808220919091555163a9059cbb60e01b81526001600160a01b0385169163a9059cbb91613e3b91908590600401614ebc565b6020604051808303816000875af1158015613e5a573d6000803e3d6000fd5b505050506040513d601f19601f82011682018060405250810190613e7e9190614e1e565b613ebc5760405162461bcd60e51b815260206004820152600f60248201526e151c985b9cd9995c8819985a5b1959608a1b60448201526064016107d3565b5050610f436001600055565b600260005403613f1a5760405162461bcd60e51b815260206004820152601f60248201527f5265656e7472616e637947756172643a207265656e7472616e742063616c6c0060448201526064016107d3565b6002600055565b613f586040518060a00160405280600060ff1681526020016000815260200160008152602001600081526020016000151581525090565b613f8f6040518060a00160405280600060ff1681526020016000815260200160008152602001600081526020016000151581525090565b60ff8152600060208201819052604080830182905260808301829052600254905163371a40e160e21b81526001600160a01b0387811660048301529091169063dc69038490602401602060405180830381865afa158015613ff4573d6000803e3d6000fd5b505050506040513d601f19601f820116820180604052508101906140189190614de1565b905060005b818160ff1610156140c5576001600160a01b0386166000908152600e60209081526040808320888452825280832060ff85168452825290912054908401805182919061406a908390614dce565b9052506040840151811115614092576040840181905260ff82168452600060808501526140b2565b8360400151811480156140a55750600081115b156140b257600160808501525b50806140bd81614f57565b91505061401d565b506001600160a01b0385166000908152600e60209081526040808320878452825280832060fe84529091528082205460fd83529120546141058183614dce565b846020018181516141169190614dce565b905250604084015182111561413c576040840182905260fe8452600060808501526141a3565b836040015181111561415f576040840181905260fd8452600060808501526141a3565b8360400151821480156141725750600082115b1561418357600160808501526141a3565b8360400151811480156141965750600081115b156141a357600160808501525b5050506001600160a01b0384166000908152600e602090815260408083208684528252808320845160ff168452909152902054606082015290505b92915050565b6000806141fa670de0b6b3a76400006032614ed5565b600254604051636cd4cb0360e01b81526001600160a01b03868116600483015290911690636cd4cb0390602401602060405180830381865afa158015614244573d6000803e3d6000fd5b505050506040513d601f19601f820116820180604052508101906142689190614de1565b6142729190614eec565b905060075481101561428357506007545b6008548111156141de575060085492915050565b6001600160a01b0382166000908152600a6020908152604080832080546001600160a01b0319908116825560018201805490911690556002810180546001600160b81b0319169055600381018490556004810184905560058101849055600601839055600b8252808320805460ff19908116909155600c90925290912080549091169055801561434b576001600160a01b0382166000908152600d6020526040812080549161434583614f3e565b91905055505b6040516001600160a01b038316907fd902032e642d08db2e531cdc9da940c48053791e79e5747dc5f3847fccb2264390600090a25050565b60608401516002546040805163140e381b60e21b815290516000926001600160a01b031691635038e06c9160048083019260209291908290030181865afa1580156143d2573d6000803e3d6000fd5b505050506040513d601f19601f820116820180604052508101906143f69190614f21565b905060008560040154866003015461440e9190614dce565b600254604051637c7021a560e11b81526001600160a01b038b811660048301529293506000929091169063f8e0434a906024016020604051808303816000875af1158015614460573d6000803e3d6000fd5b505050506040513d601f19601f820116820180604052508101906144849190614de1565b905060fd1960ff871601614706576002870154600090600160a01b900460ff1660fe14806144c057506002880154600160a81b900460ff1660fe145b905080156145bc576002880154600090600160a01b900460ff1660fe146144f45760018901546001600160a01b0316614500565b88546001600160a01b03165b90506001600160a01b03861663a9059cbb8261451c8688614dce565b6040518363ffffffff1660e01b8152600401614539929190614ebc565b6020604051808303816000875af1158015614558573d6000803e3d6000fd5b505050506040513d601f19601f8201168201806040525081019061457c9190614e1e565b61458557600080fd5b8a6001600160a01b0316600080516020614f7783398151915282866040516145ae929190614ebc565b60405180910390a250614700565b82156146805760405163a9059cbb60e01b81526001600160a01b0386169063a9059cbb906145f09087908790600401614ebc565b6020604051808303816000875af115801561460f573d6000803e3d6000fd5b505050506040513d601f19601f820116820180604052508101906146339190614e1e565b61463c57600080fd5b896001600160a01b03167ff8403fe147c603bc0dfd012454f57db5a31a5e3ad3765b0dc1848f760ffff40c8460405161467791815260200190565b60405180910390a25b81156147005760405163a9059cbb60e01b81526001600160a01b0386169063a9059cbb906146b49087908690600401614ebc565b6020604051808303816000875af11580156146d3573d6000803e3d6000fd5b505050506040513d601f19601f820116820180604052508101906146f79190614e1e565b61470057600080fd5b5061345d565b600287015460009060ff888116600160a01b9092041614806147385750600288015460ff888116600160a81b90920416145b9050801561482e57600288015460009060ff898116600160a01b909204161461476e5760018901546001600160a01b031661477a565b88546001600160a01b03165b60405163a9059cbb60e01b81529091506001600160a01b0387169063a9059cbb906147ab9084908890600401614ebc565b6020604051808303816000875af11580156147ca573d6000803e3d6000fd5b505050506040513d601f19601f820116820180604052508101906147ee9190614e1e565b6147f757600080fd5b8a6001600160a01b0316600080516020614f778339815191528286604051614820929190614ebc565b60405180910390a2506148ec565b60405163a9059cbb60e01b81526001600160a01b0386169063a9059cbb9061485c9087908790600401614ebc565b6020604051808303816000875af115801561487b573d6000803e3d6000fd5b505050506040513d601f19601f8201168201806040525081019061489f9190614e1e565b6148a857600080fd5b896001600160a01b03167ff8403fe147c603bc0dfd012454f57db5a31a5e3ad3765b0dc1848f760ffff40c846040516148e391815260200190565b60405180910390a25b6000821180156148fc5750600086115b156149c457600061490d8784614eec565b6001600160a01b038c1660009081526011602052604081208290559091506149358289614ed5565b61493f9085614f0e565b905080156149c15760405163a9059cbb60e01b81526001600160a01b0388169063a9059cbb906149759089908590600401614ebc565b6020604051808303816000875af1158015614994573d6000803e3d6000fd5b505050506040513d601f19601f820116820180604052508101906149b89190614e1e565b6149c157600080fd5b50505b50505050505050505050565b6001600160a01b0381168114610f4357600080fd5b6000602082840312156149f757600080fd5b8135614a02816149d0565b9392505050565b60ff81168114610f4357600080fd5b60008060408385031215614a2b57600080fd5b8235614a36816149d0565b91506020830135614a4681614a09565b809150509250929050565b600080600060608486031215614a6657600080fd5b8335614a71816149d0565b9250602084013591506040840135614a88816149d0565b809150509250925092565b60008060408385031215614aa657600080fd5b8235614ab1816149d0565b946020939093013593505050565b600080600080600080600060e0888a031215614ada57600080fd5b505085359760208701359750604087013596606081013596506080810135955060a0810135945060c0013592509050565b600080600060608486031215614b2057600080fd5b8335614b2b816149d0565b9250602084013591506040840135614a8881614a09565b60008060408385031215614b5557600080fd5b8235614b60816149d0565b91506020830135614a46816149d0565b6020808252600890820152674f6e6c792043454f60c01b604082015260600190565b634e487b7160e01b600052604160045260246000fd5b604051610160810167ffffffffffffffff81118282101715614bcc57614bcc614b92565b60405290565b604051601f8201601f1916810167ffffffffffffffff81118282101715614bfb57614bfb614b92565b604052919050565b8051614c0e816149d0565b919050565b600082601f830112614c2457600080fd5b815167ffffffffffffffff811115614c3e57614c3e614b92565b6020614c52601f8301601f19168201614bd2565b8281528582848701011115614c6657600080fd5b60005b83811015614c84578581018301518282018401528201614c69565b506000928101909101919091529392505050565b8051614c0e81614a09565b80518015158114614c0e57600080fd5b600060208284031215614cc557600080fd5b815167ffffffffffffffff80821115614cdd57600080fd5b908301906101608286031215614cf257600080fd5b614cfa614ba8565b614d0383614c03565b8152614d1160208401614c03565b6020820152614d2260408401614c03565b6040820152614d3360608401614c03565b6060820152608083015182811115614d4a57600080fd5b614d5687828601614c13565b60808301525060a083015160a082015260c083015160c0820152614d7c60e08401614c98565b60e08201526101009150614d91828401614ca3565b91810191909152610120828101519082015261014091820151918101919091529392505050565b634e487b7160e01b600052601160045260246000fd5b808201808211156141de576141de614db8565b600060208284031215614df357600080fd5b5051919050565b6001600160a01b039384168152919092166020820152604081019190915260600190565b600060208284031215614e3057600080fd5b614a0282614ca3565b600060808284031215614e4b57600080fd5b6040516080810181811067ffffffffffffffff82111715614e6e57614e6e614b92565b6040528251614e7c816149d0565b81526020830151614e8c816149d0565b60208201526040830151614e9f816149d0565b6040820152614eb060608401614ca3565b60608201529392505050565b6001600160a01b03929092168252602082015260400190565b80820281158282048414176141de576141de614db8565b600082614f0957634e487b7160e01b600052601260045260246000fd5b500490565b818103818111156141de576141de614db8565b600060208284031215614f3357600080fd5b8151614a02816149d0565b600060018201614f5057614f50614db8565b5060010190565b600060ff821660ff8103614f6d57614f6d614db8565b6001019291505056fe6c5ee1a85530eaea13148d4d352ae5d7a9f18ef69af8202d8afcfd196ca8dab2a2646970667358221220a1fed07efb7cae1ad882962f2ca155e9f9d532bcb5f284594a9d2384bebcbaca64736f6c63430008180033",
  "linkReferences": {},
  "deployedLinkReferences": {}
}