{
  "_format": "hh-sol-artifact-1",
  "contractName": "APrivateTradingMarket",
  "sourceName": "contracts/MarketPrivate.sol",
  "abi": [
    {
      "inputs": [
        {
          "internalType": "address",
          "name": "_taxes",
          "type": "address"
        },
        {
          "internalType": "address",
          "name": "_insuranceWallet",
          "type": "address"
        }
      ],
      "stateMutability": "nonpayable",
      "type": "constructor"
    },
    {
      "anonymous": false,
      "inputs": [
        {
          "indexed": true,
          "internalType": "address",
          "name": "marketToken",
          "type": "address"
        },
        {
          "indexed": false,
          "internalType": "address",
          "name": "claimer",
          "type": "address"
        },
        {
          "indexed": false,
          "internalType": "uint256",
          "name": "usdcAmount",
          "type": "uint256"
        }
      ],
      "name": "BountyClaimed",
      "type": "event"
    },
    {
      "anonymous": false,
      "inputs": [
        {
          "indexed": true,
          "internalType": "address",
          "name": "marketToken",
          "type": "address"
        },
        {
          "indexed": false,
          "internalType": "address",
          "name": "donor",
          "type": "address"
        },
        {
          "indexed": false,
          "internalType": "uint256",
          "name": "usdcAmount",
          "type": "uint256"
        }
      ],
      "name": "BountyDonated",
      "type": "event"
    },
    {
      "anonymous": false,
      "inputs": [
        {
          "indexed": true,
          "internalType": "address",
          "name": "marketToken",
          "type": "address"
        },
        {
          "indexed": false,
          "internalType": "address",
          "name": "creator",
          "type": "address"
        },
        {
          "indexed": false,
          "internalType": "address",
          "name": "ecosystem",
          "type": "address"
        }
      ],
      "name": "MarketCreated",
      "type": "event"
    },
    {
      "anonymous": false,
      "inputs": [
        {
          "indexed": true,
          "internalType": "address",
          "name": "marketToken",
          "type": "address"
        },
        {
          "indexed": false,
          "internalType": "uint256",
          "name": "totalMarketLiquidity",
          "type": "uint256"
        }
      ],
      "name": "MarketInvalidated",
      "type": "event"
    },
    {
      "anonymous": false,
      "inputs": [
        {
          "indexed": true,
          "internalType": "address",
          "name": "marketToken",
          "type": "address"
        },
        {
          "indexed": true,
          "internalType": "uint256",
          "name": "orderId",
          "type": "uint256"
        }
      ],
      "name": "OrderCancelled",
      "type": "event"
    },
    {
      "anonymous": false,
      "inputs": [
        {
          "indexed": true,
          "internalType": "address",
          "name": "marketToken",
          "type": "address"
        },
        {
          "indexed": true,
          "internalType": "uint256",
          "name": "orderId",
          "type": "uint256"
        },
        {
          "indexed": true,
          "internalType": "address",
          "name": "seller",
          "type": "address"
        },
        {
          "indexed": false,
          "internalType": "uint8",
          "name": "outcomeId",
          "type": "uint8"
        },
        {
          "indexed": false,
          "internalType": "uint256",
          "name": "amount",
          "type": "uint256"
        },
        {
          "indexed": false,
          "internalType": "uint256",
          "name": "pricePerShare",
          "type": "uint256"
        }
      ],
      "name": "OrderCreated",
      "type": "event"
    },
    {
      "anonymous": false,
      "inputs": [
        {
          "indexed": true,
          "internalType": "address",
          "name": "marketToken",
          "type": "address"
        },
        {
          "indexed": true,
          "internalType": "uint256",
          "name": "orderId",
          "type": "uint256"
        },
        {
          "indexed": true,
          "internalType": "address",
          "name": "buyer",
          "type": "address"
        },
        {
          "indexed": false,
          "internalType": "uint256",
          "name": "amount",
          "type": "uint256"
        },
        {
          "indexed": false,
          "internalType": "uint256",
          "name": "usdcSpent",
          "type": "uint256"
        }
      ],
      "name": "OrderFilled",
      "type": "event"
    },
    {
      "anonymous": false,
      "inputs": [
        {
          "indexed": true,
          "internalType": "address",
          "name": "marketToken",
          "type": "address"
        },
        {
          "indexed": false,
          "internalType": "address",
          "name": "donor",
          "type": "address"
        },
        {
          "indexed": false,
          "internalType": "uint256",
          "name": "usdcAmount",
          "type": "uint256"
        }
      ],
      "name": "PotDonated",
      "type": "event"
    },
    {
      "anonymous": false,
      "inputs": [
        {
          "indexed": true,
          "internalType": "address",
          "name": "marketToken",
          "type": "address"
        },
        {
          "indexed": false,
          "internalType": "uint8",
          "name": "finalOutcome",
          "type": "uint8"
        }
      ],
      "name": "Resolved",
      "type": "event"
    },
    {
      "anonymous": false,
      "inputs": [
        {
          "indexed": true,
          "internalType": "address",
          "name": "marketToken",
          "type": "address"
        },
        {
          "indexed": true,
          "internalType": "address",
          "name": "user",
          "type": "address"
        },
        {
          "indexed": false,
          "internalType": "uint256",
          "name": "payout",
          "type": "uint256"
        }
      ],
      "name": "SharesRedeemed",
      "type": "event"
    },
    {
      "anonymous": false,
      "inputs": [
        {
          "indexed": true,
          "internalType": "address",
          "name": "marketToken",
          "type": "address"
        },
        {
          "indexed": true,
          "internalType": "address",
          "name": "buyer",
          "type": "address"
        },
        {
          "indexed": true,
          "internalType": "uint8",
          "name": "outcomeId",
          "type": "uint8"
        },
        {
          "indexed": false,
          "internalType": "uint256",
          "name": "shares",
          "type": "uint256"
        },
        {
          "indexed": false,
          "internalType": "uint256",
          "name": "usdcSpent",
          "type": "uint256"
        },
        {
          "indexed": false,
          "internalType": "enum APrivateTradingMarket.TradeType",
          "name": "tradeType",
          "type": "uint8"
        },
        {
          "indexed": false,
          "internalType": "uint256",
          "name": "newReserve",
          "type": "uint256"
        },
        {
          "indexed": false,
          "internalType": "uint256",
          "name": "newTotalReserve",
          "type": "uint256"
        }
      ],
      "name": "SharesTraded",
      "type": "event"
    },
    {
      "anonymous": false,
      "inputs": [
        {
          "indexed": true,
          "internalType": "address",
          "name": "marketToken",
          "type": "address"
        },
        {
          "indexed": true,
          "internalType": "address",
          "name": "voter",
          "type": "address"
        },
        {
          "indexed": false,
          "internalType": "uint8",
          "name": "outcomeId",
          "type": "uint8"
        }
      ],
      "name": "Vote",
      "type": "event"
    },
    {
      "inputs": [],
      "name": "CEO",
      "outputs": [
        {
          "internalType": "address",
          "name": "",
          "type": "address"
        }
      ],
      "stateMutability": "view",
      "type": "function"
    },
    {
      "inputs": [
        {
          "internalType": "address",
          "name": "marketToken",
          "type": "address"
        }
      ],
      "name": "DisableFreeze",
      "outputs": [],
      "stateMutability": "nonpayable",
      "type": "function"
    },
    {
      "inputs": [],
      "name": "FLOOR_PER_OUTCOME",
      "outputs": [
        {
          "internalType": "uint256",
          "name": "",
          "type": "uint256"
        }
      ],
      "stateMutability": "view",
      "type": "function"
    },
    {
      "inputs": [],
      "name": "MAX_OUTCOMES",
      "outputs": [
        {
          "internalType": "uint256",
          "name": "",
          "type": "uint256"
        }
      ],
      "stateMutability": "view",
      "type": "function"
    },
    {
      "inputs": [],
      "name": "MAX_TOTAL_POOL",
      "outputs": [
        {
          "internalType": "uint256",
          "name": "",
          "type": "uint256"
        }
      ],
      "stateMutability": "view",
      "type": "function"
    },
    {
      "inputs": [],
      "name": "MIN_TOTAL_POOL",
      "outputs": [
        {
          "internalType": "uint256",
          "name": "",
          "type": "uint256"
        }
      ],
      "stateMutability": "view",
      "type": "function"
    },
    {
      "inputs": [],
      "name": "ONE_USD",
      "outputs": [
        {
          "internalType": "uint256",
          "name": "",
          "type": "uint256"
        }
      ],
      "stateMutability": "view",
      "type": "function"
    },
    {
      "inputs": [],
      "name": "OUTCOME_INVALID",
      "outputs": [
        {
          "internalType": "uint8",
          "name": "",
          "type": "uint8"
        }
      ],
      "stateMutability": "view",
      "type": "function"
    },
    {
      "inputs": [],
      "name": "OUTCOME_UNRESOLVED",
      "outputs": [
        {
          "internalType": "uint8",
          "name": "",
          "type": "uint8"
        }
      ],
      "stateMutability": "view",
      "type": "function"
    },
    {
      "inputs": [],
      "name": "TAXES",
      "outputs": [
        {
          "internalType": "contract IATaxes",
          "name": "",
          "type": "address"
        }
      ],
      "stateMutability": "view",
      "type": "function"
    },
    {
      "inputs": [],
      "name": "VOTING_WINDOW",
      "outputs": [
        {
          "internalType": "uint256",
          "name": "",
          "type": "uint256"
        }
      ],
      "stateMutability": "view",
      "type": "function"
    },
    {
      "inputs": [
        {
          "internalType": "address",
          "name": "maintoken",
          "type": "address"
        },
        {
          "internalType": "address",
          "name": "factory",
          "type": "address"
        },
        {
          "internalType": "address",
          "name": "swap",
          "type": "address"
        },
        {
          "internalType": "address",
          "name": "usdc",
          "type": "address"
        }
      ],
      "name": "addEcosystem",
      "outputs": [],
      "stateMutability": "nonpayable",
      "type": "function"
    },
    {
      "inputs": [
        {
          "internalType": "address",
          "name": "",
          "type": "address"
        },
        {
          "internalType": "address",
          "name": "",
          "type": "address"
        }
      ],
      "name": "bountyClaimed",
      "outputs": [
        {
          "internalType": "bool",
          "name": "",
          "type": "bool"
        }
      ],
      "stateMutability": "view",
      "type": "function"
    },
    {
      "inputs": [
        {
          "internalType": "address",
          "name": "",
          "type": "address"
        }
      ],
      "name": "bountyPerCorrectVote",
      "outputs": [
        {
          "internalType": "uint256",
          "name": "",
          "type": "uint256"
        }
      ],
      "stateMutability": "view",
      "type": "function"
    },
    {
      "inputs": [
        {
          "internalType": "address",
          "name": "",
          "type": "address"
        }
      ],
      "name": "bountyPool",
      "outputs": [
        {
          "internalType": "uint256",
          "name": "",
          "type": "uint256"
        }
      ],
      "stateMutability": "view",
      "type": "function"
    },
    {
      "inputs": [
        {
          "internalType": "address",
          "name": "marketToken",
          "type": "address"
        },
        {
          "internalType": "uint8",
          "name": "outcomeId",
          "type": "uint8"
        },
        {
          "internalType": "address",
          "name": "inputToken",
          "type": "address"
        },
        {
          "internalType": "uint256",
          "name": "inputAmount",
          "type": "uint256"
        },
        {
          "internalType": "uint256",
          "name": "minUsdc",
          "type": "uint256"
        },
        {
          "internalType": "uint256",
          "name": "minShares",
          "type": "uint256"
        }
      ],
      "name": "buy",
      "outputs": [],
      "stateMutability": "nonpayable",
      "type": "function"
    },
    {
      "inputs": [
        {
          "internalType": "address",
          "name": "marketToken",
          "type": "address"
        },
        {
          "internalType": "uint256[]",
          "name": "orderIds",
          "type": "uint256[]"
        },
        {
          "internalType": "uint256",
          "name": "usdcAmount",
          "type": "uint256"
        }
      ],
      "name": "buyMultipleOrders",
      "outputs": [
        {
          "internalType": "uint256",
          "name": "remainingUsdc",
          "type": "uint256"
        }
      ],
      "stateMutability": "nonpayable",
      "type": "function"
    },
    {
      "inputs": [
        {
          "internalType": "address",
          "name": "marketToken",
          "type": "address"
        },
        {
          "internalType": "uint256",
          "name": "orderId",
          "type": "uint256"
        },
        {
          "internalType": "uint256",
          "name": "fill",
          "type": "uint256"
        }
      ],
      "name": "buyOrder",
      "outputs": [],
      "stateMutability": "nonpayable",
      "type": "function"
    },
    {
      "inputs": [
        {
          "internalType": "address",
          "name": "marketToken",
          "type": "address"
        },
        {
          "internalType": "uint8",
          "name": "outcomeId",
          "type": "uint8"
        },
        {
          "internalType": "uint256[]",
          "name": "orderIds",
          "type": "uint256[]"
        },
        {
          "internalType": "address",
          "name": "inputToken",
          "type": "address"
        },
        {
          "internalType": "uint256",
          "name": "totalInput",
          "type": "uint256"
        },
        {
          "internalType": "uint256",
          "name": "minShares",
          "type": "uint256"
        }
      ],
      "name": "buyOrdersAndContract",
      "outputs": [],
      "stateMutability": "nonpayable",
      "type": "function"
    },
    {
      "inputs": [
        {
          "internalType": "address",
          "name": "marketToken",
          "type": "address"
        },
        {
          "internalType": "uint256",
          "name": "orderId",
          "type": "uint256"
        }
      ],
      "name": "cancelOrder",
      "outputs": [],
      "stateMutability": "nonpayable",
      "type": "function"
    },
    {
      "inputs": [
        {
          "internalType": "address",
          "name": "marketToken",
          "type": "address"
        }
      ],
      "name": "claimBounty",
      "outputs": [],
      "stateMutability": "nonpayable",
      "type": "function"
    },
    {
      "inputs": [
        {
          "internalType": "string",
          "name": "marketName",
          "type": "string"
        },
        {
          "internalType": "string",
          "name": "symbol",
          "type": "string"
        },
        {
          "internalType": "uint256",
          "name": "endTime",
          "type": "uint256"
        },
        {
          "internalType": "string[]",
          "name": "_optionNames",
          "type": "string[]"
        },
        {
          "internalType": "address",
          "name": "maintoken",
          "type": "address"
        },
        {
          "internalType": "bool",
          "name": "privateEvent",
          "type": "bool"
        },
        {
          "internalType": "bool",
          "name": "frozen",
          "type": "bool"
        },
        {
          "internalType": "uint256",
          "name": "bonding",
          "type": "uint256"
        },
        {
          "internalType": "uint256",
          "name": "seedAmount",
          "type": "uint256"
        }
      ],
      "name": "createMarket",
      "outputs": [
        {
          "internalType": "address",
          "name": "marketToken",
          "type": "address"
        }
      ],
      "stateMutability": "payable",
      "type": "function"
    },
    {
      "inputs": [
        {
          "internalType": "address",
          "name": "marketToken",
          "type": "address"
        },
        {
          "internalType": "uint256",
          "name": "amount",
          "type": "uint256"
        },
        {
          "internalType": "bool",
          "name": "isBounty",
          "type": "bool"
        }
      ],
      "name": "donate",
      "outputs": [],
      "stateMutability": "nonpayable",
      "type": "function"
    },
    {
      "inputs": [
        {
          "internalType": "address",
          "name": "",
          "type": "address"
        }
      ],
      "name": "ecosystems",
      "outputs": [
        {
          "internalType": "address",
          "name": "factory",
          "type": "address"
        },
        {
          "internalType": "address",
          "name": "swap",
          "type": "address"
        },
        {
          "internalType": "address",
          "name": "usdc",
          "type": "address"
        },
        {
          "internalType": "bool",
          "name": "active",
          "type": "bool"
        }
      ],
      "stateMutability": "view",
      "type": "function"
    },
    {
      "inputs": [
        {
          "internalType": "address",
          "name": "marketToken",
          "type": "address"
        }
      ],
      "name": "finalize",
      "outputs": [],
      "stateMutability": "nonpayable",
      "type": "function"
    },
    {
      "inputs": [
        {
          "internalType": "address",
          "name": "",
          "type": "address"
        }
      ],
      "name": "firstVoteTime",
      "outputs": [
        {
          "internalType": "uint256",
          "name": "",
          "type": "uint256"
        }
      ],
      "stateMutability": "view",
      "type": "function"
    },
    {
      "inputs": [
        {
          "internalType": "address",
          "name": "marketToken",
          "type": "address"
        },
        {
          "internalType": "uint256",
          "name": "orderId",
          "type": "uint256"
        },
        {
          "internalType": "uint256",
          "name": "usdcAmount",
          "type": "uint256"
        }
      ],
      "name": "getBuyOrderAmountsOut",
      "outputs": [
        {
          "internalType": "uint256",
          "name": "fill",
          "type": "uint256"
        },
        {
          "internalType": "uint256",
          "name": "baseUsdc",
          "type": "uint256"
        },
        {
          "internalType": "uint256",
          "name": "buyerTax",
          "type": "uint256"
        },
        {
          "internalType": "uint256",
          "name": "totalCostToBuyer",
          "type": "uint256"
        }
      ],
      "stateMutability": "view",
      "type": "function"
    },
    {
      "inputs": [
        {
          "internalType": "address",
          "name": "marketToken",
          "type": "address"
        },
        {
          "internalType": "uint256",
          "name": "orderId",
          "type": "uint256"
        },
        {
          "internalType": "uint256",
          "name": "fill",
          "type": "uint256"
        }
      ],
      "name": "getBuyOrderCost",
      "outputs": [
        {
          "internalType": "uint256",
          "name": "baseUsdc",
          "type": "uint256"
        },
        {
          "internalType": "uint256",
          "name": "buyerTax",
          "type": "uint256"
        },
        {
          "internalType": "uint256",
          "name": "totalCostToBuyer",
          "type": "uint256"
        },
        {
          "internalType": "uint256",
          "name": "netToSeller",
          "type": "uint256"
        }
      ],
      "stateMutability": "view",
      "type": "function"
    },
    {
      "inputs": [
        {
          "internalType": "uint256",
          "name": "n",
          "type": "uint256"
        }
      ],
      "name": "getInitialReserves",
      "outputs": [
        {
          "internalType": "uint256",
          "name": "perOutcome",
          "type": "uint256"
        },
        {
          "internalType": "uint256",
          "name": "totalReserve",
          "type": "uint256"
        }
      ],
      "stateMutability": "view",
      "type": "function"
    },
    {
      "inputs": [
        {
          "internalType": "address",
          "name": "marketToken",
          "type": "address"
        }
      ],
      "name": "getMarketData",
      "outputs": [
        {
          "components": [
            {
              "internalType": "address",
              "name": "marketToken",
              "type": "address"
            },
            {
              "internalType": "address",
              "name": "creator",
              "type": "address"
            },
            {
              "internalType": "address",
              "name": "ecosystem",
              "type": "address"
            },
            {
              "internalType": "address",
              "name": "usdc",
              "type": "address"
            },
            {
              "internalType": "string",
              "name": "marketName",
              "type": "string"
            },
            {
              "internalType": "uint256",
              "name": "creationTime",
              "type": "uint256"
            },
            {
              "internalType": "uint256",
              "name": "endTime",
              "type": "uint256"
            },
            {
              "internalType": "uint8",
              "name": "finalOutcome",
              "type": "uint8"
            },
            {
              "internalType": "bool",
              "name": "resolved",
              "type": "bool"
            },
            {
              "internalType": "uint256",
              "name": "generalPot",
              "type": "uint256"
            },
            {
              "internalType": "uint256",
              "name": "totalVirtualReserve",
              "type": "uint256"
            },
            {
              "internalType": "bool",
              "name": "isPrivate",
              "type": "bool"
            }
          ],
          "internalType": "struct APrivateTradingMarket.MarketData",
          "name": "",
          "type": "tuple"
        }
      ],
      "stateMutability": "view",
      "type": "function"
    },
    {
      "inputs": [
        {
          "internalType": "address",
          "name": "marketToken",
          "type": "address"
        }
      ],
      "name": "getNumOutcomes",
      "outputs": [
        {
          "internalType": "uint256",
          "name": "",
          "type": "uint256"
        }
      ],
      "stateMutability": "view",
      "type": "function"
    },
    {
      "inputs": [
        {
          "internalType": "address",
          "name": "",
          "type": "address"
        },
        {
          "internalType": "address",
          "name": "",
          "type": "address"
        }
      ],
      "name": "hasBetted",
      "outputs": [
        {
          "internalType": "bool",
          "name": "",
          "type": "bool"
        }
      ],
      "stateMutability": "view",
      "type": "function"
    },
    {
      "inputs": [],
      "name": "insuranceWallet",
      "outputs": [
        {
          "internalType": "address",
          "name": "",
          "type": "address"
        }
      ],
      "stateMutability": "view",
      "type": "function"
    },
    {
      "inputs": [
        {
          "internalType": "address",
          "name": "",
          "type": "address"
        },
        {
          "internalType": "address",
          "name": "",
          "type": "address"
        }
      ],
      "name": "isMarketVoter",
      "outputs": [
        {
          "internalType": "bool",
          "name": "",
          "type": "bool"
        }
      ],
      "stateMutability": "view",
      "type": "function"
    },
    {
      "inputs": [],
      "name": "lastTrade",
      "outputs": [
        {
          "internalType": "uint256",
          "name": "",
          "type": "uint256"
        }
      ],
      "stateMutability": "view",
      "type": "function"
    },
    {
      "inputs": [
        {
          "internalType": "address",
          "name": "marketToken",
          "type": "address"
        },
        {
          "internalType": "uint8",
          "name": "outcomeId",
          "type": "uint8"
        },
        {
          "internalType": "uint256",
          "name": "amount",
          "type": "uint256"
        },
        {
          "internalType": "uint256",
          "name": "pricePerShare",
          "type": "uint256"
        }
      ],
      "name": "listOrder",
      "outputs": [],
      "stateMutability": "nonpayable",
      "type": "function"
    },
    {
      "inputs": [
        {
          "internalType": "address",
          "name": "marketToken",
          "type": "address"
        },
        {
          "internalType": "address",
          "name": "voter",
          "type": "address"
        },
        {
          "internalType": "bool",
          "name": "status",
          "type": "bool"
        }
      ],
      "name": "manageVoter",
      "outputs": [],
      "stateMutability": "nonpayable",
      "type": "function"
    },
    {
      "inputs": [
        {
          "internalType": "address",
          "name": "marketToken",
          "type": "address"
        },
        {
          "internalType": "address[]",
          "name": "wallets",
          "type": "address[]"
        },
        {
          "internalType": "uint256",
          "name": "amount",
          "type": "uint256"
        },
        {
          "internalType": "string",
          "name": "tag",
          "type": "string"
        },
        {
          "internalType": "bool",
          "name": "status",
          "type": "bool"
        }
      ],
      "name": "manageWhitelist",
      "outputs": [],
      "stateMutability": "nonpayable",
      "type": "function"
    },
    {
      "inputs": [
        {
          "internalType": "address",
          "name": "",
          "type": "address"
        }
      ],
      "name": "marketData",
      "outputs": [
        {
          "internalType": "address",
          "name": "marketToken",
          "type": "address"
        },
        {
          "internalType": "address",
          "name": "creator",
          "type": "address"
        },
        {
          "internalType": "address",
          "name": "ecosystem",
          "type": "address"
        },
        {
          "internalType": "address",
          "name": "usdc",
          "type": "address"
        },
        {
          "internalType": "string",
          "name": "marketName",
          "type": "string"
        },
        {
          "internalType": "uint256",
          "name": "creationTime",
          "type": "uint256"
        },
        {
          "internalType": "uint256",
          "name": "endTime",
          "type": "uint256"
        },
        {
          "internalType": "uint8",
          "name": "finalOutcome",
          "type": "uint8"
        },
        {
          "internalType": "bool",
          "name": "resolved",
          "type": "bool"
        },
        {
          "internalType": "uint256",
          "name": "generalPot",
          "type": "uint256"
        },
        {
          "internalType": "uint256",
          "name": "totalVirtualReserve",
          "type": "uint256"
        },
        {
          "internalType": "bool",
          "name": "isPrivate",
          "type": "bool"
        }
      ],
      "stateMutability": "view",
      "type": "function"
    },
    {
      "inputs": [
        {
          "internalType": "address",
          "name": "",
          "type": "address"
        },
        {
          "internalType": "uint256",
          "name": "",
          "type": "uint256"
        }
      ],
      "name": "marketOrders",
      "outputs": [
        {
          "internalType": "address",
          "name": "seller",
          "type": "address"
        },
        {
          "internalType": "uint8",
          "name": "outcomeId",
          "type": "uint8"
        },
        {
          "internalType": "uint256",
          "name": "amount",
          "type": "uint256"
        },
        {
          "internalType": "uint256",
          "name": "totalAmount",
          "type": "uint256"
        },
        {
          "internalType": "uint256",
          "name": "pricePerShare",
          "type": "uint256"
        },
        {
          "internalType": "bool",
          "name": "active",
          "type": "bool"
        }
      ],
      "stateMutability": "view",
      "type": "function"
    },
    {
      "inputs": [
        {
          "internalType": "address",
          "name": "",
          "type": "address"
        },
        {
          "internalType": "uint256",
          "name": "",
          "type": "uint256"
        }
      ],
      "name": "marketVoters",
      "outputs": [
        {
          "internalType": "address",
          "name": "",
          "type": "address"
        }
      ],
      "stateMutability": "view",
      "type": "function"
    },
    {
      "inputs": [],
      "name": "minSeedPrivate",
      "outputs": [
        {
          "internalType": "uint256",
          "name": "",
          "type": "uint256"
        }
      ],
      "stateMutability": "view",
      "type": "function"
    },
    {
      "inputs": [],
      "name": "minSeedPublic",
      "outputs": [
        {
          "internalType": "uint256",
          "name": "",
          "type": "uint256"
        }
      ],
      "stateMutability": "view",
      "type": "function"
    },
    {
      "inputs": [
        {
          "internalType": "address",
          "name": "",
          "type": "address"
        }
      ],
      "name": "nextOrderId",
      "outputs": [
        {
          "internalType": "uint256",
          "name": "",
          "type": "uint256"
        }
      ],
      "stateMutability": "view",
      "type": "function"
    },
    {
      "inputs": [
        {
          "internalType": "address",
          "name": "",
          "type": "address"
        },
        {
          "internalType": "uint256",
          "name": "",
          "type": "uint256"
        }
      ],
      "name": "optionNames",
      "outputs": [
        {
          "internalType": "string",
          "name": "",
          "type": "string"
        }
      ],
      "stateMutability": "view",
      "type": "function"
    },
    {
      "inputs": [
        {
          "internalType": "address",
          "name": "",
          "type": "address"
        },
        {
          "internalType": "uint256",
          "name": "",
          "type": "uint256"
        }
      ],
      "name": "outcomes",
      "outputs": [
        {
          "internalType": "uint256",
          "name": "virtualReserve",
          "type": "uint256"
        },
        {
          "internalType": "uint256",
          "name": "totalCost",
          "type": "uint256"
        },
        {
          "internalType": "uint256",
          "name": "circulatingShares",
          "type": "uint256"
        }
      ],
      "stateMutability": "view",
      "type": "function"
    },
    {
      "inputs": [
        {
          "internalType": "address",
          "name": "marketToken",
          "type": "address"
        }
      ],
      "name": "redeem",
      "outputs": [],
      "stateMutability": "nonpayable",
      "type": "function"
    },
    {
      "inputs": [
        {
          "internalType": "contract IERC20",
          "name": "token",
          "type": "address"
        }
      ],
      "name": "rescueToken",
      "outputs": [],
      "stateMutability": "nonpayable",
      "type": "function"
    },
    {
      "inputs": [
        {
          "internalType": "address",
          "name": "newWallet",
          "type": "address"
        }
      ],
      "name": "setInsuranceWallet",
      "outputs": [],
      "stateMutability": "nonpayable",
      "type": "function"
    },
    {
      "inputs": [
        {
          "internalType": "uint256",
          "name": "_minSeedPublic",
          "type": "uint256"
        },
        {
          "internalType": "uint256",
          "name": "_minSeedPrivate",
          "type": "uint256"
        }
      ],
      "name": "setMinSeed",
      "outputs": [],
      "stateMutability": "nonpayable",
      "type": "function"
    },
    {
      "inputs": [
        {
          "internalType": "uint256",
          "name": "minPool",
          "type": "uint256"
        },
        {
          "internalType": "uint256",
          "name": "maxPool",
          "type": "uint256"
        },
        {
          "internalType": "uint256",
          "name": "floor",
          "type": "uint256"
        },
        {
          "internalType": "uint256",
          "name": "maxOutcomes",
          "type": "uint256"
        }
      ],
      "name": "setPoolConfig",
      "outputs": [],
      "stateMutability": "nonpayable",
      "type": "function"
    },
    {
      "inputs": [
        {
          "internalType": "address",
          "name": "",
          "type": "address"
        },
        {
          "internalType": "address",
          "name": "",
          "type": "address"
        },
        {
          "internalType": "uint8",
          "name": "",
          "type": "uint8"
        }
      ],
      "name": "sharesLockedInOrders",
      "outputs": [
        {
          "internalType": "uint256",
          "name": "",
          "type": "uint256"
        }
      ],
      "stateMutability": "view",
      "type": "function"
    },
    {
      "inputs": [
        {
          "internalType": "address",
          "name": "marketToken",
          "type": "address"
        },
        {
          "internalType": "address[]",
          "name": "buyers",
          "type": "address[]"
        },
        {
          "internalType": "bool",
          "name": "status",
          "type": "bool"
        }
      ],
      "name": "togglePrivateEventBuyers",
      "outputs": [],
      "stateMutability": "nonpayable",
      "type": "function"
    },
    {
      "inputs": [
        {
          "internalType": "address",
          "name": "",
          "type": "address"
        },
        {
          "internalType": "address",
          "name": "",
          "type": "address"
        }
      ],
      "name": "userCanBuyEvent",
      "outputs": [
        {
          "internalType": "bool",
          "name": "",
          "type": "bool"
        }
      ],
      "stateMutability": "view",
      "type": "function"
    },
    {
      "inputs": [
        {
          "internalType": "address",
          "name": "",
          "type": "address"
        },
        {
          "internalType": "address",
          "name": "",
          "type": "address"
        },
        {
          "internalType": "uint8",
          "name": "",
          "type": "uint8"
        }
      ],
      "name": "userShares",
      "outputs": [
        {
          "internalType": "uint256",
          "name": "",
          "type": "uint256"
        }
      ],
      "stateMutability": "view",
      "type": "function"
    },
    {
      "inputs": [
        {
          "internalType": "address",
          "name": "marketToken",
          "type": "address"
        },
        {
          "internalType": "uint8",
          "name": "outcomeId",
          "type": "uint8"
        }
      ],
      "name": "vote",
      "outputs": [],
      "stateMutability": "nonpayable",
      "type": "function"
    },
    {
      "inputs": [
        {
          "internalType": "address",
          "name": "",
          "type": "address"
        },
        {
          "internalType": "address",
          "name": "",
          "type": "address"
        }
      ],
      "name": "voterChoice",
      "outputs": [
        {
          "internalType": "uint8",
          "name": "",
          "type": "uint8"
        }
      ],
      "stateMutability": "view",
      "type": "function"
    },
    {
      "stateMutability": "payable",
      "type": "receive"
    }
  ],
  "bytecode": "0x608060405262000019670de0b6b3a7640000600a6200010f565b600455600060055562000037670de0b6b3a76400006113886200010f565b60065562000050670de0b6b3a764000061c3506200010f565b60075562000069670de0b6b3a76400006101f46200010f565b600855609660095543600a553480156200008257600080fd5b506040516200638738038062006387833981016040819052620000a59162000158565b6001600081905580546001600160a01b03199081163317909155600280546001600160a01b0385811691909316179055811615620000e45780620000e6565b335b600380546001600160a01b0319166001600160a01b039290921691909117905550620001909050565b80820281158282048414176200013557634e487b7160e01b600052601160045260246000fd5b92915050565b80516001600160a01b03811681146200015357600080fd5b919050565b600080604083850312156200016c57600080fd5b62000177836200013b565b915062000187602084016200013b565b90509250929050565b6161e780620001a06000396000f3fe60806040526004361061037a5760003560e01c80636ea7c94f116101d1578063bceb514d11610102578063dc73d164116100a0578063edaac3c31161006f578063edaac3c314610bf3578063f34cacef14610c09578063fd61ebf414610c44578063fe6fa25b14610c7157600080fd5b8063dc73d16414610b5f578063e35c5bcf14610b75578063e5c966cb14610b95578063ed091eff14610bd357600080fd5b8063cf483b0e116100dc578063cf483b0e14610add578063d08e7b6914610af3578063d2b0f70514610b13578063dc69038414610b2957600080fd5b8063bceb514d14610a5f578063c28bf0ec14610a7f578063c74763b114610abd57600080fd5b80639a0fa76e1161016f578063a113625811610149578063a11362581461099f578063a30c302d146109bf578063a54be044146109ec578063b0ffb39614610a2757600080fd5b80639a0fa76e1461092e5780639b44cb3c14610969578063a10885711461097f57600080fd5b80638c9f3d7b116101ab5780638c9f3d7b146108995780638f0105b7146108b957806395a2251f146108ee57806398ff80751461090e57600080fd5b80636ea7c94f1461081e57806379583e2214610859578063800f090e1461087957600080fd5b806336641c10116102ab5780634ef39b75116102495780635c481719116102235780635c4817191461077a57806367781c0e146107a75780636a206137146107c35780636deef38b146107e357600080fd5b80634ef39b75146107275780635038e06c1461074757806350d1ea371461076757600080fd5b80633c4dfaa3116102855780633c4dfaa3146106825780634460d3cf146106af5780634d9ae633146106cf5780634dfdf0211461070757600080fd5b806336641c10146106205780633ab6f902146106355780633aefd7f91461065557600080fd5b80630f5f2ea4116103185780632239bb39116102f25780632239bb39146105aa5780632362c149146105ca57806325aafe65146105ea5780633173cd261461060a57600080fd5b80630f5f2ea414610554578063127a8ece1461057457806313abbfb61461059457600080fd5b806307a54c441161035457806307a54c44146104965780630af33845146104e15780630d5115af1461051c5780630e8b19fa1461053e57600080fd5b80630322d80e146103865780630523725a146103cb5780630524d57d146103f257600080fd5b3661038157005b600080fd5b34801561039257600080fd5b506103a66103a13660046152da565b610cfb565b6040805194855260208501939093529183015260608201526080015b60405180910390f35b3480156103d757600080fd5b506103e060fe81565b60405160ff90911681526020016103c2565b3480156103fe57600080fd5b5061045b61040d36600461530f565b6014602090815260009283526040808420909152908252902080546001820154600283015460038401546004909401546001600160a01b0384169460ff600160a01b90950485169490911686565b604080516001600160a01b03909716875260ff90951660208701529385019290925260608401526080830152151560a082015260c0016103c2565b3480156104a257600080fd5b506104d16104b136600461533b565b601860209081526000928352604080842090915290825290205460ff1681565b60405190151581526020016103c2565b3480156104ed57600080fd5b5061050e6104fc366004615374565b60106020526000908152604090205481565b6040519081526020016103c2565b34801561052857600080fd5b5061053c610537366004615391565b610dd8565b005b34801561054a57600080fd5b5061050e60075481565b34801561056057600080fd5b5061053c61056f366004615406565b610ea5565b34801561058057600080fd5b506103a661058f3660046152da565b611156565b3480156105a057600080fd5b5061050e60065481565b3480156105b657600080fd5b5061053c6105c5366004615459565b611268565b3480156105d657600080fd5b5061053c6105e536600461549d565b6115c5565b3480156105f657600080fd5b5061053c6106053660046154bf565b611680565b34801561061657600080fd5b5061050e61038481565b34801561062c57600080fd5b506103e060ff81565b34801561064157600080fd5b5061053c61065036600461556e565b6118ce565b34801561066157600080fd5b5061050e610670366004615374565b60136020526000908152604090205481565b34801561068e57600080fd5b506106a261069d36600461530f565b611a9e565b6040516103c2919061567e565b3480156106bb57600080fd5b5061053c6106ca366004615374565b611b57565b3480156106db57600080fd5b506002546106ef906001600160a01b031681565b6040516001600160a01b0390911681526020016103c2565b34801561071357600080fd5b5061050e610722366004615691565b611c64565b34801561073357600080fd5b5061053c610742366004615374565b611d81565b34801561075357600080fd5b506003546106ef906001600160a01b031681565b6106ef610775366004615843565b6124f4565b34801561078657600080fd5b5061050e610795366004615374565b601a6020526000908152604090205481565b3480156107b357600080fd5b5061050e670de0b6b3a764000081565b3480156107cf57600080fd5b5061053c6107de36600461530f565b612a4c565b3480156107ef57600080fd5b506104d16107fe36600461533b565b601760209081526000928352604080842090915290825290205460ff1681565b34801561082a57600080fd5b506103e061083936600461533b565b601960209081526000928352604080842090915290825290205460ff1681565b34801561086557600080fd5b5061053c6108743660046152da565b612b69565b34801561088557600080fd5b506106ef61089436600461530f565b613193565b3480156108a557600080fd5b5061053c6108b436600461591b565b6131cb565b3480156108c557600080fd5b506108d96108d436600461595b565b613527565b604080519283526020830191909152016103c2565b3480156108fa57600080fd5b5061053c610909366004615374565b61357b565b34801561091a57600080fd5b5061053c610929366004615374565b613a1e565b34801561093a57600080fd5b5061094e61094936600461530f565b613cc3565b604080519384526020840192909252908201526060016103c2565b34801561097557600080fd5b5061050e600a5481565b34801561098b57600080fd5b506001546106ef906001600160a01b031681565b3480156109ab57600080fd5b5061053c6109ba366004615974565b613d05565b3480156109cb57600080fd5b506109df6109da366004615374565b613da9565b6040516103c291906159a6565b3480156109f857600080fd5b506104d1610a0736600461533b565b601160209081526000928352604080842090915290825290205460ff1681565b348015610a3357600080fd5b50610a47610a42366004615374565b613f51565b6040516103c29c9b9a99989796959493929190615a90565b348015610a6b57600080fd5b5061053c610a7a366004615b1b565b614051565b348015610a8b57600080fd5b5061050e610a9a366004615b50565b601260209081526000938452604080852082529284528284209052825290205481565b348015610ac957600080fd5b5061053c610ad8366004615b97565b6143dd565b348015610ae957600080fd5b5061050e60055481565b348015610aff57600080fd5b5061053c610b0e366004615374565b6144b2565b348015610b1f57600080fd5b5061050e60045481565b348015610b3557600080fd5b5061050e610b44366004615374565b6001600160a01b03166000908152600e602052604090205490565b348015610b6b57600080fd5b5061050e60095481565b348015610b8157600080fd5b5061053c610b90366004615c24565b6144fe565b348015610ba157600080fd5b5061050e610bb0366004615b50565b601560209081526000938452604080852082529284528284209052825290205481565b348015610bdf57600080fd5b5061053c610bee366004615374565b6146af565b348015610bff57600080fd5b5061050e60085481565b348015610c1557600080fd5b506104d1610c2436600461533b565b601b60209081526000928352604080842090915290825290205460ff1681565b348015610c5057600080fd5b5061050e610c5f366004615374565b600d6020526000908152604090205481565b348015610c7d57600080fd5b50610cc6610c8c366004615374565b600b602052600090815260409020805460018201546002909201546001600160a01b0391821692821691811690600160a01b900460ff1684565b6040516103c294939291906001600160a01b039485168152928416602084015292166040820152901515606082015260800190565b600080600080600080610d0e8989614743565b509092509050610d2081612710615c97565b610d2a9083615cb0565b610d3c670de0b6b3a764000089615cb0565b610d4890612710615cb0565b610d529190615cdd565b6001600160a01b038a1660009081526014602090815260408083208c845290915290206001015490965080871115610d88578096505b670de0b6b3a7640000610d9b8489615cb0565b610da59190615cdd565b9550612710610db48388615cb0565b610dbe9190615cdd565b9450610dca8587615c97565b935050505093509350935093565b6001546001600160a01b03163314610e0b5760405162461bcd60e51b8152600401610e0290615cf1565b60405180910390fd5b604080516080810182526001600160a01b03948516815292841660208085019182529285168483019081526001606086018181529787166000908152600b90955292909320935184549086166001600160a01b03199182161785559051918401805492861692909116919091179055516002909101805493511515600160a01b026001600160a81b03199094169190921617919091179055565b6002546001600160a01b03163314610eec5760405162461bcd60e51b815260206004820152600a6024820152694f6e6c7920746178657360b01b6044820152606401610e02565b6001600160a01b038084166000908152600c60205260409020805490911615801590610f185750600083115b610f555760405162461bcd60e51b815260206004820152600e60248201526d496e76616c696420646f6e61746560901b6044820152606401610e02565b60038101546040516323b872dd60e01b81526001600160a01b03909116906323b872dd90610f8b90339030908890600401615d13565b6020604051808303816000875af1158015610faa573d6000803e3d6000fd5b505050506040513d601f19601f82011682018060405250810190610fce9190615d37565b610fd757600080fd5b6007810154610100900460ff1615611074576003810154600182015460405163a9059cbb60e01b81526001600160a01b039283169263a9059cbb92611023929116908790600401615d54565b6020604051808303816000875af1158015611042573d6000803e3d6000fd5b505050506040513d601f19601f820116820180604052508101906110669190615d37565b61106f57600080fd5b611150565b81156110f1576001600160a01b038416600090815260106020526040812080548592906110a2908490615c97565b92505081905550836001600160a01b03167f25e33bc79ac15af5e1835b00d0237baf0f8fb880e806ba1761fdf4c0e70c0cb533856040516110e4929190615d54565b60405180910390a2611150565b828160080160008282546111059190615c97565b92505081905550836001600160a01b03167f14d538105700d00b983b38e9d9e0934c9bf322afde76ede7fa98f9e4ab5eef4c3385604051611147929190615d54565b60405180910390a25b50505050565b6000806000806000806111698989614743565b509092509050670de0b6b3a76400006111828389615cb0565b61118c9190615cdd565b955061271061119b8288615cb0565b6111a59190615cdd565b94506111b18587615c97565b6002546001600160a01b038b811660008181526014602090815260408083208f8452909152808220549051631685774f60e01b8152600481019390935283166024830152939750911690631685774f90604401602060405180830381865afa158015611221573d6000803e3d6000fd5b505050506040513d601f19601f820116820180604052508101906112459190615d6d565b90506127106112548289615cb0565b61125e9190615cdd565b610dca9088615d86565b611270614884565b6001600160a01b0384166000908152600c6020526040902060070154610100900460ff16156112cc5760405162461bcd60e51b81526020600482015260086024820152671c995cdbdb1d995960c21b6044820152606401610e02565b80158061131757506112e86103e8670de0b6b3a7640000615cdd565b811015801561131757506103e8611309670de0b6b3a76400006103e7615cb0565b6113139190615cdd565b8111155b61134f5760405162461bcd60e51b815260206004820152600960248201526857726f6e672070707360b81b6044820152606401610e02565b6001600160a01b03841660008181526012602090815260408083203380855290835281842060ff891680865290845282852054958552601584528285209185529083528184209084529091529020546113a88482615c97565b8210156113e35760405162461bcd60e51b81526020600482015260096024820152684e6f2073686172657360b81b6044820152606401610e02565b6001600160a01b0386166000908152601560209081526040808320338452825280832060ff8916845290915281208054869290611421908490615c97565b90915550506001600160a01b03861660009081526013602052604081208054908261144b83615d99565b9190505590506040518060c00160405280336001600160a01b031681526020018760ff1681526020018681526020018681526020018581526020016001151581525060146000896001600160a01b03166001600160a01b03168152602001908152602001600020600083815260200190815260200160002060008201518160000160006101000a8154816001600160a01b0302191690836001600160a01b0316021790555060208201518160000160146101000a81548160ff021916908360ff16021790555060408201518160010155606082015181600201556080820151816003015560a08201518160040160006101000a81548160ff021916908315150217905550905050336001600160a01b031681886001600160a01b03167f0b85cc82bfcaadb636df2fc0c642f8538c42add49e65af17494ea8d842ff7a0c8989896040516115b09392919060ff9390931683526020830191909152604082015260600190565b60405180910390a45050506111506001600055565b6001546001600160a01b031633146115ef5760405162461bcd60e51b8152600401610e0290615cf1565b811580611616575061160a670de0b6b3a7640000600a615cb0565b6116149083615db2565b155b6116325760405162461bcd60e51b8152600401610e0290615dc6565b801580611659575061164d670de0b6b3a7640000600a615cb0565b6116579082615db2565b155b6116755760405162461bcd60e51b8152600401610e0290615dc6565b600491909155600555565b611688614884565b6001600160a01b0386166000908152600c6020526040902060070154610100900460ff161580156116d357506001600160a01b0386166000908152600e602052604090205460ff8616105b80156116df5750600083115b6116e857600080fd5b6001600160a01b0386166000908152600c60205260409020600a015460ff16158061173657506001600160a01b038616600090815260176020908152604080832033845290915290205460ff165b6117675760405162461bcd60e51b815260206004820152600260248201526115d360f21b6044820152606401610e02565b856001600160a01b031663054f7d9c6040518163ffffffff1660e01b8152600401602060405180830381865afa1580156117a5573d6000803e3d6000fd5b505050506040513d601f19601f820116820180604052508101906117c99190615d37565b1561186757604051636c9b2a3f60e11b81523360048201526001600160a01b0387169063d936547e90602401602060405180830381865afa158015611812573d6000803e3d6000fd5b505050506040513d601f19601f820116820180604052508101906118369190615d37565b6118675760405162461bcd60e51b815260206004820152600260248201526115d360f21b6044820152606401610e02565b60006118748786866148dd565b9050828110156118af5760405162461bcd60e51b8152600401610e02906020808252600490820152635553444360e01b604082015260600190565b6118bb87878385614ae8565b506118c66001600055565b505050505050565b6001600160a01b038088166000908152600c60205260409020600181015490911633146118fa57600080fd5b811561196e578054604051632bcf8fa160e01b81526001600160a01b0390911690632bcf8fa190611937908a908a908a908a908a90600401615e3a565b600060405180830381600087803b15801561195157600080fd5b505af1158015611965573d6000803e3d6000fd5b50505050611a17565b60005b86811015611a155781546001600160a01b031663a6667e1889898481811061199b5761199b615e89565b90506020020160208101906119b09190615374565b6040516001600160e01b031960e084901b1681526001600160a01b039091166004820152602401600060405180830381600087803b1580156119f157600080fd5b505af1158015611a05573d6000803e3d6000fd5b5050600190920191506119719050565b505b60005b86811015611a93576001600160a01b038916600090815260176020526040812084918a8a85818110611a4e57611a4e615e89565b9050602002016020810190611a639190615374565b6001600160a01b031681526020810191909152604001600020805460ff1916911515919091179055600101611a1a565b505050505050505050565b600e6020528160005260406000208181548110611aba57600080fd5b90600052602060002001600091509150508054611ad690615e9f565b80601f0160208091040260200160405190810160405280929190818152602001828054611b0290615e9f565b8015611b4f5780601f10611b2457610100808354040283529160200191611b4f565b820191906000526020600020905b815481529060010190602001808311611b3257829003601f168201915b505050505081565b6001546001600160a01b03163314611b815760405162461bcd60e51b8152600401610e0290615cf1565b6001546040516370a0823160e01b81523060048201526001600160a01b038381169263a9059cbb9291169083906370a0823190602401602060405180830381865afa158015611bd4573d6000803e3d6000fd5b505050506040513d601f19601f82011682018060405250810190611bf89190615d6d565b6040518363ffffffff1660e01b8152600401611c15929190615d54565b6020604051808303816000875af1158015611c34573d6000803e3d6000fd5b505050506040513d601f19601f82011682018060405250810190611c589190615d37565b611c6157600080fd5b50565b6001600160a01b0384166000908152600c6020526040812082915b84811015611d77576001600160a01b038716600090815260146020526040812081888885818110611cb257611cb2615e89565b60209081029290920135835250810191909152604001600020600481015490915060ff161580611ceb57506007830154610100900460ff165b15611cf65750611d6f565b600080611d1c8a8a8a87818110611d0f57611d0f615e89565b9050602002013588610cfb565b9350505091506000821115611d5b57611d4e8a8a8a87818110611d4157611d41615e89565b9050602002013584612b69565b611d588187615d86565b95505b85600003611d6b57505050611d77565b5050505b600101611c7f565b5050949350505050565b611d89614884565b6001600160a01b0381166000908152600c602052604090206007810154610100900460ff1615611dcb5760405162461bcd60e51b8152600401610e0290615ed9565b6001600160a01b0382166000908152600d602052604090205415801590611e1757506001600160a01b0382166000908152600d6020526040902054611e139061038490615c97565b4210155b611e4b5760405162461bcd60e51b81526020600482015260056024820152646561726c7960d81b6044820152606401610e02565b6001600160a01b0382166000908152601660205260409020611e6b6151d8565b6000805b8354811015611f18576001600160a01b038616600090815260196020526040812085548290879085908110611ea657611ea6615e89565b60009182526020808320909101546001600160a01b0316835282019290925260400190205460ff90811691508114611f0f57838160ff166101008110611eee57611eee615e89565b60200201805190611efe82615d99565b90525082611f0b81615d99565b9350505b50600101611e6f565b5060008111611f545760405162461bcd60e51b81526020600482015260086024820152674e6f20766f74657360c01b6044820152606401610e02565b6001600160a01b0385166000908152600e602052604081205460ff9190815b81811015611fc0578286826101008110611f8f57611f8f615e89565b60200201511115611fb85785816101008110611fad57611fad615e89565b602002015192508093505b600101611f73565b50611fc0850151821015611fdb57611fc085015160fe935091505b6000805b8281101561201b578387826101008110611ffb57611ffb615e89565b602002015103612013578161200f81615d99565b9250505b600101611fdf565b50611fc0860151839003612037578061203381615d99565b9150505b60018111156120d0576001600160a01b03808a16600090815260196020908152604080832060018d01549094168352929052205460ff1660fe1981016120ae5760405162461bcd60e51b815260206004820152600c60248201526b746965627265616b2072657160a01b6044820152606401610e02565b809450868560ff1661010081106120c7576120c7615e89565b60200201519350505b60ff841660fe1480159061212257506001600160a01b0389166000908152600f60205260409020805460ff861690811061210c5761210c615e89565b9060005260206000209060030201600201546000145b156122b357600888018054600091829055905b838160ff1610156121e2576001600160a01b038b166000908152600f60205260409020805460ff831690811061216d5761216d615e89565b9060005260206000209060030201600101548261218a9190615c97565b6001600160a01b038c166000908152600f602052604081208054929450909160ff84169081106121bc576121bc615e89565b6000918252602090912060016003909202010155806121da81615eff565b915050612135565b5080156122b1576003808a0154905460405163a9059cbb60e01b81526001600160a01b039283169263a9059cbb92612221929116908590600401615d54565b6020604051808303816000875af1158015612240573d6000803e3d6000fd5b505050506040513d601f19601f820116820180604052508101906122649190615d37565b61226d57600080fd5b896001600160a01b03167ff7ff2ef5a01f26e6ce9e3a3d5f1edb95617e11a6bb75673719135af1c08cd04b826040516122a891815260200190565b60405180910390a25b505b6001600160a01b038916600090815260106020526040902054801561248a576001600160a01b038a1660009081526010602052604081208190558760ff8716610100811061230357612303615e89565b6020020151111561240657868560ff16610100811061232457612324615e89565b60200201516123339082615cdd565b6001600160a01b038b166000908152601a60205260408120919091558760ff8716610100811061236557612365615e89565b60200201516123749083615db2565b90508015612400576003808b0154905460405163a9059cbb60e01b81526001600160a01b039283169263a9059cbb926123b4929116908590600401615d54565b6020604051808303816000875af11580156123d3573d6000803e3d6000fd5b505050506040513d601f19601f820116820180604052508101906123f79190615d37565b61240057600080fd5b5061248a565b6003808a0154905460405163a9059cbb60e01b81526001600160a01b039283169263a9059cbb9261243e929116908590600401615d54565b6020604051808303816000875af115801561245d573d6000803e3d6000fd5b505050506040513d601f19601f820116820180604052508101906124819190615d37565b61248a57600080fd5b60078901805461ffff191660ff8716908117610100179091556040519081526001600160a01b038b16907f9076d5afb77542e61d99a7f7a9ca19ff3de45558162277f7461f70a2cd4d801a9060200160405180910390a2505050505050505050611c616001600055565b6001600160a01b0385166000908152600b602052604081206002810154600160a01b900460ff168015612525575088155b8061253a575061253642603c615c97565b8910155b6125795760405162461bcd60e51b815260206004820152601060248201526f496e76616c69642065636f2f74696d6560801b6044820152606401610e02565b856125865760045461258a565b6005545b8310156125c45760405162461bcd60e51b815260206004820152600860248201526753656564206c6f7760c01b6044820152606401610e02565b8215806125eb57506125df670de0b6b3a7640000600a615cb0565b6125e99084615db2565b155b6126075760405162461bcd60e51b8152600401610e0290615dc6565b612614818b8d8888614e85565b915082156126cf5760028101546040516323b872dd60e01b81526001600160a01b03909116906323b872dd9061265290339030908890600401615d13565b6020604051808303816000875af1158015612671573d6000803e3d6000fd5b505050506040513d601f19601f820116820180604052508101906126959190615d37565b6126cf5760405162461bcd60e51b815260206004820152600b60248201526a14d959590819985a5b195960aa1b6044820152606401610e02565b8751600281108015906126e457506009548111155b61271e5760405162461bcd60e51b815260206004820152600b60248201526a27baba31b7b6b29032b93960a91b6044820152606401610e02565b604051806101800160405280846001600160a01b03168152602001336001600160a01b03168152602001896001600160a01b031681526020018360020160009054906101000a90046001600160a01b03166001600160a01b031681526020018d81526020014281526020018b815260200160ff8016815260200160001515815260200185815260200160008152602001881515815250600c6000856001600160a01b03166001600160a01b0316815260200190815260200160002060008201518160000160006101000a8154816001600160a01b0302191690836001600160a01b0316021790555060208201518160010160006101000a8154816001600160a01b0302191690836001600160a01b0316021790555060408201518160020160006101000a8154816001600160a01b0302191690836001600160a01b0316021790555060608201518160030160006101000a8154816001600160a01b0302191690836001600160a01b0316021790555060808201518160040190816128a29190615f66565b5060a0820151600582015560c0820151600682015560e08201516007820180546101008086015160ff90941661ffff1990921691909117921515029190911790556101208201516008820155610140820151600982015561016090910151600a909101805460ff191691151591909117905561291f83828b61507a565b6001600160a01b0380841660008181526016602090815260408083208054600181810183559185528385200180546001600160a01b03191633908117909155858552601884528285208186528452828520805460ff1990811690931790559484526019835281842085855290925291829020805490911660ff1790556002549051639a32d88f60e01b8152921691639a32d88f916129c69187919061271090600401615d13565b600060405180830381600087803b1580156129e057600080fd5b505af11580156129f4573d6000803e3d6000fd5b5050604080513381526001600160a01b038c81166020830152871693507fe63e6130091e2155004c4b5ac35e8fb9be704d6637ff3068a8f710ba36c9f41a92500160405180910390a250509998505050505050505050565b6001600160a01b038083166000908152601460209081526040808320858452909152902080549091163314612a935760405162461bcd60e51b8152600401610e0290615ed9565b600481015460ff16612ad25760405162461bcd60e51b8152602060048201526008602482015267696e61637469766560c01b6044820152606401610e02565b60048101805460ff1916905560018101546001600160a01b038416600090815260156020908152604080832033845282528083208554600160a01b900460ff16845290915281208054909190612b29908490615d86565b909155505060405182906001600160a01b038516907fdd003742fb214507783ce004fe55f5ac14f89c6de4a7cd7487e47eb091c6226590600090a3505050565b612b71614884565b6001600160a01b03831660008181526014602090815260408083208684528252808320938352600c9091529020600482015460ff168015612bbc57506007810154610100900460ff16155b612bf35760405162461bcd60e51b8152602060048201526008602482015267696e61637469766560c01b6044820152606401610e02565b600083118015612c07575081600101548311155b612c425760405162461bcd60e51b815260206004820152600c60248201526b125b9d985b1a5908199a5b1b60a21b6044820152606401610e02565b8154336001600160a01b0390911603612c895760405162461bcd60e51b815260206004820152600960248201526814d95b1988199a5b1b60ba1b6044820152606401610e02565b60098101546001600160a01b0386166000908152600f6020526040812084548154929392670de0b6b3a76400009291600160a01b900460ff16908110612cd157612cd1615e89565b906000526020600020906003020160000154612ced9190615cb0565b612cf79190615cdd565b905060008360030154600014612d11578360030154612d13565b815b905081811115612d585760405162461bcd60e51b815260206004820152601060248201526f70726963652061626f7665206d61726b60801b6044820152606401610e02565b6001600160a01b038781166000908152601260209081526040808320885494851684528252808320600160a01b90940460ff1683529290522054851115612dcd5760405162461bcd60e51b81526020600482015260096024820152686e6f2073686172657360b81b6044820152606401610e02565b6000806000612ddd8a8a8a611156565b60038a01546040516323b872dd60e01b815294975091955093506001600160a01b0316916323b872dd9150612e1a90339030908790600401615d13565b6020604051808303816000875af1158015612e39573d6000803e3d6000fd5b505050506040513d601f19601f82011682018060405250810190612e5d9190615d37565b612e6657600080fd5b6000612e728284615d86565b90508015612f6557600387015460025460405163095ea7b360e01b81526001600160a01b039283169263095ea7b392612eb2929116908590600401615d54565b6020604051808303816000875af1158015612ed1573d6000803e3d6000fd5b505050506040513d601f19601f82011682018060405250810190612ef59190615d37565b612efe57600080fd5b60025460405163ccb9132960e01b8152600481018390526001600160a01b038d811660248301529091169063ccb9132990604401600060405180830381600087803b158015612f4c57600080fd5b505af1158015612f60573d6000803e3d6000fd5b505050505b6001600160a01b038b811660009081526015602090815260408083208c5494851684528252808320600160a01b90940460ff16835292905290812080548b9290612fb0908490615d86565b90915550506001600160a01b038b811660009081526012602090815260408083208c5494851684528252808320600160a01b90940460ff16835292905290812080548b9290613000908490615d86565b90915550506001600160a01b038b16600090815260126020908152604080832033845282528083208b54600160a01b900460ff168452909152812080548b929061304b908490615c97565b90915550506001600160a01b038b1660009081526011602090815260408083203384529091528120805460ff19166001908117909155890180548b9290613093908490615d86565b909155505060018801546000036130b15760048801805460ff191690555b6003870154885460405163a9059cbb60e01b81526001600160a01b039283169263a9059cbb926130e8929116908690600401615d54565b6020604051808303816000875af1158015613107573d6000803e3d6000fd5b505050506040513d601f19601f8201168201806040525081019061312b9190615d37565b61313457600080fd5b604080518a81526020810186905233918c916001600160a01b038f16917f460c0f64c6d95e6b900204c8d8f39acad3847c5278b1706fcee5cb8f844dfb12910160405180910390a4505050505050505061318e6001600055565b505050565b601660205281600052604060002081815481106131af57600080fd5b6000918252602090912001546001600160a01b03169150829050565b6001600160a01b038381166000908152600c60205260409020600181015490911633146132295760405162461bcd60e51b815260206004820152600c60248201526b27b7363c9031b932b0ba37b960a11b6044820152606401610e02565b6001600160a01b0383166132695760405162461bcd60e51b8152602060048201526007602482015266125b9d985b1a5960ca1b6044820152606401610e02565b6001600160a01b03841660009081526016602052604090208215613351576001600160a01b0380861660009081526018602090815260408083209388168352929052205460ff16156132e85760405162461bcd60e51b815260206004820152600860248201526734b9903b37ba32b960c11b6044820152606401610e02565b8054600b116133215760405162461bcd60e51b815260206004820152600560248201526413585e195960da1b6044820152606401610e02565b80546001810182556000828152602090200180546001600160a01b0319166001600160a01b0386161790556134cf565b6001600160a01b0380861660009081526018602090815260408083209388168352929052205460ff168015613396575060018201546001600160a01b03858116911614155b6133d05760405162461bcd60e51b815260206004820152600b60248201526a43616e742072656d6f766560a81b6044820152606401610e02565b805460005b818110156134cc57856001600160a01b03168382815481106133f9576133f9615e89565b6000918252602090912001546001600160a01b0316036134c4578261341f600184615d86565b8154811061342f5761342f615e89565b9060005260206000200160009054906101000a90046001600160a01b031683828154811061345f5761345f615e89565b9060005260206000200160006101000a8154816001600160a01b0302191690836001600160a01b031602179055508280548061349d5761349d616026565b600082815260209020810160001990810180546001600160a01b03191690550190556134cc565b6001016133d5565b50505b50506001600160a01b03928316600081815260186020908152604080832095909616808352948152858220805494151560ff1995861617905591815260198252848120938152929052919020805490911660ff179055565b600080600a831161354757826006546135409190615cdd565b915061356a565b6064831161355957600854915061356a565b826007546135679190615cdd565b91505b6135748383615cb0565b9050915091565b613583614884565b6001600160a01b0381166000908152600c602052604090206007810154610100900460ff166135e15760405162461bcd60e51b815260206004820152600a6024820152691d5b9c995cdbdb1d995960b21b6044820152606401610e02565b60078101546001600160a01b0383166000908152600e602052604081205460ff9092169160fd19830161376b5760008060005b838160ff161015613722576001600160a01b0388166000908152600f60205260408120805460ff841690811061364c5761364c615e89565b600091825260208083206001600160a01b038d168452601282526040808520338652835280852060ff881686529092529220546003909102909101915080156136cc57600082600201548360010154836136a69190615cb0565b6136b09190615cdd565b90506136bc8189615c97565b97506136c88186615c97565b9450505b60018201546136db9086615c97565b6001600160a01b038b166000908152601260209081526040808320338452825280832060ff88168452909152812055945082915061371a905081615eff565b915050613614565b50600082118015613737575060008660080154115b15613764578186600801548261374d9190615cb0565b6137579190615cdd565b6137619085615c97565b93505b50506138ef565b600884015460005b828160ff1610156137dc576001600160a01b0387166000908152600f60205260409020805460ff83169081106137ab576137ab615e89565b906000526020600020906003020160010154826137c89190615c97565b9150806137d481615eff565b915050613773565b506001600160a01b0386166000908152601260209081526040808320338452825280832060ff88168452909152902054806138455760405162461bcd60e51b81526020600482015260096024820152684e6f2073686172657360b81b6044820152606401610e02565b6001600160a01b0387166000908152600f60205260409020805460ff871690811061387257613872615e89565b90600052602060002090600302016002015482826138909190615cb0565b61389a9190615cdd565b935060005b838160ff1610156138eb576001600160a01b0388166000908152601260209081526040808320338452825280832060ff85168452909152812055806138e381615eff565b91505061389f565b5050505b6000821161392b5760405162461bcd60e51b8152602060048201526009602482015268139bc81c185e5bdd5d60ba1b6044820152606401610e02565b6001600160a01b03808616600090815260116020908152604080832033808552925291829020805460ff191690556003870154915163a9059cbb60e01b8152919092169163a9059cbb9161398491908690600401615d54565b6020604051808303816000875af11580156139a3573d6000803e3d6000fd5b505050506040513d601f19601f820116820180604052508101906139c79190615d37565b6139d057600080fd5b60405182815233906001600160a01b038716907fe56f2a0b89d7c833e0a6dcfc5d27d51bafc276ac3da07c7d56b866c38c592fba9060200160405180910390a350505050611c616001600055565b613a26614884565b6001600160a01b0381166000908152600c602052604090206007810154610100900460ff168015613a7a57506001600160a01b038216600090815260186020908152604080832033845290915290205460ff165b613ab25760405162461bcd60e51b81526020600482015260096024820152682737ba103b37ba32b960b91b6044820152606401610e02565b60078101546001600160a01b038316600090815260196020908152604080832033845290915290205460ff908116911614613b1c5760405162461bcd60e51b815260206004820152600a602482015269696e656c696769626c6560b01b6044820152606401610e02565b6001600160a01b0382166000908152601b6020908152604080832033845290915290205460ff1615613b7a5760405162461bcd60e51b815260206004820152600760248201526610db185a5b595960ca1b6044820152606401610e02565b6001600160a01b0382166000908152601a602052604090205480613bcc5760405162461bcd60e51b81526020600482015260096024820152684e6f20626f756e747960b81b6044820152606401610e02565b6001600160a01b038084166000908152601b6020908152604080832033808552925291829020805460ff191660011790556003850154915163a9059cbb60e01b8152919092169163a9059cbb91613c2891908590600401615d54565b6020604051808303816000875af1158015613c47573d6000803e3d6000fd5b505050506040513d601f19601f82011682018060405250810190613c6b9190615d37565b613c7457600080fd5b826001600160a01b03167ffabeff5fb4cfe045bc080a31efc5d2327ce88b74be2a546ab4d341d47d80dbb73383604051613caf929190615d54565b60405180910390a25050611c616001600055565b600f6020528160005260406000208181548110613cdf57600080fd5b600091825260209091206003909102018054600182015460029092015490935090915083565b6001546001600160a01b03163314613d2f5760405162461bcd60e51b8152600401610e0290615cf1565b600084118015613d3f5750838310155b8015613d4b5750600082115b8015613d58575060028110155b613d955760405162461bcd60e51b815260206004820152600e60248201526d496e76616c696420636f6e66696760901b6044820152606401610e02565b600693909355600791909155600855600955565b60408051610180810182526000808252602082018190529181018290526060808201839052608082015260a0810182905260c0810182905260e081018290526101008101829052610120810182905261014081018290526101608101919091526001600160a01b038083166000908152600c60209081526040918290208251610180810184528154851681526001820154851692810192909252600281015484169282019290925260038201549092166060830152600481018054608084019190613e7390615e9f565b80601f0160208091040260200160405190810160405280929190818152602001828054613e9f90615e9f565b8015613eec5780601f10613ec157610100808354040283529160200191613eec565b820191906000526020600020905b815481529060010190602001808311613ecf57829003601f168201915b50505091835250506005820154602082015260068201546040820152600782015460ff8082166060840152610100909104811615156080830152600883015460a0830152600983015460c0830152600a90920154909116151560e09091015292915050565b600c60205260009081526040902080546001820154600283015460038401546004850180546001600160a01b039586169694861695938416949290931692613f9890615e9f565b80601f0160208091040260200160405190810160405280929190818152602001828054613fc490615e9f565b80156140115780601f10613fe657610100808354040283529160200191614011565b820191906000526020600020905b815481529060010190602001808311613ff457829003601f168201915b5050505060058301546006840154600785015460088601546009870154600a909701549596939592945060ff80831694610100909304811693919291168c565b614059614884565b6001600160a01b038083166000908152600c60209081526040808320600154601884528285203380875294529190932054929316149060ff168061409a5750805b6140cf5760405162461bcd60e51b8152600401610e0290602080825260049082015263082eae8d60e31b604082015260600190565b6007820154610100900460ff16156141145760405162461bcd60e51b815260206004820152600860248201526714995cdbdb1d995960c21b6044820152606401610e02565b808015614124575060ff831660fe145b1561426b576001600160a01b0384166000908152601060205260408120805491905580156141d057600380840154905460405163a9059cbb60e01b81526001600160a01b039283169263a9059cbb92614184929116908590600401615d54565b6020604051808303816000875af11580156141a3573d6000803e3d6000fd5b505050506040513d601f19601f820116820180604052508101906141c79190615d37565b6141d057600080fd5b60078301805461ffff19166101fe17905560405160fe81526001600160a01b038616907f9076d5afb77542e61d99a7f7a9ca19ff3de45558162277f7461f70a2cd4d801a9060200160405180910390a2846001600160a01b03167ff7ff2ef5a01f26e6ce9e3a3d5f1edb95617e11a6bb75673719135af1c08cd04b8260405161425b91815260200190565b60405180910390a25050506143cf565b6001600160a01b0384166000908152600e602052604090205460ff8416811180614298575060ff841660fe145b6142ca5760405162461bcd60e51b815260206004820152600360248201526227a7a160e91b6044820152606401610e02565b600083600601546000146142e25783600601546142e8565b83600501545b9050804210156143265760405162461bcd60e51b8152602060048201526009602482015268546f6f206561726c7960b81b6044820152606401610e02565b6001600160a01b0386166000908152600d60205260408120549003614361576001600160a01b0386166000908152600d602052604090204290555b6001600160a01b03861660008181526019602090815260408083203380855290835292819020805460ff191660ff8b1690811790915590519081529192917fab895d1f3cae93a90b4646f8fcf081d6054cda65886bc30f67658360de82808d910160405180910390a3505050505b6143d96001600055565b5050565b6001600160a01b0387166000908152601260209081526040808320338452825280832060ff8a1684529091528120549061441989888887611c64565b905080156144305761443089898784600080611680565b6001600160a01b0389166000908152601260209081526040808320338452825280832060ff8c16845290915281205461446a908490615d86565b9050838110156144a65760405162461bcd60e51b81526020600482015260076024820152661b5a5b881bdd5d60ca1b6044820152606401610e02565b50505050505050505050565b6001546001600160a01b031633146144dc5760405162461bcd60e51b8152600401610e0290615cf1565b600380546001600160a01b0319166001600160a01b0392909216919091179055565b6001600160a01b038481166000908152600c602052604090206001810154909116331480156145315750600a81015460ff165b61454d5760405162461bcd60e51b8152600401610e0290615ed9565b81156145bb578054604051632bcf8fa160e01b81526001600160a01b0390911690632bcf8fa19061458890879087906000199060040161603c565b600060405180830381600087803b1580156145a257600080fd5b505af11580156145b6573d6000803e3d6000fd5b505050505b60005b838110156118c65760008585838181106145da576145da615e89565b90506020020160208101906145ef9190615374565b60018401549091506001600160a01b039081169082160361461057506146a7565b6001600160a01b038781166000908152601760209081526040808320938516835292905220805460ff1916851515179055836146a55782546040516314cccfc360e31b81526001600160a01b0383811660048301529091169063a6667e1890602401600060405180830381600087803b15801561468c57600080fd5b505af11580156146a0573d6000803e3d6000fd5b505050505b505b6001016145be565b6001600160a01b038181166000908152600c60205260409020600101541633146146d857600080fd5b6001600160a01b038082166000908152600c6020526040808220548151636edf7b7560e01b81529151931692636edf7b759260048084019391929182900301818387803b15801561472857600080fd5b505af115801561473c573d6000803e3d6000fd5b5050505050565b6001600160a01b03821660008181526014602090815260408083208584528252808320938352600c82528083206009810154600f909352908320845481549495869586959194938693670de0b6b3a764000092600160a01b90910460ff169081106147b0576147b0615e89565b9060005260206000209060030201600001546147cc9190615cb0565b6147d69190615cdd565b905082600301546000146147ee5782600301546147f0565b805b600254604051631685774f60e01b81526001600160a01b038b81166004830152336024830152929850911690631685774f90604401602060405180830381865afa158015614842573d6000803e3d6000fd5b505050506040513d601f19601f820116820180604052508101906148669190615d6d565b6003909201549598919750506001600160a01b039094169450505050565b6002600054036148d65760405162461bcd60e51b815260206004820152601f60248201527f5265656e7472616e637947756172643a207265656e7472616e742063616c6c006044820152606401610e02565b6002600055565b6001600160a01b038084166000908152600c60209081526040808320600281015485168452600b9092528220600382015492939192909186811691161480614934575060028201546001600160a01b038681169116145b806149505750856001600160a01b0316856001600160a01b0316145b61495957600080fd5b6040516323b872dd60e01b81526001600160a01b038616906323b872dd9061498990339030908990600401615d13565b6020604051808303816000875af11580156149a8573d6000803e3d6000fd5b505050506040513d601f19601f820116820180604052508101906149cc9190615d37565b6149d557600080fd5b600181015460405163095ea7b360e01b81526001600160a01b038781169263095ea7b392614a0b92909116908890600401615d54565b6020604051808303816000875af1158015614a2a573d6000803e3d6000fd5b505050506040513d601f19601f82011682018060405250810190614a4e9190615d37565b614a5757600080fd5b6001810154604051635e1326fb60e01b81526001600160a01b0390911690635e1326fb90614a8d90899089908990600401615d13565b6020604051808303816000875af1158015614aac573d6000803e3d6000fd5b505050506040513d601f19601f82011682018060405250810190614ad09190615d6d565b925060008311614adf57600080fd5b50509392505050565b600254604051631685774f60e01b81526001600160a01b0386811660048301523360248301526000928392911690631685774f90604401602060405180830381865afa158015614b3c573d6000803e3d6000fd5b505050506040513d601f19601f82011682018060405250810190614b609190615d6d565b90506000612710614b718387615cb0565b614b7b9190615cdd565b90508015614c7f576001600160a01b038088166000908152600c60205260409081902060030154600254915163095ea7b360e01b81529083169263095ea7b392614bcc929116908590600401615d54565b6020604051808303816000875af1158015614beb573d6000803e3d6000fd5b505050506040513d601f19601f82011682018060405250810190614c0f9190615d37565b614c1857600080fd5b60025460405163ccb9132960e01b8152600481018390526001600160a01b0389811660248301529091169063ccb9132990604401600060405180830381600087803b158015614c6657600080fd5b505af1158015614c7a573d6000803e3d6000fd5b505050505b614c898186615d86565b6001600160a01b0388166000908152600f602052604081208054929550909350915060ff8716908110614cbe57614cbe615e89565b600091825260208083206001600160a01b038a168452600c9091526040832060090154600390920201925090614cf48483615c97565b90506000848460000154614d089190615c97565b8085556001600160a01b038a166000908152600c6020526040812060090184905590915081614d378488615cb0565b614d419190615cdd565b9050614d4e81838561516b565b905086811015614d8b5760405162461bcd60e51b8152602060048201526008602482015267536c69707061676560c01b6044820152606401610e02565b85856001016000828254614d9f9190615c97565b9250508190555080856002016000828254614dba9190615c97565b90915550506001600160a01b038a16600081815260116020908152604080832033808552908352818420805460ff191660011790559383526012825280832093835292815282822060ff8d16835290529081208054839290614e1d908490615c97565b909155505043600a5560405160ff8a169033906001600160a01b038d16907f227fed32364040cd87ef42ea45022307a4adf3827a9d84082581a8c48178655190614e719086908c906000908a908c90616071565b60405180910390a450505050505050505050565b6000808660000160009054906101000a90046001600160a01b03166001600160a01b03166369e154046040518163ffffffff1660e01b81526004016020604051808303816000875af1158015614edf573d6000803e3d6000fd5b505050506040513d601f19601f82011682018060405250810190614f039190615d6d565b9050803414614f3d5760405162461bcd60e51b81526020600482015260066024820152654e6f2066656560d01b6044820152606401610e02565b86546040516313b63a9f60e01b81526001600160a01b03909116906313b63a9f908390614f82908a908a906064908b908b906103e890600090819081906004016160b9565b60206040518083038185885af1158015614fa0573d6000803e3d6000fd5b50505050506040513d601f19601f82011682018060405250810190614fc5919061611e565b60408051600180825281830190925291935060009190602080830190803683370190505090503381600081518110614fff57614fff615e89565b6001600160a01b039283166020918202929092010152604051632bcf8fa160e01b815290841690632bcf8fa19061503d90849060009060040161613b565b600060405180830381600087803b15801561505757600080fd5b505af115801561506b573d6000803e3d6000fd5b50505050505095945050505050565b60008061508684613527565b6001600160a01b0387166000908152600c60209081526040808320600901849055600e825290912086519395509193506150c392908601906151f8565b506001600160a01b03851660009081526017602090815260408083203384529091528120805460ff191660011790555b848160ff1610156118c6576001600160a01b0386166000908152600f60209081526040808320815160608101835287815280840185815292810185815282546001818101855593875294909520905160039094020192835590519082015590516002909101558061516381615eff565b9150506150f3565b6000808261517b85612710615cb0565b6151859190615cdd565b905061251c811161519957849150506151d1565b60006151a782612710615d86565b90506203d090816151b88189615cb0565b6151c29190615cb0565b6151cc9190615cdd565b925050505b9392505050565b604051806120000160405280610100906020820280368337509192915050565b82805482825590600052602060002090810192821561523e579160200282015b8281111561523e578251829061522e9082615f66565b5091602001919060010190615218565b5061524a92915061524e565b5090565b8082111561524a576000615262828261526b565b5060010161524e565b50805461527790615e9f565b6000825580601f10615287575050565b601f016020900490600052602060002090810190611c6191905b8082111561524a57600081556001016152a1565b6001600160a01b0381168114611c6157600080fd5b80356152d5816152b5565b919050565b6000806000606084860312156152ef57600080fd5b83356152fa816152b5565b95602085013595506040909401359392505050565b6000806040838503121561532257600080fd5b823561532d816152b5565b946020939093013593505050565b6000806040838503121561534e57600080fd5b8235615359816152b5565b91506020830135615369816152b5565b809150509250929050565b60006020828403121561538657600080fd5b81356151d1816152b5565b600080600080608085870312156153a757600080fd5b84356153b2816152b5565b935060208501356153c2816152b5565b925060408501356153d2816152b5565b915060608501356153e2816152b5565b939692955090935050565b8015158114611c6157600080fd5b80356152d5816153ed565b60008060006060848603121561541b57600080fd5b8335615426816152b5565b925060208401359150604084013561543d816153ed565b809150509250925092565b803560ff811681146152d557600080fd5b6000806000806080858703121561546f57600080fd5b843561547a816152b5565b935061548860208601615448565b93969395505050506040820135916060013590565b600080604083850312156154b057600080fd5b50508035926020909101359150565b60008060008060008060c087890312156154d857600080fd5b86356154e3816152b5565b95506154f160208801615448565b94506040870135615501816152b5565b959894975094956060810135955060808101359460a0909101359350915050565b60008083601f84011261553457600080fd5b50813567ffffffffffffffff81111561554c57600080fd5b6020830191508360208260051b850101111561556757600080fd5b9250929050565b600080600080600080600060a0888a03121561558957600080fd5b8735615594816152b5565b9650602088013567ffffffffffffffff808211156155b157600080fd5b6155bd8b838c01615522565b909850965060408a0135955060608a01359150808211156155dd57600080fd5b818a0191508a601f8301126155f157600080fd5b81358181111561560057600080fd5b8b602082850101111561561257600080fd5b60208301955080945050505061562a608089016153fb565b905092959891949750929550565b6000815180845260005b8181101561565e57602081850181015186830182015201615642565b506000602082860101526020601f19601f83011685010191505092915050565b6020815260006151d16020830184615638565b600080600080606085870312156156a757600080fd5b84356156b2816152b5565b9350602085013567ffffffffffffffff8111156156ce57600080fd5b6156da87828801615522565b9598909750949560400135949350505050565b634e487b7160e01b600052604160045260246000fd5b604051601f8201601f1916810167ffffffffffffffff8111828210171561572c5761572c6156ed565b604052919050565b600082601f83011261574557600080fd5b813567ffffffffffffffff81111561575f5761575f6156ed565b615772601f8201601f1916602001615703565b81815284602083860101111561578757600080fd5b816020850160208301376000918101602001919091529392505050565b600082601f8301126157b557600080fd5b8135602067ffffffffffffffff808311156157d2576157d26156ed565b8260051b6157e1838201615703565b93845285810183019383810190888611156157fb57600080fd5b84880192505b85831015615837578235848111156158195760008081fd5b6158278a87838c0101615734565b8352509184019190840190615801565b98975050505050505050565b60008060008060008060008060006101208a8c03121561586257600080fd5b893567ffffffffffffffff8082111561587a57600080fd5b6158868d838e01615734565b9a5060208c013591508082111561589c57600080fd5b6158a88d838e01615734565b995060408c0135985060608c01359150808211156158c557600080fd5b506158d28c828d016157a4565b9650506158e160808b016152ca565b94506158ef60a08b016153fb565b93506158fd60c08b016153fb565b925060e08a013591506101008a013590509295985092959850929598565b60008060006060848603121561593057600080fd5b833561593b816152b5565b9250602084013561594b816152b5565b9150604084013561543d816153ed565b60006020828403121561596d57600080fd5b5035919050565b6000806000806080858703121561598a57600080fd5b5050823594602084013594506040840135936060013592509050565b602081526159c06020820183516001600160a01b03169052565b600060208301516159dc60408401826001600160a01b03169052565b5060408301516001600160a01b03811660608401525060608301516001600160a01b03811660808401525060808301516101808060a0850152615a236101a0850183615638565b915060a085015160c085015260c085015160e085015260e0850151610100615a4f8187018360ff169052565b8601519050610120615a648682018315159052565b860151610140868101919091528601516101608087019190915290950151151593019290925250919050565b6001600160a01b038d811682528c811660208301528b811660408301528a16606082015261018060808201819052600090615acd9083018b615638565b90508860a08301528760c083015260ff871660e08301528515156101008301528461012083015283610140830152615b0a61016083018415159052565b9d9c50505050505050505050505050565b60008060408385031215615b2e57600080fd5b8235615b39816152b5565b9150615b4760208401615448565b90509250929050565b600080600060608486031215615b6557600080fd5b8335615b70816152b5565b92506020840135615b80816152b5565b9150615b8e60408501615448565b90509250925092565b600080600080600080600060c0888a031215615bb257600080fd5b8735615bbd816152b5565b9650615bcb60208901615448565b9550604088013567ffffffffffffffff811115615be757600080fd5b615bf38a828b01615522565b9096509450506060880135615c07816152b5565b969995985093969295946080840135945060a09093013592915050565b60008060008060608587031215615c3a57600080fd5b8435615c45816152b5565b9350602085013567ffffffffffffffff811115615c6157600080fd5b615c6d87828801615522565b90945092505060408501356153e2816153ed565b634e487b7160e01b600052601160045260246000fd5b80820180821115615caa57615caa615c81565b92915050565b8082028115828204841417615caa57615caa615c81565b634e487b7160e01b600052601260045260246000fd5b600082615cec57615cec615cc7565b500490565b6020808252600890820152674f6e6c792043454f60c01b604082015260600190565b6001600160a01b039384168152919092166020820152604081019190915260600190565b600060208284031215615d4957600080fd5b81516151d1816153ed565b6001600160a01b03929092168252602082015260400190565b600060208284031215615d7f57600080fd5b5051919050565b81810381811115615caa57615caa615c81565b600060018201615dab57615dab615c81565b5060010190565b600082615dc157615dc1615cc7565b500690565b60208082526011908201527031302055534420696e6372656d656e747360781b604082015260600190565b8183526000602080850194508260005b85811015615e2f578135615e14816152b5565b6001600160a01b031687529582019590820190600101615e01565b509495945050505050565b606081526000615e4e606083018789615df1565b8560208401528281036040840152838152838560208301376000602085830101526020601f19601f8601168201019150509695505050505050565b634e487b7160e01b600052603260045260246000fd5b600181811c90821680615eb357607f821691505b602082108103615ed357634e487b7160e01b600052602260045260246000fd5b50919050565b6020808252600c908201526b155b985d5d1a1bdc9a5e995960a21b604082015260600190565b600060ff821660ff8103615f1557615f15615c81565b60010192915050565b601f82111561318e576000816000526020600020601f850160051c81016020861015615f475750805b601f850160051c820191505b818110156118c657828155600101615f53565b815167ffffffffffffffff811115615f8057615f806156ed565b615f9481615f8e8454615e9f565b84615f1e565b602080601f831160018114615fc95760008415615fb15750858301515b600019600386901b1c1916600185901b1785556118c6565b600085815260208120601f198616915b82811015615ff857888601518255948401946001909101908401615fd9565b50858210156160165787850151600019600388901b60f8161c191681555b5050505050600190811b01905550565b634e487b7160e01b600052603160045260246000fd5b606081526000616050606083018587615df1565b83602084015282810360408401526000815260208101915050949350505050565b8581526020810185905260a081016002851061609d57634e487b7160e01b600052602160045260246000fd5b8460408301528360608301528260808301529695505050505050565b60006101208083526160cd8184018d615638565b905082810360208401526160e1818c615638565b604084019a909a5250509515156060870152608086019490945260a0850192909252151560c084015260e083015215156101009091015292915050565b60006020828403121561613057600080fd5b81516151d1816152b5565b606080825283519082018190526000906020906080840190828701845b8281101561617d5781516001600160a01b031684529284019290840190600101616158565b5050508460208501528381036040850152600781526621b932b0ba37b960c91b60208201526040810192505050939250505056fea26469706673582212203ef352f781ec9e6b17f9b3af0bfdc824ad4c2738376aeedb12105400c0c5bbea64736f6c63430008180033",
  "linkReferences": {},
  "deployedLinkReferences": {}
}