{
  "_format": "hh-sol-artifact-1",
  "contractName": "AStasisVault",
  "sourceName": "contracts/STAKING.sol",
  "abi": [
    {
      "inputs": [
        {
          "internalType": "address",
          "name": "_stasisToken",
          "type": "address"
        },
        {
          "internalType": "address",
          "name": "_loanHub",
          "type": "address"
        },
        {
          "internalType": "address",
          "name": "_swap",
          "type": "address"
        },
        {
          "internalType": "address",
          "name": "_usdc",
          "type": "address"
        }
      ],
      "stateMutability": "nonpayable",
      "type": "constructor"
    },
    {
      "anonymous": false,
      "inputs": [
        {
          "indexed": true,
          "internalType": "address",
          "name": "owner",
          "type": "address"
        },
        {
          "indexed": true,
          "internalType": "address",
          "name": "spender",
          "type": "address"
        },
        {
          "indexed": false,
          "internalType": "uint256",
          "name": "value",
          "type": "uint256"
        }
      ],
      "name": "Approval",
      "type": "event"
    },
    {
      "anonymous": false,
      "inputs": [
        {
          "indexed": true,
          "internalType": "address",
          "name": "user",
          "type": "address"
        },
        {
          "indexed": false,
          "internalType": "uint256",
          "name": "stasisSpent",
          "type": "uint256"
        },
        {
          "indexed": false,
          "internalType": "uint256",
          "name": "wStasisReceived",
          "type": "uint256"
        }
      ],
      "name": "Bought",
      "type": "event"
    },
    {
      "anonymous": false,
      "inputs": [
        {
          "indexed": true,
          "internalType": "address",
          "name": "user",
          "type": "address"
        },
        {
          "indexed": false,
          "internalType": "uint256",
          "name": "wStasisBurned",
          "type": "uint256"
        }
      ],
      "name": "LiquidationProcessed",
      "type": "event"
    },
    {
      "anonymous": false,
      "inputs": [
        {
          "indexed": true,
          "internalType": "address",
          "name": "user",
          "type": "address"
        },
        {
          "indexed": false,
          "internalType": "uint256",
          "name": "hubId",
          "type": "uint256"
        },
        {
          "indexed": false,
          "internalType": "uint256",
          "name": "additionalStasis",
          "type": "uint256"
        },
        {
          "indexed": false,
          "internalType": "uint256",
          "name": "usdcReceived",
          "type": "uint256"
        }
      ],
      "name": "LoanAdded",
      "type": "event"
    },
    {
      "anonymous": false,
      "inputs": [
        {
          "indexed": true,
          "internalType": "address",
          "name": "user",
          "type": "address"
        },
        {
          "indexed": false,
          "internalType": "uint256",
          "name": "hubId",
          "type": "uint256"
        },
        {
          "indexed": false,
          "internalType": "uint256",
          "name": "daysAdded",
          "type": "uint256"
        }
      ],
      "name": "LoanExtended",
      "type": "event"
    },
    {
      "anonymous": false,
      "inputs": [
        {
          "indexed": true,
          "internalType": "address",
          "name": "user",
          "type": "address"
        },
        {
          "indexed": false,
          "internalType": "uint256",
          "name": "hubId",
          "type": "uint256"
        },
        {
          "indexed": false,
          "internalType": "uint256",
          "name": "stasisCollateralReturned",
          "type": "uint256"
        }
      ],
      "name": "LoanRepaid",
      "type": "event"
    },
    {
      "anonymous": false,
      "inputs": [
        {
          "indexed": true,
          "internalType": "address",
          "name": "user",
          "type": "address"
        },
        {
          "indexed": false,
          "internalType": "uint256",
          "name": "hubId",
          "type": "uint256"
        },
        {
          "indexed": false,
          "internalType": "uint256",
          "name": "stasisCollateralUsed",
          "type": "uint256"
        }
      ],
      "name": "LoanTaken",
      "type": "event"
    },
    {
      "anonymous": false,
      "inputs": [
        {
          "indexed": true,
          "internalType": "address",
          "name": "user",
          "type": "address"
        },
        {
          "indexed": false,
          "internalType": "uint256",
          "name": "amount",
          "type": "uint256"
        }
      ],
      "name": "Locked",
      "type": "event"
    },
    {
      "anonymous": false,
      "inputs": [
        {
          "indexed": true,
          "internalType": "address",
          "name": "previousOwner",
          "type": "address"
        },
        {
          "indexed": true,
          "internalType": "address",
          "name": "newOwner",
          "type": "address"
        }
      ],
      "name": "OwnershipTransferred",
      "type": "event"
    },
    {
      "anonymous": false,
      "inputs": [
        {
          "indexed": true,
          "internalType": "address",
          "name": "user",
          "type": "address"
        },
        {
          "indexed": false,
          "internalType": "uint256",
          "name": "wStasisSold",
          "type": "uint256"
        },
        {
          "indexed": false,
          "internalType": "uint256",
          "name": "stasisReceived",
          "type": "uint256"
        }
      ],
      "name": "Sold",
      "type": "event"
    },
    {
      "anonymous": false,
      "inputs": [
        {
          "indexed": true,
          "internalType": "address",
          "name": "from",
          "type": "address"
        },
        {
          "indexed": true,
          "internalType": "address",
          "name": "to",
          "type": "address"
        },
        {
          "indexed": false,
          "internalType": "uint256",
          "name": "value",
          "type": "uint256"
        }
      ],
      "name": "Transfer",
      "type": "event"
    },
    {
      "anonymous": false,
      "inputs": [
        {
          "indexed": true,
          "internalType": "address",
          "name": "user",
          "type": "address"
        },
        {
          "indexed": false,
          "internalType": "uint256",
          "name": "amount",
          "type": "uint256"
        }
      ],
      "name": "Unlocked",
      "type": "event"
    },
    {
      "anonymous": false,
      "inputs": [
        {
          "indexed": true,
          "internalType": "address",
          "name": "user",
          "type": "address"
        },
        {
          "indexed": false,
          "internalType": "uint256",
          "name": "usdcReceived",
          "type": "uint256"
        }
      ],
      "name": "YieldClaimed",
      "type": "event"
    },
    {
      "anonymous": false,
      "inputs": [
        {
          "indexed": false,
          "internalType": "uint256",
          "name": "usdcAmount",
          "type": "uint256"
        },
        {
          "indexed": false,
          "internalType": "uint256",
          "name": "stasisAdded",
          "type": "uint256"
        }
      ],
      "name": "YieldInjected",
      "type": "event"
    },
    {
      "inputs": [],
      "name": "SWAP",
      "outputs": [
        {
          "internalType": "contract ISWAP",
          "name": "",
          "type": "address"
        }
      ],
      "stateMutability": "view",
      "type": "function"
    },
    {
      "inputs": [],
      "name": "TAXES",
      "outputs": [
        {
          "internalType": "address",
          "name": "",
          "type": "address"
        }
      ],
      "stateMutability": "view",
      "type": "function"
    },
    {
      "inputs": [
        {
          "internalType": "uint256",
          "name": "_additionalStasisToBorrow",
          "type": "uint256"
        }
      ],
      "name": "addToLoan",
      "outputs": [],
      "stateMutability": "nonpayable",
      "type": "function"
    },
    {
      "inputs": [
        {
          "internalType": "address",
          "name": "owner",
          "type": "address"
        },
        {
          "internalType": "address",
          "name": "spender",
          "type": "address"
        }
      ],
      "name": "allowance",
      "outputs": [
        {
          "internalType": "uint256",
          "name": "",
          "type": "uint256"
        }
      ],
      "stateMutability": "view",
      "type": "function"
    },
    {
      "inputs": [
        {
          "internalType": "address",
          "name": "spender",
          "type": "address"
        },
        {
          "internalType": "uint256",
          "name": "amount",
          "type": "uint256"
        }
      ],
      "name": "approve",
      "outputs": [
        {
          "internalType": "bool",
          "name": "",
          "type": "bool"
        }
      ],
      "stateMutability": "nonpayable",
      "type": "function"
    },
    {
      "inputs": [
        {
          "internalType": "address",
          "name": "account",
          "type": "address"
        }
      ],
      "name": "balanceOf",
      "outputs": [
        {
          "internalType": "uint256",
          "name": "",
          "type": "uint256"
        }
      ],
      "stateMutability": "view",
      "type": "function"
    },
    {
      "inputs": [
        {
          "internalType": "uint256",
          "name": "_stasisAmountToBorrow",
          "type": "uint256"
        },
        {
          "internalType": "uint256",
          "name": "_days",
          "type": "uint256"
        }
      ],
      "name": "borrow",
      "outputs": [],
      "stateMutability": "nonpayable",
      "type": "function"
    },
    {
      "inputs": [
        {
          "internalType": "uint256",
          "name": "_amount",
          "type": "uint256"
        }
      ],
      "name": "buy",
      "outputs": [],
      "stateMutability": "nonpayable",
      "type": "function"
    },
    {
      "inputs": [
        {
          "internalType": "uint256",
          "name": "_amount",
          "type": "uint256"
        },
        {
          "internalType": "address",
          "name": "user",
          "type": "address"
        }
      ],
      "name": "buyForUser",
      "outputs": [],
      "stateMutability": "nonpayable",
      "type": "function"
    },
    {
      "inputs": [
        {
          "internalType": "uint256",
          "name": "shares",
          "type": "uint256"
        }
      ],
      "name": "convertToAssets",
      "outputs": [
        {
          "internalType": "uint256",
          "name": "",
          "type": "uint256"
        }
      ],
      "stateMutability": "view",
      "type": "function"
    },
    {
      "inputs": [
        {
          "internalType": "uint256",
          "name": "assets",
          "type": "uint256"
        }
      ],
      "name": "convertToShares",
      "outputs": [
        {
          "internalType": "uint256",
          "name": "",
          "type": "uint256"
        }
      ],
      "stateMutability": "view",
      "type": "function"
    },
    {
      "inputs": [],
      "name": "decimals",
      "outputs": [
        {
          "internalType": "uint8",
          "name": "",
          "type": "uint8"
        }
      ],
      "stateMutability": "view",
      "type": "function"
    },
    {
      "inputs": [
        {
          "internalType": "address",
          "name": "spender",
          "type": "address"
        },
        {
          "internalType": "uint256",
          "name": "subtractedValue",
          "type": "uint256"
        }
      ],
      "name": "decreaseAllowance",
      "outputs": [
        {
          "internalType": "bool",
          "name": "",
          "type": "bool"
        }
      ],
      "stateMutability": "nonpayable",
      "type": "function"
    },
    {
      "inputs": [
        {
          "internalType": "uint256",
          "name": "_daysToAdd",
          "type": "uint256"
        },
        {
          "internalType": "bool",
          "name": "_payInUSDC",
          "type": "bool"
        },
        {
          "internalType": "bool",
          "name": "_refinance",
          "type": "bool"
        }
      ],
      "name": "extendLoan",
      "outputs": [],
      "stateMutability": "nonpayable",
      "type": "function"
    },
    {
      "inputs": [
        {
          "internalType": "address",
          "name": "user",
          "type": "address"
        }
      ],
      "name": "getAvailableStasis",
      "outputs": [
        {
          "internalType": "uint256",
          "name": "",
          "type": "uint256"
        }
      ],
      "stateMutability": "view",
      "type": "function"
    },
    {
      "inputs": [
        {
          "internalType": "address",
          "name": "user",
          "type": "address"
        }
      ],
      "name": "getUserStakeDetails",
      "outputs": [
        {
          "internalType": "uint256",
          "name": "liquidShares",
          "type": "uint256"
        },
        {
          "internalType": "uint256",
          "name": "lockedShares",
          "type": "uint256"
        },
        {
          "internalType": "uint256",
          "name": "totalShares",
          "type": "uint256"
        },
        {
          "internalType": "uint256",
          "name": "totalAssetValue",
          "type": "uint256"
        }
      ],
      "stateMutability": "view",
      "type": "function"
    },
    {
      "inputs": [
        {
          "internalType": "address",
          "name": "spender",
          "type": "address"
        },
        {
          "internalType": "uint256",
          "name": "addedValue",
          "type": "uint256"
        }
      ],
      "name": "increaseAllowance",
      "outputs": [
        {
          "internalType": "bool",
          "name": "",
          "type": "bool"
        }
      ],
      "stateMutability": "nonpayable",
      "type": "function"
    },
    {
      "inputs": [
        {
          "internalType": "uint256",
          "name": "_amount",
          "type": "uint256"
        }
      ],
      "name": "injectYield",
      "outputs": [],
      "stateMutability": "nonpayable",
      "type": "function"
    },
    {
      "inputs": [],
      "name": "loanHub",
      "outputs": [
        {
          "internalType": "contract IALOAN_HUB",
          "name": "",
          "type": "address"
        }
      ],
      "stateMutability": "view",
      "type": "function"
    },
    {
      "inputs": [
        {
          "internalType": "uint256",
          "name": "_shares",
          "type": "uint256"
        }
      ],
      "name": "lock",
      "outputs": [],
      "stateMutability": "nonpayable",
      "type": "function"
    },
    {
      "inputs": [],
      "name": "minBuyAmount",
      "outputs": [
        {
          "internalType": "uint256",
          "name": "",
          "type": "uint256"
        }
      ],
      "stateMutability": "view",
      "type": "function"
    },
    {
      "inputs": [],
      "name": "name",
      "outputs": [
        {
          "internalType": "string",
          "name": "",
          "type": "string"
        }
      ],
      "stateMutability": "view",
      "type": "function"
    },
    {
      "inputs": [],
      "name": "owner",
      "outputs": [
        {
          "internalType": "address",
          "name": "",
          "type": "address"
        }
      ],
      "stateMutability": "view",
      "type": "function"
    },
    {
      "inputs": [],
      "name": "renounceOwnership",
      "outputs": [],
      "stateMutability": "nonpayable",
      "type": "function"
    },
    {
      "inputs": [],
      "name": "repay",
      "outputs": [],
      "stateMutability": "nonpayable",
      "type": "function"
    },
    {
      "inputs": [
        {
          "internalType": "contract IERC20",
          "name": "token",
          "type": "address"
        }
      ],
      "name": "rescueToken",
      "outputs": [],
      "stateMutability": "nonpayable",
      "type": "function"
    },
    {
      "inputs": [
        {
          "internalType": "uint256",
          "name": "_shares",
          "type": "uint256"
        },
        {
          "internalType": "bool",
          "name": "_claimUSDC",
          "type": "bool"
        },
        {
          "internalType": "uint256",
          "name": "_minUSDC",
          "type": "uint256"
        }
      ],
      "name": "sell",
      "outputs": [],
      "stateMutability": "nonpayable",
      "type": "function"
    },
    {
      "inputs": [
        {
          "internalType": "address",
          "name": "newTaxes",
          "type": "address"
        },
        {
          "internalType": "address",
          "name": "newSwap",
          "type": "address"
        },
        {
          "internalType": "address",
          "name": "newLoan",
          "type": "address"
        }
      ],
      "name": "setContracts",
      "outputs": [],
      "stateMutability": "nonpayable",
      "type": "function"
    },
    {
      "inputs": [
        {
          "internalType": "uint256",
          "name": "_amount",
          "type": "uint256"
        }
      ],
      "name": "setMinBuy",
      "outputs": [],
      "stateMutability": "nonpayable",
      "type": "function"
    },
    {
      "inputs": [],
      "name": "settleLiquidation",
      "outputs": [],
      "stateMutability": "nonpayable",
      "type": "function"
    },
    {
      "inputs": [],
      "name": "stasisToken",
      "outputs": [
        {
          "internalType": "contract IERC20",
          "name": "",
          "type": "address"
        }
      ],
      "stateMutability": "view",
      "type": "function"
    },
    {
      "inputs": [],
      "name": "symbol",
      "outputs": [
        {
          "internalType": "string",
          "name": "",
          "type": "string"
        }
      ],
      "stateMutability": "view",
      "type": "function"
    },
    {
      "inputs": [],
      "name": "totalAssets",
      "outputs": [
        {
          "internalType": "uint256",
          "name": "",
          "type": "uint256"
        }
      ],
      "stateMutability": "view",
      "type": "function"
    },
    {
      "inputs": [],
      "name": "totalStasisAvailable",
      "outputs": [
        {
          "internalType": "uint256",
          "name": "",
          "type": "uint256"
        }
      ],
      "stateMutability": "view",
      "type": "function"
    },
    {
      "inputs": [],
      "name": "totalStasisPledged",
      "outputs": [
        {
          "internalType": "uint256",
          "name": "",
          "type": "uint256"
        }
      ],
      "stateMutability": "view",
      "type": "function"
    },
    {
      "inputs": [],
      "name": "totalSupply",
      "outputs": [
        {
          "internalType": "uint256",
          "name": "",
          "type": "uint256"
        }
      ],
      "stateMutability": "view",
      "type": "function"
    },
    {
      "inputs": [
        {
          "internalType": "address",
          "name": "to",
          "type": "address"
        },
        {
          "internalType": "uint256",
          "name": "amount",
          "type": "uint256"
        }
      ],
      "name": "transfer",
      "outputs": [
        {
          "internalType": "bool",
          "name": "",
          "type": "bool"
        }
      ],
      "stateMutability": "nonpayable",
      "type": "function"
    },
    {
      "inputs": [
        {
          "internalType": "address",
          "name": "from",
          "type": "address"
        },
        {
          "internalType": "address",
          "name": "to",
          "type": "address"
        },
        {
          "internalType": "uint256",
          "name": "amount",
          "type": "uint256"
        }
      ],
      "name": "transferFrom",
      "outputs": [
        {
          "internalType": "bool",
          "name": "",
          "type": "bool"
        }
      ],
      "stateMutability": "nonpayable",
      "type": "function"
    },
    {
      "inputs": [
        {
          "internalType": "address",
          "name": "newOwner",
          "type": "address"
        }
      ],
      "name": "transferOwnership",
      "outputs": [],
      "stateMutability": "nonpayable",
      "type": "function"
    },
    {
      "inputs": [
        {
          "internalType": "uint256",
          "name": "_shares",
          "type": "uint256"
        }
      ],
      "name": "unlock",
      "outputs": [],
      "stateMutability": "nonpayable",
      "type": "function"
    },
    {
      "inputs": [
        {
          "internalType": "address",
          "name": "",
          "type": "address"
        }
      ],
      "name": "userVaults",
      "outputs": [
        {
          "internalType": "uint256",
          "name": "lockedWStasis",
          "type": "uint256"
        },
        {
          "internalType": "uint256",
          "name": "pledgedStasis",
          "type": "uint256"
        },
        {
          "internalType": "uint256",
          "name": "hubId",
          "type": "uint256"
        },
        {
          "internalType": "bool",
          "name": "hasActiveLoan",
          "type": "bool"
        }
      ],
      "stateMutability": "view",
      "type": "function"
    }
  ],
  "bytecode": "0x60a0604052670de0b6b3a7640000600d553480156200001d57600080fd5b5060405162003dd838038062003dd88339810160408190526200004091620001e8565b6040518060400160405280600e81526020016d577261707065642053746173697360901b815250604051806040016040528060078152602001667753544153495360c81b8152508160039081620000989190620002ec565b506004620000a78282620002ec565b505050620000c4620000be6200017560201b60201c565b62000179565b60016006556001600160a01b03841615801590620000ea57506001600160a01b03831615155b6200012d5760405162461bcd60e51b815260206004820152600f60248201526e496e76616c6964206164647265737360881b604482015260640160405180910390fd5b6001600160a01b03938416608052600780549385166001600160a01b03199485161790556009805492851692841692909217909155600a8054919093169116179055620003b8565b3390565b600580546001600160a01b038381166001600160a01b0319831681179093556040519116919082907f8be0079c531659141344cd1fd0a4f28419497f9722a3daafe3b4186f6b6457e090600090a35050565b80516001600160a01b0381168114620001e357600080fd5b919050565b60008060008060808587031215620001ff57600080fd5b6200020a85620001cb565b93506200021a60208601620001cb565b92506200022a60408601620001cb565b91506200023a60608601620001cb565b905092959194509250565b634e487b7160e01b600052604160045260246000fd5b600181811c908216806200027057607f821691505b6020821081036200029157634e487b7160e01b600052602260045260246000fd5b50919050565b601f821115620002e7576000816000526020600020601f850160051c81016020861015620002c25750805b601f850160051c820191505b81811015620002e357828155600101620002ce565b5050505b505050565b81516001600160401b0381111562000308576200030862000245565b62000320816200031984546200025b565b8462000297565b602080601f8311600181146200035857600084156200033f5750858301515b600019600386901b1c1916600185901b178555620002e3565b600085815260208120601f198616915b82811015620003895788860151825594840194600190910190840162000368565b5085821015620003a85787850151600019600388901b60f8161c191681555b5050505050600190811b01905550565b6080516139be6200041a600039600081816103a3015281816108af015281816109bd01528181610e1001528181610eff0152818161126601528181611310015281816115fc0152818161196601528181611d250152612b6d01526139be6000f3fe608060405234801561001057600080fd5b50600436106102535760003560e01c806370a0823111610146578063a74698de116100c3578063d239a12111610087578063d239a12114610545578063d96a094a14610578578063dd4670641461058b578063dd62ed3e1461059e578063f2fde38b146105b1578063f66bf229146105c457600080fd5b8063a74698de146104f0578063a9059cbb146104f9578063b3066d491461050c578063c6e6f5921461051f578063cc2587f21461053257600080fd5b80638da5cb5b1161010a5780638da5cb5b146104a9578063910f8634146104ba5780639183eb61146104cd57806395d89b41146104d5578063a457c2d7146104dd57600080fd5b806370a082311461043f578063715018a61461046857806371bd5dd3146104705780637d244ad814610483578063860779e71461049657600080fd5b80632958d031116101d45780634460d3cf116101985780634460d3cf146103e057806349c0cc14146103f35780634d9ae633146104065780636198e3391461041957806362f4bca31461042c57600080fd5b80632958d03114610335578063313ce5671461038f578063315c68e01461039e57806339509351146103c5578063402d8883146103d857600080fd5b8063095ea7b31161021b578063095ea7b3146102d95780630ecbcdab146102fc57806318160ddd146103115780631bf7f3981461031957806323b872dd1461032257600080fd5b806301e1d1141461025857806304d841081461027357806306fdde031461029e57806307a2d13a146102b357806308949a00146102c6575b600080fd5b6102606105cd565b6040519081526020015b60405180910390f35b600954610286906001600160a01b031681565b6040516001600160a01b03909116815260200161026a565b6102a66105e4565b60405161026a91906133e7565b6102606102c1366004613436565b610676565b6102606102d4366004613464565b6106b7565b6102ec6102e7366004613481565b61070a565b604051901515815260200161026a565b61030f61030a3660046134ad565b610724565b005b600254610260565b610260600b5481565b6102ec6103303660046134cf565b610bf4565b61036d610343366004613464565b600e6020526000908152604090208054600182015460028301546003909301549192909160ff1684565b604080519485526020850193909352918301521515606082015260800161026a565b6040516012815260200161026a565b6102867f000000000000000000000000000000000000000000000000000000000000000081565b6102ec6103d3366004613481565b610c18565b61030f610c3a565b61030f6103ee366004613464565b611039565b61030f61040136600461351e565b61112a565b600854610286906001600160a01b031681565b61030f610427366004613436565b6116cb565b61030f61043a366004613436565b61181b565b61026061044d366004613464565b6001600160a01b031660009081526020819052604090205490565b61030f611c5e565b61030f61047e366004613545565b611c70565b600754610286906001600160a01b031681565b61030f6104a4366004613436565b611e1b565b6005546001600160a01b0316610286565b61030f6104c8366004613575565b611e28565b61030f6123a8565b6102a661262b565b6102ec6104eb366004613481565b61263a565b610260600c5481565b6102ec610507366004613481565b6126b5565b61030f61051a3660046135b7565b6126c3565b61026061052d366004613436565b61270a565b61030f610540366004613436565b612751565b610558610553366004613464565b612a9d565b60408051948552602085019390935291830152606082015260800161026a565b61030f610586366004613436565b612afe565b61030f610599366004613436565b612c5a565b6102606105ac3660046135f7565b612d0e565b61030f6105bf366004613464565b612d39565b610260600d5481565b6000600c54600b546105df919061363b565b905090565b6060600380546105f39061364e565b80601f016020809104026020016040519081016040528092919081815260200182805461061f9061364e565b801561066c5780601f106106415761010080835404028352916020019161066c565b820191906000526020600020905b81548152906001019060200180831161064f57829003601f168201915b5050505050905090565b60008061068260025490565b905080600003610693575090919050565b8061069c6105cd565b6106a69085613688565b6106b0919061369f565b9392505050565b6001600160a01b0381166000908152600e60205260408120805482906106dc90610676565b9050816001015481116106f3575060009392505050565b600182015461070290826136c1565b949350505050565b600033610718818585612daf565b60019150505b92915050565b61072c612ed3565b336000908152600e60205260409020600381015460ff161561079f5760405162461bcd60e51b815260206004820152602160248201527f506f736974696f6e206163746976652e2055736520696e6372656173654c6f616044820152603760f91b60648201526084015b60405180910390fd5b60006107aa336106b7565b9050838110156107fc5760405162461bcd60e51b815260206004820152601d60248201527f496e73756666696369656e7420636f6c6c61746572616c2076616c75650000006044820152606401610796565b83600b54101561084a5760405162461bcd60e51b8152602060048201526019602482015278436f6e7472616374206c6f77206f6e206c697175696469747960381b6044820152606401610796565b83600b600082825461085c91906136c1565b9250508190555083600c6000828254610875919061363b565b9250508190555083826001016000828254610890919061363b565b909155505060075460405163095ea7b360e01b81526001600160a01b037f000000000000000000000000000000000000000000000000000000000000000081169263095ea7b3926108ea92919091169088906004016136d4565b6020604051808303816000875af1158015610909573d6000803e3d6000fd5b505050506040513d601f19601f8201168201806040525081019061092d91906136fd565b61093657600080fd5b600a546040516370a0823160e01b81523060048201526000916001600160a01b0316906370a0823190602401602060405180830381865afa15801561097f573d6000803e3d6000fd5b505050506040513d601f19601f820116820180604052508101906109a3919061371a565b600754604051630953151f60e31b81526001600160a01b037f00000000000000000000000000000000000000000000000000000000000000008116600483018190526024830152604482018990526064820188905292935060009290911690634a98a8f8906084016020604051808303816000875af1158015610a2a573d6000803e3d6000fd5b505050506040513d601f19601f82011682018060405250810190610a4e919061371a565b600a546040516370a0823160e01b81523060048201529192506000916001600160a01b03909116906370a0823190602401602060405180830381865afa158015610a9c573d6000803e3d6000fd5b505050506040513d601f19601f82011682018060405250810190610ac0919061371a565b90506000610ace84836136c1565b6002870184905560038701805460ff19166001179055905080610b285760405162461bcd60e51b8152602060048201526012602482015271139bc81cdd18589b19481c9958d95a5d995960721b6044820152606401610796565b600a5460405163a9059cbb60e01b81526001600160a01b039091169063a9059cbb90610b5a90339085906004016136d4565b6020604051808303816000875af1158015610b79573d6000803e3d6000fd5b505050506040513d601f19601f82011682018060405250810190610b9d91906136fd565b610ba657600080fd5b60408051848152602081018a905233917e6b9bb4766cf5ab74b890df959e4fad0e54b1c3885e49c9541d36253a6e39e6910160405180910390a2505050505050610bf06001600655565b5050565b600033610c02858285612f2c565b610c0d858585612fa6565b506001949350505050565b600033610718818585610c2b8383612d0e565b610c35919061363b565b612daf565b610c42612ed3565b336000908152600e60205260409020600381015460ff16610c755760405162461bcd60e51b815260040161079690613733565b6007546002820154604051632a196afb60e01b81526000926001600160a01b031691632a196afb91610cab9130916004016136d4565b6101c060405180830381865afa158015610cc9573d6000803e3d6000fd5b505050506040513d601f19601f82011682018060405250810190610ced919061379e565b600a5460e08201516040516323b872dd60e01b81529293506001600160a01b03909116916323b872dd91610d279133913091600401613874565b6020604051808303816000875af1158015610d46573d6000803e3d6000fd5b505050506040513d601f19601f82011682018060405250810190610d6a91906136fd565b610d7357600080fd5b600a5460075460e083015160405163095ea7b360e01b81526001600160a01b039384169363095ea7b393610dac939116916004016136d4565b6020604051808303816000875af1158015610dcb573d6000803e3d6000fd5b505050506040513d601f19601f82011682018060405250810190610def91906136fd565b610df857600080fd5b6040516370a0823160e01b81523060048201526000907f00000000000000000000000000000000000000000000000000000000000000006001600160a01b0316906370a0823190602401602060405180830381865afa158015610e5f573d6000803e3d6000fd5b505050506040513d601f19601f82011682018060405250810190610e83919061371a565b600754600285015460405163ab7b1c8960e01b815260048101919091529192506001600160a01b03169063ab7b1c8990602401600060405180830381600087803b158015610ed057600080fd5b505af1158015610ee4573d6000803e3d6000fd5b50506040516370a0823160e01b8152306004820152600092507f00000000000000000000000000000000000000000000000000000000000000006001600160a01b031691506370a0823190602401602060405180830381865afa158015610f4f573d6000803e3d6000fd5b505050506040513d601f19601f82011682018060405250810190610f73919061371a565b90506000610f8183836136c1565b905080600b6000828254610f95919061363b565b90915550506001850154600c5410610fc8578460010154600c6000828254610fbd91906136c1565b90915550610fce9050565b6000600c555b60028501805460006001880181905560038801805460ff19169055909155604080518281526020810184905233917fc7ce0a35f17b490de2a317e7fecb2cae86b1abffb03800b2f492823521382698910160405180910390a25050505050506110376001600655565b565b61104161314a565b806001600160a01b031663a9059cbb6110626005546001600160a01b031690565b6040516370a0823160e01b81523060048201526001600160a01b038516906370a0823190602401602060405180830381865afa1580156110a6573d6000803e3d6000fd5b505050506040513d601f19601f820116820180604052508101906110ca919061371a565b6040518363ffffffff1660e01b81526004016110e79291906136d4565b6020604051808303816000875af1158015611106573d6000803e3d6000fd5b505050506040513d601f19601f82011682018060405250810190610bf091906136fd565b611132612ed3565b600083116111705760405162461bcd60e51b815260206004820152600b60248201526a16995c9bc8185b5bdd5b9d60aa1b6044820152606401610796565b336000908152602081905260409020548311156111c65760405162461bcd60e51b8152602060048201526014602482015273496e73756666696369656e742062616c616e636560601b6044820152606401610796565b60006111d184610676565b905080600b5410156112255760405162461bcd60e51b815260206004820152601d60248201527f496e73756666696369656e74206c6971756964206c69717569646974790000006044820152606401610796565b61122f33856131a4565b80600b600082825461124191906136c1565b909155505082156115e55760095460405163095ea7b360e01b81526001600160a01b037f000000000000000000000000000000000000000000000000000000000000000081169263095ea7b3926112a192919091169085906004016136d4565b6020604051808303816000875af11580156112c0573d6000803e3d6000fd5b505050506040513d601f19601f820116820180604052508101906112e491906136fd565b6112ed57600080fd5b6040805160028082526060820183526000926020830190803683370190505090507f00000000000000000000000000000000000000000000000000000000000000008160008151811061134257611342613898565b6001600160a01b039283166020918202929092010152600a5482519116908290600190811061137357611373613898565b6001600160a01b039283166020918202929092010152600a546040516370a0823160e01b815230600482015260009291909116906370a0823190602401602060405180830381865afa1580156113cd573d6000803e3d6000fd5b505050506040513d601f19601f820116820180604052508101906113f1919061371a565b600954604051639c5d92e560e01b81529192506001600160a01b031690639c5d92e590611429908690889087906000906004016138ae565b600060405180830381600087803b15801561144357600080fd5b505af1158015611457573d6000803e3d6000fd5b5050600a546040516370a0823160e01b8152306004820152600093506001600160a01b0390911691506370a0823190602401602060405180830381865afa1580156114a6573d6000803e3d6000fd5b505050506040513d601f19601f820116820180604052508101906114ca919061371a565b905060006114d883836136c1565b9050858110156115235760405162461bcd60e51b815260206004820152601660248201527514db1a5c1c1859d9481b1a5b5a5d081c995858da195960521b6044820152606401610796565b600a5460405163a9059cbb60e01b81526001600160a01b039091169063a9059cbb9061155590339085906004016136d4565b6020604051808303816000875af1158015611574573d6000803e3d6000fd5b505050506040513d601f19601f8201168201806040525081019061159891906136fd565b6115a157600080fd5b604080518981526020810187905233917fbac9694ac0daa55169abd117086fe32c89401d9a3b15dd1d34e55e0aa4e47a9d910160405180910390a2505050506116bb565b60405163a9059cbb60e01b81526001600160a01b037f0000000000000000000000000000000000000000000000000000000000000000169063a9059cbb9061163390339085906004016136d4565b6020604051808303816000875af1158015611652573d6000803e3d6000fd5b505050506040513d601f19601f8201168201806040525081019061167691906136fd565b61167f57600080fd5b604080518581526020810183905233917fbac9694ac0daa55169abd117086fe32c89401d9a3b15dd1d34e55e0aa4e47a9d910160405180910390a25b506116c66001600655565b505050565b6116d3612ed3565b336000908152600e6020526040902080548211156117335760405162461bcd60e51b815260206004820152601b60248201527f496e73756666696369656e74206c6f636b65642062616c616e636500000000006044820152606401610796565b80546000906117439084906136c1565b9050600061175082610676565b905082600101548110156117b15760405162461bcd60e51b815260206004820152602260248201527f43616e6e6f742077697468647261773a20436f6c6c61746572616c20696e2075604482015261736560f01b6064820152608401610796565b838360000160008282546117c591906136c1565b909155506117d69050303386612fa6565b60405184815233907f0f0bc5b519ddefdd8e5f9e6423433aa2b869738de2ae34d58ebc796fc749fa0d9060200160405180910390a25050506118186001600655565b50565b611823612ed3565b336000908152600e60205260409020600381015460ff166118565760405162461bcd60e51b815260040161079690613733565b6000611861336106b7565b9050828110156118b35760405162461bcd60e51b815260206004820152601d60248201527f496e73756666696369656e7420636f6c6c61746572616c2076616c75650000006044820152606401610796565b82600b5410156119015760405162461bcd60e51b8152602060048201526019602482015278436f6e7472616374206c6f77206f6e206c697175696469747960381b6044820152606401610796565b82600b600082825461191391906136c1565b9250508190555082600c600082825461192c919061363b565b9250508190555082826001016000828254611947919061363b565b909155505060075460405163095ea7b360e01b81526001600160a01b037f000000000000000000000000000000000000000000000000000000000000000081169263095ea7b3926119a192919091169087906004016136d4565b6020604051808303816000875af11580156119c0573d6000803e3d6000fd5b505050506040513d601f19601f820116820180604052508101906119e491906136fd565b6119ed57600080fd5b600a546040516370a0823160e01b81523060048201526000916001600160a01b0316906370a0823190602401602060405180830381865afa158015611a36573d6000803e3d6000fd5b505050506040513d601f19601f82011682018060405250810190611a5a919061371a565b6007546002850154604051637a792a2960e01b81526004810191909152602481018790529192506001600160a01b031690637a792a2990604401600060405180830381600087803b158015611aae57600080fd5b505af1158015611ac2573d6000803e3d6000fd5b5050600a546040516370a0823160e01b8152306004820152600093506001600160a01b0390911691506370a0823190602401602060405180830381865afa158015611b11573d6000803e3d6000fd5b505050506040513d601f19601f82011682018060405250810190611b35919061371a565b90506000611b4383836136c1565b905060008111611b8a5760405162461bcd60e51b8152602060048201526012602482015271139bc81cdd18589b19481c9958d95a5d995960721b6044820152606401610796565b600a5460405163a9059cbb60e01b81526001600160a01b039091169063a9059cbb90611bbc90339085906004016136d4565b6020604051808303816000875af1158015611bdb573d6000803e3d6000fd5b505050506040513d601f19601f82011682018060405250810190611bff91906136fd565b611c0857600080fd5b60028501546040805191825260208201889052810182905233907f68a6f757f3da287d6e6f242101cc16f1a4e75072687eb3d0803d70ab6a2423b09060600160405180910390a250505050506118186001600655565b611c6661314a565b61103760006132d6565b611c78612ed3565b6009546001600160a01b03163314611cbe5760405162461bcd60e51b815260206004820152600960248201526804f6e6c7920535741560bc1b6044820152606401610796565b600d54821015611d005760405162461bcd60e51b815260206004820152600d60248201526c42656c6f77206d696e2062757960981b6044820152606401610796565b6000611d0b8361270a565b6040516323b872dd60e01b81529091506001600160a01b037f000000000000000000000000000000000000000000000000000000000000000016906323b872dd90611d5e90339030908890600401613874565b6020604051808303816000875af1158015611d7d573d6000803e3d6000fd5b505050506040513d601f19601f82011682018060405250810190611da191906136fd565b611daa57600080fd5b82600b6000828254611dbc919061363b565b90915550611dcc90508282613328565b60408051848152602081018390526001600160a01b038416917fa9a40dec7a304e5915d11358b968c1e8d365992abf20f82285d1df1b30c8e24c910160405180910390a250610bf06001600655565b611e2361314a565b600d55565b611e30612ed3565b336000908152600e60205260409020600381015460ff16611e635760405162461bcd60e51b815260040161079690613733565b83600003611ec25782158015611e765750815b611ec25760405162461bcd60e51b815260206004820152601d60248201527f4d75737420726566696e616e63652077697468207a65726f20646179730000006044820152606401610796565b600754600282015460405163d8bad5bd60e01b815260009283926001600160a01b039091169163d8bad5bd91611efd913091906004016136d4565b606060405180830381865afa158015611f1a573d6000803e3d6000fd5b505050506040513d601f19601f82011682018060405250810190611f3e9190613919565b50600a546040516370a0823160e01b81523060048201529294509092506000916001600160a01b03909116906370a0823190602401602060405180830381865afa158015611f90573d6000803e3d6000fd5b505050506040513d601f19601f82011682018060405250810190611fb4919061371a565b905085156121a357600754604051638bce6c0760e01b81526001600160a01b0391821660048201526024810184905260448101899052600060648201819052881515608483015287151560a4830152859290918291841690638bce6c079060c401606060405180830381865afa158015612032573d6000803e3d6000fd5b505050506040513d601f19601f820116820180604052508101906120569190613951565b5091509150816120975760405162461bcd60e51b815260206004820152600c60248201526b6e6f7420706f737369626c6560a01b6044820152606401610796565b801561219f57600a546040516323b872dd60e01b81526001600160a01b03909116906323b872dd906120d190339030908690600401613874565b6020604051808303816000875af11580156120f0573d6000803e3d6000fd5b505050506040513d601f19601f8201168201806040525081019061211491906136fd565b61211d57600080fd5b600a5460075460405163095ea7b360e01b81526001600160a01b039283169263095ea7b3926121539291169085906004016136d4565b6020604051808303816000875af1158015612172573d6000803e3d6000fd5b505050506040513d601f19601f8201168201806040525081019061219691906136fd565b61219f57600080fd5b5050505b60075460028501546040516365d28c6760e01b8152600481019190915260248101899052871515604482015286151560648201526001600160a01b03909116906365d28c6790608401600060405180830381600087803b15801561220657600080fd5b505af115801561221a573d6000803e3d6000fd5b5050600a546040516370a0823160e01b8152306004820152600093506001600160a01b0390911691506370a0823190602401602060405180830381865afa158015612269573d6000803e3d6000fd5b505050506040513d601f19601f8201168201806040525081019061228d919061371a565b9050818111156123595760006122a383836136c1565b600a5460405163a9059cbb60e01b81529192506001600160a01b03169063a9059cbb906122d690339085906004016136d4565b6020604051808303816000875af11580156122f5573d6000803e3d6000fd5b505050506040513d601f19601f8201168201806040525081019061231991906136fd565b61232257600080fd5b60405181815233907fc04825ba3f383b602255d2a13065a68e325c65c9e0ed5d031ea2b06f641873af9060200160405180910390a2505b600285015460408051918252602082018a905233917f538fb9e5f4ba806fdb3b0dbce171ac907f5f25c7876fdf8b69c922b3690fe95d910160405180910390a250505050506116c66001600655565b6123b0612ed3565b336000908152600e60205260409020600381015460ff166123e35760405162461bcd60e51b815260040161079690613733565b6007546002820154604051632a196afb60e01b81526000926001600160a01b031691632a196afb916124199130916004016136d4565b6101c060405180830381865afa158015612437573d6000803e3d6000fd5b505050506040513d601f19601f8201168201806040525081019061245b919061379e565b9050806101800151158061247157508061016001515b6124ab5760405162461bcd60e51b815260206004820152600b60248201526a4c6f616e2061637469766560a81b6044820152606401610796565b600754600283015460405163732c800960e01b815260048101919091526000916001600160a01b03169063732c8009906024016020604051808303816000875af11580156124fd573d6000803e3d6000fd5b505050506040513d601f19601f82011682018060405250810190612521919061371a565b9050600081846001015411156125445781846001015461254191906136c1565b90505b600061254f8261270a565b855490915081111561255f575083545b82600b6000828254612571919061363b565b90915550506001850154600c54106125a4578460010154600c600082825461259991906136c1565b909155506125aa9050565b6000600c555b808560000160008282546125be91906136c1565b909155505060006001860181905560038601805460ff1916905560028601556125e730826131a4565b60405181815233907f4f59ca607b2bfd9e52f575cca976e5276b5d7b0c90b79221e5c179c118414d609060200160405180910390a250505050506110376001600655565b6060600480546105f39061364e565b600033816126488286612d0e565b9050838110156126a85760405162461bcd60e51b815260206004820152602560248201527f45524332303a2064656372656173656420616c6c6f77616e63652062656c6f77604482015264207a65726f60d81b6064820152608401610796565b610c0d8286868403612daf565b600033610718818585612fa6565b6126cb61314a565b600880546001600160a01b039485166001600160a01b031991821617909155600980549385169382169390931790925560078054919093169116179055565b60008061271660025490565b905060006127226105cd565b905081158061272f575080155b1561273c57509192915050565b806127478386613688565b610702919061369f565b6008546001600160a01b031633146127985760405162461bcd60e51b815260206004820152600a6024820152694f6e6c7920544158455360b01b6044820152606401610796565b80156118185760025460000361286c57600a546001600160a01b03166323b872dd336127cc6005546001600160a01b031690565b846040518463ffffffff1660e01b81526004016127eb93929190613874565b6020604051808303816000875af115801561280a573d6000803e3d6000fd5b505050506040513d601f19601f8201168201806040525081019061282e91906136fd565b6118185760405162461bcd60e51b815260206004820152600f60248201526e151c985b9cd9995c8819985a5b1959608a1b6044820152606401610796565b600a546040516323b872dd60e01b81526001600160a01b03909116906323b872dd906128a090339030908690600401613874565b6020604051808303816000875af11580156128bf573d6000803e3d6000fd5b505050506040513d601f19601f820116820180604052508101906128e391906136fd565b6129215760405162461bcd60e51b815260206004820152600f60248201526e151c985b9cd9995c8819985a5b1959608a1b6044820152606401610796565b600a5460095460405163095ea7b360e01b81526001600160a01b039283169263095ea7b3926129579291169085906004016136d4565b6020604051808303816000875af1158015612976573d6000803e3d6000fd5b505050506040513d601f19601f8201168201806040525081019061299a91906136fd565b6129d75760405162461bcd60e51b815260206004820152600e60248201526d105c1c1c9bdd994819985a5b195960921b6044820152606401610796565b60095460405163f6abae9b60e01b8152600481018390526000916001600160a01b03169063f6abae9b906024016020604051808303816000875af1158015612a23573d6000803e3d6000fd5b505050506040513d601f19601f82011682018060405250810190612a47919061371a565b905080600b6000828254612a5b919061363b565b909155505060408051838152602081018390527fdb1b78e340a630d4f21ab745d484ca84f67095935786f8c866733a012f349407910160405180910390a15050565b600080600080612ac2856001600160a01b031660009081526020819052604090205490565b6001600160a01b0386166000908152600e60205260409020549094509250612aea838561363b565b9150612af582610676565b90509193509193565b612b06612ed3565b600d54811015612b485760405162461bcd60e51b815260206004820152600d60248201526c42656c6f77206d696e2062757960981b6044820152606401610796565b6000612b538261270a565b6040516323b872dd60e01b81529091506001600160a01b037f000000000000000000000000000000000000000000000000000000000000000016906323b872dd90612ba690339030908790600401613874565b6020604051808303816000875af1158015612bc5573d6000803e3d6000fd5b505050506040513d601f19601f82011682018060405250810190612be991906136fd565b612bf257600080fd5b81600b6000828254612c04919061363b565b90915550612c1490503382613328565b604080518381526020810183905233917fa9a40dec7a304e5915d11358b968c1e8d365992abf20f82285d1df1b30c8e24c910160405180910390a2506118186001600655565b612c62612ed3565b60008111612ca05760405162461bcd60e51b815260206004820152600b60248201526a16995c9bc8185b5bdd5b9d60aa1b6044820152606401610796565b612cab333083612fa6565b336000908152600e602052604081208054839290612cca90849061363b565b909155505060405181815233907f9f1ec8c880f76798e7b793325d625e9b60e4082a553c98f42b6cda368dd600089060200160405180910390a26118186001600655565b6001600160a01b03918216600090815260016020908152604080832093909416825291909152205490565b612d4161314a565b6001600160a01b038116612da65760405162461bcd60e51b815260206004820152602660248201527f4f776e61626c653a206e6577206f776e657220697320746865207a65726f206160448201526564647265737360d01b6064820152608401610796565b611818816132d6565b6001600160a01b038316612e115760405162461bcd60e51b8152602060048201526024808201527f45524332303a20617070726f76652066726f6d20746865207a65726f206164646044820152637265737360e01b6064820152608401610796565b6001600160a01b038216612e725760405162461bcd60e51b815260206004820152602260248201527f45524332303a20617070726f766520746f20746865207a65726f206164647265604482015261737360f01b6064820152608401610796565b6001600160a01b0383811660008181526001602090815260408083209487168084529482529182902085905590518481527f8c5be1e5ebec7d5bd14f71427d1e84f3dd0314c0f7b2291e5b200ac8c7c3b925910160405180910390a3505050565b600260065403612f255760405162461bcd60e51b815260206004820152601f60248201527f5265656e7472616e637947756172643a207265656e7472616e742063616c6c006044820152606401610796565b6002600655565b6000612f388484612d0e565b90506000198114612fa05781811015612f935760405162461bcd60e51b815260206004820152601d60248201527f45524332303a20696e73756666696369656e7420616c6c6f77616e63650000006044820152606401610796565b612fa08484848403612daf565b50505050565b6001600160a01b03831661300a5760405162461bcd60e51b815260206004820152602560248201527f45524332303a207472616e736665722066726f6d20746865207a65726f206164604482015264647265737360d81b6064820152608401610796565b6001600160a01b03821661306c5760405162461bcd60e51b815260206004820152602360248201527f45524332303a207472616e7366657220746f20746865207a65726f206164647260448201526265737360e81b6064820152608401610796565b6001600160a01b038316600090815260208190526040902054818110156130e45760405162461bcd60e51b815260206004820152602660248201527f45524332303a207472616e7366657220616d6f756e7420657863656564732062604482015265616c616e636560d01b6064820152608401610796565b6001600160a01b03848116600081815260208181526040808320878703905593871680835291849020805487019055925185815290927fddf252ad1be2c89b69c2b068fc378daa952ba7f163c4a11628f55a4df523b3ef910160405180910390a3612fa0565b6005546001600160a01b031633146110375760405162461bcd60e51b815260206004820181905260248201527f4f776e61626c653a2063616c6c6572206973206e6f7420746865206f776e65726044820152606401610796565b6001600160a01b0382166132045760405162461bcd60e51b815260206004820152602160248201527f45524332303a206275726e2066726f6d20746865207a65726f206164647265736044820152607360f81b6064820152608401610796565b6001600160a01b038216600090815260208190526040902054818110156132785760405162461bcd60e51b815260206004820152602260248201527f45524332303a206275726e20616d6f756e7420657863656564732062616c616e604482015261636560f01b6064820152608401610796565b6001600160a01b0383166000818152602081815260408083208686039055600280548790039055518581529192917fddf252ad1be2c89b69c2b068fc378daa952ba7f163c4a11628f55a4df523b3ef910160405180910390a3505050565b600580546001600160a01b038381166001600160a01b0319831681179093556040519116919082907f8be0079c531659141344cd1fd0a4f28419497f9722a3daafe3b4186f6b6457e090600090a35050565b6001600160a01b03821661337e5760405162461bcd60e51b815260206004820152601f60248201527f45524332303a206d696e7420746f20746865207a65726f2061646472657373006044820152606401610796565b8060026000828254613390919061363b565b90915550506001600160a01b038216600081815260208181526040808320805486019055518481527fddf252ad1be2c89b69c2b068fc378daa952ba7f163c4a11628f55a4df523b3ef910160405180910390a35050565b60006020808352835180602085015260005b81811015613415578581018301518582016040015282016133f9565b506000604082860101526040601f19601f8301168501019250505092915050565b60006020828403121561344857600080fd5b5035919050565b6001600160a01b038116811461181857600080fd5b60006020828403121561347657600080fd5b81356106b08161344f565b6000806040838503121561349457600080fd5b823561349f8161344f565b946020939093013593505050565b600080604083850312156134c057600080fd5b50508035926020909101359150565b6000806000606084860312156134e457600080fd5b83356134ef8161344f565b925060208401356134ff8161344f565b929592945050506040919091013590565b801515811461181857600080fd5b60008060006060848603121561353357600080fd5b8335925060208401356134ff81613510565b6000806040838503121561355857600080fd5b82359150602083013561356a8161344f565b809150509250929050565b60008060006060848603121561358a57600080fd5b83359250602084013561359c81613510565b915060408401356135ac81613510565b809150509250925092565b6000806000606084860312156135cc57600080fd5b83356135d78161344f565b925060208401356135e78161344f565b915060408401356135ac8161344f565b6000806040838503121561360a57600080fd5b82356136158161344f565b9150602083013561356a8161344f565b634e487b7160e01b600052601160045260246000fd5b8082018082111561071e5761071e613625565b600181811c9082168061366257607f821691505b60208210810361368257634e487b7160e01b600052602260045260246000fd5b50919050565b808202811582820484141761071e5761071e613625565b6000826136bc57634e487b7160e01b600052601260045260246000fd5b500490565b8181038181111561071e5761071e613625565b6001600160a01b03929092168252602082015260400190565b80516136f881613510565b919050565b60006020828403121561370f57600080fd5b81516106b081613510565b60006020828403121561372c57600080fd5b5051919050565b6020808252600e908201526d27379030b1ba34bb32903637b0b760911b604082015260600190565b6040516101c0810167ffffffffffffffff8111828210171561378d57634e487b7160e01b600052604160045260246000fd5b60405290565b80516136f88161344f565b60006101c082840312156137b157600080fd5b6137b961375b565b825181526137c960208401613793565b6020820152604083015160408201526137e460608401613793565b60608201526137f560808401613793565b608082015260a083015160a082015260c083015160c082015260e083015160e082015261010080840151818301525061012080840151818301525061014080840151818301525061016061384a8185016136ed565b9082015261018061385c8482016136ed565b908201526101a0928301519281019290925250919050565b6001600160a01b039384168152919092166020820152604081019190915260600190565b634e487b7160e01b600052603260045260246000fd5b60006080820186835260208660208501526080604085015281865180845260a08601915060208801935060005b818110156139005784516001600160a01b0316835293830193918301916001016138db565b5050809350505050821515606083015295945050505050565b60008060006060848603121561392e57600080fd5b83516139398161344f565b6020850151604086015191945092506135ac8161344f565b60008060006060848603121561396657600080fd5b835161397181613510565b60208501516040909501519096949550939250505056fea2646970667358221220cb67c099d7c5c9e233993fc80bfce381b37255954e3d39c062185524a649a03c64736f6c63430008180033",
  "linkReferences": {},
  "deployedLinkReferences": {}
}