{
  "_format": "hh-sol-artifact-1",
  "contractName": "ASwap",
  "sourceName": "contracts/SWAP.sol",
  "abi": [
    {
      "inputs": [
        {
          "internalType": "address",
          "name": "_usdc",
          "type": "address"
        }
      ],
      "stateMutability": "nonpayable",
      "type": "constructor"
    },
    {
      "anonymous": false,
      "inputs": [
        {
          "indexed": false,
          "internalType": "address",
          "name": "token",
          "type": "address"
        },
        {
          "components": [
            {
              "internalType": "string",
              "name": "name",
              "type": "string"
            },
            {
              "internalType": "string",
              "name": "symbol",
              "type": "string"
            },
            {
              "internalType": "uint256",
              "name": "price",
              "type": "uint256"
            }
          ],
          "indexed": false,
          "internalType": "struct ASwap.TradeInfo",
          "name": "info",
          "type": "tuple"
        }
      ],
      "name": "Traded",
      "type": "event"
    },
    {
      "inputs": [
        {
          "internalType": "uint256",
          "name": "amount",
          "type": "uint256"
        },
        {
          "internalType": "uint256",
          "name": "minOut",
          "type": "uint256"
        },
        {
          "internalType": "address[]",
          "name": "path",
          "type": "address[]"
        },
        {
          "internalType": "bool",
          "name": "wrapTokens",
          "type": "bool"
        }
      ],
      "name": "buyTokens",
      "outputs": [],
      "stateMutability": "nonpayable",
      "type": "function"
    },
    {
      "inputs": [
        {
          "internalType": "address",
          "name": "marketToken",
          "type": "address"
        },
        {
          "internalType": "address",
          "name": "inputToken",
          "type": "address"
        },
        {
          "internalType": "uint256",
          "name": "inputAmount",
          "type": "uint256"
        }
      ],
      "name": "convertToNative",
      "outputs": [
        {
          "internalType": "uint256",
          "name": "usdcOut",
          "type": "uint256"
        }
      ],
      "stateMutability": "nonpayable",
      "type": "function"
    },
    {
      "inputs": [
        {
          "internalType": "uint256",
          "name": "amount",
          "type": "uint256"
        },
        {
          "internalType": "address[]",
          "name": "path",
          "type": "address[]"
        }
      ],
      "name": "getAmountsOut",
      "outputs": [
        {
          "internalType": "uint256",
          "name": "",
          "type": "uint256"
        }
      ],
      "stateMutability": "view",
      "type": "function"
    },
    {
      "inputs": [],
      "name": "lastTradeBlock",
      "outputs": [
        {
          "internalType": "uint256",
          "name": "",
          "type": "uint256"
        }
      ],
      "stateMutability": "view",
      "type": "function"
    },
    {
      "inputs": [
        {
          "internalType": "uint256",
          "name": "_amount",
          "type": "uint256"
        },
        {
          "internalType": "uint256",
          "name": "minOut",
          "type": "uint256"
        },
        {
          "internalType": "address[]",
          "name": "path",
          "type": "address[]"
        },
        {
          "internalType": "uint256",
          "name": "numberOfDays",
          "type": "uint256"
        }
      ],
      "name": "leverageBuy",
      "outputs": [],
      "stateMutability": "nonpayable",
      "type": "function"
    },
    {
      "inputs": [
        {
          "internalType": "uint256",
          "name": "_amount",
          "type": "uint256"
        },
        {
          "internalType": "uint256",
          "name": "minOutLev",
          "type": "uint256"
        },
        {
          "internalType": "uint256",
          "name": "minOut",
          "type": "uint256"
        },
        {
          "internalType": "address[]",
          "name": "path",
          "type": "address[]"
        },
        {
          "internalType": "uint256",
          "name": "numberOfDays",
          "type": "uint256"
        },
        {
          "internalType": "uint256",
          "name": "percentageLeverage",
          "type": "uint256"
        }
      ],
      "name": "mixedBuy",
      "outputs": [],
      "stateMutability": "nonpayable",
      "type": "function"
    },
    {
      "inputs": [
        {
          "internalType": "uint256",
          "name": "loanId",
          "type": "uint256"
        },
        {
          "internalType": "uint256",
          "name": "percentage",
          "type": "uint256"
        },
        {
          "internalType": "bool",
          "name": "isLeverage",
          "type": "bool"
        },
        {
          "internalType": "uint256",
          "name": "minOut",
          "type": "uint256"
        }
      ],
      "name": "partialLoanSell",
      "outputs": [],
      "stateMutability": "nonpayable",
      "type": "function"
    },
    {
      "inputs": [
        {
          "internalType": "contract IERC20",
          "name": "tokenToRescue",
          "type": "address"
        }
      ],
      "name": "rescueAnyToken",
      "outputs": [],
      "stateMutability": "nonpayable",
      "type": "function"
    },
    {
      "inputs": [],
      "name": "rescueEth",
      "outputs": [],
      "stateMutability": "nonpayable",
      "type": "function"
    },
    {
      "inputs": [
        {
          "internalType": "uint256",
          "name": "amount",
          "type": "uint256"
        },
        {
          "internalType": "address",
          "name": "originalToken",
          "type": "address"
        }
      ],
      "name": "sellAndDistributeStasis",
      "outputs": [],
      "stateMutability": "nonpayable",
      "type": "function"
    },
    {
      "inputs": [
        {
          "internalType": "uint256",
          "name": "amount",
          "type": "uint256"
        },
        {
          "internalType": "uint256",
          "name": "minOut",
          "type": "uint256"
        },
        {
          "internalType": "address[]",
          "name": "path",
          "type": "address[]"
        },
        {
          "internalType": "bool",
          "name": "swapToETH",
          "type": "bool"
        }
      ],
      "name": "sellTokens",
      "outputs": [],
      "stateMutability": "nonpayable",
      "type": "function"
    },
    {
      "inputs": [
        {
          "internalType": "address",
          "name": "newFactory",
          "type": "address"
        },
        {
          "internalType": "address",
          "name": "newLeverage",
          "type": "address"
        },
        {
          "internalType": "address",
          "name": "newVesting",
          "type": "address"
        },
        {
          "internalType": "address",
          "name": "newMain",
          "type": "address"
        },
        {
          "internalType": "address",
          "name": "newTaxes",
          "type": "address"
        },
        {
          "internalType": "address",
          "name": "newStaking",
          "type": "address"
        }
      ],
      "name": "setContracts",
      "outputs": [],
      "stateMutability": "nonpayable",
      "type": "function"
    },
    {
      "inputs": [
        {
          "internalType": "uint256",
          "name": "amount",
          "type": "uint256"
        }
      ],
      "name": "swapForStaking",
      "outputs": [
        {
          "internalType": "uint256",
          "name": "",
          "type": "uint256"
        }
      ],
      "stateMutability": "nonpayable",
      "type": "function"
    },
    {
      "inputs": [],
      "name": "totalTaxDistributed",
      "outputs": [
        {
          "internalType": "uint256",
          "name": "",
          "type": "uint256"
        }
      ],
      "stateMutability": "view",
      "type": "function"
    },
    {
      "stateMutability": "payable",
      "type": "receive"
    }
  ],
  "bytecode": "0x608060405260006009553480156200001657600080fd5b506040516200627c3803806200627c833981016040819052620000399162000074565b6001600081905560088054336001600160a01b031991821617909155436009558154166001600160a01b0392909216919091179055620000a6565b6000602082840312156200008757600080fd5b81516001600160a01b03811681146200009f57600080fd5b9392505050565b6161c680620000b66000396000f3fe6080604052600436106100e15760003560e01c806395267ac71161007f578063ce31a06b11610059578063ce31a06b1461022d578063d06ca61f14610242578063e99d4ff414610262578063f6abae9b1461028257600080fd5b806395267ac7146101d75780639c5d92e5146101ed578063c12f23d61461020d57600080fd5b806324caa546116100bb57806324caa5461461014f5780632c9cdbbf146101775780635e1326fb146101975780638ec42bce146101b757600080fd5b80630bfd9f6c146100ed5780630e52039b1461010f5780632463a55a1461012f57600080fd5b366100e857005b600080fd5b3480156100f957600080fd5b5061010d610108366004615726565b6102a2565b005b34801561011b57600080fd5b5061010d61012a366004615796565b6103f6565b34801561013b57600080fd5b5061010d61014a366004615806565b6104c9565b34801561015b57600080fd5b50610165600a5481565b60405190815260200160405180910390f35b34801561018357600080fd5b5061010d610192366004615888565b610562565b3480156101a357600080fd5b506101656101b23660046158ac565b610674565b3480156101c357600080fd5b5061010d6101d23660046158ed565b6112f1565b3480156101e357600080fd5b5061016560095481565b3480156101f957600080fd5b5061010d61020836600461592b565b6113a0565b34801561021957600080fd5b5061010d610228366004615996565b612292565b34801561023957600080fd5b5061010d612b91565b34801561024e57600080fd5b5061016561025d3660046159d5565b612c1d565b34801561026e57600080fd5b5061010d61027d36600461592b565b612ef7565b34801561028e57600080fd5b5061016561029d366004615a21565b613169565b6002600054036102cd5760405162461bcd60e51b81526004016102c490615a3a565b60405180910390fd5b600260005580158015906102e15750606481105b6103155760405162461bcd60e51b815260206004820152600560248201526452616e676560d81b60448201526064016102c4565b6001546040516323b872dd60e01b81526001600160a01b03909116906323b872dd9061034990339030908c90600401615a71565b6020604051808303816000875af1158015610368573d6000803e3d6000fd5b505050506040513d601f19601f8201168201806040525081019061038c9190615aa0565b6103a85760405162461bcd60e51b81526004016102c490615abd565b600060646103b6838a615af5565b6103c09190615b22565b90506103d96103cf828a615b36565b87878760006133b4565b506103e7818887878761455f565b50506001600055505050505050565b6002600054036104185760405162461bcd60e51b81526004016102c490615a3a565b60026000556001546040516323b872dd60e01b81526001600160a01b03909116906323b872dd9061045190339030908a90600401615a71565b6020604051808303816000875af1158015610470573d6000803e3d6000fd5b505050506040513d601f19601f820116820180604052508101906104949190615aa0565b6104b05760405162461bcd60e51b81526004016102c490615abd565b6104bd858585858561455f565b50506001600055505050565b6008546001600160a01b031633146104f35760405162461bcd60e51b81526004016102c490615b49565b600580546001600160a01b03199081166001600160a01b0398891617909155600480548216968816969096179095556002805486169487169490941790935560038054851692861692909217909155600680548416918516919091179055600780549092169216919091179055565b6008546001600160a01b0316331461058c5760405162461bcd60e51b81526004016102c490615b49565b6040516370a0823160e01b81523060048201526000906001600160a01b038316906370a0823190602401602060405180830381865afa1580156105d3573d6000803e3d6000fd5b505050506040513d601f19601f820116820180604052508101906105f79190615b6b565b60085460405163a9059cbb60e01b81529192506001600160a01b038085169263a9059cbb9261062c9216908590600401615b84565b6020604051808303816000875af115801561064b573d6000803e3d6000fd5b505050506040513d601f19601f8201168201806040525081019061066f9190615aa0565b505050565b60006002600054036106985760405162461bcd60e51b81526004016102c490615a3a565b60026000556040516323b872dd60e01b815284906001600160a01b038516906323b872dd906106cf90339030908890600401615a71565b6020604051808303816000875af11580156106ee573d6000803e3d6000fd5b505050506040513d601f19601f820116820180604052508101906107129190615aa0565b61072e5760405162461bcd60e51b81526004016102c490615abd565b846001600160a01b0316846001600160a01b031614610e265760015483906001600160a01b039081169086160361086c5760015460035460405163095ea7b360e01b81526001600160a01b039283169263095ea7b392610795929116908890600401615b84565b6020604051808303816000875af11580156107b4573d6000803e3d6000fd5b505050506040513d601f19601f820116820180604052508101906107d89190615aa0565b6107f45760405162461bcd60e51b81526004016102c490615b9d565b60035460405163c625e9b160e01b81526001600160a01b039091169063c625e9b1906108269087903390600401615bbe565b6020604051808303816000875af1158015610845573d6000803e3d6000fd5b505050506040513d601f19601f820116820180604052508101906108699190615b6b565b90505b60035460405163095ea7b360e01b81526001600160a01b039091169063095ea7b39061089e9089908590600401615b84565b6020604051808303816000875af11580156108bd573d6000803e3d6000fd5b505050506040513d601f19601f820116820180604052508101906108e19190615aa0565b6108fd5760405162461bcd60e51b81526004016102c490615b9d565b6000826001600160a01b031663089e136e6040518163ffffffff1660e01b8152600401602060405180830381865afa15801561093d573d6000803e3d6000fd5b505050506040513d601f19601f820116820180604052508101906109619190615aa0565b6109db57604051632449736960e11b81526001600160a01b03841690634892e6d2906109939085903390600401615bbe565b6020604051808303816000875af11580156109b2573d6000803e3d6000fd5b505050506040513d601f19601f820116820180604052508101906109d69190615b6b565b610a4c565b60405163c625e9b160e01b81526001600160a01b0384169063c625e9b190610a099085903390600401615bbe565b6020604051808303816000875af1158015610a28573d6000803e3d6000fd5b505050506040513d601f19601f82011682018060405250810190610a4c9190615b6b565b6001546040516370a0823160e01b81523060048201529192506000916001600160a01b03909116906370a0823190602401602060405180830381865afa158015610a9a573d6000803e3d6000fd5b505050506040513d601f19601f82011682018060405250810190610abe9190615b6b565b60405163095ea7b360e01b81529091506001600160a01b0385169063095ea7b390610aef908b908690600401615b84565b6020604051808303816000875af1158015610b0e573d6000803e3d6000fd5b505050506040513d601f19601f82011682018060405250810190610b329190615aa0565b610b4e5760405162461bcd60e51b81526004016102c490615b9d565b6000846001600160a01b031663089e136e6040518163ffffffff1660e01b8152600401602060405180830381865afa158015610b8e573d6000803e3d6000fd5b505050506040513d601f19601f82011682018060405250810190610bb29190615aa0565b610c2c5760405163ef4607f560e01b81526001600160a01b0386169063ef4607f590610be49086903390600401615bbe565b6020604051808303816000875af1158015610c03573d6000803e3d6000fd5b505050506040513d601f19601f82011682018060405250810190610c279190615b6b565b610c9d565b60405163670f715160e01b81526001600160a01b0386169063670f715190610c5a9086903390600401615bbe565b6020604051808303816000875af1158015610c79573d6000803e3d6000fd5b505050506040513d601f19601f82011682018060405250810190610c9d9190615b6b565b60035460405163095ea7b360e01b81529192506001600160a01b03169063095ea7b390610cd09083908590600401615b84565b6020604051808303816000875af1158015610cef573d6000803e3d6000fd5b505050506040513d601f19601f82011682018060405250810190610d139190615aa0565b610d2f5760405162461bcd60e51b81526004016102c490615b9d565b60035460405163670f715160e01b81526001600160a01b039091169063670f715190610d619084903390600401615bbe565b6020604051808303816000875af1158015610d80573d6000803e3d6000fd5b505050506040513d601f19601f82011682018060405250810190610da49190615b6b565b506001546040516370a0823160e01b815230600482015283916001600160a01b0316906370a0823190602401602060405180830381865afa158015610ded573d6000803e3d6000fd5b505050506040513d601f19601f82011682018060405250810190610e119190615b6b565b610e1b9190615b36565b9550505050506111f5565b6001546040516370a0823160e01b81523060048201526000916001600160a01b0316906370a0823190602401602060405180830381865afa158015610e6f573d6000803e3d6000fd5b505050506040513d601f19601f82011682018060405250810190610e939190615b6b565b60405163095ea7b360e01b81529091506001600160a01b0383169063095ea7b390610ec49089908890600401615b84565b6020604051808303816000875af1158015610ee3573d6000803e3d6000fd5b505050506040513d601f19601f82011682018060405250810190610f079190615aa0565b610f235760405162461bcd60e51b81526004016102c490615b9d565b6000826001600160a01b031663089e136e6040518163ffffffff1660e01b8152600401602060405180830381865afa158015610f63573d6000803e3d6000fd5b505050506040513d601f19601f82011682018060405250810190610f879190615aa0565b6110015760405163ef4607f560e01b81526001600160a01b0384169063ef4607f590610fb99088903390600401615bbe565b6020604051808303816000875af1158015610fd8573d6000803e3d6000fd5b505050506040513d601f19601f82011682018060405250810190610ffc9190615b6b565b611072565b60405163670f715160e01b81526001600160a01b0384169063670f71519061102f9088903390600401615bbe565b6020604051808303816000875af115801561104e573d6000803e3d6000fd5b505050506040513d601f19601f820116820180604052508101906110729190615b6b565b60035460405163095ea7b360e01b81529192506001600160a01b03169063095ea7b3906110a59083908590600401615b84565b6020604051808303816000875af11580156110c4573d6000803e3d6000fd5b505050506040513d601f19601f820116820180604052508101906110e89190615aa0565b6111045760405162461bcd60e51b81526004016102c490615b9d565b60035460405163670f715160e01b81526001600160a01b039091169063670f7151906111369084903390600401615bbe565b6020604051808303816000875af1158015611155573d6000803e3d6000fd5b505050506040513d601f19601f820116820180604052508101906111799190615b6b565b506001546040516370a0823160e01b815230600482015283916001600160a01b0316906370a0823190602401602060405180830381865afa1580156111c2573d6000803e3d6000fd5b505050506040513d601f19601f820116820180604052508101906111e69190615b6b565b6111f09190615b36565b935050505b600082116112335760405162461bcd60e51b815260206004820152600b60248201526a139bc81554d110c81bdd5d60aa1b60448201526064016102c4565b60015460405163a9059cbb60e01b81526001600160a01b039091169063a9059cbb906112659033908690600401615b84565b6020604051808303816000875af1158015611284573d6000803e3d6000fd5b505050506040513d601f19601f820116820180604052508101906112a89190615aa0565b6112e45760405162461bcd60e51b815260206004820152600d60248201526c1554d110c81bdd5d0819985a5b609a1b60448201526064016102c4565b5060016000559392505050565b6003546040516323b872dd60e01b81526001600160a01b03909116906323b872dd9061132590339030908790600401615a71565b6020604051808303816000875af1158015611344573d6000803e3d6000fd5b505050506040513d601f19601f820116820180604052508101906113689190615aa0565b6113845760405162461bcd60e51b81526004016102c490615abd565b60035461139c9083906001600160a01b0316836150ef565b5050565b6002600054036113c25760405162461bcd60e51b81526004016102c490615a3a565b600260008190558214806113d65750600382145b6113f25760405162461bcd60e51b81526004016102c490615bd5565b6005546001600160a01b03166310f83ae9848460008161141457611414615bf7565b90506020020160208101906114299190615888565b6040516001600160e01b031960e084901b1681526001600160a01b039091166004820152602401602060405180830381865afa15801561146d573d6000803e3d6000fd5b505050506040513d601f19601f820116820180604052508101906114919190615aa0565b806114d15750828260008181106114aa576114aa615bf7565b90506020020160208101906114bf9190615888565b6003546001600160a01b039081169116145b61150b5760405162461bcd60e51b815260206004820152600b60248201526a2bb937b733903a37b5b2b760a91b60448201526064016102c4565b60008383600081811061152057611520615bf7565b90506020020160208101906115359190615888565b905060008484611546600182615b36565b81811061155557611555615bf7565b905060200201602081019061156a9190615888565b6040516323b872dd60e01b81529091506001600160a01b038316906323b872dd9061159d90339030908c90600401615a71565b6020604051808303816000875af11580156115bc573d6000803e3d6000fd5b505050506040513d601f19601f820116820180604052508101906115e09190615aa0565b6115fc5760405162461bcd60e51b81526004016102c490615abd565b6000806040518060600160405280856001600160a01b03166306fdde036040518163ffffffff1660e01b8152600401600060405180830381865afa158015611648573d6000803e3d6000fd5b505050506040513d6000823e601f3d908101601f191682016040526116709190810190615c95565b8152602001856001600160a01b03166395d89b416040518163ffffffff1660e01b8152600401600060405180830381865afa1580156116b3573d6000803e3d6000fd5b505050506040513d6000823e601f3d908101601f191682016040526116db9190810190615c95565b8152602001856001600160a01b031663c338287f6040518163ffffffff1660e01b8152600401602060405180830381865afa15801561171e573d6000803e3d6000fd5b505050506040513d601f19601f820116820180604052508101906117429190615b6b565b81525090506000846001600160a01b0316630dfe16816040518163ffffffff1660e01b8152600401602060405180830381865afa158015611787573d6000803e3d6000fd5b505050506040513d601f19601f820116820180604052508101906117ab9190615d4d565b90506000856001600160a01b031663d21220a76040518163ffffffff1660e01b8152600401602060405180830381865afa1580156117ed573d6000803e3d6000fd5b505050506040513d601f19601f820116820180604052508101906118119190615d4d565b90506002889003611b9d57806001600160a01b03168989600181811061183957611839615bf7565b905060200201602081019061184e9190615888565b6001600160a01b0316146118745760405162461bcd60e51b81526004016102c490615d6a565b8888600081811061188757611887615bf7565b905060200201602081019061189c9190615888565b6003546001600160a01b039182169116036119b65760405163095ea7b360e01b81526001600160a01b0387169063095ea7b3906118df9085908f90600401615b84565b6020604051808303816000875af11580156118fe573d6000803e3d6000fd5b505050506040513d601f19601f820116820180604052508101906119229190615aa0565b61193e5760405162461bcd60e51b81526004016102c490615b9d565b60405163670f715160e01b81526001600160a01b0387169063670f71519061196c908e903390600401615bbe565b6020604051808303816000875af115801561198b573d6000803e3d6000fd5b505050506040513d601f19601f820116820180604052508101906119af9190615b6b565b93506120d7565b60405163095ea7b360e01b81526001600160a01b0387169063095ea7b3906119e49085908f90600401615b84565b6020604051808303816000875af1158015611a03573d6000803e3d6000fd5b505050506040513d601f19601f82011682018060405250810190611a279190615aa0565b611a435760405162461bcd60e51b81526004016102c490615b9d565b856001600160a01b031663089e136e6040518163ffffffff1660e01b8152600401602060405180830381865afa158015611a81573d6000803e3d6000fd5b505050506040513d601f19601f82011682018060405250810190611aa59190615aa0565b611b225760405163ef4607f560e01b81526001600160a01b0387169063ef4607f590611ad7908e903390600401615bbe565b6020604051808303816000875af1158015611af6573d6000803e3d6000fd5b505050506040513d601f19601f82011682018060405250810190611b1a9190615b6b565b935083611b97565b60405163670f715160e01b81526001600160a01b0387169063670f715190611b50908e903390600401615bbe565b6020604051808303816000875af1158015611b6f573d6000803e3d6000fd5b505050506040513d601f19601f82011682018060405250810190611b939190615b6b565b9350835b506120d7565b60038890036120d7576005546001600160a01b03166310f83ae98a8a600081611bc857611bc8615bf7565b9050602002016020810190611bdd9190615888565b6040516001600160e01b031960e084901b1681526001600160a01b039091166004820152602401602060405180830381865afa158015611c21573d6000803e3d6000fd5b505050506040513d601f19601f82011682018060405250810190611c459190615aa0565b611c815760405162461bcd60e51b815260206004820152600d60248201526c4e6f742065636f73797374656d60981b60448201526064016102c4565b6003546001600160a01b031689896001818110611ca057611ca0615bf7565b9050602002016020810190611cb59190615888565b6001600160a01b031614611cf65760405162461bcd60e51b81526020600482015260086024820152672737ba1026a0a4a760c11b60448201526064016102c4565b6001546001600160a01b031689896002818110611d1557611d15615bf7565b9050602002016020810190611d2a9190615888565b6001600160a01b031614611d6b5760405162461bcd60e51b81526020600482015260086024820152674e6f74205553444360c01b60448201526064016102c4565b60405163095ea7b360e01b81526001600160a01b0387169063095ea7b390611d999085908f90600401615b84565b6020604051808303816000875af1158015611db8573d6000803e3d6000fd5b505050506040513d601f19601f82011682018060405250810190611ddc9190615aa0565b611df85760405162461bcd60e51b81526004016102c490615b9d565b60008b90506000876001600160a01b031663089e136e6040518163ffffffff1660e01b8152600401602060405180830381865afa158015611e3d573d6000803e3d6000fd5b505050506040513d601f19601f82011682018060405250810190611e619190615aa0565b611ede5760405163ef4607f560e01b81526001600160a01b0389169063ef4607f590611e939085903390600401615bbe565b6020604051808303816000875af1158015611eb2573d6000803e3d6000fd5b505050506040513d601f19601f82011682018060405250810190611ed69190615b6b565b905080611f53565b60405163670f715160e01b81526001600160a01b0389169063670f715190611f0c9085903390600401615bbe565b6020604051808303816000875af1158015611f2b573d6000803e3d6000fd5b505050506040513d601f19601f82011682018060405250810190611f4f9190615b6b565b9050805b5060008111611f905760405162461bcd60e51b81526020600482015260096024820152682d32b9379036b0b4b760b91b60448201526064016102c4565b60035460405163095ea7b360e01b81526001600160a01b039091169063095ea7b390611fc29083908590600401615b84565b6020604051808303816000875af1158015611fe1573d6000803e3d6000fd5b505050506040513d601f19601f820116820180604052508101906120059190615aa0565b6120215760405162461bcd60e51b81526004016102c490615b9d565b60035460405163670f715160e01b81526001600160a01b039091169063670f7151906120539084903390600401615bbe565b6020604051808303816000875af1158015612072573d6000803e3d6000fd5b505050506040513d601f19601f820116820180604052508101906120969190615b6b565b9550600086116120d45760405162461bcd60e51b815260206004820152600960248201526816995c9bc81cdbdb1960ba1b60448201526064016102c4565b50505b600654604051631685774f60e01b81526001600160a01b03888116600483015233602483015260009261271092911690631685774f90604401602060405180830381865afa15801561212d573d6000803e3d6000fd5b505050506040513d601f19601f820116820180604052508101906121519190615b6b565b61215b9087615af5565b6121659190615b22565b90506121728187896150ef565b61217c8186615b36565b945087156121945761218f858c88615364565b612241565b8a8510156121b45760405162461bcd60e51b81526004016102c490615d8c565b60405163a9059cbb60e01b81526001600160a01b0387169063a9059cbb906121e29033908990600401615b84565b6020604051808303816000875af1158015612201573d6000803e3d6000fd5b505050506040513d601f19601f820116820180604052508101906122259190615aa0565b6122415760405162461bcd60e51b81526004016102c490615abd565b436009556040517f11582b142024e312dfe437418214eeb225c90f04efda714741076d4c0ab81eb3906122779089908790615dd9565b60405180910390a15050600160005550505050505050505050565b6002600054036122b45760405162461bcd60e51b81526004016102c490615a3a565b60026000556122c4600a84615e38565b156122fb5760405162461bcd60e51b81526020600482015260076024820152660252062792031360cc1b60448201526064016102c4565b600a831015801561230d575060648311155b6123435760405162461bcd60e51b8152602060048201526007602482015266252072616e676560c81b60448201526064016102c4565b6000826123c3576003546040516398c61c3760e01b81526001600160a01b03909116906398c61c379061237c9033908990600401615b84565b6101c060405180830381865afa15801561239a573d6000803e3d6000fd5b505050506040513d601f19601f820116820180604052508101906123be9190615e9b565b612437565b600354604051632aa7739360e01b81526001600160a01b0390911690632aa77393906123f59033908990600401615b84565b6101c060405180830381865afa158015612413573d6000803e3d6000fd5b505050506040513d601f19601f820116820180604052508101906124379190615e9b565b80519091506001600160a01b0316331461247e5760405162461bcd60e51b81526020600482015260086024820152672737ba103ab9b2b960c11b60448201526064016102c4565b6003546040516355d5e07960e11b8152600481018790523360248201526044810186905284151560648201526000916001600160a01b03169063ababc0f2906084016020604051808303816000875af11580156124df573d6000803e3d6000fd5b505050506040513d601f19601f820116820180604052508101906125039190615b6b565b602083015160405163095ea7b360e01b81529192506001600160a01b0381169163095ea7b391612537918590600401615b84565b6020604051808303816000875af1158015612556573d6000803e3d6000fd5b505050506040513d601f19601f8201168201806040525081019061257a9190615aa0565b6125965760405162461bcd60e51b81526004016102c490615b9d565b60035460208301516000916001600160a01b0390811691160361262f5760035460405163670f715160e01b81526001600160a01b039091169063670f7151906125e59085903390600401615bbe565b6020604051808303816000875af1158015612604573d6000803e3d6000fd5b505050506040513d601f19601f820116820180604052508101906126289190615b6b565b905061289a565b600083602001516001600160a01b031663089e136e6040518163ffffffff1660e01b8152600401602060405180830381865afa158015612673573d6000803e3d6000fd5b505050506040513d601f19601f820116820180604052508101906126979190615aa0565b156127185783602001516001600160a01b031663670f715184336040518363ffffffff1660e01b81526004016126ce929190615bbe565b6020604051808303816000875af11580156126ed573d6000803e3d6000fd5b505050506040513d601f19601f820116820180604052508101906127119190615b6b565b9050612790565b83602001516001600160a01b031663ef4607f584336040518363ffffffff1660e01b815260040161274a929190615bbe565b6020604051808303816000875af1158015612769573d6000803e3d6000fd5b505050506040513d601f19601f8201168201806040525081019061278d9190615b6b565b90505b60035460405163095ea7b360e01b81526001600160a01b039091169063095ea7b3906127c29083908590600401615b84565b6020604051808303816000875af11580156127e1573d6000803e3d6000fd5b505050506040513d601f19601f820116820180604052508101906128059190615aa0565b6128215760405162461bcd60e51b81526004016102c490615b9d565b60035460405163670f715160e01b81526001600160a01b039091169063670f7151906128539084903390600401615bbe565b6020604051808303816000875af1158015612872573d6000803e3d6000fd5b505050506040513d601f19601f820116820180604052508101906128969190615b6b565b9150505b838110156128dc5760405162461bcd60e51b815260206004820152600f60248201526e135a5b881bdd5d081b9bdd081b595d608a1b60448201526064016102c4565b60035460405163166b8a3760e21b8152600481018990528615156024820152604481018390523360648201526001600160a01b03909116906359ae28dc90608401600060405180830381600087803b15801561293757600080fd5b505af115801561294b573d6000803e3d6000fd5b505050508415612af1576101808301518051602090910151600081831161297357600061297d565b61297d8284615b36565b9050600081851061298e5781612990565b845b9050600061299e8287615b36565b905060006129ad600a83615b22565b905060006129bb8289615b36565b60015460405163a9059cbb60e01b81529192506001600160a01b03169063a9059cbb906129ee9033908590600401615b84565b6020604051808303816000875af1158015612a0d573d6000803e3d6000fd5b505050506040513d601f19601f82011682018060405250810190612a319190615aa0565b612a4d5760405162461bcd60e51b81526004016102c490615abd565b60015460085460405163a9059cbb60e01b81526001600160a01b039283169263a9059cbb92612a83929116908690600401615b84565b6020604051808303816000875af1158015612aa2573d6000803e3d6000fd5b505050506040513d601f19601f82011682018060405250810190612ac69190615aa0565b612ae25760405162461bcd60e51b81526004016102c490615abd565b50505050505050505050612b86565b60015460405163a9059cbb60e01b81526001600160a01b039091169063a9059cbb90612b239033908590600401615b84565b6020604051808303816000875af1158015612b42573d6000803e3d6000fd5b505050506040513d601f19601f82011682018060405250810190612b669190615aa0565b612b825760405162461bcd60e51b81526004016102c490615abd565b5050505b505060016000555050565b6008546001600160a01b03163314612bbb5760405162461bcd60e51b81526004016102c490615b49565b6008546040516000916001600160a01b03169047908381818185875af1925050503d8060008114612c08576040519150601f19603f3d011682016040523d82523d6000602084013e612c0d565b606091505b505090508015612c1a5750565b50565b60006002821480612c2e5750600382145b612c4a5760405162461bcd60e51b81526004016102c490615bd5565b8360005b612c59600185615b36565b811015612eee576000858583818110612c7457612c74615bf7565b9050602002016020810190612c899190615888565b905060008686612c9a856001615f62565b818110612ca957612ca9615bf7565b9050602002016020810190612cbe9190615888565b905081816000612ccd8361564c565b90506000612cda8561564c565b905060008115612dce57866001600160a01b0316846001600160a01b031663d21220a76040518163ffffffff1660e01b8152600401602060405180830381865afa158015612d2c573d6000803e3d6000fd5b505050506040513d601f19601f82011682018060405250810190612d509190615d4d565b6001600160a01b031603612dce57604051634ebf190760e01b8152600481018a90526001600160a01b03851690634ebf190790602401602060405180830381865afa158015612da3573d6000803e3d6000fd5b505050506040513d601f19601f82011682018060405250810190612dc79190615b6b565b9850600190505b8215612ebe57856001600160a01b0316856001600160a01b031663d21220a76040518163ffffffff1660e01b8152600401602060405180830381865afa158015612e1c573d6000803e3d6000fd5b505050506040513d601f19601f82011682018060405250810190612e409190615d4d565b6001600160a01b031603612ebe57604051632384f54160e01b8152600481018a90526001600160a01b03861690632384f54190602401602060405180830381865afa158015612e93573d6000803e3d6000fd5b505050506040513d601f19601f82011682018060405250810190612eb79190615b6b565b9850600190505b80612edb5760405162461bcd60e51b81526004016102c490615bd5565b505060019095019450612c4e9350505050565b50949350505050565b600260005403612f195760405162461bcd60e51b81526004016102c490615a3a565b600260009081556005546001600160a01b0316906310f83ae9908590859081612f4457612f44615bf7565b9050602002016020810190612f599190615888565b6040516001600160e01b031960e084901b1681526001600160a01b039091166004820152602401602060405180830381865afa158015612f9d573d6000803e3d6000fd5b505050506040513d601f19601f82011682018060405250810190612fc19190615aa0565b80613001575082826000818110612fda57612fda615bf7565b9050602002016020810190612fef9190615888565b6001546001600160a01b039081169116145b8061304157508282600081811061301a5761301a615bf7565b905060200201602081019061302f9190615888565b6003546001600160a01b039081169116145b61307b5760405162461bcd60e51b815260206004820152600b60248201526a20b634b2b7103a37b5b2b760a91b60448201526064016102c4565b8282600081811061308e5761308e615bf7565b90506020020160208101906130a39190615888565b6001600160a01b03166323b872dd3330886040518463ffffffff1660e01b81526004016130d293929190615a71565b6020604051808303816000875af11580156130f1573d6000803e3d6000fd5b505050506040513d601f19601f820116820180604052508101906131159190615aa0565b61314f5760405162461bcd60e51b815260206004820152600b60248201526a2a3930b739b332b91034b760a91b60448201526064016102c4565b61315c85858585856133b4565b5050600160005550505050565b6007546000906001600160a01b031633146131b55760405162461bcd60e51b815260206004820152600c60248201526b4f6e6c79205354414b494e4760a01b60448201526064016102c4565b6001546040516323b872dd60e01b81526001600160a01b03909116906323b872dd906131e990339030908790600401615a71565b6020604051808303816000875af1158015613208573d6000803e3d6000fd5b505050506040513d601f19601f8201168201806040525081019061322c9190615aa0565b61323557600080fd5b60015460035460405163095ea7b360e01b81526001600160a01b039283169263095ea7b39261326b929116908690600401615b84565b6020604051808303816000875af115801561328a573d6000803e3d6000fd5b505050506040513d601f19601f820116820180604052508101906132ae9190615aa0565b6132b757600080fd5b60035460405163c625e9b160e01b81526000916001600160a01b03169063c625e9b1906132ea9086903390600401615bbe565b6020604051808303816000875af1158015613309573d6000803e3d6000fd5b505050506040513d601f19601f8201168201806040525081019061332d9190615b6b565b60035460405163a9059cbb60e01b81529192506001600160a01b03169063a9059cbb906133609033908590600401615b84565b6020604051808303816000875af115801561337f573d6000803e3d6000fd5b505050506040513d601f19601f820116820180604052508101906133a39190615aa0565b6133ac57600080fd5b90505b919050565b600060028314806133c55750600383145b6133e15760405162461bcd60e51b81526004016102c490615bd5565b6000848460008181106133f6576133f6615bf7565b905060200201602081019061340b9190615888565b90506000858561341c600182615b36565b81811061342b5761342b615bf7565b90506020020160208101906134409190615888565b600654604051631685774f60e01b81526001600160a01b038084166004830152336024830152929350600092612710921690631685774f90604401602060405180830381865afa158015613498573d6000803e3d6000fd5b505050506040513d601f19601f820116820180604052508101906134bc9190615b6b565b6134c6908b615af5565b6134d09190615b22565b905060006134de828b615b36565b90506000806040518060600160405280866001600160a01b03166306fdde036040518163ffffffff1660e01b8152600401600060405180830381865afa15801561352c573d6000803e3d6000fd5b505050506040513d6000823e601f3d908101601f191682016040526135549190810190615c95565b8152602001866001600160a01b03166395d89b416040518163ffffffff1660e01b8152600401600060405180830381865afa158015613597573d6000803e3d6000fd5b505050506040513d6000823e601f3d908101601f191682016040526135bf9190810190615c95565b8152602001866001600160a01b031663c338287f6040518163ffffffff1660e01b8152600401602060405180830381865afa158015613602573d6000803e3d6000fd5b505050506040513d601f19601f820116820180604052508101906136269190615b6b565b81525090506000856001600160a01b0316630dfe16816040518163ffffffff1660e01b8152600401602060405180830381865afa15801561366b573d6000803e3d6000fd5b505050506040513d601f19601f8201168201806040525081019061368f9190615d4d565b90506000866001600160a01b031663d21220a76040518163ffffffff1660e01b8152600401602060405180830381865afa1580156136d1573d6000803e3d6000fd5b505050506040513d601f19601f820116820180604052508101906136f59190615d4d565b90506000876001600160a01b031663089e136e6040518163ffffffff1660e01b8152600401602060405180830381865afa158015613737573d6000803e3d6000fd5b505050506040513d601f19601f8201168201806040525081019061375b9190615aa0565b905060028c9003613b34576005546040516310f83ae960e01b81526001600160a01b038581166004830152909116906310f83ae990602401602060405180830381865afa1580156137b0573d6000803e3d6000fd5b505050506040513d601f19601f820116820180604052508101906137d49190615aa0565b156139d9576003546001600160a01b038381169116146138215760405162461bcd60e51b81526020600482015260086024820152672737ba1036b0b4b760c11b60448201526064016102c4565b816001600160a01b03168d8d600081811061383e5761383e615bf7565b90506020020160208101906138539190615888565b6001600160a01b0316146138795760405162461bcd60e51b81526004016102c490615d6a565b816001600160a01b031663095ea7b38e8e600181811061389b5761389b615bf7565b90506020020160208101906138b09190615888565b886040518363ffffffff1660e01b81526004016138ce929190615b84565b6020604051808303816000875af11580156138ed573d6000803e3d6000fd5b505050506040513d601f19601f820116820180604052508101906139119190615aa0565b61392d5760405162461bcd60e51b81526004016102c490615b9d565b80156139ab5760405163c625e9b160e01b81526001600160a01b0389169063c625e9b1906139619089903390600401615bbe565b6020604051808303816000875af1158015613980573d6000803e3d6000fd5b505050506040513d601f19601f820116820180604052508101906139a49190615b6b565b9450613fba565b604051632449736960e11b81526001600160a01b03891690634892e6d2906139619089903390600401615bbe565b6003546001600160a01b03848116911614613a215760405162461bcd60e51b81526020600482015260086024820152672737ba1036b0b4b760c11b60448201526064016102c4565b816001600160a01b03168d8d6000818110613a3e57613a3e615bf7565b9050602002016020810190613a539190615888565b6001600160a01b031614613a795760405162461bcd60e51b81526004016102c490615d6a565b60405163095ea7b360e01b81526001600160a01b0383169063095ea7b390613aa7908b908a90600401615b84565b6020604051808303816000875af1158015613ac6573d6000803e3d6000fd5b505050506040513d601f19601f82011682018060405250810190613aea9190615aa0565b613b065760405162461bcd60e51b81526004016102c490615b9d565b60405163c625e9b160e01b81526001600160a01b0389169063c625e9b1906139619089903390600401615bbe565b60038c9003613fba576001546001600160a01b03168d8d600081613b5a57613b5a615bf7565b9050602002016020810190613b6f9190615888565b6001600160a01b031614613bb05760405162461bcd60e51b81526020600482015260086024820152674e6f74205553444360c01b60448201526064016102c4565b6003546001600160a01b03168d8d6001818110613bcf57613bcf615bf7565b9050602002016020810190613be49190615888565b6001600160a01b031614613c255760405162461bcd60e51b81526020600482015260086024820152672737ba1026a0a4a760c11b60448201526064016102c4565b6005546001600160a01b03166310f83ae98e8e6002818110613c4957613c49615bf7565b9050602002016020810190613c5e9190615888565b6040516001600160e01b031960e084901b1681526001600160a01b039091166004820152602401602060405180830381865afa158015613ca2573d6000803e3d6000fd5b505050506040513d601f19601f82011682018060405250810190613cc69190615aa0565b613d025760405162461bcd60e51b815260206004820152600d60248201526c4e6f742065636f73797374656d60981b60448201526064016102c4565b60015460035460405163095ea7b360e01b81526001600160a01b039283169263095ea7b392613d38929116908a90600401615b84565b6020604051808303816000875af1158015613d57573d6000803e3d6000fd5b505050506040513d601f19601f82011682018060405250810190613d7b9190615aa0565b613d975760405162461bcd60e51b81526004016102c490615b9d565b60035460405163c625e9b160e01b81526000916001600160a01b03169063c625e9b190613dca908a903390600401615bbe565b6020604051808303816000875af1158015613de9573d6000803e3d6000fd5b505050506040513d601f19601f82011682018060405250810190613e0d9190615b6b565b6003549091506001600160a01b031663095ea7b38f8f6002818110613e3457613e34615bf7565b9050602002016020810190613e499190615888565b836040518363ffffffff1660e01b8152600401613e67929190615b84565b6020604051808303816000875af1158015613e86573d6000803e3d6000fd5b505050506040513d601f19601f82011682018060405250810190613eaa9190615aa0565b613ec65760405162461bcd60e51b81526004016102c490615b9d565b8115613f445760405163c625e9b160e01b81526001600160a01b038a169063c625e9b190613efa9084903390600401615bbe565b6020604051808303816000875af1158015613f19573d6000803e3d6000fd5b505050506040513d601f19601f82011682018060405250810190613f3d9190615b6b565b9550613fb8565b604051632449736960e11b81526001600160a01b038a1690634892e6d290613f729084903390600401615bbe565b6020604051808303816000875af1158015613f91573d6000803e3d6000fd5b505050506040513d601f19601f82011682018060405250810190613fb59190615b6b565b95505b505b613fc5878a8a6150ef565b8d851015613fe55760405162461bcd60e51b81526004016102c490615d8c565b876001600160a01b031663678b0a376040518163ffffffff1660e01b8152600401602060405180830381865afa158015614023573d6000803e3d6000fd5b505050506040513d601f19601f820116820180604052508101906140479190615aa0565b8015614051575080155b156143795760025460405163095ea7b360e01b81526001600160a01b038a81169263095ea7b39261408a92909116908990600401615b84565b6020604051808303816000875af11580156140a9573d6000803e3d6000fd5b505050506040513d601f19601f820116820180604052508101906140cd9190615aa0565b50876001600160a01b031663d32156ba6040518163ffffffff1660e01b8152600401602060405180830381865afa15801561410c573d6000803e3d6000fd5b505050506040513d601f19601f820116820180604052508101906141309190615aa0565b156142a6576000600260009054906101000a90046001600160a01b03166001600160a01b0316635fdf4ae3338b89428e6001600160a01b0316639adfcb4f6040518163ffffffff1660e01b8152600401602060405180830381865afa15801561419d573d6000803e3d6000fd5b505050506040513d601f19601f820116820180604052508101906141c19190615b6b565b6003546040516001600160e01b031960e089901b1681526141f89695949392916000916001600160a01b0390911690600401615f75565b6020604051808303816000875af1158015614217573d6000803e3d6000fd5b505050506040513d601f19601f8201168201806040525081019061423b9190615b6b565b600254604051630b0070a360e41b81529192506001600160a01b03169063b0070a309061426e9084903390600401615bbe565b600060405180830381600087803b15801561428857600080fd5b505af115801561429c573d6000803e3d6000fd5b505050505061450e565b6000600260009054906101000a90046001600160a01b03166001600160a01b03166337754ba9338b898d6001600160a01b0316639adfcb4f6040518163ffffffff1660e01b8152600401602060405180830381865afa15801561430d573d6000803e3d6000fd5b505050506040513d601f19601f820116820180604052508101906143319190615b6b565b61433e9062015180615af5565b6143489042615f62565b6003546040516001600160e01b031960e088901b1681526141f895949392916001600160a01b031690600401616007565b8a801561439357506003546001600160a01b038981169116145b156144815760075460405163095ea7b360e01b81526001600160a01b038a81169263095ea7b3926143cc92909116908990600401615b84565b6020604051808303816000875af11580156143eb573d6000803e3d6000fd5b505050506040513d601f19601f8201168201806040525081019061440f9190615aa0565b61441857600080fd5b6007546040516371bd5dd360e01b81526001600160a01b03909116906371bd5dd39061444a9088903390600401615bbe565b600060405180830381600087803b15801561446457600080fd5b505af1158015614478573d6000803e3d6000fd5b5050505061450e565b60405163a9059cbb60e01b81526001600160a01b0389169063a9059cbb906144af9033908990600401615b84565b6020604051808303816000875af11580156144ce573d6000803e3d6000fd5b505050506040513d601f19601f820116820180604052508101906144f29190615aa0565b61450e5760405162461bcd60e51b81526004016102c490615abd565b436009556040517f11582b142024e312dfe437418214eeb225c90f04efda714741076d4c0ab81eb390614544908a908790615dd9565b60405180910390a150929d9c50505050505050505050505050565b600282148061456e5750600382145b61458a5760405162461bcd60e51b81526004016102c49061606b565b6001546001600160a01b031683836000816145a7576145a7615bf7565b90506020020160208101906145bc9190615888565b6001600160a01b0316146145e25760405162461bcd60e51b81526004016102c49061606b565b6003546001600160a01b03168383600181811061460157614601615bf7565b90506020020160208101906146169190615888565b6001600160a01b03161461463c5760405162461bcd60e51b81526004016102c49061606b565b6003829003614702576005546001600160a01b03166310f83ae98484600281811061466957614669615bf7565b905060200201602081019061467e9190615888565b6040516001600160e01b031960e084901b1681526001600160a01b039091166004820152602401602060405180830381865afa1580156146c2573d6000803e3d6000fd5b505050506040513d601f19601f820116820180604052508101906146e69190615aa0565b6147025760405162461bcd60e51b81526004016102c49061606b565b600085905061476b6040518061018001604052806000815260200160008152602001600081526020016000815260200160008152602001600081526020016000815260200160008152602001600081526020016000815260200160008152602001600081525090565b6000858561477a600182615b36565b81811061478957614789615bf7565b905060200201602081019061479e9190615888565b9050600285900361482757600480546040516377770c2360e11b81526001600160a01b039091169163eeee1846916147de9187918b918b918b910161608f565b61018060405180830381865afa1580156147fc573d6000803e3d6000fd5b505050506040513d601f19601f8201168201806040525081019061482091906160f1565b9150614c4e565b60048054604051636543798760e01b81526001600160a01b039091169163654379879161485c9187918b918b918b910161608f565b61018060405180830381865afa15801561487a573d6000803e3d6000fd5b505050506040513d601f19601f8201168201806040525081019061489e91906160f1565b9150806001600160a01b031663678b0a376040518163ffffffff1660e01b8152600401602060405180830381865afa1580156148de573d6000803e3d6000fd5b505050506040513d601f19601f820116820180604052508101906149029190615aa0565b156149a257806001600160a01b031663089e136e6040518163ffffffff1660e01b8152600401602060405180830381865afa158015614945573d6000803e3d6000fd5b505050506040513d601f19601f820116820180604052508101906149699190615aa0565b6149a25760405162461bcd60e51b815260206004820152600a602482015269139bdd08189bdb99195960b21b60448201526064016102c4565b806001600160a01b031663054f7d9c6040518163ffffffff1660e01b8152600401602060405180830381865afa1580156149e0573d6000803e3d6000fd5b505050506040513d601f19601f82011682018060405250810190614a049190615aa0565b15614c4e576000670de0b6b3a7640000826001600160a01b031663c338287f6040518163ffffffff1660e01b8152600401602060405180830381865afa158015614a52573d6000803e3d6000fd5b505050506040513d601f19601f82011682018060405250810190614a769190615b6b565b8460c00151614a859190615af5565b614a8f9190615b22565b604051636c9b2a3f60e11b81523360048201529091506001600160a01b0383169063d936547e90602401602060405180830381865afa158015614ad6573d6000803e3d6000fd5b505050506040513d601f19601f82011682018060405250810190614afa9190615aa0565b614b395760405162461bcd60e51b815260206004820152601060248201526f4e6f20574c20666f7220667265657a6560801b60448201526064016102c4565b604051632e88da7d60e21b815233600482015281906001600160a01b0384169063ba2369f490602401602060405180830381865afa158015614b7f573d6000803e3d6000fd5b505050506040513d601f19601f82011682018060405250810190614ba39190615b6b565b614bad9190615f62565b6040516342c7db7160e01b81523360048201526001600160a01b038416906342c7db7190602401602060405180830381865afa158015614bf1573d6000803e3d6000fd5b505050506040513d601f19601f82011682018060405250810190614c159190615b6b565b1015614c4c5760405162461bcd60e51b81526020600482015260066024820152650574c206361760d41b60448201526064016102c4565b505b8160c00151614c5e848888612c1d565b614c69906002615af5565b10614ca15760405162461bcd60e51b81526020600482015260086024820152670aadcc8cae44064f60c31b60448201526064016102c4565b868260c001511015614cc55760405162461bcd60e51b81526004016102c490615d8c565b600354604080516325ca7a8760e11b815290516000926001600160a01b031691634b94f50e9160048083019260209291908290030181865afa158015614d0f573d6000803e3d6000fd5b505050506040513d601f19601f82011682018060405250810190614d339190615b6b565b60015460035461010086015160405163095ea7b360e01b81529394506001600160a01b039283169363095ea7b393614d7093169190600401615b84565b6020604051808303816000875af1158015614d8f573d6000803e3d6000fd5b505050506040513d601f19601f82011682018060405250810190614db39190615aa0565b614dcf5760405162461bcd60e51b81526004016102c490615b9d565b6003546101208401516101408501516101008601516001600160a01b03909316926367b6ad6f9291908b8b614e05600182615b36565b818110614e1457614e14615bf7565b9050602002016020810190614e299190615888565b61016089015160c08a01516040516001600160e01b031960e089901b1681526004810196909652602486019490945260448501929092526001600160a01b03166064840152608483015260a48201523360c482015260e401600060405180830381600087803b158015614e9b57600080fd5b505af1158015614eaf573d6000803e3d6000fd5b505060035460c08601516001600160a01b03909116925063f33901ec91508989614eda600182615b36565b818110614ee957614ee9615bf7565b9050602002016020810190614efe9190615888565b60a087015160808801516040516001600160e01b031960e087901b16815260048101949094526001600160a01b039092166024840152604483018a9052606483015260848201523360a482015260c4810184905260e48101879052610104016020604051808303816000875af1158015614f7c573d6000803e3d6000fd5b505050506040513d601f19601f82011682018060405250810190614fa09190615b6b565b5060008361010001518460e0015186614fb99190615b36565b614fc39190615b36565b60015460065460e08701519293506001600160a01b039182169263095ea7b39290911690614ff2908590615f62565b6040518363ffffffff1660e01b815260040161500f929190615b84565b6020604051808303816000875af115801561502e573d6000803e3d6000fd5b505050506040513d601f19601f820116820180604052508101906150529190615aa0565b61506e5760405162461bcd60e51b81526004016102c490615b9d565b60065460e08501516001600160a01b039091169063ccb9132990615093908490615f62565b856040518363ffffffff1660e01b81526004016150b1929190615bbe565b600060405180830381600087803b1580156150cb57600080fd5b505af11580156150df573d6000803e3d6000fd5b5050505050505050505050505050565b6001546000906001600160a01b039081169084160361510f575082615265565b6003546001600160a01b0384811691161461515c5760405162461bcd60e51b815260206004820152600d60248201526c2130b2103a30bc103a37b5b2b760991b60448201526064016102c4565b60035460405163095ea7b360e01b81526001600160a01b039091169063095ea7b39061518e9083908890600401615b84565b6020604051808303816000875af11580156151ad573d6000803e3d6000fd5b505050506040513d601f19601f820116820180604052508101906151d19190615aa0565b6151ed5760405162461bcd60e51b81526004016102c490615b9d565b60035460405163670f715160e01b81526001600160a01b039091169063670f71519061521f9087903390600401615bbe565b6020604051808303816000875af115801561523e573d6000803e3d6000fd5b505050506040513d601f19601f820116820180604052508101906152629190615b6b565b90505b60015460065460405163095ea7b360e01b81526001600160a01b039283169263095ea7b39261529b929116908590600401615b84565b6020604051808303816000875af11580156152ba573d6000803e3d6000fd5b505050506040513d601f19601f820116820180604052508101906152de9190615aa0565b6152fa5760405162461bcd60e51b81526004016102c490615b9d565b60065460405163ccb9132960e01b81526001600160a01b039091169063ccb913299061532c9084908690600401615bbe565b600060405180830381600087803b15801561534657600080fd5b505af115801561535a573d6000803e3d6000fd5b5050505050505050565b60405163095ea7b360e01b81526001600160a01b0382169063095ea7b3906153a690732626664c2603336e57b271c5c0b26f421741e481908790600401615b84565b6020604051808303816000875af11580156153c5573d6000803e3d6000fd5b505050506040513d601f19601f820116820180604052508101906153e99190615aa0565b6154275760405162461bcd60e51b815260206004820152600f60248201526e185c1c1c9bdd985b0819985a5b1959608a1b60448201526064016102c4565b6040805160e0810182526001600160a01b0383811682526006602160991b01602083019081526101f483850190815230606085019081526080850189815260a08601898152600060c0880181815298516304e45aaf60e01b8152885188166004820152955187166024870152935162ffffff1660448601529151851660648501525160848401525160a4830152935190911660c4820152732626664c2603336e57b271c5c0b26f421741e481929083906304e45aaf9060e4016020604051808303816000875af11580156154ff573d6000803e3d6000fd5b505050506040513d601f19601f820116820180604052508101906155239190615b6b565b9050848110156155685760405162461bcd60e51b815260206004820152601060248201526f26b4b71037baba103737ba1036b2ba1760811b60448201526064016102c4565b604051632e1a7d4d60e01b8152600481018290526006602160991b0190632e1a7d4d90602401600060405180830381600087803b1580156155a857600080fd5b505af11580156155bc573d6000803e3d6000fd5b50506040516000925033915083908381818185875af1925050503d8060008114615602576040519150601f19603f3d011682016040523d82523d6000602084013e615607565b606091505b50509050806156435760405162461bcd60e51b81526020600482015260086024820152671155120819985a5b60c21b60448201526064016102c4565b50505050505050565b6003546000906001600160a01b03838116911614806156d457506005546040516310f83ae960e01b81526001600160a01b038481166004830152909116906310f83ae990602401602060405180830381865afa1580156156b0573d6000803e3d6000fd5b505050506040513d601f19601f820116820180604052508101906156d49190615aa0565b92915050565b60008083601f8401126156ec57600080fd5b50813567ffffffffffffffff81111561570457600080fd5b6020830191508360208260051b850101111561571f57600080fd5b9250929050565b600080600080600080600060c0888a03121561574157600080fd5b873596506020880135955060408801359450606088013567ffffffffffffffff81111561576d57600080fd5b6157798a828b016156da565b989b979a50959895979660808701359660a0013595509350505050565b6000806000806000608086880312156157ae57600080fd5b8535945060208601359350604086013567ffffffffffffffff8111156157d357600080fd5b6157df888289016156da565b96999598509660600135949350505050565b6001600160a01b0381168114612c1a57600080fd5b60008060008060008060c0878903121561581f57600080fd5b863561582a816157f1565b9550602087013561583a816157f1565b9450604087013561584a816157f1565b9350606087013561585a816157f1565b9250608087013561586a816157f1565b915060a087013561587a816157f1565b809150509295509295509295565b60006020828403121561589a57600080fd5b81356158a5816157f1565b9392505050565b6000806000606084860312156158c157600080fd5b83356158cc816157f1565b925060208401356158dc816157f1565b929592945050506040919091013590565b6000806040838503121561590057600080fd5b823591506020830135615912816157f1565b809150509250929050565b8015158114612c1a57600080fd5b60008060008060006080868803121561594357600080fd5b8535945060208601359350604086013567ffffffffffffffff81111561596857600080fd5b615974888289016156da565b90945092505060608601356159888161591d565b809150509295509295909350565b600080600080608085870312156159ac57600080fd5b843593506020850135925060408501356159c58161591d565b9396929550929360600135925050565b6000806000604084860312156159ea57600080fd5b83359250602084013567ffffffffffffffff811115615a0857600080fd5b615a14868287016156da565b9497909650939450505050565b600060208284031215615a3357600080fd5b5035919050565b6020808252601f908201527f5265656e7472616e637947756172643a207265656e7472616e742063616c6c00604082015260600190565b6001600160a01b039384168152919092166020820152604081019190915260600190565b80516133af8161591d565b600060208284031215615ab257600080fd5b81516158a58161591d565b6020808252600890820152672a3930b739b332b960c11b604082015260600190565b634e487b7160e01b600052601160045260246000fd5b80820281158282048414176156d4576156d4615adf565b634e487b7160e01b600052601260045260246000fd5b600082615b3157615b31615b0c565b500490565b818103818111156156d4576156d4615adf565b6020808252600890820152674f6e6c792043454f60c01b604082015260600190565b600060208284031215615b7d57600080fd5b5051919050565b6001600160a01b03929092168252602082015260400190565b602080825260079082015266417070726f766560c81b604082015260600190565b9182526001600160a01b0316602082015260400190565b602080825260089082015267084c2c840e0c2e8d60c31b604082015260600190565b634e487b7160e01b600052603260045260246000fd5b634e487b7160e01b600052604160045260246000fd5b6040516101a0810167ffffffffffffffff81118282101715615c4757615c47615c0d565b60405290565b604051610180810167ffffffffffffffff81118282101715615c4757615c47615c0d565b60005b83811015615c8c578181015183820152602001615c74565b50506000910152565b600060208284031215615ca757600080fd5b815167ffffffffffffffff80821115615cbf57600080fd5b818401915084601f830112615cd357600080fd5b815181811115615ce557615ce5615c0d565b604051601f8201601f19908116603f01168101908382118183101715615d0d57615d0d615c0d565b81604052828152876020848701011115615d2657600080fd5b615d37836020830160208801615c71565b979650505050505050565b80516133af816157f1565b600060208284031215615d5f57600080fd5b81516158a5816157f1565b6020808252600890820152672130b2103830b4b960c11b604082015260600190565b602080825260079082015266135a5b881bdd5d60ca1b604082015260600190565b60008151808452615dc5816020860160208601615c71565b601f01601f19169290920160200192915050565b60018060a01b0383168152604060208201526000825160606040840152615e0360a0840182615dad565b90506020840151603f19848303016060850152615e208282615dad565b91505060408401516080840152809150509392505050565b600082615e4757615e47615b0c565b500690565b600060408284031215615e5e57600080fd5b6040516040810181811067ffffffffffffffff82111715615e8157615e81615c0d565b604052825181526020928301519281019290925250919050565b60006101c08284031215615eae57600080fd5b615eb6615c23565b615ebf83615d42565b8152615ecd60208401615d42565b602082015260408301516040820152606083015160608201526080830151608082015260a083015160a082015260c083015160c082015260e083015160e0820152610100615f1c818501615a95565b90820152610120615f2e848201615a95565b9082015261014083810151908201526101608084015190820152610180615f5785828601615e4c565b908201529392505050565b808201808211156156d4576156d4615adf565b600061010060018060a01b03808b168452808a16602085015288604085015287606085015286608085015260048610615fbe57634e487b7160e01b600052602160045260246000fd5b8560a08501528160c0850152615fef828501600c81526b4175746f2056657374696e6760a01b602082015260400190565b925080851660e0850152505098975050505050505050565b600060018060a01b038088168352808716602084015285604084015284606084015260c0608084015261605660c08401600c81526b4175746f2056657374696e6760a01b602082015260400190565b915080841660a0840152509695505050505050565b6020808252600a90820152690eee4dedcce40e0c2e8d60b31b604082015260600190565b84815260606020808301829052908201849052600090859060808401835b878110156160db5783356160c0816157f1565b6001600160a01b0316825292820192908201906001016160ad565b5080935050505082604083015295945050505050565b6000610180828403121561610457600080fd5b61610c615c4d565b825181526020830151602082015260408301516040820152606083015160608201526080830151608082015260a083015160a082015260c083015160c082015260e083015160e0820152610100808401518183015250610120808401518183015250610140808401518183015250610160808401518183015250809150509291505056fea2646970667358221220caa830cc3dead9f66bea4ced324a81c8d97a235e2d0bcaeb32aab3a69cbbd78764736f6c63430008180033",
  "linkReferences": {},
  "deployedLinkReferences": {}
}