{
  "_format": "hh-sol-artifact-1",
  "contractName": "ATaxes",
  "sourceName": "contracts/TAXES.sol",
  "abi": [
    {
      "inputs": [
        {
          "internalType": "address",
          "name": "mainToken",
          "type": "address"
        },
        {
          "internalType": "address",
          "name": "staking",
          "type": "address"
        },
        {
          "internalType": "address",
          "name": "_usdc",
          "type": "address"
        }
      ],
      "stateMutability": "nonpayable",
      "type": "constructor"
    },
    {
      "anonymous": false,
      "inputs": [
        {
          "indexed": true,
          "internalType": "address",
          "name": "token",
          "type": "address"
        },
        {
          "indexed": true,
          "internalType": "address",
          "name": "recipient",
          "type": "address"
        },
        {
          "indexed": false,
          "internalType": "uint256",
          "name": "amount",
          "type": "uint256"
        }
      ],
      "name": "DevTaxDistributed",
      "type": "event"
    },
    {
      "anonymous": false,
      "inputs": [
        {
          "indexed": true,
          "internalType": "address",
          "name": "token",
          "type": "address"
        },
        {
          "indexed": false,
          "internalType": "uint256",
          "name": "refundSeconds",
          "type": "uint256"
        }
      ],
      "name": "SurgeEnded",
      "type": "event"
    },
    {
      "anonymous": false,
      "inputs": [
        {
          "indexed": true,
          "internalType": "address",
          "name": "token",
          "type": "address"
        },
        {
          "indexed": false,
          "internalType": "uint256",
          "name": "startRate",
          "type": "uint256"
        },
        {
          "indexed": false,
          "internalType": "uint256",
          "name": "endRate",
          "type": "uint256"
        },
        {
          "indexed": false,
          "internalType": "uint256",
          "name": "duration",
          "type": "uint256"
        },
        {
          "indexed": false,
          "internalType": "uint256",
          "name": "startTime",
          "type": "uint256"
        }
      ],
      "name": "SurgeStarted",
      "type": "event"
    },
    {
      "inputs": [],
      "name": "CEO",
      "outputs": [
        {
          "internalType": "address",
          "name": "",
          "type": "address"
        }
      ],
      "stateMutability": "view",
      "type": "function"
    },
    {
      "inputs": [],
      "name": "_taxRateDefault",
      "outputs": [
        {
          "internalType": "uint256",
          "name": "",
          "type": "uint256"
        }
      ],
      "stateMutability": "view",
      "type": "function"
    },
    {
      "inputs": [],
      "name": "_taxRatePrediction",
      "outputs": [
        {
          "internalType": "uint256",
          "name": "",
          "type": "uint256"
        }
      ],
      "stateMutability": "view",
      "type": "function"
    },
    {
      "inputs": [],
      "name": "_taxRateStable",
      "outputs": [
        {
          "internalType": "uint256",
          "name": "",
          "type": "uint256"
        }
      ],
      "stateMutability": "view",
      "type": "function"
    },
    {
      "inputs": [],
      "name": "_taxRateStasis",
      "outputs": [
        {
          "internalType": "uint256",
          "name": "",
          "type": "uint256"
        }
      ],
      "stateMutability": "view",
      "type": "function"
    },
    {
      "inputs": [
        {
          "internalType": "contract IERC20",
          "name": "token",
          "type": "address"
        },
        {
          "internalType": "address",
          "name": "wallet",
          "type": "address"
        },
        {
          "internalType": "uint256",
          "name": "basisPoints",
          "type": "uint256"
        }
      ],
      "name": "addDevShare",
      "outputs": [],
      "stateMutability": "nonpayable",
      "type": "function"
    },
    {
      "inputs": [
        {
          "internalType": "address",
          "name": "token",
          "type": "address"
        }
      ],
      "name": "availableSurgeQuota",
      "outputs": [
        {
          "internalType": "uint256",
          "name": "",
          "type": "uint256"
        }
      ],
      "stateMutability": "view",
      "type": "function"
    },
    {
      "inputs": [
        {
          "internalType": "address",
          "name": "",
          "type": "address"
        },
        {
          "internalType": "address",
          "name": "",
          "type": "address"
        }
      ],
      "name": "devBasisPoints",
      "outputs": [
        {
          "internalType": "uint256",
          "name": "",
          "type": "uint256"
        }
      ],
      "stateMutability": "view",
      "type": "function"
    },
    {
      "inputs": [],
      "name": "devRate",
      "outputs": [
        {
          "internalType": "uint256",
          "name": "",
          "type": "uint256"
        }
      ],
      "stateMutability": "view",
      "type": "function"
    },
    {
      "inputs": [
        {
          "internalType": "address",
          "name": "",
          "type": "address"
        }
      ],
      "name": "devTotalAllocated",
      "outputs": [
        {
          "internalType": "uint256",
          "name": "",
          "type": "uint256"
        }
      ],
      "stateMutability": "view",
      "type": "function"
    },
    {
      "inputs": [
        {
          "internalType": "address",
          "name": "",
          "type": "address"
        }
      ],
      "name": "devTotalEarnings",
      "outputs": [
        {
          "internalType": "uint256",
          "name": "",
          "type": "uint256"
        }
      ],
      "stateMutability": "view",
      "type": "function"
    },
    {
      "inputs": [
        {
          "internalType": "address",
          "name": "",
          "type": "address"
        },
        {
          "internalType": "uint256",
          "name": "",
          "type": "uint256"
        }
      ],
      "name": "devWallets",
      "outputs": [
        {
          "internalType": "address",
          "name": "",
          "type": "address"
        }
      ],
      "stateMutability": "view",
      "type": "function"
    },
    {
      "inputs": [
        {
          "internalType": "uint256",
          "name": "usdcAmount",
          "type": "uint256"
        },
        {
          "internalType": "contract IERC20",
          "name": "originalToken",
          "type": "address"
        }
      ],
      "name": "distributeTax",
      "outputs": [],
      "stateMutability": "nonpayable",
      "type": "function"
    },
    {
      "inputs": [
        {
          "internalType": "address",
          "name": "token",
          "type": "address"
        }
      ],
      "name": "endSurgeTax",
      "outputs": [],
      "stateMutability": "nonpayable",
      "type": "function"
    },
    {
      "inputs": [
        {
          "internalType": "address",
          "name": "token",
          "type": "address"
        }
      ],
      "name": "getCurrentSurgeTax",
      "outputs": [
        {
          "internalType": "uint256",
          "name": "",
          "type": "uint256"
        }
      ],
      "stateMutability": "view",
      "type": "function"
    },
    {
      "inputs": [
        {
          "internalType": "contract IERC20",
          "name": "token",
          "type": "address"
        },
        {
          "internalType": "address",
          "name": "user",
          "type": "address"
        }
      ],
      "name": "getTaxRate",
      "outputs": [
        {
          "internalType": "uint256",
          "name": "",
          "type": "uint256"
        }
      ],
      "stateMutability": "view",
      "type": "function"
    },
    {
      "inputs": [],
      "name": "injectRate",
      "outputs": [
        {
          "internalType": "uint256",
          "name": "",
          "type": "uint256"
        }
      ],
      "stateMutability": "view",
      "type": "function"
    },
    {
      "inputs": [
        {
          "internalType": "address",
          "name": "",
          "type": "address"
        }
      ],
      "name": "isPrediction",
      "outputs": [
        {
          "internalType": "bool",
          "name": "",
          "type": "bool"
        }
      ],
      "stateMutability": "view",
      "type": "function"
    },
    {
      "inputs": [
        {
          "internalType": "address",
          "name": "",
          "type": "address"
        }
      ],
      "name": "isSurgeActive",
      "outputs": [
        {
          "internalType": "bool",
          "name": "",
          "type": "bool"
        }
      ],
      "stateMutability": "view",
      "type": "function"
    },
    {
      "inputs": [
        {
          "internalType": "address",
          "name": "",
          "type": "address"
        }
      ],
      "name": "isWhitelisted",
      "outputs": [
        {
          "internalType": "bool",
          "name": "",
          "type": "bool"
        }
      ],
      "stateMutability": "view",
      "type": "function"
    },
    {
      "inputs": [],
      "name": "presaleRate",
      "outputs": [
        {
          "internalType": "uint256",
          "name": "",
          "type": "uint256"
        }
      ],
      "stateMutability": "view",
      "type": "function"
    },
    {
      "inputs": [
        {
          "internalType": "contract IERC20",
          "name": "token",
          "type": "address"
        },
        {
          "internalType": "address",
          "name": "wallet",
          "type": "address"
        }
      ],
      "name": "removeDevShare",
      "outputs": [],
      "stateMutability": "nonpayable",
      "type": "function"
    },
    {
      "inputs": [
        {
          "internalType": "address",
          "name": "_mainToken",
          "type": "address"
        }
      ],
      "name": "setMain",
      "outputs": [],
      "stateMutability": "nonpayable",
      "type": "function"
    },
    {
      "inputs": [
        {
          "internalType": "address",
          "name": "prediction",
          "type": "address"
        }
      ],
      "name": "setPrediction",
      "outputs": [],
      "stateMutability": "nonpayable",
      "type": "function"
    },
    {
      "inputs": [
        {
          "internalType": "address",
          "name": "_staking",
          "type": "address"
        }
      ],
      "name": "setStaking",
      "outputs": [],
      "stateMutability": "nonpayable",
      "type": "function"
    },
    {
      "inputs": [
        {
          "internalType": "uint256",
          "name": "buyback",
          "type": "uint256"
        },
        {
          "internalType": "uint256",
          "name": "presalers",
          "type": "uint256"
        },
        {
          "internalType": "uint256",
          "name": "dev",
          "type": "uint256"
        }
      ],
      "name": "setTaxRates",
      "outputs": [],
      "stateMutability": "nonpayable",
      "type": "function"
    },
    {
      "inputs": [
        {
          "internalType": "uint256",
          "name": "newTaxRate",
          "type": "uint256"
        }
      ],
      "name": "setTaxesDefault",
      "outputs": [],
      "stateMutability": "nonpayable",
      "type": "function"
    },
    {
      "inputs": [
        {
          "internalType": "uint256",
          "name": "newTaxRate",
          "type": "uint256"
        }
      ],
      "name": "setTaxesStable",
      "outputs": [],
      "stateMutability": "nonpayable",
      "type": "function"
    },
    {
      "inputs": [
        {
          "internalType": "uint256",
          "name": "newTaxRate",
          "type": "uint256"
        }
      ],
      "name": "setTaxesStasis",
      "outputs": [],
      "stateMutability": "nonpayable",
      "type": "function"
    },
    {
      "inputs": [
        {
          "internalType": "address",
          "name": "user",
          "type": "address"
        },
        {
          "internalType": "bool",
          "name": "value",
          "type": "bool"
        }
      ],
      "name": "setWhitelistStatus",
      "outputs": [],
      "stateMutability": "nonpayable",
      "type": "function"
    },
    {
      "inputs": [
        {
          "internalType": "uint256",
          "name": "startRate",
          "type": "uint256"
        },
        {
          "internalType": "uint256",
          "name": "endRate",
          "type": "uint256"
        },
        {
          "internalType": "uint256",
          "name": "duration",
          "type": "uint256"
        },
        {
          "internalType": "address",
          "name": "token",
          "type": "address"
        }
      ],
      "name": "startSurgeTax",
      "outputs": [],
      "stateMutability": "nonpayable",
      "type": "function"
    },
    {
      "inputs": [
        {
          "internalType": "address",
          "name": "",
          "type": "address"
        }
      ],
      "name": "surgeDuration",
      "outputs": [
        {
          "internalType": "uint256",
          "name": "",
          "type": "uint256"
        }
      ],
      "stateMutability": "view",
      "type": "function"
    },
    {
      "inputs": [
        {
          "internalType": "address",
          "name": "",
          "type": "address"
        }
      ],
      "name": "surgeEndRate",
      "outputs": [
        {
          "internalType": "uint256",
          "name": "",
          "type": "uint256"
        }
      ],
      "stateMutability": "view",
      "type": "function"
    },
    {
      "inputs": [
        {
          "internalType": "address",
          "name": "",
          "type": "address"
        },
        {
          "internalType": "uint256",
          "name": "",
          "type": "uint256"
        }
      ],
      "name": "surgeHistory",
      "outputs": [
        {
          "internalType": "uint256",
          "name": "start",
          "type": "uint256"
        },
        {
          "internalType": "uint256",
          "name": "dur",
          "type": "uint256"
        }
      ],
      "stateMutability": "view",
      "type": "function"
    },
    {
      "inputs": [
        {
          "internalType": "address",
          "name": "",
          "type": "address"
        }
      ],
      "name": "surgeStartRate",
      "outputs": [
        {
          "internalType": "uint256",
          "name": "",
          "type": "uint256"
        }
      ],
      "stateMutability": "view",
      "type": "function"
    },
    {
      "inputs": [
        {
          "internalType": "address",
          "name": "",
          "type": "address"
        }
      ],
      "name": "surgeStartTime",
      "outputs": [
        {
          "internalType": "uint256",
          "name": "",
          "type": "uint256"
        }
      ],
      "stateMutability": "view",
      "type": "function"
    },
    {
      "inputs": [
        {
          "internalType": "address",
          "name": "",
          "type": "address"
        },
        {
          "internalType": "address",
          "name": "",
          "type": "address"
        }
      ],
      "name": "tokenDevEarnings",
      "outputs": [
        {
          "internalType": "uint256",
          "name": "",
          "type": "uint256"
        }
      ],
      "stateMutability": "view",
      "type": "function"
    },
    {
      "inputs": [
        {
          "internalType": "address",
          "name": "",
          "type": "address"
        }
      ],
      "name": "totalDevTaxCollected",
      "outputs": [
        {
          "internalType": "uint256",
          "name": "",
          "type": "uint256"
        }
      ],
      "stateMutability": "view",
      "type": "function"
    }
  ],
  "bytecode": "0x60806040526032600455603260055560966006556096600755601060085560146009556004600a553480156200003457600080fd5b506040516200302c3803806200302c8339810160408190526200005791620000c2565b600080546001600160a01b03199081163317909155600180546001600160a01b039586169083161790556002805493851693821693909317909255600380549190931691161790556200010c565b80516001600160a01b0381168114620000bd57600080fd5b919050565b600080600060608486031215620000d857600080fd5b620000e384620000a5565b9250620000f360208501620000a5565b91506200010360408501620000a5565b90509250925092565b612f10806200011c6000396000f3fe608060405234801561001057600080fd5b50600436106102315760003560e01c806365e372d611610130578063b9a9acbc116100b8578063c9b9ae401161007c578063c9b9ae401461055b578063ccb9132914610583578063cf6012bb14610596578063d975201a146105a9578063f3f10d8b146105bc57600080fd5b8063b9a9acbc1461050d578063bc0d84e814610516578063c3afa9a514610529578063c8ea8ea514610549578063c95749751461055257600080fd5b80639a32d88f116100ff5780639a32d88f14610471578063a108857114610484578063abbd6442146104af578063b20d2735146104da578063b85b7d0b146104ed57600080fd5b806365e372d6146104185780637c310d9c1461042b578063801161b01461044b5780638ff390991461045e57600080fd5b80632ba06eaf116101be57806342f393811161018257806342f39381146103a65780634d96ab56146103af5780635a1c77cd146103cf5780635da3f656146103ef5780635ef60af21461040f57600080fd5b80632ba06eaf1461032957806330d8b2e71461035457806339253114146103675780633af32abf1461037a5780633f44bc181461039d57600080fd5b80630c424284116102055780630c424284146102b85780630e9eef6c146102cd5780631685774f146102e0578063274d43a6146102f357806327dfd8601461031657600080fd5b806259f26014610236578063038e5188146102695780630ada61ac1461029c5780630b748370146102af575b600080fd5b610256610244366004612bab565b60156020526000908152604090205481565b6040519081526020015b60405180910390f35b61028c610277366004612bab565b600f6020526000908152604090205460ff1681565b6040519015158152602001610260565b6102566102aa366004612bab565b6105cf565b61025660085481565b6102cb6102c6366004612bdd565b6106e9565b005b6102cb6102db366004612c16565b61079d565b6102566102ee366004612c2f565b6107ed565b61028c610301366004612bab565b60186020526000908152604090205460ff1681565b6102cb610324366004612bab565b61096d565b610256610337366004612c2f565b600b60209081526000928352604080842090915290825290205481565b6102cb610362366004612c16565b610c33565b6102cb610375366004612c5d565b610c83565b61028c610388366004612bab565b600e6020526000908152604090205460ff1681565b61025660065481565b610256600a5481565b6102566103bd366004612bab565b60116020526000908152604090205481565b6102566103dd366004612bab565b60106020526000908152604090205481565b6102566103fd366004612bab565b600d6020526000908152604090205481565b61025660075481565b6102cb610426366004612bab565b610e64565b610256610439366004612bab565b60176020526000908152604090205481565b6102cb610459366004612bab565b610ecd565b6102cb61046c366004612bab565b610f19565b6102cb61047f366004612c89565b610f65565b600054610497906001600160a01b031681565b6040516001600160a01b039091168152602001610260565b6102566104bd366004612c2f565b601260209081526000928352604080842090915290825290205481565b6102cb6104e8366004612c2f565b611282565b6102566104fb366004612bab565b60146020526000908152604090205481565b61025660045481565b6102cb610524366004612c16565b61159f565b610256610537366004612bab565b60166020526000908152604090205481565b61025660055481565b61025660095481565b61056e610569366004612cca565b6115ef565b60408051928352602083019190915201610260565b6102cb610591366004612cf6565b61162b565b6104976105a4366004612cca565b612437565b6102566105b7366004612bab565b61246f565b6102cb6105ca366004612d1b565b612487565b6001600160a01b03811660009081526018602052604081205460ff16158061062557506001600160a01b0382166000908152601560209081526040808320546014909252909120546106219190612d72565b4210155b1561063257506000919050565b6001600160a01b0382166000908152601460205260408120546106559042612d85565b6001600160a01b038416600090815260176020908152604080832054601690925282205492935090916106889190612d85565b6001600160a01b038516600090815260156020526040812054919250906106af8385612d98565b6106b99190612daf565b6001600160a01b0386166000908152601660205260409020549091506106e0908290612d85565b95945050505050565b6000546001600160a01b0316331461071c5760405162461bcd60e51b815260040161071390612dd1565b60405180910390fd5b6001600160a01b0382166107725760405162461bcd60e51b815260206004820152601d60248201527f63616e6e6f742077686974656c697374206e756c6c20616464726573730000006044820152606401610713565b6001600160a01b03919091166000908152600e60205260409020805460ff1916911515919091179055565b6000546001600160a01b031633146107c75760405162461bcd60e51b815260040161071390612dd1565b60c88111156107e85760405162461bcd60e51b815260040161071390612df3565b600455565b6001600160a01b0381166000908152600e602052604081205460ff161561081657506000610967565b6001546001600160a01b03908116908416036108355750600454610967565b6000836001600160a01b031663c1eb5ddd6040518163ffffffff1660e01b8152600401602060405180830381865afa158015610875573d6000803e3d6000fd5b505050506040513d601f19601f820116820180604052508101906108999190612e22565b6001600160a01b0381166000908152600f602052604090205490915060ff16156108c7575050600754610967565b60006108d2856105cf565b9050846001600160a01b0316636a72cd086040518163ffffffff1660e01b8152600401602060405180830381865afa158015610912573d6000803e3d6000fd5b505050506040513d601f19601f820116820180604052508101906109369190612e3f565b606403610954578060055461094b9190612d72565b92505050610967565b806006546109629190612d72565b925050505b92915050565b6000819050336001600160a01b0316816001600160a01b031663c1eb5ddd6040518163ffffffff1660e01b8152600401602060405180830381865afa1580156109ba573d6000803e3d6000fd5b505050506040513d601f19601f820116820180604052508101906109de9190612e22565b6001600160a01b031614610a1f5760405162461bcd60e51b815260206004820152600860248201526737b7363c903232bb60c11b6044820152606401610713565b6001600160a01b03821660009081526018602052604090205460ff16610a745760405162461bcd60e51b815260206004820152600a6024820152696e6f742061637469766560b01b6044820152606401610713565b6001600160a01b03821660009081526014602090815260408083205460159092528220549091610aa48342612d85565b9050818110610b06576001600160a01b0385166000818152601860209081526040808320805460ff19169055519182527fd22b9e11d60c850e2a8dcbe3b5f5b528096737519303debe72e2b33e0bf1e4a8910160405180910390a25050505050565b6000610b128284612d85565b90506000610b22610e1083612daf565b90506000610b3282610e10612d98565b90506000610b408285612d85565b9050610b4c8186612d72565b6001600160a01b038a16600090815260156020526040902055610b6f8186612d72565b6001600160a01b038a1660009081526013602052604090208054610b9590600190612d85565b81548110610ba557610ba5612e58565b60009182526020808320600160029093020191909101929092556001600160a01b038b168152601890915260409020805460ff19169055610be5896128f8565b886001600160a01b03167fd22b9e11d60c850e2a8dcbe3b5f5b528096737519303debe72e2b33e0bf1e4a883604051610c2091815260200190565b60405180910390a2505050505050505050565b6000546001600160a01b03163314610c5d5760405162461bcd60e51b815260040161071390612dd1565b60c8811115610c7e5760405162461bcd60e51b815260040161071390612df3565b600655565b6000546001600160a01b03163314610cad5760405162461bcd60e51b815260040161071390612dd1565b600f8110158015610cbf575060288111155b610d0b5760405162461bcd60e51b815260206004820152601d60248201527f4465762072617465206f7574206f662072616e6765205b31352d34305d0000006044820152606401610713565b6014831115610d5c5760405162461bcd60e51b815260206004820181905260248201527f4275796261636b2072617465206f7574206f662072616e6765205b302d32305d6044820152606401610713565b60028210158015610d6e5750600a8211155b610dc55760405162461bcd60e51b815260206004820152602260248201527f50726573616c6572732072617465206f7574206f662072616e6765205b322d31604482015261305d60f01b6064820152608401610713565b600081610dd28486612d72565b610ddc9190612d72565b90506046811115610e555760405162461bcd60e51b815260206004820152603d60248201527f53756d206f66206e6f6e2d4e465420726174657320746f6f206869676820286d60448201527f617820373020746f206c65617665203e3d33302520666f72204e4654290000006064820152608401610713565b50600892909255600a55600955565b6000546001600160a01b03163314610e8e5760405162461bcd60e51b815260040161071390612dd1565b6001600160a01b03166000908152600f60209081526040808320805460ff1980821660ff90921615918217909255600e90935292208054909216179055565b6000546001600160a01b03163314610ef75760405162461bcd60e51b815260040161071390612dd1565b600180546001600160a01b0319166001600160a01b0392909216919091179055565b6000546001600160a01b03163314610f435760405162461bcd60e51b815260040161071390612dd1565b600280546001600160a01b0319166001600160a01b0392909216919091179055565b60015483906001600160a01b0390811690821603610fc05760405162461bcd60e51b815260206004820152601860248201527721b0b73737ba1039b2ba103337b91026a0a4a72a27a5a2a760411b6044820152606401610713565b836001600160a01b031663c1eb5ddd6040518163ffffffff1660e01b8152600401602060405180830381865afa158015610ffe573d6000803e3d6000fd5b505050506040513d601f19601f820116820180604052508101906110229190612e22565b6001600160a01b0316336001600160a01b0316146110825760405162461bcd60e51b815260206004820152601760248201527f4f6e6c79204445562063616e20616464207368617265730000000000000000006044820152606401610713565b6001600160a01b0383166110c95760405162461bcd60e51b815260206004820152600e60248201526d125b9d985b1a59081dd85b1b195d60921b6044820152606401610713565b600082116111195760405162461bcd60e51b815260206004820152601760248201527f426173697320706f696e7473206d757374206265203e300000000000000000006044820152606401610713565b6001600160a01b038082166000818152600b60209081526040808320948816835293815283822054928252600d905291822054909190849061115c908490612d85565b6111669190612d72565b90506127108111156111a95760405162461bcd60e51b815260206004820152600c60248201526b45786365656473203130302560a01b6044820152606401610713565b81600003611248576001600160a01b0383166000908152600c6020526040902054600a116112095760405162461bcd60e51b815260206004820152600d60248201526c4d61782031302073686172657360981b6044820152606401610713565b6001600160a01b038381166000908152600c602090815260408220805460018101825590835291200180546001600160a01b0319169187169190911790555b6001600160a01b039283166000818152600b60209081526040808320989096168252968752848120959095558452600d9094525090205550565b60015482906001600160a01b03908116908216036112dd5760405162461bcd60e51b815260206004820152601860248201527721b0b73737ba1039b2ba103337b91026a0a4a72a27a5a2a760411b6044820152606401610713565b826001600160a01b031663c1eb5ddd6040518163ffffffff1660e01b8152600401602060405180830381865afa15801561131b573d6000803e3d6000fd5b505050506040513d601f19601f8201168201806040525081019061133f9190612e22565b6001600160a01b0316336001600160a01b03161461139f5760405162461bcd60e51b815260206004820152601a60248201527f4f6e6c79204445562063616e2072656d6f7665207368617265730000000000006044820152606401610713565b6001600160a01b038082166000908152600b60209081526040808320938616835292905290812054908190036113d55750505050565b6001600160a01b038083166000818152600b602090815260408083209488168352938152838220829055918152600d909152908120805483929061141a908490612d85565b90915550506001600160a01b0382166000908152600c6020526040812054905b81811015611597576001600160a01b038481166000908152600c602052604090208054918716918390811061147157611471612e58565b6000918252602090912001546001600160a01b03160361158f57805b611498600184612d85565b811015611540576001600160a01b0385166000908152600c602052604090206114c2826001612d72565b815481106114d2576114d2612e58565b60009182526020808320909101546001600160a01b038881168452600c909252604090922080549190921691908390811061150f5761150f612e58565b600091825260209091200180546001600160a01b0319166001600160a01b039290921691909117905560010161148d565b506001600160a01b0384166000908152600c6020526040902080548061156857611568612e6e565b600082815260209020810160001990810180546001600160a01b0319169055019055611597565b60010161143a565b505050505050565b6000546001600160a01b031633146115c95760405162461bcd60e51b815260040161071390612dd1565b60c88111156115ea5760405162461bcd60e51b815260040161071390612df3565b600555565b6013602052816000526040600020818154811061160b57600080fd5b600091825260209091206002909102018054600190910154909250905082565b81600003611637575050565b6003546040516323b872dd60e01b8152336004820152306024820152604481018490526001600160a01b03909116906323b872dd906064016020604051808303816000875af115801561168e573d6000803e3d6000fd5b505050506040513d601f19601f820116820180604052508101906116b29190612e84565b6116f55760405162461bcd60e51b81526020600482015260146024820152731554d110c81d1c985b9cd9995c8819985a5b195960621b6044820152606401610713565b6000816001600160a01b031663c1eb5ddd6040518163ffffffff1660e01b8152600401602060405180830381865afa158015611735573d6000803e3d6000fd5b505050506040513d601f19601f820116820180604052508101906117599190612e22565b6001600160a01b0381166000908152600f602052604090205490915060ff161561192757806000609661178d866064612d98565b6117979190612daf565b90506117a38186612d85565b60035460405163095ea7b360e01b81526001600160a01b0385811660048301526024820185905292975091169063095ea7b3906044016020604051808303816000875af11580156117f8573d6000803e3d6000fd5b505050506040513d601f19601f8201168201806040525081019061181c9190612e84565b61182557600080fd5b60006064611834836005612d98565b61183e9190612daf565b9050600061184c8284612d85565b6040516303d7cba960e21b81526001600160a01b038881166004830152602482018590526001604483015291925090851690630f5f2ea490606401600060405180830381600087803b1580156118a157600080fd5b505af11580156118b5573d6000803e3d6000fd5b50506040516303d7cba960e21b81526001600160a01b038981166004830152602482018590526000604483015287169250630f5f2ea49150606401600060405180830381600087803b15801561190a57600080fd5b505af115801561191e573d6000803e3d6000fd5b50505050505050505b600854600954600a546001548593606493909290916001600160a01b03808716911614611975576000611959866105cf565b90506119658186612d72565b94506119718184612d72565b9250505b600084611982858b612d98565b61198c9190612daf565b905060008561199b858c612d98565b6119a59190612daf565b90506000866119b4858d612d98565b6119be9190612daf565b9050600081836119ce868f612d85565b6119d89190612d85565b6119e29190612d85565b6001600160a01b038a16600090815260106020526040812080549293508592909190611a0f908490612d72565b90915550508315611b335760035460025460405163095ea7b360e01b81526001600160a01b0391821660048201526024810187905291169063095ea7b3906044016020604051808303816000875af1158015611a6f573d6000803e3d6000fd5b505050506040513d601f19601f82011682018060405250810190611a939190612e84565b611ad45760405162461bcd60e51b815260206004820152601260248201527113919508185c1c1c9bdd994819985a5b195960721b6044820152606401610713565b600254604051636612c3f960e11b8152600481018690526001600160a01b039091169063cc2587f290602401600060405180830381600087803b158015611b1a57600080fd5b505af1158015611b2e573d6000803e3d6000fd5b505050505b8015611bf05760035460005460405163a9059cbb60e01b81526001600160a01b0391821660048201526024810184905291169063a9059cbb906044016020604051808303816000875af1158015611b8e573d6000803e3d6000fd5b505050506040513d601f19601f82011682018060405250810190611bb29190612e84565b611bf05760405162461bcd60e51b815260206004820152600f60248201526e1d1c985b9cd9995c8819985a5b1959608a1b6044820152606401610713565b6001546001600160a01b03908116908a1603611d23576000611c128385612d72565b9050611c1f8a8c83612a29565b60035460405163a9059cbb60e01b81526001600160a01b038d81166004830152602482018490529091169063a9059cbb906044016020604051808303816000875af1158015611c72573d6000803e3d6000fd5b505050506040513d601f19601f82011682018060405250810190611c969190612e84565b611ce25760405162461bcd60e51b815260206004820152601d60248201527f546178207472616e7366657220746f2077616c6c6574206661696c65640000006044820152606401610713565b8a6001600160a01b03168a6001600160a01b0316600080516020612ebb83398151915283604051611d1591815260200190565b60405180910390a350612429565b6001600160a01b0389166000908152600c6020908152604080832080548251818502810185019093528083529192909190830182828015611d8d57602002820191906000526020600020905b81546001600160a01b03168152600190910190602001808311611d6f575b50505050509050600081511115612078576000805b8251811015611f52576000838281518110611dbf57611dbf612e58565b602002602001015190506000600b60008f6001600160a01b03166001600160a01b031681526020019081526020016000206000836001600160a01b03166001600160a01b031681526020019081526020016000205490506000612710828a611e279190612d98565b611e319190612daf565b90508015611f4757611e448f8483612a29565b60035460405163a9059cbb60e01b81526001600160a01b038581166004830152602482018490529091169063a9059cbb906044016020604051808303816000875af1158015611e97573d6000803e3d6000fd5b505050506040513d601f19601f82011682018060405250810190611ebb9190612e84565b611eff5760405162461bcd60e51b815260206004820152601560248201527414da185c99481d1c985b9cd9995c8819985a5b1959605a1b6044820152606401610713565b826001600160a01b03168f6001600160a01b0316600080516020612ebb83398151915283604051611f3291815260200190565b60405180910390a3611f448186612d72565b94505b505050600101611da2565b506000611f5f8287612d85565b9050801561207157611f728c8e83612a29565b60035460405163a9059cbb60e01b81526001600160a01b038f81166004830152602482018490529091169063a9059cbb906044016020604051808303816000875af1158015611fc5573d6000803e3d6000fd5b505050506040513d601f19601f82011682018060405250810190611fe99190612e84565b6120355760405162461bcd60e51b815260206004820152601d60248201527f4465762072656d61696e646572207472616e73666572206661696c65640000006044820152606401610713565b8c6001600160a01b03168c6001600160a01b0316600080516020612ebb8339815191528360405161206891815260200190565b60405180910390a35b5050612182565b6120838a8c86612a29565b60035460405163a9059cbb60e01b81526001600160a01b038d81166004830152602482018790529091169063a9059cbb906044016020604051808303816000875af11580156120d6573d6000803e3d6000fd5b505050506040513d601f19601f820116820180604052508101906120fa9190612e84565b6121465760405162461bcd60e51b815260206004820152601760248201527f44657620746178207472616e73666572206661696c65640000000000000000006044820152606401610713565b8a6001600160a01b03168a6001600160a01b0316600080516020612ebb8339815191528660405161217991815260200190565b60405180910390a35b8215612427578b6001600160a01b031663089e136e6040518163ffffffff1660e01b8152600401602060405180830381865afa1580156121c6573d6000803e3d6000fd5b505050506040513d601f19601f820116820180604052508101906121ea9190612e84565b1561230a5760035460405163095ea7b360e01b81526001600160a01b038e81166004830152602482018690529091169063095ea7b3906044016020604051808303816000875af1158015612242573d6000803e3d6000fd5b505050506040513d601f19601f820116820180604052508101906122669190612e84565b6122ab5760405162461bcd60e51b8152602060048201526016602482015275141c995cd85b1948185c1c1c9bdd994819985a5b195960521b6044820152606401610713565b604051631ed25b7560e21b8152600481018490526001600160a01b038d1690637b496dd490602401600060405180830381600087803b1580156122ed57600080fd5b505af1158015612301573d6000803e3d6000fd5b50505050612427565b60035460025460405163095ea7b360e01b81526001600160a01b0391821660048201526024810186905291169063095ea7b3906044016020604051808303816000875af115801561235f573d6000803e3d6000fd5b505050506040513d601f19601f820116820180604052508101906123839190612e84565b6123c85760405162461bcd60e51b8152602060048201526016602482015275141c995cd85b1948185c1c1c9bdd994819985a5b195960521b6044820152606401610713565b600254604051636612c3f960e11b8152600481018590526001600160a01b039091169063cc2587f290602401600060405180830381600087803b15801561240e57600080fd5b505af1158015612422573d6000803e3d6000fd5b505050505b505b505050505050505050505050565b600c602052816000526040600020818154811061245357600080fd5b6000918252602090912001546001600160a01b03169150829050565b600061247a82612aa4565b6109679062093a80612d85565b6000819050336001600160a01b0316816001600160a01b031663c1eb5ddd6040518163ffffffff1660e01b8152600401602060405180830381865afa1580156124d4573d6000803e3d6000fd5b505050506040513d601f19601f820116820180604052508101906124f89190612e22565b6001600160a01b0316146125395760405162461bcd60e51b815260206004820152600860248201526737b7363c903232bb60c11b6044820152606401610713565b6000816001600160a01b0316636a72cd086040518163ffffffff1660e01b8152600401602060405180830381865afa158015612579573d6000803e3d6000fd5b505050506040513d601f19601f8201168201806040525081019061259d9190612e3f565b9050600181101580156125bb5750605a811115806125bb5750806064145b6125fc5760405162461bcd60e51b815260206004820152601260248201527134b73b30b634b21036bab63a34b83634b2b960711b6044820152606401610713565b60008160640361260e57506032612675565b6000605961261d600185612d85565b61262990610578612d98565b6126339190612daf565b90506000612643826105dc612d85565b90506032806126528184612daf565b61265c9190612d98565b93506064841061266c578361266f565b60645b93505050505b8087111580156126865750600a8710155b6126c75760405162461bcd60e51b8152602060048201526012602482015271696e76616c6964207374617274207261746560701b6044820152606401610713565b8686111580156126d5575060015b6127145760405162461bcd60e51b815260206004820152601060248201526f696e76616c696420656e64207261746560801b6044820152606401610713565b610e1085101561275b5760405162461bcd60e51b8152602060048201526012602482015271191d5c985d1a5bdb881d1bdbc81cda1bdc9d60721b6044820152606401610713565b612764846128f8565b600061276f85612aa4565b905062093a8061277f8783612d72565b11156127be5760405162461bcd60e51b815260206004820152600e60248201526d1c5d5bdd1848195e18d95959195960921b6044820152606401610713565b6001600160a01b03851660009081526018602052604090205460ff161561281e5760405162461bcd60e51b8152602060048201526014602482015273737572676520616c72656164792061637469766560601b6044820152606401610713565b6001600160a01b03851660008181526014602090815260408083204290819055601583528184208b9055601683528184208d9055601783528184208c905560188352818420805460ff1916600190811790915560138452828520835180850185528381528086018e815282548085018455928852968690209051600290920201908155945194019390935580518c81529182018b9052810189905260608101919091527f67e41837e6adabca5bcf8a2c0496c06d1136811d3e512e2228b6285227a8a17f9060800160405180910390a25050505050505050565b6001600160a01b0381166000908152601360205260408120905b8154811015612a245761292862278d0042612d85565b82828154811061293a5761293a612e58565b90600052602060002090600202016001015483838154811061295e5761295e612e58565b90600052602060002090600202016000015461297a9190612d72565b1015612a12578154829061299090600190612d85565b815481106129a0576129a0612e58565b90600052602060002090600202018282815481106129c0576129c0612e58565b60009182526020909120825460029092020190815560019182015491015581548290806129ef576129ef612e6e565b600082815260208120600260001990930192830201818155600101559055612912565b80612a1c81612ea1565b915050612912565b505050565b80600003612a3657505050565b6001600160a01b03808416600090815260126020908152604080832093861683529290529081208054839290612a6d908490612d72565b90915550506001600160a01b03821660009081526011602052604081208054839290612a9a908490612d72565b9091555050505050565b6001600160a01b03811660009081526013602052604081208180612acb62278d0042612d85565b905060005b8354811015612b89576000848281548110612aed57612aed612e58565b90600052602060002090600202016000015490506000858381548110612b1557612b15612e58565b90600052602060002090600202016001015482612b329190612d72565b90506000848311612b435784612b45565b825b90506000428310612b565742612b58565b825b905080821015612b7957612b6c8282612d85565b612b769088612d72565b96505b505060019092019150612ad09050565b5090949350505050565b6001600160a01b0381168114612ba857600080fd5b50565b600060208284031215612bbd57600080fd5b8135612bc881612b93565b9392505050565b8015158114612ba857600080fd5b60008060408385031215612bf057600080fd5b8235612bfb81612b93565b91506020830135612c0b81612bcf565b809150509250929050565b600060208284031215612c2857600080fd5b5035919050565b60008060408385031215612c4257600080fd5b8235612c4d81612b93565b91506020830135612c0b81612b93565b600080600060608486031215612c7257600080fd5b505081359360208301359350604090920135919050565b600080600060608486031215612c9e57600080fd5b8335612ca981612b93565b92506020840135612cb981612b93565b929592945050506040919091013590565b60008060408385031215612cdd57600080fd5b8235612ce881612b93565b946020939093013593505050565b60008060408385031215612d0957600080fd5b823591506020830135612c0b81612b93565b60008060008060808587031215612d3157600080fd5b8435935060208501359250604085013591506060850135612d5181612b93565b939692955090935050565b634e487b7160e01b600052601160045260246000fd5b8082018082111561096757610967612d5c565b8181038181111561096757610967612d5c565b808202811582820484141761096757610967612d5c565b600082612dcc57634e487b7160e01b600052601260045260246000fd5b500490565b6020808252600890820152674f6e6c792043454f60c01b604082015260600190565b60208082526015908201527443616e6e6f742072616973652061626f766520322560581b604082015260600190565b600060208284031215612e3457600080fd5b8151612bc881612b93565b600060208284031215612e5157600080fd5b5051919050565b634e487b7160e01b600052603260045260246000fd5b634e487b7160e01b600052603160045260246000fd5b600060208284031215612e9657600080fd5b8151612bc881612bcf565b600060018201612eb357612eb3612d5c565b506001019056fea3e14bd80fbfb05b553b9b430420f89054d358d190ab936a8c9513679953ec87a26469706673582212207f94c8170333691e7e523f8b3a74e62035d513b6edad059da4e4520b2d64a71964736f6c63430008180033",
  "linkReferences": {},
  "deployedLinkReferences": {}
}