{
  "_format": "hh-sol-artifact-1",
  "contractName": "ATokenFactory",
  "sourceName": "contracts/FACTORY.sol",
  "abi": [
    {
      "inputs": [
        {
          "internalType": "address",
          "name": "swapAddress",
          "type": "address"
        },
        {
          "internalType": "address",
          "name": "stasisAddress",
          "type": "address"
        },
        {
          "internalType": "address",
          "name": "_usdc",
          "type": "address"
        }
      ],
      "stateMutability": "nonpayable",
      "type": "constructor"
    },
    {
      "anonymous": false,
      "inputs": [
        {
          "indexed": true,
          "internalType": "address",
          "name": "tokenAddress",
          "type": "address"
        },
        {
          "indexed": false,
          "internalType": "string",
          "name": "name",
          "type": "string"
        },
        {
          "indexed": false,
          "internalType": "string",
          "name": "symbol",
          "type": "string"
        },
        {
          "indexed": false,
          "internalType": "address",
          "name": "creator",
          "type": "address"
        }
      ],
      "name": "TokenCreated",
      "type": "event"
    },
    {
      "inputs": [
        {
          "internalType": "string",
          "name": "symbol",
          "type": "string"
        },
        {
          "internalType": "string",
          "name": "name",
          "type": "string"
        },
        {
          "internalType": "uint256",
          "name": "hybridMultiplier",
          "type": "uint256"
        },
        {
          "internalType": "bool",
          "name": "frozen",
          "type": "bool"
        },
        {
          "internalType": "uint256",
          "name": "usdcForBonding",
          "type": "uint256"
        },
        {
          "internalType": "uint256",
          "name": "startLP",
          "type": "uint256"
        },
        {
          "internalType": "bool",
          "name": "autoVest",
          "type": "bool"
        },
        {
          "internalType": "uint256",
          "name": "autoVestDuration",
          "type": "uint256"
        },
        {
          "internalType": "bool",
          "name": "gradualAutovest",
          "type": "bool"
        }
      ],
      "name": "createToken",
      "outputs": [
        {
          "internalType": "address",
          "name": "",
          "type": "address"
        }
      ],
      "stateMutability": "payable",
      "type": "function"
    },
    {
      "inputs": [],
      "name": "creationCount",
      "outputs": [
        {
          "internalType": "uint256",
          "name": "",
          "type": "uint256"
        }
      ],
      "stateMutability": "view",
      "type": "function"
    },
    {
      "inputs": [
        {
          "internalType": "address",
          "name": "",
          "type": "address"
        }
      ],
      "name": "creatorOf",
      "outputs": [
        {
          "internalType": "address",
          "name": "",
          "type": "address"
        }
      ],
      "stateMutability": "view",
      "type": "function"
    },
    {
      "inputs": [
        {
          "internalType": "address",
          "name": "",
          "type": "address"
        },
        {
          "internalType": "uint256",
          "name": "",
          "type": "uint256"
        }
      ],
      "name": "creatorToTokens",
      "outputs": [
        {
          "internalType": "address",
          "name": "",
          "type": "address"
        }
      ],
      "stateMutability": "view",
      "type": "function"
    },
    {
      "inputs": [],
      "name": "feeAmount",
      "outputs": [
        {
          "internalType": "uint256",
          "name": "",
          "type": "uint256"
        }
      ],
      "stateMutability": "view",
      "type": "function"
    },
    {
      "inputs": [
        {
          "internalType": "address",
          "name": "",
          "type": "address"
        }
      ],
      "name": "feeWhitelist",
      "outputs": [
        {
          "internalType": "bool",
          "name": "",
          "type": "bool"
        }
      ],
      "stateMutability": "view",
      "type": "function"
    },
    {
      "inputs": [
        {
          "internalType": "address",
          "name": "creator",
          "type": "address"
        }
      ],
      "name": "getTokenCountByCreator",
      "outputs": [
        {
          "internalType": "uint256",
          "name": "",
          "type": "uint256"
        }
      ],
      "stateMutability": "view",
      "type": "function"
    },
    {
      "inputs": [
        {
          "internalType": "address",
          "name": "creator",
          "type": "address"
        }
      ],
      "name": "getTokensByCreator",
      "outputs": [
        {
          "internalType": "address[]",
          "name": "",
          "type": "address[]"
        }
      ],
      "stateMutability": "view",
      "type": "function"
    },
    {
      "inputs": [
        {
          "internalType": "address",
          "name": "",
          "type": "address"
        }
      ],
      "name": "isEcosystemToken",
      "outputs": [
        {
          "internalType": "bool",
          "name": "",
          "type": "bool"
        }
      ],
      "stateMutability": "view",
      "type": "function"
    },
    {
      "inputs": [
        {
          "internalType": "address",
          "name": "",
          "type": "address"
        }
      ],
      "name": "isPairToken",
      "outputs": [
        {
          "internalType": "bool",
          "name": "",
          "type": "bool"
        }
      ],
      "stateMutability": "view",
      "type": "function"
    },
    {
      "inputs": [],
      "name": "lastCreation",
      "outputs": [
        {
          "internalType": "uint256",
          "name": "",
          "type": "uint256"
        }
      ],
      "stateMutability": "view",
      "type": "function"
    },
    {
      "inputs": [
        {
          "internalType": "bool",
          "name": "status",
          "type": "bool"
        },
        {
          "internalType": "address",
          "name": "token",
          "type": "address"
        }
      ],
      "name": "setEcosystemToken",
      "outputs": [],
      "stateMutability": "nonpayable",
      "type": "function"
    },
    {
      "inputs": [
        {
          "internalType": "uint256",
          "name": "newFeeAmount",
          "type": "uint256"
        }
      ],
      "name": "setFeeAmount",
      "outputs": [],
      "stateMutability": "nonpayable",
      "type": "function"
    },
    {
      "inputs": [
        {
          "internalType": "bool",
          "name": "enabled",
          "type": "bool"
        }
      ],
      "name": "setFeeEnabled",
      "outputs": [],
      "stateMutability": "nonpayable",
      "type": "function"
    },
    {
      "inputs": [
        {
          "internalType": "address",
          "name": "addr",
          "type": "address"
        },
        {
          "internalType": "bool",
          "name": "whitelisted",
          "type": "bool"
        }
      ],
      "name": "setFeeWhitelist",
      "outputs": [],
      "stateMutability": "nonpayable",
      "type": "function"
    },
    {
      "inputs": [
        {
          "internalType": "address",
          "name": "addr",
          "type": "address"
        }
      ],
      "name": "setSWAP",
      "outputs": [],
      "stateMutability": "nonpayable",
      "type": "function"
    },
    {
      "inputs": [
        {
          "internalType": "address",
          "name": "token",
          "type": "address"
        }
      ],
      "name": "togglePairToken",
      "outputs": [],
      "stateMutability": "nonpayable",
      "type": "function"
    },
    {
      "inputs": [],
      "name": "vestFeeEnabled",
      "outputs": [
        {
          "internalType": "bool",
          "name": "",
          "type": "bool"
        }
      ],
      "stateMutability": "view",
      "type": "function"
    }
  ],
  "bytecode": "0x6080604052600060038190556004819055600680546001600160a01b031916731376b76358bad919e82a6dea2217458047fbd044179055600955600a805460ff1916905534801561004f57600080fd5b5060405162005f7e38038062005f7e833981016040819052610070916100d9565b600680546001600160a01b03199081163317909155600780546001600160a01b0395861690831617905560088054938516938216939093179092556005805491909316911617905561011c565b80516001600160a01b03811681146100d457600080fd5b919050565b6000806000606084860312156100ee57600080fd5b6100f7846100bd565b9250610105602085016100bd565b9150610113604085016100bd565b90509250925092565b615e52806200012c6000396000f3fe6080604052600436106200011f5760003560e01c80637be070f511620000a1578063d5c71275116200006c578063d5c712751462000340578063dea5c2e01462000374578063ebefbce614620003ae578063ec9523c814620003d3578063f3b8f58714620003eb57600080fd5b80637be070f514620002aa5780639757678614620002c25780639fadb9d114620002e7578063d408f657146200030c57600080fd5b806336a5f2db11620000ee57806336a5f2db14620001e05780633a76735514620002055780634d7d73f8146200023957806369e15404146200025e5780636b392680146200028557600080fd5b80630db474fa14620001245780630ff9dafe146200014b57806310f83ae9146200017c57806313b63a9f14620001b0575b600080fd5b3480156200013157600080fd5b50620001496200014336600462000a3f565b62000425565b005b3480156200015857600080fd5b50600a54620001679060ff1681565b60405190151581526020015b60405180910390f35b3480156200018957600080fd5b50620001676200019b36600462000a7c565b60026020526000908152604090205460ff1681565b620001c7620001c136600462000b45565b6200046e565b6040516001600160a01b03909116815260200162000173565b348015620001ed57600080fd5b5062000149620001ff36600462000a7c565b620007e8565b3480156200021257600080fd5b50620001676200022436600462000a7c565b600c6020526000908152604090205460ff1681565b3480156200024657600080fd5b50620001c76200025836600462000c0f565b62000837565b3480156200026b57600080fd5b506200027660095481565b60405190815260200162000173565b3480156200029257600080fd5b5062000149620002a436600462000c3c565b62000870565b348015620002b757600080fd5b506200027660035481565b348015620002cf57600080fd5b5062000149620002e136600462000c56565b620008a2565b348015620002f457600080fd5b50620001496200030636600462000c8e565b620008fa565b3480156200031957600080fd5b50620001676200032b36600462000a7c565b600b6020526000908152604090205460ff1681565b3480156200034d57600080fd5b50620003656200035f36600462000a7c565b6200094f565b60405162000173919062000cbd565b3480156200038157600080fd5b50620001c76200039336600462000a7c565b6001602052600090815260409020546001600160a01b031681565b348015620003bb57600080fd5b5062000149620003cd36600462000a7c565b620009c5565b348015620003e057600080fd5b506200027660045481565b348015620003f857600080fd5b50620002766200040a36600462000a7c565b6001600160a01b031660009081526020819052604090205490565b6006546001600160a01b031633146200045b5760405162461bcd60e51b8152600401620004529062000d0c565b60405180910390fd5b600a805460ff1916911515919091179055565b60006001881015801562000483575060648811155b620004c65760405162461bcd60e51b815260206004820152601260248201527134b73b30b634b21036bab63a34b83634b2b960711b604482015260640162000452565b86156200052d5760018610158015620004e25750620249f08611155b620005275760405162461bcd60e51b815260206004820152601460248201527363616e6e6f742062652062656c6f77203135306b60601b604482015260640162000452565b62000579565b620249f0861115620005795760405162461bcd60e51b815260206004820152601460248201527363616e6e6f742062652062656c6f77203135306b60601b604482015260640162000452565b606485101580156200058d57506127108511155b620005d15760405162461bcd60e51b81526020600482015260136024820152720696e76616c6964207374617274696e67204c5606c1b604482015260640162000452565b6009548a903410156200061a5760405162461bcd60e51b815260206004820152601060248201526f496e73756666696369656e742066656560801b604482015260640162000452565b6006546009546040516001600160a01b039092169181156108fc0291906000818181858888f1935050505015801562000657573d6000803e3d6000fd5b50604080516101a0810182526007546001600160a01b039081168252600854811660208301528183018d9052606082018e9052608082018c90528a151560a083015260c082018a905260e082018990528715156101008301526101208201879052851515610140830152336101608301526005541661018082015290516000908290620006e49062000a1b565b620006f0919062000d76565b604051809103906000f0801580156200070d573d6000803e3d6000fd5b50336000818152602081815260408083208054600181810183559185528385200180546001600160a01b0388166001600160a01b03199182168117909255908552818452828520805490911690951790945560029091528120805460ff191690921790915543600455600380549293508392916200078b8362000e96565b9190505550806001600160a01b03167f6596c1670eb3390048d23721809c3da5d3f531375ac0e2cab0f77a808ed643318e8633604051620007cf9392919062000ebe565b60405180910390a29d9c50505050505050505050505050565b6006546001600160a01b03163314620008155760405162461bcd60e51b8152600401620004529062000d0c565b600780546001600160a01b0319166001600160a01b0392909216919091179055565b600060205281600052604060002081815481106200085457600080fd5b6000918252602090912001546001600160a01b03169150829050565b6006546001600160a01b031633146200089d5760405162461bcd60e51b8152600401620004529062000d0c565b600955565b6006546001600160a01b03163314620008cf5760405162461bcd60e51b8152600401620004529062000d0c565b6001600160a01b03919091166000908152600b60205260409020805460ff1916911515919091179055565b6006546001600160a01b03163314620009275760405162461bcd60e51b8152600401620004529062000d0c565b6001600160a01b03166000908152600260205260409020805460ff1916911515919091179055565b6001600160a01b03811660009081526020818152604091829020805483518184028101840190945280845260609392830182828015620009b957602002820191906000526020600020905b81546001600160a01b031681526001909101906020018083116200099a575b50505050509050919050565b6006546001600160a01b03163314620009f25760405162461bcd60e51b8152600401620004529062000d0c565b6001600160a01b03166000908152600c60205260409020805460ff19811660ff90911615179055565b614f1c8062000f0183390190565b8035801515811462000a3a57600080fd5b919050565b60006020828403121562000a5257600080fd5b62000a5d8262000a29565b9392505050565b80356001600160a01b038116811462000a3a57600080fd5b60006020828403121562000a8f57600080fd5b62000a5d8262000a64565b634e487b7160e01b600052604160045260246000fd5b600082601f83011262000ac257600080fd5b813567ffffffffffffffff8082111562000ae05762000ae062000a9a565b604051601f8301601f19908116603f0116810190828211818310171562000b0b5762000b0b62000a9a565b8160405283815286602085880101111562000b2557600080fd5b836020870160208301376000602085830101528094505050505092915050565b60008060008060008060008060006101208a8c03121562000b6557600080fd5b893567ffffffffffffffff8082111562000b7e57600080fd5b62000b8c8d838e0162000ab0565b9a5060208c013591508082111562000ba357600080fd5b5062000bb28c828d0162000ab0565b98505060408a0135965062000bca60608b0162000a29565b955060808a0135945060a08a0135935062000be860c08b0162000a29565b925060e08a0135915062000c006101008b0162000a29565b90509295985092959850929598565b6000806040838503121562000c2357600080fd5b62000c2e8362000a64565b946020939093013593505050565b60006020828403121562000c4f57600080fd5b5035919050565b6000806040838503121562000c6a57600080fd5b62000c758362000a64565b915062000c856020840162000a29565b90509250929050565b6000806040838503121562000ca257600080fd5b62000cad8362000a29565b915062000c856020840162000a64565b6020808252825182820181905260009190848201906040850190845b8181101562000d005783516001600160a01b03168352928401929184019160010162000cd9565b50909695505050505050565b6020808252600890820152674f6e6c792043454f60c01b604082015260600190565b6000815180845260005b8181101562000d565760208185018101518683018201520162000d38565b506000602082860101526020601f19601f83011685010191505092915050565b6020815262000d916020820183516001600160a01b03169052565b6000602083015162000dae60408401826001600160a01b03169052565b5060408301516101a080606085015262000dcd6101c085018362000d2e565b91506060850151601f1985840301608086015262000dec838262000d2e565b925050608085015160a085015260a085015162000e0d60c086018215159052565b5060c085015160e085015260e085015161010081818701528087015191505061012062000e3d8187018315159052565b86015161014086810191909152860151905061016062000e608187018315159052565b860151905061018062000e7d868201836001600160a01b03169052565b909501516001600160a01b031693019290925250919050565b60006001820162000eb757634e487b7160e01b600052601160045260246000fd5b5060010190565b60608152600062000ed3606083018662000d2e565b828103602084015262000ee7818662000d2e565b91505060018060a01b038316604083015294935050505056fe60a06040526002805460ff191690556012608052600060068190556007805464ffffffffff19169055600d819055600f819055600a60105560118190556013819055601780546001600160a01b031916731376b76358bad919e82a6dea2217458047fbd0441790556ec097ce7bc90715b34b9f1000000000601955601a556001601e553480156200008f57600080fd5b5060405162004f1c38038062004f1c833981016040819052620000b2916200052b565b610180810151601480546001600160a01b039283166001600160a01b0319918216179091556101608301805160188054918516918416821790556000908152602260209081526040808320805460ff191660011790559251851682526023815291902060001990558301516008805491841691831682179055601580548316909117905582516016805491909316911617905560a0810151600780549115156101000261ff0019909216919091179055606081015160039062000176908262000716565b5060408101516004906200018b908262000716565b5061010081015160078054610140840151610120850151601d5560c085015160108190556080860151601155650100000000003002600160281b600160c81b031991159190911664ffffffff01600160c81b031992151563010000000263ff0000001996151562010000029690961663ffff000019909416939093179490941716179190911790556015546040805163c338287f60e01b815290516000926001600160a01b03169163c338287f9160048083019260209291908290030181865afa1580156200025e573d6000803e3d6000fd5b505050506040513d601f19601f82011682018060405250810190620002849190620007e2565b670de0b6b3a76400008360e001516200029e919062000812565b620002b290670de0b6b3a764000062000812565b620002be919062000832565b9050608051600a620002d1919062000952565b8260e00151620002e2919062000812565b600955608051620002f590600a62000952565b8260e0015162000306919062000812565b600b556080516200031990600a62000952565b8260e001516200032a919062000812565b6005818155600a839055600c839055436006819055600e5542600f55306000818152602081815260408083209590955533825260229052838120805460ff191660011790559154925190927fddf252ad1be2c89b69c2b068fc378daa952ba7f163c4a11628f55a4df523b3ef91620003a491815260200190565b60405180910390a37fcf2aa50876cdfbb541206f89af0ee78d44a2abf8d328e37fa4917f982149848a600954600a54604051620003eb929190918252602082015260400190565b60405180910390a150506200096a565b634e487b7160e01b600052604160045260246000fd5b6040516101a081016001600160401b0381118282101715620004375762000437620003fb565b60405290565b604051601f8201601f191681016001600160401b0381118282101715620004685762000468620003fb565b604052919050565b80516001600160a01b03811681146200048857600080fd5b919050565b600082601f8301126200049f57600080fd5b81516001600160401b03811115620004bb57620004bb620003fb565b6020620004d1601f8301601f191682016200043d565b8281528582848701011115620004e657600080fd5b60005b8381101562000506578581018301518282018401528201620004e9565b506000928101909101919091529392505050565b805180151581146200048857600080fd5b6000602082840312156200053e57600080fd5b81516001600160401b03808211156200055657600080fd5b908301906101a082860312156200056c57600080fd5b6200057662000411565b620005818362000470565b8152620005916020840162000470565b6020820152604083015182811115620005a957600080fd5b620005b7878286016200048d565b604083015250606083015182811115620005d057600080fd5b620005de878286016200048d565b60608301525060808301516080820152620005fc60a084016200051a565b60a082015260c083015160c082015260e083015160e08201526101009150620006278284016200051a565b828201526101209150818301518282015261014091506200064a8284016200051a565b8282015261016091506200066082840162000470565b8282015261018091506200067682840162000470565b91810191909152949350505050565b600181811c908216806200069a57607f821691505b602082108103620006bb57634e487b7160e01b600052602260045260246000fd5b50919050565b601f82111562000711576000816000526020600020601f850160051c81016020861015620006ec5750805b601f850160051c820191505b818110156200070d57828155600101620006f8565b5050505b505050565b81516001600160401b03811115620007325762000732620003fb565b6200074a8162000743845462000685565b84620006c1565b602080601f831160018114620007825760008415620007695750858301515b600019600386901b1c1916600185901b1785556200070d565b600085815260208120601f198616915b82811015620007b35788860151825594840194600190910190840162000792565b5085821015620007d25787850151600019600388901b60f8161c191681555b5050505050600190811b01905550565b600060208284031215620007f557600080fd5b5051919050565b634e487b7160e01b600052601160045260246000fd5b80820281158282048414176200082c576200082c620007fc565b92915050565b6000826200085057634e487b7160e01b600052601260045260246000fd5b500490565b600181815b80851115620008965781600019048211156200087a576200087a620007fc565b808516156200088857918102915b93841c93908002906200085a565b509250929050565b600082620008af575060016200082c565b81620008be575060006200082c565b8160018114620008d75760028114620008e25762000902565b60019150506200082c565b60ff841115620008f657620008f6620007fc565b50506001821b6200082c565b5060208310610133831016604e8410600b841016171562000927575081810a6200082c565b62000933838362000855565b80600019048211156200094a576200094a620007fc565b029392505050565b60006200096360ff8416836200089e565b9392505050565b60805161459662000986600039600061053601526145966000f3fe608060405234801561001057600080fd5b50600436106103d05760003560e01c806375afab05116101ff578063c1dbdb491161011a578063d936547e116100ad578063ecad595e1161007c578063ecad595e1461087a578063ef4607f514610882578063f2fde38b14610895578063fc706bb9146108a857600080fd5b8063d936547e14610803578063dbcdabaa14610826578063dd62ed3e14610839578063ebcf1d321461087257600080fd5b8063ce7c2ac2116100e9578063ce7c2ac2146107b4578063d21220a7146107d3578063d32156ba146107e6578063d8270dce146107fa57600080fd5b8063c1dbdb4914610771578063c1eb5ddd14610786578063c338287f14610799578063c625e9b1146107a157600080fd5b8063a108857111610192578063aec5e10411610161578063aec5e10414610720578063ba2369f414610728578063bd83434514610748578063bf8e9b6e1461076857600080fd5b8063a1088571146106de578063a6667e18146106f1578063a717639c14610704578063a9059cbb1461070d57600080fd5b806395d89b41116101ce57806395d89b41146106b15780639adfcb4f146106b95780639b44cb3c146106c25780639eef3b22146106cb57600080fd5b806375afab051461066f5780637b32866b146106825780637b496dd4146106955780637ff4d4da146106a857600080fd5b8063308e401e116102ef5780634ebf190711610282578063678b0a3711610251578063678b0a37146106225780636a72cd08146106355780636edf7b751461063e57806370a082311461064657600080fd5b80634ebf1907146105d657806359705a95146105e9578063670a19d4146105fc578063670f71511461060f57600080fd5b8063429cead1116102be578063429cead11461057b57806342c7db711461059b5780634892e6d2146105bb5780634b94f50e146105ce57600080fd5b8063308e401e1461051e578063313ce56714610531578063372500ab1461056a5780633a98ef391461057257600080fd5b8063095ea7b31161036757806318160ddd1161033657806318160ddd146104da5780632384f541146104e357806323b872dd146104f65780632bcf8fa11461050957600080fd5b8063095ea7b3146104955780630aa4b1cb146104a85780630dfe1681146104b557806317634514146104d157600080fd5b806306fdde03116103a357806306fdde0314610447578063089e136e1461045c5780630902f1ac146104695780630910a5101461048d57600080fd5b8063037c65a8146103d557806304072b20146103f157806304d84108146103fa578063054f7d9c14610425575b600080fd5b6103de600b5481565b6040519081526020015b60405180910390f35b6103de601e5481565b60165461040d906001600160a01b031681565b6040516001600160a01b0390911681526020016103e8565b60075461043790610100900460ff1681565b60405190151581526020016103e8565b61044f6108b1565b6040516103e89190613f41565b6007546104379060ff1681565b600954600a54600d54604080519384526020840192909252908201526060016103e8565b6103de61093f565b6104376104a3366004613f70565b610956565b6002546104379060ff1681565b60075461040d906501000000000090046001600160a01b031681565b6103de600e5481565b6103de60055481565b6103de6104f1366004613f9a565b610a18565b610437610504366004613fb3565b610a60565b61051c6105173660046140a6565b610afe565b005b6103de61052c36600461417e565b610cd9565b6105587f000000000000000000000000000000000000000000000000000000000000000081565b60405160ff90911681526020016103e8565b61051c610d7d565b6103de601a5481565b6103de61058936600461417e565b60216020526000908152604090205481565b6103de6105a936600461417e565b60236020526000908152604090205481565b6103de6105c9366004614199565b610d88565b6103de61136d565b6103de6105e4366004613f9a565b611392565b61051c6105f73660046141d3565b6113c6565b61051c61060a3660046141f0565b611403565b6103de61061d366004614199565b611756565b6007546104379062010000900460ff1681565b6103de60115481565b61051c611ba4565b6103de61065436600461417e565b6001600160a01b031660009081526020819052604090205490565b6103de61067d366004613f9a565b611bdb565b61051c61069036600461422f565b611cfb565b61051c6106a3366004613f9a565b611f3c565b6103de600c5481565b61044f612137565b6103de601d5481565b6103de60065481565b61051c6106d936600461417e565b612144565b60175461040d906001600160a01b031681565b61051c6106ff36600461417e565b612190565b6103de601c5481565b61043761071b366004613f70565b612265565b6103de612272565b6103de61073636600461417e565b60246020526000908152604090205481565b6103de61075636600461417e565b601f6020526000908152604090205481565b6103de601b5481565b60075461043790640100000000900460ff1681565b60185461040d906001600160a01b031681565b6103de6123e9565b6103de6107af366004614199565b612497565b6103de6107c236600461417e565b602080526000908152604090205481565b60085461040d906001600160a01b031681565b600754610437906301000000900460ff1681565b6103de600f5481565b61043761081136600461417e565b60226020526000908152604090205460ff1681565b6103de610834366004613f9a565b6127a7565b6103de610847366004614277565b6001600160a01b03918216600090815260016020908152604080832093909416825291909152205490565b6103de6128c7565b6103de612972565b6103de610890366004614199565b612a37565b61051c6108a336600461417e565b612d34565b6103de60105481565b600480546108be906142a1565b80601f01602080910402602001604051908101604052809291908181526020018280546108ea906142a1565b80156109375780601f1061090c57610100808354040283529160200191610937565b820191906000526020600020905b81548152906001019060200180831161091a57829003601f168201915b505050505081565b6000600c54600a5461095191906142f1565b905090565b60006001600160a01b0383166109b35760405162461bcd60e51b815260206004820152601c60248201527f63616e6e6f7420617070726f766520746865203020616464726573730000000060448201526064015b60405180910390fd5b3360008181526001602090815260408083206001600160a01b03881680855290835292819020869055518581529192917f8c5be1e5ebec7d5bd14f71427d1e84f3dd0314c0f7b2291e5b200ac8c7c3b925910160405180910390a35060015b92915050565b600081600003610a2a57506000919050565b6000600a5483610a3a9190614304565b9050600083600954610a4c919061431b565b9050610a588183614344565b949350505050565b6001600160a01b0383166000908152600160209081526040808320338452909152812054610a8f9083906142f1565b6001600160a01b038516600081815260016020908152604080832033808552908352928190208590555193845290927f8c5be1e5ebec7d5bd14f71427d1e84f3dd0314c0f7b2291e5b200ac8c7c3b925910160405180910390a3610af4848484612dcf565b90505b9392505050565b6018546001600160a01b03163314610b285760405162461bcd60e51b81526004016109aa90614366565b6000835111610b6f5760405162461bcd60e51b81526020600482015260136024820152721b9bc81dd85b1b195d1cc81c1c9bdd9a591959606a1b60448201526064016109aa565b60005b8351811015610cd35760226000858381518110610b9157610b91614388565b6020908102919091018101516001600160a01b031682528101919091526040016000205460ff16610ccb57600160226000868481518110610bd457610bd4614388565b60200260200101516001600160a01b03166001600160a01b0316815260200190815260200160002060006101000a81548160ff0219169083151502179055508260236000868481518110610c2a57610c2a614388565b60200260200101516001600160a01b03166001600160a01b0316815260200190815260200160002081905550601e6000815480929190610c699061439e565b9190505550838181518110610c8057610c80614388565b60200260200101516001600160a01b03167f13c00bdb0bfc3d84f0e6b7ad3c291d53452e27322b99ed0f95c7d0e58e3535e28484604051610cc29291906143b7565b60405180910390a25b600101610b72565b50505050565b6001600160a01b03811660009081526020805260408120548103610cff57506000919050565b6001600160a01b03821660009081526021602090815260408083205491805290912054601b54610d2f9190614304565b8110610d3e5750600092915050565b600060195482601b54610d5191906142f1565b6001600160a01b0386166000908152602080526040902054610d739190614304565b610a589190614344565b610d8633612e5e565b565b6016546000906001600160a01b03163314610db55760405162461bcd60e51b81526004016109aa906143d0565b60075460ff1615610e035760405162461bcd60e51b8152602060048201526018602482015277151bdad95b881a185cc8185b1c9958591e48189bdb99195960421b60448201526064016109aa565b600754640100000000900460ff1615610e565760405162461bcd60e51b81526020600482015260156024820152741d1bdad95b881a185cc81899595b8818db1bdcd959605a1b60448201526064016109aa565b600754610100900460ff1615611031576000670de0b6b3a7640000601560009054906101000a90046001600160a01b03166001600160a01b0316634b94f50e6040518163ffffffff1660e01b8152600401602060405180830381865afa158015610ec4573d6000803e3d6000fd5b505050506040513d601f19601f82011682018060405250810190610ee891906143f3565b610ef29086614304565b610efc9190614344565b6001600160a01b03841660009081526022602052604090205490915060ff16610f5a5760405162461bcd60e51b815260206004820152601060248201526f4e6f20574c20666f7220667265657a6560801b60448201526064016109aa565b6001600160a01b038316600090815260246020526040902054610f7e90829061431b565b610f91670de0b6b3a76400006001614304565b6001600160a01b038516600090815260236020526040902054610fb4919061431b565b10156110025760405162461bcd60e51b815260206004820152601760248201527f4f766572636170706564206f6e20574c20627579696e6700000000000000000060448201526064016109aa565b6001600160a01b0383166000908152602460205260408120805483929061102a90849061431b565b9091555050505b82600061103c6128c7565b90508085600c54600a5461105091906142f1565b61105a919061431b565b11156110a457600c54600a5461107091906142f1565b811061109f57600c54600a5461108691906142f1565b61108e6128c7565b61109891906142f1565b91506110a4565b600091505b6015546040516323b872dd60e01b81526001600160a01b03909116906323b872dd906110d890339030908a9060040161440c565b6020604051808303816000875af11580156110f7573d6000803e3d6000fd5b505050506040513d601f19601f8201168201806040525081019061111b9190614430565b6111375760405162461bcd60e51b81526004016109aa9061444d565b600061114283611392565b9050600061114f87611392565b905060006064601154836111639190614304565b61116d9190614344565b9050611179818361431b565b6005600082825461118a919061431b565b9091555061119a9050818361431b565b30600090815260208190526040812080549091906111b990849061431b565b90915550600090506111c96123e9565b905083601a60008282546111dd919061431b565b90915550506001600160a01b03881660009081526020805260408120805486929061120990849061431b565b9250508190555088600a6000828254611222919061431b565b92505081905550816009600082825461123b919061431b565b909155505060405163a9059cbb60e01b815233600482015260248101849052309063a9059cbb906044016020604051808303816000875af1158015611284573d6000803e3d6000fd5b505050506040513d601f19601f820116820180604052508101906112a89190614430565b6112c45760405162461bcd60e51b81526004016109aa9061447c565b6112cc6128c7565b600c54600a546112dc91906142f1565b106112ef576007805460ff191660011790555b600080516020614541833981519152600954600a5460405161131b929190918252602082015260400190565b60405180910390a1876001600160a01b0316600080516020614521833981519152848884600060405161135194939291906144a5565b60405180910390a2505042600d55436006559695505050505050565b6000600954600a54670de0b6b3a76400006113889190614304565b6109519190614344565b6000816000036113a457506000919050565b6000600954836113b49190614304565b9050600083600a54610a4c919061431b565b6017546001600160a01b031633146113f05760405162461bcd60e51b81526004016109aa906144e7565b6002805460ff1916911515919091179055565b6015546001600160a01b031633146114475760405162461bcd60e51b815260206004820152600760248201526613db9b1e48135560ca1b60448201526064016109aa565b60006114516128c7565b600c54600a5461146191906142f1565b1161148d57600c54600a5461147691906142f1565b61147e6128c7565b61148891906142f1565b611490565b60005b60075490915060ff1661160e576000818511156114fb576000856114bc84670de0b6b3a7640000614304565b6114c69190614344565b9050670de0b6b3a76400006114db8683614304565b6114e59190614344565b6007805460ff1916600117905591506114fe9050565b50825b6000670de0b6b3a7640000601560009054906101000a90046001600160a01b03166001600160a01b0316634b94f50e6040518163ffffffff1660e01b8152600401602060405180830381865afa15801561155c573d6000803e3d6000fd5b505050506040513d601f19601f8201168201806040525081019061158091906143f3565b61158a9088614304565b6115949190614344565b6001600160a01b0385166000908152602460205260408120805492935083929091906115c190849061431b565b90915550506001600160a01b0384166000908152602080526040812080548492906115ed90849061431b565b9250508190555081601a6000828254611606919061431b565b909155505050505b816001600160a01b031660008051602061452183398151915284866116316123e9565b600260405161164394939291906144a5565b60405180910390a2846009600082825461165d919061431b565b9250508190555083600a6000828254611676919061431b565b9091555050306000908152602081905260408120805485929061169a90849061431b565b909155505030600090815260208190526040812080548792906116be90849061431b565b909155506116ce9050838661431b565b600560008282546116df919061431b565b90915550506015546116fc9030906001600160a01b031685613022565b6117185760405162461bcd60e51b81526004016109aa9061447c565b43600655600954600a546040516000805160206145418339815191529261174792908252602082015260400190565b60405180910390a15050505050565b6016546000906001600160a01b031633146117835760405162461bcd60e51b81526004016109aa906143d0565b60075460ff166117ca5760405162461bcd60e51b81526020600482015260126024820152711a185cc81b9bdd08189bdb991959081e595d60721b60448201526064016109aa565b6040516323b872dd60e01b815230906323b872dd906117f19033908490889060040161440c565b6020604051808303816000875af1158015611810573d6000803e3d6000fd5b505050506040513d601f19601f820116820180604052508101906118349190614430565b6118505760405162461bcd60e51b81526004016109aa9061444d565b61185982612e5e565b600754640100000000900460ff1615611928576000670de0b6b3a7640000846012546118859190614304565b61188f9190614344565b60155460405163a9059cbb60e01b8152336004820152602481018390529192506001600160a01b03169063a9059cbb906044016020604051808303816000875af11580156118e1573d6000803e3d6000fd5b505050506040513d601f19601f820116820180604052508101906119059190614430565b6119215760405162461bcd60e51b81526004016109aa9061447c565b9050610a12565b600061193384610a18565b905060006064601154866119479190614304565b6119519190614344565b905061195d818661431b565b6005600082825461196e91906142f1565b9091555061197e9050818661431b565b306000908152602081905260408120805490919061199d9084906142f1565b90915550600090506119ad6123e9565b905082600a60008282546119c191906142f1565b9250508190555081600960008282546119da91906142f1565b90915550506001600160a01b0385166000908152602080526040812054871115611a1b576001600160a01b0386166000908152602080526040902054611a1d565b865b6001600160a01b0387166000908152602080526040812080549293508392909190611a499084906142f1565b9250508190555080601a6000828254611a6291906142f1565b909155505060155460405163a9059cbb60e01b8152336004820152602481018690526001600160a01b039091169063a9059cbb906044016020604051808303816000875af1158015611ab8573d6000803e3d6000fd5b505050506040513d601f19601f82011682018060405250810190611adc9190614430565b611b1f5760405162461bcd60e51b81526020600482015260146024820152731d5cd918c81d1c985b9cd9995c8819985a5b195960621b60448201526064016109aa565b600080516020614541833981519152600954600a54604051611b4b929190918252602082015260400190565b60405180910390a1856001600160a01b03166000805160206145218339815191528886856001604051611b8194939291906144a5565b60405180910390a242600d5543600655611b996131f6565b509195945050505050565b6018546001600160a01b03163314611bce5760405162461bcd60e51b81526004016109aa90614366565b6007805461ff0019169055565b600081600003611bed57506000919050565b600a54821115611c3f5760405162461bcd60e51b815260206004820152601f60248201527f496e73756666696369656e74206d61696e20746f6b656e20726573657276650060448201526064016109aa565b600082600a54611c4f91906142f1565b90506000600a54600954611c639190614304565b9050600082611c7a83670de0b6b3a7640000614304565b611c849190614344565b90506000600954670de0b6b3a764000083611c9f9190614344565b611ca991906142f1565b905060008111611cf25760405162461bcd60e51b8152602060048201526014602482015273125b9d985b1a59081d1bdad95b88185b5bdd5b9d60621b60448201526064016109aa565b95945050505050565b6015546001600160a01b03163314611d3f5760405162461bcd60e51b815260206004820152600760248201526613db9b1e48135560ca1b60448201526064016109aa565b6000606460115486611d519190614304565b611d5b9190614344565b90508060096000828254611d6f91906142f1565b9250508190555083600a6000828254611d8891906142f1565b90915550506015546001600160a01b031660009081526020819052604081208054879290611db79084906142f1565b90915550503060009081526020819052604081208054839290611ddb9084906142f1565b90915550506011548590606490611df29083614304565b611dfc9190614344565b611e06919061431b565b60056000828254611e1791906142f1565b90915550508115611f10576001600160a01b038316600090815260208052604090205415611ed257611e4883612e5e565b6001600160a01b0383166000908152602080526040812054861115611e84576001600160a01b0384166000908152602080526040902054611e86565b855b6001600160a01b0385166000908152602080526040812080549293508392909190611eb29084906142f1565b9250508190555080601a6000828254611ecb91906142f1565b9091555050505b826001600160a01b03166000805160206145218339815191528686611ef56123e9565b6003604051611f0794939291906144a5565b60405180910390a25b600080516020614541833981519152600954600a54604051611747929190918252602082015260400190565b60008111611f7d5760405162461bcd60e51b815260206004820152600e60248201526d63616e6e6f74206265207a65726f60901b60448201526064016109aa565b6014546040516323b872dd60e01b81526001600160a01b03909116906323b872dd90611fb19033903090869060040161440c565b6020604051808303816000875af1158015611fd0573d6000803e3d6000fd5b505050506040513d601f19601f82011682018060405250810190611ff49190614430565b6120105760405162461bcd60e51b81526004016109aa9061447c565b601a541580612022575060075460ff16155b156120bf5760145460175460405163a9059cbb60e01b81526001600160a01b0391821660048201526024810184905291169063a9059cbb906044016020604051808303816000875af115801561207c573d6000803e3d6000fd5b505050506040513d601f19601f820116820180604052508101906120a09190614430565b6120bc5760405162461bcd60e51b81526004016109aa9061447c565b50565b42601c55601a54601954600091906120d79084614304565b6120e19190614344565b905080601b60008282546120f5919061431b565b909155505060408051838152602081018390527f29e98ba00d07f171959c4ddcd2f3020debc7c52cf537a034d7e664340d098c6c910160405180910390a15050565b600380546108be906142a1565b6017546001600160a01b0316331461216e5760405162461bcd60e51b81526004016109aa906144e7565b601680546001600160a01b0319166001600160a01b0392909216919091179055565b6018546001600160a01b031633146121ba5760405162461bcd60e51b81526004016109aa90614366565b6001600160a01b03811660009081526022602052604090205460ff166122225760405162461bcd60e51b815260206004820152601960248201527f57616c6c6574206973206e6f742077686974656c69737465640000000000000060448201526064016109aa565b6001600160a01b0381166000908152602260209081526040808320805460ff1916905560239091528120819055601e80549161225d83614509565b919050555050565b6000610af7338484612dcf565b6000601154606403612286576109516123e9565b60006122a960645b6122a3670de0b6b3a764000060115490613345565b90613354565b9050670de0b6b3a764000060006122ca826122c48186613354565b9061336c565b905060006122e26122da60095490565b600b546122a3565b905060006122f46122f161136d565b90565b90506000612302838561337b565b905060006123108284613345565b9050600061238e601560009054906101000a90046001600160a01b03166001600160a01b0316634b94f50e6040518163ffffffff1660e01b8152600401602060405180830381865afa15801561236a573d6000803e3d6000fd5b505050506040513d601f19601f820116820180604052508101906122f191906143f3565b9050600061239c8383613345565b9050806123b2670de0b6b3a76400006001614304565b8111156123c7579a9950505050505050505050565b6123da670de0b6b3a76400006001614304565b9a505050505050505050505090565b6000670de0b6b3a7640000600860009054906101000a90046001600160a01b03166001600160a01b0316634b94f50e6040518163ffffffff1660e01b8152600401602060405180830381865afa158015612447573d6000803e3d6000fd5b505050506040513d601f19601f8201168201806040525081019061246b91906143f3565b600954600a5461248390670de0b6b3a7640000614304565b61248d9190614344565b6113889190614304565b6016546000906001600160a01b031633146124c45760405162461bcd60e51b81526004016109aa906143d0565b60075460ff1661250b5760405162461bcd60e51b81526020600482015260126024820152711a185cc81b9bdd08189bdb991959081e595d60721b60448201526064016109aa565b600754640100000000900460ff161561255e5760405162461bcd60e51b81526020600482015260156024820152741d1bdad95b881a185cc81899595b8818db1bdcd959605a1b60448201526064016109aa565b6015546040516323b872dd60e01b81526001600160a01b03909116906323b872dd906125929033903090889060040161440c565b6020604051808303816000875af11580156125b1573d6000803e3d6000fd5b505050506040513d601f19601f820116820180604052508101906125d59190614430565b6125f15760405162461bcd60e51b81526004016109aa9061444d565b60006125fc84611392565b905060006064601154836126109190614304565b61261a9190614344565b9050612626818361431b565b60056000828254612637919061431b565b909155506126479050818361431b565b306000908152602081905260408120805490919061266690849061431b565b90915550600090506126766123e9565b905085600a600082825461268a919061431b565b9250508190555081600960008282546126a3919061431b565b909155505060405163a9059cbb60e01b815233600482015260248101849052309063a9059cbb906044016020604051808303816000875af11580156126ec573d6000803e3d6000fd5b505050506040513d601f19601f820116820180604052508101906127109190614430565b61272c5760405162461bcd60e51b81526004016109aa9061447c565b600080516020614541833981519152600954600a54604051612758929190918252602082015260400190565b60405180910390a1846001600160a01b0316600080516020614521833981519152848884600060405161278e94939291906144a5565b60405180910390a2505042600d55436006559392505050565b6000816000036127b957506000919050565b60095482111561280b5760405162461bcd60e51b815260206004820152601a60248201527f496e73756666696369656e7420746f6b656e207265736572766500000000000060448201526064016109aa565b60008260095461281b91906142f1565b90506000600a5460095461282f9190614304565b905060008261284683670de0b6b3a7640000614304565b6128509190614344565b90506000600a54670de0b6b3a76400008361286b9190614344565b61287591906142f1565b905060008111611cf25760405162461bcd60e51b815260206004820152601960248201527f496e76616c6964206d61696e20746f6b656e20616d6f756e740000000000000060448201526064016109aa565b6000670de0b6b3a7640000601560009054906101000a90046001600160a01b03166001600160a01b0316634b94f50e6040518163ffffffff1660e01b8152600401602060405180830381865afa158015612925573d6000803e3d6000fd5b505050506040513d601f19601f8201168201806040525081019061294991906143f3565b60105461295e90670de0b6b3a7640000614304565b6129689190614344565b6109519190614304565b60006011546064036129865761095161136d565b6000612992606461228e565b9050670de0b6b3a764000060006129ad826122c48186613354565b905060006129bd6122da60095490565b905060006129cc6122f161136d565b905060006129da838561337b565b905060006129e88284613345565b905060008190506000600b54600c54670de0b6b3a7640000612a0a9190614304565b612a149190614344565b9050808210612a2a575098975050505050505050565b9998505050505050505050565b6016546000906001600160a01b03163314612a645760405162461bcd60e51b81526004016109aa906143d0565b60075460ff1615612ab25760405162461bcd60e51b8152602060048201526018602482015277151bdad95b881a185cc8185b1c9958591e48189bdb99195960421b60448201526064016109aa565b6040516323b872dd60e01b815230906323b872dd90612ad99033908490889060040161440c565b6020604051808303816000875af1158015612af8573d6000803e3d6000fd5b505050506040513d601f19601f82011682018060405250810190612b1c9190614430565b612b385760405162461bcd60e51b81526004016109aa9061444d565b600754640100000000900460ff1615612b64576000670de0b6b3a7640000846012546118859190614304565b6000612b6f84610a18565b90506000606460115486612b839190614304565b612b8d9190614344565b9050612b99818661431b565b60056000828254612baa91906142f1565b90915550612bba9050818661431b565b3060009081526020819052604081208054909190612bd99084906142f1565b9091555060009050612be96123e9565b905082600a6000828254612bfd91906142f1565b925050819055508160096000828254612c1691906142f1565b90915550506001600160a01b0385166000908152602080526040812054871115612c57576001600160a01b0386166000908152602080526040902054612c59565b865b6001600160a01b0387166000908152602080526040812080549293508392909190612c859084906142f1565b9250508190555080601a6000828254612c9e91906142f1565b909155505060155460405163a9059cbb60e01b8152336004820152602481018690526001600160a01b039091169063a9059cbb906044016020604051808303816000875af1158015612cf4573d6000803e3d6000fd5b505050506040513d601f19601f82011682018060405250810190612d189190614430565b611b1f5760405162461bcd60e51b81526004016109aa9061447c565b6017546001600160a01b03163314612d5e5760405162461bcd60e51b81526004016109aa906144e7565b6001600160a01b038116612dad5760405162461bcd60e51b8152602060048201526016602482015275506c6561736520646f206e6f742072656e6f756e636560501b60448201526064016109aa565b601780546001600160a01b0319166001600160a01b0392909216919091179055565b6001600160a01b03831660009081526020805260408120548015612e5357612df685612e5e565b6000818411612e055783612e07565b815b6001600160a01b0387166000908152602080526040812080549293508392909190612e339084906142f1565b9250508190555080601a6000828254612e4c91906142f1565b9091555050505b611cf2858585613022565b6001600160a01b03811660009081526021602090815260408083205491805290912054601b54612e8e9190614304565b8110612e98575050565b600060195482601b54612eab91906142f1565b6001600160a01b0385166000908152602080526040902054612ecd9190614304565b612ed79190614344565b6001600160a01b0384166000908152601f6020526040812080549293508392909190612f0490849061431b565b9091555050601b546001600160a01b038481166000818152602160205260409081902093909355601454925163a9059cbb60e01b815260048101919091526024810184905291169063a9059cbb906044016020604051808303816000875af1158015612f74573d6000803e3d6000fd5b505050506040513d601f19601f82011682018060405250810190612f989190614430565b612fdb5760405162461bcd60e51b81526020600482015260146024820152731554d110881d1c985b9cd9995c8819985a5b195960621b60448201526064016109aa565b604080516001600160a01b0385168152602081018390527ffc30cddea38e2bf4d6ea7d3f9ed3b6ad7f176419f4963bd81318067a4aee73fe910160405180910390a1505050565b60006001600160a01b03831661307a5760405162461bcd60e51b815260206004820152601f60248201527f43616e6e6f74207472616e7366657220746f207a65726f20616464726573730060448201526064016109aa565b826001600160a01b0316846001600160a01b0316036130db5760405162461bcd60e51b815260206004820152601760248201527f43616e6e6f74207472616e7366657220746f2073656c6600000000000000000060448201526064016109aa565b6001600160a01b0384166000908152602081905260409020548211156131435760405162461bcd60e51b815260206004820152601a60248201527f496e73756666696369656e7420746f6b656e2062616c616e636500000000000060448201526064016109aa565b6001600160a01b0384166000908152602081905260408120805484929061316b9084906142f1565b90915550506001600160a01b0383166000908152602081905260408120805484929061319890849061431b565b92505081905550826001600160a01b0316846001600160a01b03167fddf252ad1be2c89b69c2b068fc378daa952ba7f163c4a11628f55a4df523b3ef846040516131e491815260200190565b60405180910390a35060019392505050565b6000613200612972565b90506000600b54600c54670de0b6b3a764000061321d9190614304565b6132279190614344565b90506000818311613239576000613243565b61324382846142f1565b9050670de0b6b3a7640000600c548261325c9190614304565b6132669190614344565b9050600081118015613279575060135481115b1561334057606461328b826063614304565b6132959190614344565b9050601354816132a591906142f1565b905080601360008282546132b9919061431b565b909155505060155460175460405163a9059cbb60e01b81526001600160a01b0391821660048201526024810184905291169063a9059cbb906044016020604051808303816000875af1158015613313573d6000803e3d6000fd5b505050506040513d601f19601f820116820180604052508101906133379190614430565b61334057600080fd5b505050565b6000610af76122f1848461348d565b6000610af76122f184670de0b6b3a764000085613543565b6000610af76122f183856142f1565b600082828183036133a657801561339357600061339d565b670de0b6b3a76400005b92505050610a12565b670de0b6b3a764000082036133c757670de0b6b3a764000092505050610a12565b806000036133e157670de0b6b3a764000092505050610a12565b670de0b6b3a764000081036133fa578492505050610a12565b670de0b6b3a764000082111561342b5761342461341f61341987613617565b86613345565b61374a565b9250613485565b60006134496122f1846ec097ce7bc90715b34b9f1000000000614344565b9050600061346261341f61345c84613617565b88613345565b90506134806122f1826ec097ce7bc90715b34b9f1000000000614344565b945050505b505092915050565b60008080600019848609848602925082811083820303915050806000036134c15750670de0b6b3a764000090049050610a12565b670de0b6b3a764000081106134f357604051635173648d60e01b815260048101869052602481018590526044016109aa565b6000670de0b6b3a764000085870962040000818503049310909103600160ee1b02919091177faccb18165bd6fe31ae1cf318dc5b51eee0e1ba569b88cd74c1773b91fac106690291505092915050565b600080806000198587098587029250828110838203039150508060000361357d578382816135735761357361432e565b0492505050610af7565b8381106135ae57604051630c740aef60e31b81526004810187905260248101869052604481018590526064016109aa565b60008486880960026001871981018816978890046003810283188082028403028082028403028082028403028082028403028082028403029081029092039091026000889003889004909101858311909403939093029303949094049190911702949350505050565b600081670de0b6b3a76400008110156136465760405163036d32ef60e41b8152600481018490526024016109aa565b60006136d2670de0b6b3a7640000830460016fffffffffffffffffffffffffffffffff821160071b91821c67ffffffffffffffff811160061b90811c63ffffffff811160051b90811c61ffff811160041b90811c60ff8111600390811b91821c600f811160021b90811c918211871b91821c969096119490961792909217171791909117919091171790565b9050670de0b6b3a7640000810282821c670de0b6b3a763ffff1981016136fb5750949350505050565b671bc16d674ec800006706f05b59d3b200005b801561373e57670de0b6b3a7640000838002049250818310613736579283019260019290921c915b60011c61370e565b50919695505050505050565b600081680a688906bd8affffff81111561377a5760405163b3b6ba1f60e01b8152600481018490526024016109aa565b6000613792670de0b6b3a7640000604084901b614344565b9050610a586122f182600160bf1b67ff000000000000008216156138a8576780000000000000008216156137cf5768016a09e667f3bcc9090260401c5b6740000000000000008216156137ee576801306fe0a31b7152df0260401c5b67200000000000000082161561380d576801172b83c7d517adce0260401c5b67100000000000000082161561382c5768010b5586cf9890f62a0260401c5b67080000000000000082161561384b576801059b0d31585743ae0260401c5b67040000000000000082161561386a57680102c9a3e778060ee70260401c5b6702000000000000008216156138895768010163da9fb33356d80260401c5b6701000000000000008216156138a857680100b1afa5abcbed610260401c5b66ff0000000000008216156139a75766800000000000008216156138d55768010058c86da1c09ea20260401c5b66400000000000008216156138f3576801002c605e2e8cec500260401c5b662000000000000082161561391157680100162f3904051fa10260401c5b661000000000000082161561392f576801000b175effdc76ba0260401c5b660800000000000082161561394d57680100058ba01fb9f96d0260401c5b660400000000000082161561396b5768010002c5cc37da94920260401c5b6602000000000000821615613989576801000162e525ee05470260401c5b66010000000000008216156139a75768010000b17255775c040260401c5b65ff0000000000821615613a9d57658000000000008216156139d2576801000058b91b5bc9ae0260401c5b654000000000008216156139ef57680100002c5c89d5ec6d0260401c5b65200000000000821615613a0c5768010000162e43f4f8310260401c5b65100000000000821615613a2957680100000b1721bcfc9a0260401c5b65080000000000821615613a465768010000058b90cf1e6e0260401c5b65040000000000821615613a63576801000002c5c863b73f0260401c5b65020000000000821615613a8057680100000162e430e5a20260401c5b65010000000000821615613a9d576801000000b1721835510260401c5b64ff00000000821615613b8a57648000000000821615613ac657680100000058b90c0b490260401c5b644000000000821615613ae25768010000002c5c8601cc0260401c5b642000000000821615613afe576801000000162e42fff00260401c5b641000000000821615613b1a5768010000000b17217fbb0260401c5b640800000000821615613b36576801000000058b90bfce0260401c5b640400000000821615613b5257680100000002c5c85fe30260401c5b640200000000821615613b6e5768010000000162e42ff10260401c5b640100000000821615613b8a57680100000000b17217f80260401c5b63ff000000821615613c6e576380000000821615613bb15768010000000058b90bfc0260401c5b6340000000821615613bcc576801000000002c5c85fe0260401c5b6320000000821615613be757680100000000162e42ff0260401c5b6310000000821615613c02576801000000000b17217f0260401c5b6308000000821615613c1d57680100000000058b90c00260401c5b6304000000821615613c385768010000000002c5c8600260401c5b6302000000821615613c53576801000000000162e4300260401c5b6301000000821615613c6e5768010000000000b172180260401c5b62ff0000821615613d495762800000821615613c93576801000000000058b90c0260401c5b62400000821615613cad57680100000000002c5c860260401c5b62200000821615613cc75768010000000000162e430260401c5b62100000821615613ce157680100000000000b17210260401c5b62080000821615613cfb5768010000000000058b910260401c5b62040000821615613d15576801000000000002c5c80260401c5b62020000821615613d2f57680100000000000162e40260401c5b62010000821615613d49576801000000000000b1720260401c5b61ff00821615613e1b57618000821615613d6c57680100000000000058b90260401c5b614000821615613d855768010000000000002c5d0260401c5b612000821615613d9e576801000000000000162e0260401c5b611000821615613db75768010000000000000b170260401c5b610800821615613dd0576801000000000000058c0260401c5b610400821615613de957680100000000000002c60260401c5b610200821615613e0257680100000000000001630260401c5b610100821615613e1b57680100000000000000b10260401c5b60ff821615613ee4576080821615613e3c57680100000000000000590260401c5b6040821615613e54576801000000000000002c0260401c5b6020821615613e6c57680100000000000000160260401c5b6010821615613e84576801000000000000000b0260401c5b6008821615613e9c57680100000000000000060260401c5b6004821615613eb457680100000000000000030260401c5b6002821615613ecc57680100000000000000010260401c5b6001821615613ee457680100000000000000010260401c5b670de0b6b3a76400000260409190911c60bf031c90565b6000815180845260005b81811015613f2157602081850181015186830182015201613f05565b506000602082860101526020601f19601f83011685010191505092915050565b602081526000610af76020830184613efb565b80356001600160a01b0381168114613f6b57600080fd5b919050565b60008060408385031215613f8357600080fd5b613f8c83613f54565b946020939093013593505050565b600060208284031215613fac57600080fd5b5035919050565b600080600060608486031215613fc857600080fd5b613fd184613f54565b9250613fdf60208501613f54565b9150604084013590509250925092565b634e487b7160e01b600052604160045260246000fd5b604051601f8201601f1916810167ffffffffffffffff8111828210171561402e5761402e613fef565b604052919050565b600082601f83011261404757600080fd5b813567ffffffffffffffff81111561406157614061613fef565b614074601f8201601f1916602001614005565b81815284602083860101111561408957600080fd5b816020850160208301376000918101602001919091529392505050565b6000806000606084860312156140bb57600080fd5b833567ffffffffffffffff808211156140d357600080fd5b818601915086601f8301126140e757600080fd5b81356020828211156140fb576140fb613fef565b8160051b61410a828201614005565b928352848101820192828101908b85111561412457600080fd5b958301955b848710156141495761413a87613f54565b82529583019590830190614129565b98505050870135945050604086013591508082111561416757600080fd5b5061417486828701614036565b9150509250925092565b60006020828403121561419057600080fd5b610af782613f54565b600080604083850312156141ac57600080fd5b823591506141bc60208401613f54565b90509250929050565b80151581146120bc57600080fd5b6000602082840312156141e557600080fd5b8135610af7816141c5565b6000806000806080858703121561420657600080fd5b84359350602085013592506040850135915061422460608601613f54565b905092959194509250565b6000806000806080858703121561424557600080fd5b843593506020850135925061425c60408601613f54565b9150606085013561426c816141c5565b939692955090935050565b6000806040838503121561428a57600080fd5b61429383613f54565b91506141bc60208401613f54565b600181811c908216806142b557607f821691505b6020821081036142d557634e487b7160e01b600052602260045260246000fd5b50919050565b634e487b7160e01b600052601160045260246000fd5b81810381811115610a1257610a126142db565b8082028115828204841417610a1257610a126142db565b80820180821115610a1257610a126142db565b634e487b7160e01b600052601260045260246000fd5b60008261436157634e487b7160e01b600052601260045260246000fd5b500490565b60208082526008908201526727b7363c902222ab60c11b604082015260600190565b634e487b7160e01b600052603260045260246000fd5b6000600182016143b0576143b06142db565b5060010190565b828152604060208201526000610af46040830184613efb565b60208082526009908201526804f6e6c7920535741560bc1b604082015260600190565b60006020828403121561440557600080fd5b5051919050565b6001600160a01b039384168152919092166020820152604081019190915260600190565b60006020828403121561444257600080fd5b8151610af7816141c5565b6020808252601590820152741d1bdad95b881d1c985b9cd9995c8819985a5b1959605a1b604082015260600190565b6020808252600f908201526e1d1c985b9cd9995c8819985a5b1959608a1b604082015260600190565b848152602081018490526040810183905260808101600483106144d857634e487b7160e01b600052602160045260246000fd5b82606083015295945050505050565b6020808252600890820152674f6e6c792043454f60c01b604082015260600190565b600081614518576145186142db565b50600019019056fe9e6418c1a84f09aeec42d9250d950a69cf14713e07b3046b4ea8dc3de218806ecf2aa50876cdfbb541206f89af0ee78d44a2abf8d328e37fa4917f982149848aa264697066735822122031588f825f59eeb6fb73e624586cd35df089197b5fd87178f4244b1c7966582a64736f6c63430008180033a264697066735822122050b3d574496c5b713903639c7e8d5c21ad8a6201cfcc35672d4562fa3c1d5d5064736f6c63430008180033",
  "linkReferences": {},
  "deployedLinkReferences": {}
}