{
  "_format": "hh-sol-artifact-1",
  "contractName": "bUSDC",
  "sourceName": "contracts/bUSDC.sol",
  "abi": [
    {
      "inputs": [],
      "stateMutability": "nonpayable",
      "type": "constructor"
    },
    {
      "anonymous": false,
      "inputs": [
        {
          "indexed": true,
          "internalType": "address",
          "name": "owner",
          "type": "address"
        },
        {
          "indexed": true,
          "internalType": "address",
          "name": "spender",
          "type": "address"
        },
        {
          "indexed": false,
          "internalType": "uint256",
          "name": "value",
          "type": "uint256"
        }
      ],
      "name": "Approval",
      "type": "event"
    },
    {
      "anonymous": false,
      "inputs": [
        {
          "indexed": true,
          "internalType": "address",
          "name": "user",
          "type": "address"
        },
        {
          "indexed": true,
          "internalType": "address",
          "name": "referrer",
          "type": "address"
        }
      ],
      "name": "FaucetClaimed",
      "type": "event"
    },
    {
      "anonymous": false,
      "inputs": [
        {
          "indexed": true,
          "internalType": "address",
          "name": "previousOwner",
          "type": "address"
        },
        {
          "indexed": true,
          "internalType": "address",
          "name": "newOwner",
          "type": "address"
        }
      ],
      "name": "OwnershipTransferred",
      "type": "event"
    },
    {
      "anonymous": false,
      "inputs": [
        {
          "indexed": true,
          "internalType": "address",
          "name": "user",
          "type": "address"
        },
        {
          "indexed": true,
          "internalType": "address",
          "name": "referrer",
          "type": "address"
        }
      ],
      "name": "ReferrerSet",
      "type": "event"
    },
    {
      "anonymous": false,
      "inputs": [
        {
          "indexed": true,
          "internalType": "address",
          "name": "from",
          "type": "address"
        },
        {
          "indexed": true,
          "internalType": "address",
          "name": "to",
          "type": "address"
        },
        {
          "indexed": false,
          "internalType": "uint256",
          "name": "value",
          "type": "uint256"
        }
      ],
      "name": "Transfer",
      "type": "event"
    },
    {
      "inputs": [],
      "name": "FAUCET_AMOUNT",
      "outputs": [
        {
          "internalType": "uint256",
          "name": "",
          "type": "uint256"
        }
      ],
      "stateMutability": "view",
      "type": "function"
    },
    {
      "inputs": [
        {
          "internalType": "address",
          "name": "owner",
          "type": "address"
        },
        {
          "internalType": "address",
          "name": "spender",
          "type": "address"
        }
      ],
      "name": "allowance",
      "outputs": [
        {
          "internalType": "uint256",
          "name": "",
          "type": "uint256"
        }
      ],
      "stateMutability": "view",
      "type": "function"
    },
    {
      "inputs": [
        {
          "internalType": "address",
          "name": "spender",
          "type": "address"
        },
        {
          "internalType": "uint256",
          "name": "amount",
          "type": "uint256"
        }
      ],
      "name": "approve",
      "outputs": [
        {
          "internalType": "bool",
          "name": "",
          "type": "bool"
        }
      ],
      "stateMutability": "nonpayable",
      "type": "function"
    },
    {
      "inputs": [
        {
          "internalType": "address",
          "name": "account",
          "type": "address"
        }
      ],
      "name": "balanceOf",
      "outputs": [
        {
          "internalType": "uint256",
          "name": "",
          "type": "uint256"
        }
      ],
      "stateMutability": "view",
      "type": "function"
    },
    {
      "inputs": [],
      "name": "decimals",
      "outputs": [
        {
          "internalType": "uint8",
          "name": "",
          "type": "uint8"
        }
      ],
      "stateMutability": "view",
      "type": "function"
    },
    {
      "inputs": [
        {
          "internalType": "address",
          "name": "spender",
          "type": "address"
        },
        {
          "internalType": "uint256",
          "name": "subtractedValue",
          "type": "uint256"
        }
      ],
      "name": "decreaseAllowance",
      "outputs": [
        {
          "internalType": "bool",
          "name": "",
          "type": "bool"
        }
      ],
      "stateMutability": "nonpayable",
      "type": "function"
    },
    {
      "inputs": [
        {
          "internalType": "address",
          "name": "_referrer",
          "type": "address"
        }
      ],
      "name": "faucet",
      "outputs": [],
      "stateMutability": "nonpayable",
      "type": "function"
    },
    {
      "inputs": [
        {
          "internalType": "address",
          "name": "",
          "type": "address"
        }
      ],
      "name": "hasClaimed",
      "outputs": [
        {
          "internalType": "bool",
          "name": "",
          "type": "bool"
        }
      ],
      "stateMutability": "view",
      "type": "function"
    },
    {
      "inputs": [
        {
          "internalType": "address",
          "name": "",
          "type": "address"
        }
      ],
      "name": "hasReferrer",
      "outputs": [
        {
          "internalType": "bool",
          "name": "",
          "type": "bool"
        }
      ],
      "stateMutability": "view",
      "type": "function"
    },
    {
      "inputs": [
        {
          "internalType": "address",
          "name": "spender",
          "type": "address"
        },
        {
          "internalType": "uint256",
          "name": "addedValue",
          "type": "uint256"
        }
      ],
      "name": "increaseAllowance",
      "outputs": [
        {
          "internalType": "bool",
          "name": "",
          "type": "bool"
        }
      ],
      "stateMutability": "nonpayable",
      "type": "function"
    },
    {
      "inputs": [
        {
          "internalType": "address",
          "name": "to",
          "type": "address"
        },
        {
          "internalType": "uint256",
          "name": "amount",
          "type": "uint256"
        }
      ],
      "name": "mint",
      "outputs": [],
      "stateMutability": "nonpayable",
      "type": "function"
    },
    {
      "inputs": [],
      "name": "name",
      "outputs": [
        {
          "internalType": "string",
          "name": "",
          "type": "string"
        }
      ],
      "stateMutability": "view",
      "type": "function"
    },
    {
      "inputs": [],
      "name": "owner",
      "outputs": [
        {
          "internalType": "address",
          "name": "",
          "type": "address"
        }
      ],
      "stateMutability": "view",
      "type": "function"
    },
    {
      "inputs": [
        {
          "internalType": "address",
          "name": "",
          "type": "address"
        }
      ],
      "name": "referrer",
      "outputs": [
        {
          "internalType": "address",
          "name": "",
          "type": "address"
        }
      ],
      "stateMutability": "view",
      "type": "function"
    },
    {
      "inputs": [],
      "name": "renounceOwnership",
      "outputs": [],
      "stateMutability": "nonpayable",
      "type": "function"
    },
    {
      "inputs": [],
      "name": "rescueETH",
      "outputs": [],
      "stateMutability": "nonpayable",
      "type": "function"
    },
    {
      "inputs": [
        {
          "internalType": "address",
          "name": "token",
          "type": "address"
        },
        {
          "internalType": "uint256",
          "name": "amount",
          "type": "uint256"
        }
      ],
      "name": "rescueTokens",
      "outputs": [],
      "stateMutability": "nonpayable",
      "type": "function"
    },
    {
      "inputs": [
        {
          "internalType": "address",
          "name": "_referrer",
          "type": "address"
        }
      ],
      "name": "setReferrer",
      "outputs": [],
      "stateMutability": "nonpayable",
      "type": "function"
    },
    {
      "inputs": [],
      "name": "symbol",
      "outputs": [
        {
          "internalType": "string",
          "name": "",
          "type": "string"
        }
      ],
      "stateMutability": "view",
      "type": "function"
    },
    {
      "inputs": [],
      "name": "totalSupply",
      "outputs": [
        {
          "internalType": "uint256",
          "name": "",
          "type": "uint256"
        }
      ],
      "stateMutability": "view",
      "type": "function"
    },
    {
      "inputs": [
        {
          "internalType": "address",
          "name": "to",
          "type": "address"
        },
        {
          "internalType": "uint256",
          "name": "amount",
          "type": "uint256"
        }
      ],
      "name": "transfer",
      "outputs": [
        {
          "internalType": "bool",
          "name": "",
          "type": "bool"
        }
      ],
      "stateMutability": "nonpayable",
      "type": "function"
    },
    {
      "inputs": [
        {
          "internalType": "address",
          "name": "from",
          "type": "address"
        },
        {
          "internalType": "address",
          "name": "to",
          "type": "address"
        },
        {
          "internalType": "uint256",
          "name": "amount",
          "type": "uint256"
        }
      ],
      "name": "transferFrom",
      "outputs": [
        {
          "internalType": "bool",
          "name": "",
          "type": "bool"
        }
      ],
      "stateMutability": "nonpayable",
      "type": "function"
    },
    {
      "inputs": [
        {
          "internalType": "address",
          "name": "newOwner",
          "type": "address"
        }
      ],
      "name": "transferOwnership",
      "outputs": [],
      "stateMutability": "nonpayable",
      "type": "function"
    }
  ],
  "bytecode": "0x60806040523480156200001157600080fd5b5060405180604001604052806009815260200168109054d254c81554d160ba1b815250604051806040016040528060048152602001632aa9a22160e11b81525081600390816200006291906200027d565b5060046200007182826200027d565b5050506200008e62000088620000b660201b60201c565b620000ba565b620000b033620000aa670de0b6b3a7640000620f42406200035f565b6200010c565b62000395565b3390565b600580546001600160a01b038381166001600160a01b0319831681179093556040519116919082907f8be0079c531659141344cd1fd0a4f28419497f9722a3daafe3b4186f6b6457e090600090a35050565b6001600160a01b038216620001675760405162461bcd60e51b815260206004820152601f60248201527f45524332303a206d696e7420746f20746865207a65726f206164647265737300604482015260640160405180910390fd5b80600260008282546200017b91906200037f565b90915550506001600160a01b038216600081815260208181526040808320805486019055518481527fddf252ad1be2c89b69c2b068fc378daa952ba7f163c4a11628f55a4df523b3ef910160405180910390a35050565b505050565b634e487b7160e01b600052604160045260246000fd5b600181811c908216806200020257607f821691505b6020821081036200022357634e487b7160e01b600052602260045260246000fd5b50919050565b601f821115620001d2576000816000526020600020601f850160051c81016020861015620002545750805b601f850160051c820191505b81811015620002755782815560010162000260565b505050505050565b81516001600160401b03811115620002995762000299620001d7565b620002b181620002aa8454620001ed565b8462000229565b602080601f831160018114620002e95760008415620002d05750858301515b600019600386901b1c1916600185901b17855562000275565b600085815260208120601f198616915b828110156200031a57888601518255948401946001909101908401620002f9565b5085821015620003395787850151600019600388901b60f8161c191681555b5050505050600190811b01905550565b634e487b7160e01b600052601160045260246000fd5b808202811582820484141762000379576200037962000349565b92915050565b8082018082111562000379576200037962000349565b61116b80620003a56000396000f3fe608060405234801561001057600080fd5b506004361061014d5760003560e01c806370a08231116100c3578063a18a7bfc1161007c578063a18a7bfc146102e3578063a457c2d7146102f6578063a9059cbb14610309578063b86d1d631461031c578063dd62ed3e1461032f578063f2fde38b1461034257600080fd5b806370a082311461026e578063715018a61461029757806373b2e80e1461029f57806376697640146102c25780638da5cb5b146102ca57806395d89b41146102db57600080fd5b806323b872dd1161011557806323b872dd146101d25780632cf003c2146101e5578063313ce56714610226578063395093511461023557806340c10f1914610248578063573761981461025b57600080fd5b806306fdde0314610152578063095ea7b31461017057806318160ddd1461019357806318452cd8146101a557806320800a00146101c8575b600080fd5b61015a610355565b6040516101679190610f95565b60405180910390f35b61018361017e366004610fe4565b6103e7565b6040519015158152602001610167565b6002545b604051908152602001610167565b6101836101b336600461100e565b60086020526000908152604090205460ff1681565b6101d0610401565b005b6101836101e0366004611030565b610496565b61020e6101f336600461100e565b6007602052600090815260409020546001600160a01b031681565b6040516001600160a01b039091168152602001610167565b60405160128152602001610167565b610183610243366004610fe4565b6104ba565b6101d0610256366004610fe4565b6104dc565b6101d0610269366004610fe4565b6104f2565b61019761027c36600461100e565b6001600160a01b031660009081526020819052604090205490565b6101d0610620565b6101836102ad36600461100e565b60066020526000908152604090205460ff1681565b610197610634565b6005546001600160a01b031661020e565b61015a61064b565b6101d06102f136600461100e565b61065a565b610183610304366004610fe4565b610704565b610183610317366004610fe4565b61077f565b6101d061032a36600461100e565b61078d565b61019761033d36600461106c565b610868565b6101d061035036600461100e565b610893565b6060600380546103649061109f565b80601f01602080910402602001604051908101604052809291908181526020018280546103909061109f565b80156103dd5780601f106103b2576101008083540402835291602001916103dd565b820191906000526020600020905b8154815290600101906020018083116103c057829003601f168201915b5050505050905090565b6000336103f5818585610909565b60019150505b92915050565b610409610a2d565b604051600090339047908381818185875af1925050503d806000811461044b576040519150601f19603f3d011682016040523d82523d6000602084013e610450565b606091505b50509050806104935760405162461bcd60e51b815260206004820152600a6024820152691155120819985a5b195960b21b60448201526064015b60405180910390fd5b50565b6000336104a4858285610a87565b6104af858585610b01565b506001949350505050565b6000336103f58185856104cd8383610868565b6104d791906110ef565b610909565b6104e4610a2d565b6104ee8282610ca5565b5050565b6104fa610a2d565b6001600160a01b0382166105405760405162461bcd60e51b815260206004820152600d60248201526c24b73b30b634b2103a37b5b2b760991b604482015260640161048a565b604051336024820152604481018290526000906001600160a01b0384169060640160408051601f198184030181529181526020820180516001600160e01b031663a9059cbb60e01b179052516105969190611102565b6000604051808303816000865af19150503d80600081146105d3576040519150601f19603f3d011682016040523d82523d6000602084013e6105d8565b606091505b505090508061061b5760405162461bcd60e51b815260206004820152600f60248201526e151c985b9cd9995c8819985a5b1959608a1b604482015260640161048a565b505050565b610628610a2d565b6106326000610d64565b565b610648670de0b6b3a764000061271061111e565b81565b6060600480546103649061109f565b3360009081526008602052604090205460ff16156106b15760405162461bcd60e51b8152602060048201526014602482015273149959995c9c995c88185b1c9958591e481cd95d60621b604482015260640161048a565b6001600160a01b0381166106fa5760405162461bcd60e51b815260206004820152601060248201526f24b73b30b634b2103932b332b93932b960811b604482015260640161048a565b6104933382610db6565b600033816107128286610868565b9050838110156107725760405162461bcd60e51b815260206004820152602560248201527f45524332303a2064656372656173656420616c6c6f77616e63652062656c6f77604482015264207a65726f60d81b606482015260840161048a565b6104af8286868403610909565b6000336103f5818585610b01565b3360009081526006602052604090205460ff16156107df5760405162461bcd60e51b815260206004820152600f60248201526e105b1c9958591e4818db185a5b5959608a1b604482015260640161048a565b336000908152600660205260409020805460ff191660011790556001600160a01b03811615610812576108123382610db6565b61082f3361082a670de0b6b3a764000061271061111e565b610ca5565b6040516001600160a01b0382169033907fa04cff4c8514c68d5961b3538bcf4a510778530d349e0fd0ada6cd8a633de95390600090a350565b6001600160a01b03918216600090815260016020908152604080832093909416825291909152205490565b61089b610a2d565b6001600160a01b0381166109005760405162461bcd60e51b815260206004820152602660248201527f4f776e61626c653a206e6577206f776e657220697320746865207a65726f206160448201526564647265737360d01b606482015260840161048a565b61049381610d64565b6001600160a01b03831661096b5760405162461bcd60e51b8152602060048201526024808201527f45524332303a20617070726f76652066726f6d20746865207a65726f206164646044820152637265737360e01b606482015260840161048a565b6001600160a01b0382166109cc5760405162461bcd60e51b815260206004820152602260248201527f45524332303a20617070726f766520746f20746865207a65726f206164647265604482015261737360f01b606482015260840161048a565b6001600160a01b0383811660008181526001602090815260408083209487168084529482529182902085905590518481527f8c5be1e5ebec7d5bd14f71427d1e84f3dd0314c0f7b2291e5b200ac8c7c3b925910160405180910390a3505050565b6005546001600160a01b031633146106325760405162461bcd60e51b815260206004820181905260248201527f4f776e61626c653a2063616c6c6572206973206e6f7420746865206f776e6572604482015260640161048a565b6000610a938484610868565b90506000198114610afb5781811015610aee5760405162461bcd60e51b815260206004820152601d60248201527f45524332303a20696e73756666696369656e7420616c6c6f77616e6365000000604482015260640161048a565b610afb8484848403610909565b50505050565b6001600160a01b038316610b655760405162461bcd60e51b815260206004820152602560248201527f45524332303a207472616e736665722066726f6d20746865207a65726f206164604482015264647265737360d81b606482015260840161048a565b6001600160a01b038216610bc75760405162461bcd60e51b815260206004820152602360248201527f45524332303a207472616e7366657220746f20746865207a65726f206164647260448201526265737360e81b606482015260840161048a565b6001600160a01b03831660009081526020819052604090205481811015610c3f5760405162461bcd60e51b815260206004820152602660248201527f45524332303a207472616e7366657220616d6f756e7420657863656564732062604482015265616c616e636560d01b606482015260840161048a565b6001600160a01b03848116600081815260208181526040808320878703905593871680835291849020805487019055925185815290927fddf252ad1be2c89b69c2b068fc378daa952ba7f163c4a11628f55a4df523b3ef910160405180910390a3610afb565b6001600160a01b038216610cfb5760405162461bcd60e51b815260206004820152601f60248201527f45524332303a206d696e7420746f20746865207a65726f206164647265737300604482015260640161048a565b8060026000828254610d0d91906110ef565b90915550506001600160a01b038216600081815260208181526040808320805486019055518481527fddf252ad1be2c89b69c2b068fc378daa952ba7f163c4a11628f55a4df523b3ef910160405180910390a35050565b600580546001600160a01b038381166001600160a01b0319831681179093556040519116919082907f8be0079c531659141344cd1fd0a4f28419497f9722a3daafe3b4186f6b6457e090600090a35050565b816001600160a01b0316816001600160a01b031603610e0b5760405162461bcd60e51b815260206004820152601160248201527021b0b73737ba103932b332b91039b2b63360791b604482015260640161048a565b6001600160a01b03821660009081526008602052604090205460ff1615610e6b5760405162461bcd60e51b8152602060048201526014602482015273149959995c9c995c88185b1c9958591e481cd95d60621b604482015260640161048a565b8060005b600a811015610f03576001600160a01b03821615610f0357836001600160a01b0316826001600160a01b031603610edd5760405162461bcd60e51b815260206004820152601260248201527143697263756c6172207265666572656e636560701b604482015260640161048a565b6001600160a01b0391821660009081526007602052604090205490911690600101610e6f565b506001600160a01b03838116600081815260076020908152604080832080546001600160a01b03191695881695861790556008909152808220805460ff19166001179055517f5f7165288eef601591cf549e15ff19ef9060b7f71b9c115be946fa1fe7ebf68a9190a3505050565b60005b83811015610f8c578181015183820152602001610f74565b50506000910152565b6020815260008251806020840152610fb4816040850160208701610f71565b601f01601f19169190910160400192915050565b80356001600160a01b0381168114610fdf57600080fd5b919050565b60008060408385031215610ff757600080fd5b61100083610fc8565b946020939093013593505050565b60006020828403121561102057600080fd5b61102982610fc8565b9392505050565b60008060006060848603121561104557600080fd5b61104e84610fc8565b925061105c60208501610fc8565b9150604084013590509250925092565b6000806040838503121561107f57600080fd5b61108883610fc8565b915061109660208401610fc8565b90509250929050565b600181811c908216806110b357607f821691505b6020821081036110d357634e487b7160e01b600052602260045260246000fd5b50919050565b634e487b7160e01b600052601160045260246000fd5b808201808211156103fb576103fb6110d9565b60008251611114818460208701610f71565b9190910192915050565b80820281158282048414176103fb576103fb6110d956fea26469706673582212206d19e6758c5d1eeea8c61f8eaa8b886612ccddd2dd8ae82b803b4eb8d930830464736f6c63430008180033",
  "linkReferences": {},
  "deployedLinkReferences": {}
}